:100000000207559000D7EFF002105B0210095393DE
:10001000FB5394FB5393F75394F722020960222277
:0100200022BD
:10002300020A5BE709F608DFFA8046E709F208DF10
:10003300FA803E88828C83E709F0A3DFFA8032E3FB
:1000430009F608DFFA8078E309F208DFFA8070889E
:10005300828C83E309F0A3DFFA806489828A83E0D8
:10006300A3F608DFFA805889828A83E0A3F208DFC7
:10007300FA804C80D280FA80C680D4806980F28076
:1000830033801080A680EA809A80A880DA80E2809C
:10009300CA803389828A83ECFAE493A3C8C582C8F1
:1000A300CCC583CCF0A3C8C582C8CCC583CCDFE95B
:1000B300DEE7800D89828A83E493A3F608DFF9ECF7
:1000C300FAA9F0EDFB2289828A83ECFAE0A3C8C582
:1000D30082C8CCC583CCF0A3C8C582C8CCC583CCA9
:1000E300DFEADEE880DB89828A83E493A3F208DF18
:1000F300F980CC88F0EF60010E4E60C388F0ED24E8
:1001030002B4040050B9F582EB2402B4040050AFEA
:10011300232345822390007673BB010689828A8359
:10012300E0225002E722BBFE02E32289828A83E4B3
:100133009322BB010CE58229F582E5833AF583E03E
:10014300225006E92582F8E622BBFE06E92582F85D
:10015300E222E58229F582E5833AF583E49322F8E6
:10016300BB010DE58229F582E5833AF583E8F022A8
:100173005006E92582C8F622BBFE05E92582C8F2AE
:1001830022EF8DF0A4A8F0CF8CF0A428CE8DF0A49C
:100193002EFE22A3F8E0C5F025F0F0E5821582706B
:1001A300021583E0C838F0E822BB010A89828A83FA
:1001B300E0F5F0A3E022500687F009E71922BBFE21
:1001C30007E3F5F009E3192289828A83E493F5F0C2
:1001D30074019322EB9FF5F0EA9E42F0E99D42F011
:1001E300EC6480C864809845F0228A838982E47332
:1001F300E3F5F009E208B5F06BDFF58067E3F5F0AE
:1002030009E608B5F05EDFF5805A87F009E608B520
:10021300F052DFF6804E87F009E208B5F046DFF6CC
:10022300804288828C8387F009E0A3B5F036DFF63D
:10023300803288828C8387F009E493A3B5F025DFAD
:10024300F5802188828C83E3F5F009E0A3B5F014EF
:10025300DFF5801088828C83E3F5F009E493A3B57E
:10026300F002DFF4020322808780E9809080D4804B
:100273003E8015806E807E809D80B7808D80A380B8
:10028300518074803C02032E89828A83ECFAE493C2
:10029300F5F0A3C8C582C8CCC583CCE493A3C8C575
:1002A30082C8CCC583CCB5F076DFE3DEE18070890C
:1002B300828A83E493F5F0A3E208B5F062DFF48069
:1002C3005E89828A83E0F5F0A3E608B5F051DFF595
:1002D300804D89828A83E0F5F0A3E208B5F040DF20
:1002E300F5803C89828A83E493F5F0A3E608B5F0B0
:1002F3002EDFF4802A8002805789828A83ECFAE415
:1003030093F5F0A3C8C582C8CCC583CCE0A3C8C508
:1003130082C8CCC583CCB5F006DFE4DEE280007F83
:10032300FFB5F0020F2240027F012289828A83EC0B
:10033300FAE0F5F0A3C8C582C8CCC583CCE0A3C856
:10034300C582C8CCC583CCB5F0D5DFE5DEE380CF6D
:1003530089828A83ECFAE0F5F0A3C8C582C8CCC5CC
:1003630083CCE493A3C8C582C8CCC583CCB5F0AF16
:10037300DFE4DEE280A988F0EF60010E4E60ABEDB2
:100383002402B404005098F582EB2402B404005014
:100393008E232345822390026A73EF4E6012EF602F
:1003A300010EEDBB010B89828A83F0A3DFFCDEFA29
:1003B3002289F05007F709DFFCA9F022BBFEFCF30A
:1003C30009DFFCA9F02275F008758200EF2FFFEE1C
:1003D30033FECD33CDCC33CCC58233C5829BED9A6E
:1003E300EC99E58298400CF582EE9BFEED9AFDECCC
:1003F30099FC0FD5F0D6E4CEFBE4CDFAE4CCF9A812
:100403008222B800C1B90059BA002DEC8BF084CF19
:10041300CECDFCE5F0CBF97818EF2FFFEE33FEEDF0
:1004230033FDEC33FCEB33FB10D703994004EB991A
:10043300FB0FD8E5E4F9FA227818EF2FFFEE33FE2D
:10044300ED33FDEC33FCC933C910D7059BE99A4062
:1004530007EC9BFCE99AF90FD8E0E4C9FAE4CCFB7A
:100463002275F010EF2FFFEE33FEED33FDCC33CCCE
:10047300C833C810D7079BEC9AE899400AED9BFD57
:10048300EC9AFCE899F80FD5F0DAE4CDFBE4CCFA6A
:10049300E4C8F9229000BBEEF0A3EFF0AA06F8AC93
:1004A300027D017BFF7A1079D07E007F04120379ED
:1004B300EF70169000BBE0FEA3E02404F582E43E57
:1004C300F583E024D0FF0212A79000BBE0FEA3E077
:1004D300AA06F8AC027D017BFF7A1079D57E007FF6
:1004E30004120379EF70169000BBE0FEA3E024042E
:1004F300F582E43EF583E024D0FF0212709000BB46
:10050300E0FEA3E0AA06F8AC027D017BFF7A107936
:10051300DA7E007F04120379EF70169000BBE0FED1
:10052300A3E02404F582E43EF583E024D0FF021225
:10053300BA9000BBE0FEA3E0AA06F8AC027D017B03
:10054300FF7A1079DF7E007F04120379EF700F903A
:1005530000BBE0FEA3E0AA06F97B01021032900083
:10056300BBE0FEA3E0AA06F8AC027D017BFF7A1094
:1005730079E47E007F04120379EF70169000BBE0EC
:10058300FEA3E02404F582E43EF583E024D0FF02D9
:1005930012609000BBE0FEA3E0AA06F8AC027D0166
:1005A3007BFF7A1079E97E007F04120379EF700FE5
:1005B3009000BBE0FEA3E0AA06F97B010206C89007
:1005C30000BBE0FEA3E0AA06F8AC027D017BFF7A44
:1005D3001079EE7E007F04120379EF70169000BB52
:1005E300E0FEA3E02404F582E43EF583E024D0FF9B
:1005F3001211CC227C007D9B9000A4EFF0A3ECF0C1
:10060300A3EDF043BA809000A4E0FFA3E0FAA3E0D7
:10061300FBF5828A83E0FCA3E0FD8B828A83A3A39C
:10062300E0FAA3E0FB120E259000A5E0FEA3E0FF95
:100633002406F582E43EF583E025E025E05404FD3D
:10064300EF2405F582E43EF583E054084DFF900066
:10065300A5E0FCA3E0FD2408F582E43CF583E02556
:10066300E054024FFFED2407F582E43CF583E054A8
:10067300014FFF9000A4E0FE25E02419F582E43445
:1006830013F583E493FC740193F5828C83EFF053A9
:10069300BA7F7401A806088002C333D8FCF452F170
:1006A3009000A5E0FEA3E02404F582E43EF583E098
:1006B3005401FF9000A4E0FEEFA806088002C333B4
:1006C300D8FC42F1229000BDEBF0A3EAF0A3E9F0DD
:1006D3009000D77403F07F049000BDE0FBA3E0FA21
:1006E300A3E0F98F82758300120135FEC394304075
:1006F3000AEE94304005EE24D080229000BDE0FB4A
:10070300A3E0FAA3E0F98F82758300120135FEC3DB
:1007130094614016EED394665010EE24A9FE74BC87
:100723002FF582E43400F583EEF00FEFB40AA990BD
:1007330000C0A3E09000DDF09000C2A3E09000DED3
:10074300F09000C4A3E09000DFF09000D7E0FF0238
:100753000003787FE4F6D8FD75812002079C020B25
:10076300B7E493A3F8E493A34003F68001F208DF10
:10077300F48029E493A3F85407240CC8C333C45466
:100783000F4420C8834004F456800146F6DFE4801A
:100793000B01020408102040809009DEE47E0193DF
:1007A30060BCA3FF543F30E509541FFEE493A360EC
:1007B300010ECF54C025E060A840B8E493A3FAE447
:1007C30093A3F8E493A3C8C582C8CAC583CAF0A398
:1007D300C8C582C8CAC583CADFE9DEE780BE121274
:1007E30009EFF4FF9000D1E09000D0F0A3EFF09078
:1007F30000D0E0FFA3E06FFF9000D0E05FFF900028
:10080300CFE06FF0A3E0FFA3E06FFFE06FFF900086
:10081300CEE06F60269000CCE475F001120196FEE5
:10082300D3E5F09464EE940040349000CEE0FF9062
:1008330000D1E0FEEF4E9000CEF022E49000CCF029
:10084300A3F0A3E0FF9000D1E0FEEF5E9000CEF0B6
:10085300A3E0FF9000D1E0FEEF5E9000CFF022E432
:100863009000A0F090009FF09000A1F090009BF00A
:10087300A304F0E4A3F0A3F09000A2F0A3F07F019F
:100883001205F7E49000A0F07F021205F7E4900050
:10089300A0F07C007D9B7F031205FBE49000A0F099
:1008A3007C007D9B7F041205FBE49000A0F07C009C
:1008B3007D9B7F051205FB7DE07C2E7F031211A13A
:1008C3005395FD4396025395FB4396045395F74383
:1008D30096085391BF43924043F58053F5BF22904E
:1008E30000BEEFF0A3ECF0A3EDF04C6008EDB50310
:1008F30020ECB5021C9000BEE0FF7401A80708803D
:1009030002C333D8FCF452F5EC4D24FF9203020FDB
:10091300869000BFE0FEA3E0FFC006C007E4F9F83D
:100923007FE07E2EFDFC120E6AAD07AC06D007D029
:10093300061201849000BFEEF0A3EFF09000BEE03A
:10094300FF7401A807088002C333D8FC42F5900066
:10095300BFE0FAA3E0FBE4FDFC120E2522C0E0C0D9
:1009630083C082C0D075D01090007FE0602F9000CC
:100973009AE004F0C28EE0FFB40D08E4F090007F2B
:10098300F08018EF25E02480F582E43400F583E05D
:10099300FCA3E0FDECF58D8D8BD28EB294900060BC
:1009A300E0602F90007BE004F0C28EE0FFB40D08FE
:1009B300E4F0900060F08018EF25E02461F582E414
:1009C3003400F583E0FCA3E0FDECF58D8D8BD28E36
:1009D300B293D0D0D082D083D0E0324100D804C1CA
:1009E300004200E000004100D0004100D10041007E
:1009F300CF004100CE004200CC00004100D700C12F
:100A0300814100D6004100D50041007C005A0061BD
:100A13008300F8300000FC180000FC180000FC18EC
:100A23000000FC180000FC18FC1841007B0041008A
:100A330060005A00808300F8300000FC180000FCBE
:100A4300180000FC180000FC180000FC18FC1841FA
:100A5300009A0041007F0000C0E0C083C082C0D084
:100A630075D000C00730982DC2989000CBE0702558
:100A73009000C9E0C394204002E4F09000C9E0FF75
:100A830004F074002FF582E43400F583E599F090C7
:100A930000CA7402F030992FC2999000C7E0FF900A
:100AA30000C6E06F601CE02420F582E43400F58387
:100AB300E0F5999000C6E004F0C394404009E4F0E7
:100AC30080059000C8E4F0D007D0D0D082D083D086
:100AD300E0327F02E4FE7D0890007EE0FCE4FBEC64
:100AE3005D60160EEF25E02480F582E43400F58383
:100AF30074F4F0A37448F08013EF25E02480F582AA
:100B0300E43400F58374FCF0A37418F00F0FEDC305
:100B130013FD0BEBB404C8EE20E014EF25E02480B2
:100B2300F582E43400F58374FCF0A37418F022EF2B
:100B330025E02480F582E43400F58374F4F0A37493
:100B430048F0227F02E4FE7D0890007DE0FCE4FB98
:100B5300EC5D6016EF25E02461F582E43400F58353
:100B630074F4F0A37448F00E8013EF25E02461F5CC
:100B730082E43400F58374FCF0A37418F00F0FEDD6
:100B8300C313FD0BEBB404C8EE20E014EF25E024FF
:100B930061F582E43400F58374FCF0A37418F02249
:100BA300EF25E02461F582E43400F58374F4F0A3C7
:100BB3007448F022C2AF1212C9D2AF53C17F43C1EE
:100BC300109000E1E030E40C1212CF9000E1E05409
:100BD300EFF080E79000E1E030E50C1210F39000B5
:100BE300E1E054DFF080D49000E1E030E3CD7E001B
:100BF3007FC6120D3950079000E1E04420F0121136
:100C0300B71212D53002079000E2E0FF8002E4FF42
:100C1300120EE99000E1E054F7F0809F90009BEE04
:100C2300F0A3EFF0F5828E83E075F064A4E5F0FDA8
:100C33003395E0FC7B647A007F011208E290009B0D
:100C4300E0FEA3E0F5828E83A3E075F064A4E5F0F3
:100C5300FD3395E0FC7B647A007F021208E290008A
:100C63009BE0FEA3E0F5828E83A3A3E075F064A46A
:100C7300E5F0FD3395E0FC7B647A007F030208E234
:100C83009000BBEBF0A3EAF0A3E9F09000C9E060A9
:100C93001CE0FF7E009000BBE0FBA3E0FAA3E0F8BA
:100CA300AC02AD037B017A0079001200F69000BB21
:100CB300E0FBA3E0FAA3E0F99000C9E0F5827583B5
:100CC30000E41201627E007F207D007B017A0079BF
:100CD3000012039DE49000C9F09000CBF022900035
:100CE300D6E004F0E0C394FA400FE4F09000D5E0BE
:100CF30004F0E094064002E4F09000D5E0FF7005B4
:100D03009000D38022EFB401059000D28024EFB489
:100D130002059000D48010EFB403059000D3801235
:100D2300EFB404079000D2E004F022EFB40506907C
:100D330000D4E014F0228F828E83A3A3A3E0700279
:100D4300C322EF2404F582E43EF583E0601AEF2426
:100D530004F582E43EF583E014F0700CEF2405F50E
:100D630082E43EF5837401F0EF2404F582E43EF55A
:100D730083E0700CEF2405F582E43EF5837401F003
:100D8300EF2405F582E43EF583E024FF227E007F15
:100D9300407D007B017A00792012039D7E007F2035
:100DA3007D007B017A00790012039D7E007FC612CD
:100DB3000F58E598543F4440F598438E01D2AC4315
:100DC3009810E5A2543F4440F5A253B17F53B27F3C
:100DD30053B1BF53B2BF5397EF0211869000DAE0CD
:100DE30060389000D7E075F003A424DDF582E43485
:100DF30012F583E493FB740193FA740293F91201DD
:100E0300ACFFE5F0C313FEEF13FFC39000DCE09FDC
:100E13009000DBE09E400A020EAEE49000DBF0A3FC
:100E2300F022A90743BA80AE04AF05E925E0240107
:100E3300F582E43413F583E493FC740193F5828C17
:100E430083EEF0A3EFF0AF03E925E0240DF582E490
:100E53003413F583E493FC740193F5828C83EAF0F5
:100E6300A3EFF053BA7F22C2D5E830E70FB2D5E43F
:100E7300C39BFBE49AFAE499F9E498F8EC30E7179A
:100E8300B2D5120EA0120405E4C39BFBE49AFAE464
:100E930099F9E498F8800312040530D50DE4C39F53
:100EA300FFE49EFEE49DFDE49CFC229000D7E02538
:100EB300E024F1F582E43412F5837401937002E4C3
:100EC30093601B9000D7E025E024F1F582E434120F
:100ED300F583E493FE740193AA06F91201EDE490FD
:100EE30000DBF0A3F0229000BDEFF0BF04047D64AB
:100EF30080289000BDE0B403047D3A801D9000BDBE
:100F0300E0B402047D3980129000BDE0B401047D99
:100F13003880079000BDE07006FD7F04121289221D
:100F23009000CFE0B4011C9000D7E004F0E064032C
:100F33006004E0B40405E49000D7F09000D7E0FF2C
:100F43000200039000CFE0B4020AB202200203C2FF
:100F53008022D280228F828E83E4F0A3F08F828E50
:100F630083A3A3F08F828E83A3A3A3F0EF2404F5BE
:100F730082E43EF583E4F0EF2405F582E43EF58355
:100F8300E4F022EFB40105A20392A122EFB402051B
:100F9300A20392A222EFB40305A20392A322EFB409
:100FA3000405A203929622EFB40504A203929722AA
:100FB300120AD5E490009AF090007F04F090009A12
:100FC300E025E02480F582E43400F583E0FCA3E02F
:100FD300FDECF58D8D8BD28EC29422120B46E490DC
:100FE300007BF090006004F0C29390007BE025E06A
:100FF3002461F582E43400F583E0FCA3E0FDECF525
:101003008D8D8BD28E22C0E0C083C0829000E1E040
:101013004408F09000D8E014F0700D9000E1E04433
:1010230010F09000D87404F0D082D083D0E03290D6
:101033000005120135FD900004B40A07120135249E
:10104300D0800E12013524D075F00AA4FFED24D010
:101053002F90007DF0020FDE9000D7E025E024E919
:10106300F582E43412F583E493FE740193FF4E603A
:1010730007AA06A9071201EDE49000DBF0A3F02212
:10108300538EBF5389BF5389CF758DF8758B30D27B
:10109300ABC28E5391EF4392105391F7439208538F
:1010A30091FD439202C291228D828C83E08F828EC6
:1010B30083F08D828C83A3E08F828E83A3F08D8255
:1010C3008C83A3A3E08F828E83A3A3F0222B4D53A3
:1010D3003D002B4D543D002B53533D002B53563DA8
:1010E300002B53543D002B4C533D002B4C543D00DF
:1010F3007B017A00799B120C837B017A00799B7DBB
:101103002B12116AAE02AF01EF4E60031204972255
:101113009000D97401F0A3F09000D274FBF0A37493
:1011230001F0A3F0E49000D6F09000D5F022C202C3
:101133009000E27404F0C2805393FE439401439100
:101143008053927F43B10453B2FB22E4FD7F01122B
:101153001289E4FD7F02121289E4FD7F03121289D2
:10116300E4FD7F04021289E94A4B70012212011C3B
:10117300FF6D700122EF7004FBFAF92209E970EDAB
:101183000A80EA200017538EEF538EF7438E0475BF
:10119300D6FD75D78F53AFFB438E10D2002243BACF
:1011A3008090FFF2EFF0AF0590FFF0ECF0A3EFF0CB
:1011B30053BA7F229000DAE0600E9000DCE004F086
:1011C30070069000DBE004F022EF60079000D77414
:1011D300018004E49000D7F0E0FF12000322538E55
:1011E3007F5389FB5389FC758CD8758AF0D2A9D2B9
:1011F3008C229000D97401F0E4A3F07E007FD27CAE
:10120300007DDD0210ABE425E0FFA281E4334F252E
:10121300E0FFA282E4334FFF221211E1120D90127C
:10122300086212114E12000E0211318F828E8374E6
:10123300FFF0A3F08F828E83A3A3F0227E007FDDD5
:1012430012122E7E007FD212122E021250E4900050
:10125300D9F0A3F09000D2F0A3F0A3F022EF900016
:101263007C7004F0C291227401F0D29122EF7005D8
:10127300C202C28022D202D280229000DA7401F02C
:10128300E4A3F0A3F022ED7C007B647A000208E281
:10129300E49000D2F0A3F0A3F0229000D97401F0FF
:1012A300E4A3F0229000E2EFF0E0FF020EE9121255
:1012B3007D12108302123F90007EEFF0020FB37E87
:1012C300007FD2020C1F12121C0212B11207E1029C
:1012D3000F23120DDF0212C20004000000FF12DB15
:1012E30000000000000012501113129D11F50000C0
:1012F3000CE10000000012930020001E001FFF00FD
:10130300FF10FF20FF30FF40FF50FF02FF12FF22BC
:10131300FF32FF42FF52FF04FF14FF24FF34FF4458
:02132300FF5475
:00000001FF
