:0600000002057B020B3932
:10000B000204DE7809E2B40E00400302014F9000B7
:10001B0020F828287302004A0200500200600200F8
:10002B007602008C0200A20200B80200CE0200E3AE
:10003B000200F802010D02012202013702014C12EB
:10004B000AFD02014F120AD11207DF7407F208747E
:10005B0052F202014F120A5D75080B75095D12070A
:10006B00E57408F20874ACF202014F120ADC750851
:10007B000B7509611207E57406F2087407F20201A9
:10008B004F120AE775080B75097F1207E57409F221
:10009B00087482F202014F120B0975080B75098562
:1000AB001207E57406F2087480F202014F120B0F6F
:1000BB0075080B75099F1207E57409F20874ABF20A
:1000CB0002014F120B1575080B7509A51207E57484
:1000DB0008F20874E7F2806C120B1B75080B75099C
:1000EB00AF1207E57404F2087427F28057120B2144
:1000FB0075080B7509DF1207E57403F2087464F2D7
:10010B008042120B2775080C7509131207E574064C
:10011B00F20874E9F2802D120B2D75080C75092D60
:10012B001207E57409F20874D4F28018120B3375B8
:10013B00080C7509331207E57409F2087420F28074
:10014B0003120B03020AF6780AE214B40C00400304
:10015B0002028990016C75F003A4C58325F0C58359
:10016B00730201900201A00201B60201CC0201E26E
:10017B000201F802020D02022202023702024C02B5
:10018B000261020276120AD11207DF7407F20874B9
:10019B0052F2020289120A5D75080B75095D12078E
:1001AB00E57408F20874ACF2020289120ADC7508D5
:1001BB000B7509611207E57406F2087407F2020267
:1001CB0089120AE775080B75097F1207E57409F2A6
:1001DB00087482F2020289120B0975080B750985E6
:1001EB001207E57406F2087480F2020289120B0FF3
:1001FB0075080B75099F1207E57409F20874ABF2C9
:10020B00807C120B1575080B7509A51207E5740890
:10021B00F20874E7F28067120B1B75080B7509AFB8
:10022B001207E57404F2087427F28052120B217541
:10023B00080B7509DF1207E57403F2087464F2808A
:10024B003D120B2775080C7509131207E57406F29E
:10025B000874E9F28028120B2D75080C75092D1204
:10026B0007E57409F20874D4F28013120B33750886
:10027B000C7509331207E57409F2087420F2E4785F
:10028B0005F208F22278167404F2C2AF120A1912A0
:10029B000A6F120B3FC2B3D2AF12081253C17F4386
:1002AB00C1107800E230E4107805E2FE08E2FF129C
:1002BB000A8F7800E254EFF27800E230E0DEC2A859
:1002CB00E47F50FE1209FED312086450257809E230
:1002DB0070057816E214F27816E2700A780AE204D6
:1002EB00F278167404F2780AE2B40D037401F21278
:1002FB00000E7809E2640D704C7FA07E0F1209FE90
:10030B00C312086440187F207E4E1209FD12086448
:10031B00500C780AE204F2E2B40D037401F27F4050
:10032B007E9C1209FDC31208644005780A7402F220
:10033B007F987E00120AB8780AE2FD7F987E001241
:10034B000A3212000E7801120881000000007800BA
:10035B00E254FEF2D2A80202A71207B9400302042C
:10036B0026ED7002805A7815E2FFB401028023EF6C
:10037B00B40203020409EFB403028016EFB40402C3
:10038B00807CEFB40502800AEFB406028070EFB4F4
:10039B000706D2B6C2B7807BEFB408028022EFB457
:1003AB000902805AEFB40A028016EFB40B02804E9A
:1003BB00EFB40C02800AEFB40D028042EFB40E06CC
:1003CB00C2B6D2B7804DEFB40F028032EFB4100239
:1003DB008022EFB411028026EFB412028016EFB424
:1003EB001302801AEFB41402800AEFB41502800EC8
:1003FB00EFB41606D2B6D2B78019EFB41706C2B651
:10040B00C2B7800FEFB41804D2B38007EFB419034F
:10041B0012080B1207D2B41A02E4F2221207B940E7
:10042B00030204DDED70030204C07815E2FFB40192
:10043B00028016EFB40202807CEFB40302800AEF55
:10044B00B404028070EFB40506D2B6C2B7807BEF5E
:10045B00B406028022EFB40702805AEFB408028080
:10046B0016EFB40902804EEFB40A02800AEFB40B08
:10047B00028042EFB40C06C2B6D2B7804DEFB40D7A
:10048B00028032EFB40E028022EFB40F028026EF0F
:10049B00B410028016EFB41102801AEFB41202806E
:1004AB000AEFB41302800EEFB41406D2B6D2B780A3
:1004BB0019EFB41506C2B6C2B7800FEFB41604D24B
:1004CB00B38007EFB4170312080B1207D2B418024C
:1004DB00E4F222C0E0C0F0C083C082C0D075D01857
:1004EB007810E224FFF218E234FFF208E2700218EF
:1004FB00E270197800E24410F27806E22401F21857
:10050B00E23400F2780FE4F2087404F23001561270
:10051B000AAB2401FFE43EFEE43DFDE43CFC780B1A
:10052B0012087530B23FC201120AABFF78011208F4
:10053B0075780B12088100000000E47F04FEFDFCBF
:10054B007801E2FB08E2F908E2FA08E2CBF8C31201
:10055B00086440087800E24401F28009780112082F
:10056B008100000000D0D0D082D083D0F0D0E03218
:10057B00787FE4F6D8FD7581200205C2020290E473
:10058B0093A3F8E493A34003F68001F208DFF48011
:10059B0029E493A3F85407240CC8C333C4540F4461
:1005AB0020C8834004F456800146F6DFE4800B013B
:1005BB0002040810204080900959E47E019360BC2E
:1005CB00A3FF543F30E509541FFEE493A360010ED3
:1005DB00CF54C025E060A840B8E493A3FAE493A3FA
:1005EB00F8E493A3C8C582C8CAC583CAF0A3C8C51B
:1005FB0082C8CAC583CADFE9DEE780BE1207B950DD
:10060B0073ED700280477815E2FFB401028016EF9C
:10061B00B402028038EFB40302800AEFB404028004
:10062B002CEFB40506D2B6C2B78041EFB4060280F8
:10063B0026EFB407028016EFB40802801AEFB40954
:10064B0002800AEFB40A02800EEFB40B06C2B6C2E8
:10065B00B78019EFB40C06C2B6D2B7800FEFB40D4A
:10066B0004D2B38007EFB40E0312080B1207D2B4F7
:10067B000F02E4F2221207B95063ED700280417849
:10068B0015E2FFB40102802EEFB402028032EFB408
:10069B0003028022EFB404028026EFB40502801619
:1006AB00EFB40602801AEFB40702800AEFB4080217
:1006BB00800EEFB40906D2B6D2B78019EFB40A0692
:1006CB00C2B6C2B7800FEFB40B04D2B38007EFB43E
:1006DB000C031207F71207D2B40D02E4F222120731
:1006EB00B95063ED700280417815E2FFB4010280CE
:1006FB002EEFB402028032EFB403028022EFB40477
:10070B00028026EFB405028016EFB40602801AEFC2
:10071B00B40702800AEFB40802800EEFB40906D2C8
:10072B00B6D2B78019EFB40A06C2B6C2B7800FEFC4
:10073B00B40B04D2B38007EFB40C031207F7120704
:10074B00D2B40D02E4F2221207B95061ED7006C269
:10075B00B6D2B780507815E2FFB401028032EFB405
:10076B0002028022EFB403028026EFB4040280164B
:10077B00EFB40502801AEFB40602800AEFB4070249
:10078B00800EEFB40806D2B6D2B78019EFB40906C3
:10079B00C2B6C2B7800FEFB40A04D2B38007EFB46E
:1007AB000B0312080B1207D2B40C02E4F2228509D8
:1007BB00828508837815E2FD75F00212089AD374CE
:1007CB0001939FE4939E22E47805F208F27815E2F8
:1007DB0004F2E22275080B750945781274FFF208D2
:1007EB0022E47815F2C200C2B3D2B622D2B6D2B787
:1007FB00C2B322D2B6D2B7C200C2B3E47815F2228A
:10080B00D2B6C2B7C2B322A290B3E4337817F2A226
:10081B0091120A0FA292120A0FA293B3E433FFE2D2
:10082B00FE25E04FF2E2701B7809740DF27F987E83
:10083B0000120A7F780AEFF2E26012E2C3940D40D5
:10084B0015800A7817E2FF7809B40F08F2780A745A
:10085B0002F28002EFF202000EEB9FF5F0EA9E42ED
:10086B00F0E99D42F0E89C45F022ECF208EDF2082D
:10087B00EEF208EFF222D083D082E493F2087401F7
:10088B0093F208740293F208740393F2740473A442
:10089B002582F582E5F03583F583228A838982E40C
:1008AB00731207B95035ED7006C2B6C2B7800A781D
:1008BB0015E2B40104D2B6D2B71207D2B4021CE4CB
:1008CB00F2C2007811E214F2E270107404F27809AB
:1008DB00E27008780A7403F2120152221207B9501F
:1008EB0033ED700280117815E2FFB40106D2B6D257
:1008FB00B78019EFB40206C2B6C2B7800FEFB403CC
:10090B0004D2B38007EFB404031207F71207D2B473
:10091B000502E4F2221207B95033ED700280117810
:10092B0015E2FFB40106D2B6D2B78019EFB40206B6
:10093B00C2B6C2B7800FEFB40304D2B38007EFB4D3
:10094B0004031207F71207D2B40502E4F22281095D
:10095B000F810A0F8207010182050000C10084018B
:10096B0000000000810000811104820F0004840B41
:10097B0000000000C101001207B95023ED7006C240
:10098B00B6D2B780127815E2FFB40104D2B3800758
:10099B00EFB4020312080B1207D2B40302E4F222E3
:1009AB001207B95023ED7006C2B6C2B78012781584
:1009BB00E2FFB40104D2B38007EFB402031207F7CE
:1009CB001207D2B40302E4F2221207B95023ED70DE
:1009DB0006C2B6C2B780127815E2FFB40104D2B3D7
:1009EB008007EFB402031207F71207D2B40302E435
:1009FB00F222E4FDFC7801E2FB08E2F908E2FA08D6
:100A0B00E2CBF822B3E433FFE225E04FF22253B1FD
:100A1B00BF43B24053B17F43B28053B1F743B208E7
:100A2B0043B10453B2FB2275C78275C5028FC4EE66
:100A3B00F5C3AF058FC2120ACA00020A9D538E7FFF
:100A4B005389F0758A80758CFEC28DD28CD2B9D247
:100A5B00A922E47815F2C200C2B378117404F2D261
:100A6B00B6D2B72275985A75D72075D6FE758E14E7
:100A7B00438E012275C78275C501120AC500AFC22C
:100A8B00120A9D22781208E2FA08E2F5828A8302A2
:100A9B0008AAE4F5C7F5C5F5C675C3FF75C4FF22F3
:100AAB00780BE2FC08E2FD08E2FE08E22275C78241
:100ABB0075C503120AC500020A9D8FC4EEF5C375F6
:100ACB00C65A75C6A522E47815F2C2B3D2B6C2B720
:100ADB0022E47815F2C200D2B6C2B722D2B6C2B7A0
:100AEB0012080222D2B2C288D2A822E47805F208F8
:100AFB00F2221207FE0201521207FE0201521207E6
:100B0B00ECD2B7221207ECD2B7221207ECD2B722E3
:100B1B001207ECC2B7221207ECC2B7221207ECD2B3
:100B2B00B7221207ECD2B7221207ECD2B72220B2AF
:100B3B0002D20132120A48020AEF01DC01F400C8AA
:100B4B00004600460046004600460046004601EAC5
:100B5B00000A00020002002900410041004100414F
:100B6B000041004100410041004100410041004172
:100B7B000037000A01DC01EA000A000B0023002306
:100B8B000023002300230023002300230023002342
:100B9B00005A000A00B000BE000A004C006400645A
:100BAB000122000A0029004100410041004100419F
:100BBB000041004100410041004100410041004122
:100BCB00010400410041004100410041004100414E
:100BDB0000BE000A01DC01F400410041004100416C
:100BEB0000410041004100410041004100410041F2
:100BFB000041004100C8004100410041004100415B
:100C0B000041004100BE000A001000280028002807
:100C1B00002800280028002800280028002801FEB2
:100C2B00000A01280136000A0024003C003C009613
:020C3B00000AAD
:00000001FF
