:100000000211FB021A9AC202D20F220209791202CD
:020010009F222D
:1000130002178912032008F208F2783412029E2292
:1000230002170F538E7F5389F0758A80758CFEC239
:100033008DD28CD2A9C2B922021287121CA9E4FF65
:0F004300121C54E4FF121BB0D292D2B6C2B722E5
:1000530002158EC28CC2A97849E27861F27849E22E
:10006300B411004003020278900072F8282873024A
:1000730000A50200AB0200C60200E1020101020179
:10008300210201410201590201740201940201B4E7
:100093000201D40201F402020E0202280202470204
:1000A300025B121BF5020278121BC31202E77400F3
:1000B300F2740E1203BC1202E07415F20874E3F238
:1000C300020278121C601202E7741CF274D8120345
:1000D300BC1202E07416F2087430F2020278121BAA
:1000E300321202E77414F20874E0F275261D7527C4
:1000F300521202E07413F20874D4F2020278121C52
:100103008B1202E7741CF20874DCF275261D752746
:10011300681202E07413F2087476F2020278120095
:10012300161202E7741CF20874E0F275261D752797
:100133007E1202E07411F2087465F2020278121C56
:10014300951202E7741CF274E41202CA7414F208E2
:100153007488F2020278121CE81202E7740CF2743B
:10016300241203D11202DA7419F20874D3F20202D0
:1001730078121C221202E7741CF20874ECF2752642
:100183001E7527861202E07410F208742EF2020222
:1001930078121C481202E7741AF2087480F275266A
:1001A3001E75279C1202E0741AF20874E7F2020229
:1001B30078121C9F1202E7741CF20874F0F2752681
:1001C3001E7527B21202E07418F2087457F2020285
:1001D30078121CBC1202E7741CF20874F4F2752640
:1001E3001E7527C81202E07414F208742FF202027B
:1001F30078121C6B1202E7741CF274F81203E212F9
:1002030002DA7416F20874C8F2806A121A4A1202E9
:10021300E7741CF274FC1203F31202DA740EF20890
:1002230074D8F28050121B8A1202E77415F2087414
:1002330037F27526207527541202E07418F20874F9
:10024300DEF28031121D041202E7741DF2087400FD
:10025300F2E4F526F527801D121CB31202E7741B86
:10026300F2087400F275262075276A1202E07413EF
:10027300F2087410F27861E2640E6009E2640360CC
:1002830004E2B40703D38001C39207121BD4D28CB8
:10029300D2A92274017846F208F208F2784DE27886
:1002A3004AF2784DE2784BF2784DE2784CF22285AF
:1002B30027828526837842E275F0021207CCD37435
:1002C30001939FE4939E2208F27842E275F00AA418
:1002D3002494F582E4341DAF82F5268F2778307499
:1002E300FFF20822783974FFF20822EF24FFFFE4BB
:1002F30034FFFEEF25E0FFEE33FEE5252FF582E523
:10030300243EF58322E47844F208F27834E204F2DE
:10031300E222AD07AC0685278285268322784674C0
:1003230001F2E4227846F20804F2E408F22293FD93
:100333007880E2FA08E2FBD39DEA9C22E47846F255
:1003430008F20804F2227842E225E02454F582E41C
:100353003420F583E493FE740193FBAA06E4F9F8D1
:1003630022E47844F208F2227834E275F0021207AC
:10037300CCE493C313FE74019313FFC3ED9FEC9E70
:1003830022E493FF740193CFF208EFF222E2FE24FA
:100393004AF8EFF2744A2EF8E275F00AA4FFC3EBB1
:1003A3009FFF2278467401F208F208F2227D64E28C
:1003B300FE08E2FF7C000207DE08F275261D7527A2
:1003C3003C22FFED2FF2EC3E18F2E208E22208F2A3
:1003D3007842E275F00CA42402F582E4341E22086C
:1003E300F27842E275F012A424DEF582E4341E2290
:1003F30008F27842E2C454F024A4F582E4341F22C4
:10040300EEF208EFF218E2FE08E2FFC374649F22E3
:10041300E2FA08E2FB7C007D0AFFAE020206A9AD08
:1004230007C374649D787DF22293FDD3EB9DEA9C10
:1004330022E47846F20804F208F222AD07ED249C88
:10044300787DF2227834E29020789318F222744671
:100453002FF87401F2227802F2E408F208228525CB
:1004630082852483227844E2FF08E222F208F2E440
:1004730008F22274462FF8E4F22224FEF2784DE2C9
:10048300227861E214B40E00400302064290049EF7
:1004930075F003A4C58325F0C583730204C8020461
:1004A300E40205000205200205400205600205780A
:1004B3000205930205B30205D20206420205F102C8
:1004C300060B020625121BC31202E77400F208741E
:1004D3000E1203BD1202E07415F20874E3F2020671
:1004E30042121C601202E7741CF20874D81203BD96
:1004F3001202E07416F2087430F2020642121B3242
:100503001202E77414F20874E0F275261D7527527F
:100513001202E07413F20874D4F2020642121C8B26
:100523001202E7741CF20874DCF275261D75276845
:100533001202E07413F2087476F2020642120016F5
:100543001202E7741CF20874E0F275261D75277E0B
:100553001202E07411F2087465F2020642121C954D
:100563001202E7741CF274E41202CA7414F20874DF
:1005730088F2020642121CE81202E7740CF2742499
:100583001203D11202DA7419F20874D3F20206428A
:10059300121C221202E7741CF20874ECF275261E78
:1005A3007527861202E07410F208742EF2020642D6
:1005B300121C481202E7741AF2087480F275261EA0
:1005C30075279C1202E0741AF20874E7F280701225
:1005D3001C9F1202E7741CF20874F0F275261E7554
:1005E30027B21202E07418F2087457F28051121CF9
:1005F3006B1202E7741CF274F81203E21202DA744B
:1006030016F20874C8F28037121A4A1202E7741CF1
:10061300F274FC1203F31202DA740EF20874D8F2C5
:10062300801D121B8A1202E77415F2087437F275E3
:1006330026207527541202E07418F20874DEF212B1
:1006430003647861E2640E6009E264036004E2B467
:100653000703D38001C3920722BB010689828A83E1
:10066300E0225002E722BBFE02E32289828A83E46E
:100673009322F8BB010DE58229F582E5833AF583E0
:10068300E8F0225006E92582C8F622BBFE05E925DB
:1006930082C8F222EF8DF0A4A8F0CF8CF0A428CE6C
:1006A3008DF0A42EFE22BC000BBE0029EF8DF0843A
:1006B300FFADF022E4CCF875F008EF2FFFEE33FE28
:1006C300EC33FCEE9DEC984005FCEE9DFE0FD5F05F
:1006D300E9E4CEFD22EDF8F5F0EE8420D21CFEAD68
:1006E300F075F008EF2FFFED33FD4007985006D566
:1006F300F0F222C398FD0FD5F0EA2275F008758257
:1007030000EF2FFFEE33FECD33CDCC33CCC5823398
:10071300C5829BED9AEC99E58298400CF582EE9B9D
:10072300FEED9AFDEC99FC0FD5F0D6E4CEFBE4CDBB
:10073300FAE4CCF9A88222B800C1B90059BA002D55
:10074300EC8BF084CFCECDFCE5F0CBF97818EF2F0E
:10075300FFEE33FEED33FDEC33FCEB33FB10D7033D
:10076300994004EB99FB0FD8E5E4F9FA227818EFE6
:100773002FFFEE33FEED33FDEC33FCC933C910D745
:10078300059BE99A4007EC9BFCE99AF90FD8E0E452
:10079300C9FAE4CCFB2275F010EF2FFFEE33FEED28
:1007A30033FDCC33CCC833C810D7079BEC9AE899F8
:1007B300400AED9BFDEC9AFCE899F80FD5F0DAE4DA
:1007C300CDFBE4CCFAE4C8F922A42582F582E5F056
:1007D3003583F583228A838982E473EC8EF0A4CC7B
:1007E300C5F0CCCDF8EFA4CEC5F02DFDE43CFCE87C
:1007F300A42EC8C5F03DFDE43CFCEFA4FFE5F028C2
:10080300FEE43DFDE43CFC22C2AF121B9D121CD250
:10081300121C2FD2AF12003E1218B153C17F43C135
:1008230010783EE230E20B12174E783EE254FBF2B0
:1008330080E9783EE220E6030208C0E47869F20822
:100843007402F27893E230E069E230E7657869E2B6
:10085300C394075043E2FD74037E00A80508800596
:10086300C333CE33CED8F9FF7893E2FB7A00EF5B44
:10087300FB74027E00A805088005C333CE33CED8AF
:10088300F9B5030DEEB502097869E204F208E20452
:10089300F27869E204F280B5786AE2FF7890E2C305
:1008A3009F500F7893E2547EC3137868F2E2FF12ED
:1008B3000E24783EE254BFF2D2AA02081E783EE22A
:1008C30030E053300005120AD8803FE47855F2181F
:1008D300F2785AF218F2785CF218F2538FEF12188A
:1008E300B17BFE7A007954E4FD12167D7BFE7A001B
:1008F30079597D0112167D7BFE7A00795B7D0212A8
:10090300167D7F04121936438F10121BE5783EE2E1
:1009130054FEF202081E783EE230E4137844E2FE0D
:1009230008E2FF121ACE783EE254EFF202081E7874
:100933003EE230E7237BFE7A00794312190AEF7017
:100943000B7843E27868F2E2FF120E24438F1078AB
:100953003EE2547FF202081E783EE230E50C1219A3
:10096300B0783EE254DFF202081E20030302081EA1
:10097300121B7702081EC0E0C0F0C083C082C0D043
:1009830075D018788DE214F2E2700B783EE24420C1
:10099300F2788D741EF2788EE214F2E27010783ED3
:1009A300E24410F27845121B6D788E7414F2300F06
:1009B3002B7892E214F230B30D788FE2C39408508F
:1009C300057897E204F27892E270117404F2788F5A
:1009D300E214F2E27006740AF2121A6520020302AC
:1009E3000ACD7892E214F27896E2FF25E0F230B372
:1009F30003E204F27892E26003020ACD7404F2780F
:100A03008FE214F27896E225E07885F2E2FF789699
:100A1300E2FEEF6E7885F218E4F208E2FF30E104BB
:100A230018E204F2EF30E2057884E204F2EF30E3F7
:100A3300057884E204F2EF30E4057884E204F27886
:100A430084E2D394024002C202788FE2B40706D252
:100A53000E7891E4F2788FE2B40302C20E7895E245
:100A630025E07995F318E23319F37896E260057877
:100A730095121B6D7896E4F2788FE2704D740AF24A
:100A83007898E214F2E47894F208E25478F2E2708F
:100A93000218E260127895E26478700218E2600747
:100AA3007891E26002C2027893E2FF25E0F2789542
:100AB300E2700218E260057893E204F27894E4F2BB
:100AC30008F27898E27003120006D0D0D082D08367
:100AD300D0F0D0E032784AE2783FF2784BE27840C7
:100AE300F2784CE27841F2783FE2786BF27840E2B8
:100AF300786CF27841E2786DF2E47862F208F208F9
:100B0300F208F208F208F2786BE2FF600D7846E231
:100B130060081202EE7862120384786CE2FF600DC3
:100B23007847E260081202EE7864120384786DE27B
:100B3300FF60157848E260101202EEE493FF74013F
:100B4300937866CFF208EFF2AFF9EFADE9786EF282
:100B5300ED08F220070280577846E26011786BE2D5
:100B6300782D120C1D7862EEF208EFF28006E4781D
:100B730062F208F27847E26011786CE2782E120C88
:100B83001D7864EEF208EFF28006E47864F208F26E
:100B93007848E26014786DE2FF782FE2FD1210CC02
:100BA3007866EEF208EFF28006E47866F208F278EF
:100BB30062E27854F27862E208E27855F27864E20D
:100BC3007859F27864E208E2785AF27866E2785B60
:100BD300F27866E208E2785CF27862E2FE08E2FF0D
:100BE300786EE2FC08E2FD2F784F1203C8F5EA188D
:100BF300E2F5FA7864E2FE08E278511203C5F5EBF8
:100C030018E2F5FB7866E2FE08E278531203C5F5B5
:100C1300EC18E2F5FCD2DE02198BFFE2FD1210CCD8
:100C2300221204687880CFF208EFF2187DC812030D
:100C3300B2C006C007120319740A93FE740B93FB28
:100C4300AA06E4F9F8D007D00612073A120319E40A
:100C530093FC7401120331500F120422C374439D99
:100C630008F2C37422020D0E120319E493FC7401FB
:100C730012042C401B740293FC740393FDD37881FC
:100C8300E29D18E29C5009120422C374439D8040E4
:100C9300120319740293FC74031203314013740496
:100CA30093FC740512042C5008120422ED24BE8018
:100CB3001F120319740493FC7405120331401A7450
:100CC3000693FC740712042C500F12043EED24BE4D
:100CD30008F2EF24DF08F28035120319740693FC3F
:100CE30074071203314018740893FC740912042C1E
:100CF300500D12043EED24BE08F2C374EA800C12B8
:100D0300043EC3740B9D08F2C374EA9F08F2E4FF28
:100D1300747D2FF8E275F00A84FE744A2FF8EEF220
:100D2300744A2FF8E275F00AA4FE747D2FF8E2C32B
:100D33009EFE742D2FF8EEF20FEFB403D322C18081
:100D430081490F81610F814D0A833F0A0000834A65
:100D53000A00008142058346010101835D0101010F
:100D630082440000816000813E00C103C1028356BA
:100D73000000008662000100010001864E000100B0
:100D83000100018143008254000082590000825B0C
:100D93000000829A00008E05060601040302020386
:100DA3000306030101018F13070102020106020179
:100DB30001010201050103C107832D0000008135F4
:100DC30000813D008302000000C185813400820060
:100DD3001E808237007A813600812A00C186C104D1
:100DE3008186C881880A818D1E81873C82890000A3
:100DF300818E14818500818400C10DC10C81920410
:100E0300818F0A8198088196008294000081930063
:100E1300819100819000819900819700C10EC10FDB
:100E230000A200920A7849E2787CF2C2ACEF540344
:100E3300FE787AF208F2EF543C1313543F18F2EEA3
:100E43007031E2FF64016004EFB4020FEF1424FF7A
:100E53009200A20A920B121C818077787AE2B40581
:100E630005E478498027787AE2640A7065784974E2
:100E730010801A787BE26401701D18E2FF6053D37F
:100E830094104003D38001C340487849EFF2787C43
:100E9300E2FF121C3C803B787BE2FFB4021718E2AE
:100EA300FE602FD3940B4003D38001C34024EE1480
:100EB300784DF2801DEFB40318787AE2FF6013D304
:100EC300940B4003D38001C34008EF147842F280AF
:100ED3000100D2AC2212031512036B5003020F82DE
:100EE300E4FF745D2FF8E27002800774462FF8E286
:100EF300600512047680031204510FEFB403E37804
:100F030034E2FF7005785D04801EEFB40102800AAD
:100F1300EFB402028004EFB40306785D7401801A13
:100F2300EFB40409785D740112046F801EEFB405F9
:100F330002800EEFB40606E4785DF2800AEFB40790
:100F43000A785D7401F2E408F208F27833E214F2ED
:100F5300E2702908E204F2E2FF6408600A7849E2D9
:100F6300B41016EFB40412E47834F27849E2600462
:100F7300E2B410057835E204F21204471203642246
:100F8300A20092087849E27870F2EF54F0C4540F4B
:100F930024FCFE786EF208F2EF540F18F2EE702F75
:100FA300E2FF64016004EFB4020DEF1424FF92002A
:100FB300A208920B021C81786EE2B40505E478491D
:100FC3008027786EE2640A706178497410801A7819
:100FD3006FE26401701B18E2FF604FD3941040036B
:100FE300D38001C340447849EFF27870E2FF021CDA
:100FF3003C786FE2FFB4021618E2FE602DD3940B27
:101003004003D38001C34022EE14784DF222EFB4A3
:101013000317786EE2FF6012D3940B4003D3800171
:10102300C34007EF147842F22200221202B24003B7
:101033000210CB7834E2FF7005784604804DEFB49C
:1010430001028037EFB402028025EFB40302801659
:10105300EFB404028048EFB405028042EFB4060205
:10106300803CEFB4070512033F8045EFB40808E462
:101073007846F208048036EFB4090878467401F222
:1010830008802AEFB40A097846740112046F80209D
:10109300EFB40B06120320088013EFB40C07E478B7
:1010A30046F2088008EFB40D0712032008F208F295
:1010B300120308B40E127849E26004E2B410057812
:1010C30035E204F2E47834F2227870EDF2AB07EB08
:1010D300B40A0C120461741293FE741393FF22EB8F
:1010E30070287870E2FFC3740A9FFFE49400FE7CCB
:1010F300007D781206977871EEF208EFF212046120
:101103007401932FFFE4933EFE22EB1202EFE4936C
:10111300FE740193FF12046175F002EB1207CCE435
:1011230093FC740193FDC3EF9D7872F2EE9C18F269
:10113300E2FE08E2FF7C007D0A1206A97873EEF254
:1011430008EFF2EB1202EF7870E2FF7E007873E2B1
:10115300FC08E2FD120697C37401939FFFE4939E7C
:10116300FE221202B240030211FA7834E2FF700247
:101173008017EFB40102801AEFB402028044EFB487
:1011830003028054EFB40406E41203278051EFB442
:101193000506E47846F28007EFB4060A1203200836
:1011A300F20804F28039EFB40708E47846F2080441
:1011B300802AEFB4080878467401F208801EEFB461
:1011C3000907E47846F2088013EFB40A07E4784687
:1011D300F2088008EFB40B0712032008F208F2129A
:1011E3000308B40C127849E26004E2B410057835C0
:1011F300E204F2E47834F222787FE4F6D8FD7581D4
:101203006702124202080BE493A3F8E493A340039A
:10121300F68001F208DFF48029E493A3F85407244D
:101223000CC8C333C4540F4420C8834004F456800D
:101233000146F6DFE4800B01020408102040809091
:101243000D41E47E019360BCA3FF543F30E5095494
:101253001FFEE493A360010ECF54C025E060A840B5
:10126300B8E493A3FAE493A3F8E493A3C8C582C8AC
:10127300CAC583CAF0A3C8C582C8CAC583CADFE981
:10128300DEE780BEC0E0C0D075D00830D82CC2D80D
:101293007863E2700218E2601F7856E26006C2CDFE
:1012A300E4F28016D2CD784F121B60F5EA18E2F50E
:1012B300FA78567401F28002C2CD30D924C2D978AB
:1012C30065E2700218E260197857E26004E4F28084
:1012D300107851121B60F5EB18E2F5FB7857740197
:1012E300F230DA24C2DA7867E2700218E260197821
:1012F30058E26004E4F280107853121B60F5EC1896
:10130300E2F5FC78587401F2D0D0D0E03212031920
:101313007834E2FD1202BB5059ED7002803A783402
:10132300E2FFB401028031EFB40202802B7834E291
:10133300FFB403028022EFB40402801C7834E2FF7E
:10134300B40511784DE2784A12047D784B12047D7E
:1013530024FE8013EFB40612784DE2784AF2784DFA
:10136300E2784BF2784DE2784CF2120308B40702AC
:10137300E4F2221202B250587834E2FF7006784742
:1013830004F28034EFB4010478468029EF640260EC
:1013930027EFB40306E47846F2801DEFB40406E4B5
:1013A3007847F28013EFB40506E47848F28009EF3A
:1013B300B40B0578487401F2120308B40C1278498F
:1013C300E26004E2B410057835E204F2E47834F222
:1013D300221202B250557834E2FF70090412045904
:1013E30004F2E4802BEFB4010BE4780212032978B2
:1013F3004604800DEFB4020E740112045904F2780E
:101403004612046F800DEFB40309E4780212032936
:10141300120435120308B404127849E26004E2B4FA
:1014230010057835E204F2E47834F2221202B25065
:10143300537834E2FF70028014EFB401028004EFAA
:10144300B4050512033F8024EFB40606E412032714
:10145300801AEFB40705120320800DEFB40B0512B9
:1014630003208004E47846F208F208F2120308B479
:101473000C127849E26004E2B410057835E204F214
:10148300E47834F2221203197834E2FD1202BB50DD
:101493004BED700280267834E2FFB401051203207D
:1014A3008012EFB40206E47846F28008EFB4030733
:1014B300E47846F208800AEFB40409E47846F208B7
:1014C30004F208F2120308B405127849E26004E258
:1014D300B410057835E204F2E47834F22212046899
:1014E300787ECFF208EFF2E4787DF2787E1203B0D3
:1014F300C006C007120349D007D00612073A788006
:101503001204037883F2E49E18F2787DE22402F851
:10151300E27004788080027882120413787D1203CB
:1015230090787DE2242DF8EFF2787DE204F2E26414
:101533000370B822120468787ECFF208EFF2E478E1
:101543007DF2787E1203B0C006C007120349D007AC
:10155300D00612073A78801204037883F2E49E18C7
:10156300F2787DE22402F8E27004788080027882C7
:10157300120413787D120390787DE2242DF8EFF2A4
:10158300787DE204F2E2640370B822C0E0C0F0C0E8
:1015930083C082C0D075D000C000C001C002C003A8
:1015A300C004C005C006C007538FEF7BFE7A0079E5
:1015B3004312190AEF700B7843E27879F2E2FF12D3
:1015C3000E24438F10D007D006D005D004D003D00B
:1015D30002D001D000D0D0D082D083D0F0D0E0327E
:1015E3001202B250477834E2FF70051203278024B9
:1015F300EFB4010512033F801BEFB40206E4784603
:10160300F2800DEFB405051203208004E47846F25E
:1016130008F208F2120308B406127849E26004E201
:10162300B410057835E204F2E47834F2221202B2FF
:1016330050477834E2FF70051203278024EFB4018A
:10164300051203208017EFB40206E47846F2800DFA
:10165300EFB4050512033F8008E47846F208F20868
:10166300F2120308B406127849E26004E2B41005EA
:101673007835E204F2E47834F2227870EBF208EA87
:10168300F208E9F208EDF2C2B7D394055014121729
:10169300BF78787405F27F301217F478731217BF8E
:1016A300800E1217CF7F301217F47BFF7A2079B1A7
:1016B30078787405F27F2A1217F4D2B7787012176C
:1016C300EB1219612212031512036B403EE4FF74FF
:1016D300462FF8E2600512047680031204510FEFDF
:1016E300B403EC1203647833E214F2E2701D08E2EF
:1016F30004F2E2B409127849E26004E2B410057816
:1017030035E204F2E47834F212044722C0E0C0D098
:1017130075D000C000309825C298789CE22428F840
:10172300A699789CE204F2C394204002E4F2E5997E
:10173300B40A0A789CE4F2783EE24404F230990455
:10174300C299C20CD000D0D0D0E032E4786BF278EA
:101753006BE2FFC39402502BE2FE2428F8E6FD74EB
:101763006C2EF8EDF2EFB40113786BE2246CF8E21F
:10177300B40A09786CE2FF120F838007786BE204E6
:10178300F280CCD2AC22C0E0C0D075D01030B30907
:10179300200206200F0312188430B308300F057897
:1017A30099E204F220B31030020D300E057891E275
:1017B30004F27890E204F2D0D0D0E032E275F00582
:1017C300A424B6F9742035F0FA7BFF227BFF7A203C
:1017D30079B178787405F2227F07121C76AB07ADD6
:1017E300037F27121A20EB22E2FB08E2FA08E2F950
:1017F300227875121B19AD07E4FC7878E2FFECC37D
:101803009F501D7875E2FB0808E2F92401F218E203
:10181300FA3400F212065CFF7E00121B250C80DAFC
:10182300D292AF0522787E121B19AD07E4FC7881B2
:10183300E2FFECC39F50187FFF7E00121B25787ECA
:101843001217EB8C82758300EF1206750C80DFD2C2
:1018530092AF05221202B25027E4FF74462FF8E23A
:10186300600512047680031204510FEFB403EC7881
:1018730049E26004E2B410057835E204F21203642D
:101883002278927404F2788F740AF278987408F2CA
:10189300E47896F27894F208F27893F27891F21859
:1018A300F27899F27897F2D202C20FC20E22C2B72F
:1018B3001217CF7F301217F41217CF7F2A1217F4A3
:1018C3007D017F21121A207F22121A201D7F2412EC
:1018D3001A121D7F20121A20D2B7221202B25026EA
:1018E300E4FF74022FF8E26004E4F280037401F26F
:1018F3000FEFB403ED7849E26004E2B410057835E4
:10190300E204F212036422787AEBF208EAF208E9BD
:10191300F21217DB30E619787A1217EB788174012B
:10192300F27F611218287DFF7FE2121A207F0022C6
:101933007F0122C2B7EF1217C078787405F27F2AAD
:101943001217F47D017F31121A207D3F7F21121A75
:10195300207F22121A127F20121A20D2B722C2B776
:1019630078787402F27FA01217F4D2B720B6FD1272
:1019730017DB30E40A7DFF7FE1121A207F1022EB90
:101983007FFF30E5027F2022538FEF1218B17BFED9
:101993007A0079597D0112167D7BFE7A00795B7D91
:1019A3000212167D7F04121936438F10227849E202
:1019B300701D7861E22404F8E2FF7835E2B5070F81
:1019C3007861E2901D0A93F2E47835F212048422DE
:1019D300120319D3740B939F740A939E5011784981
:1019E300E26004E2B410057835E204F212036422E3
:1019F30043BC0800000000E5BC30E4FB53BCEFAF80
:101A0300BDEF75F004A4FFAEF0ADBEEF4DFF2212A3
:101A13001A207D287F25121A207D0F7F26121B2175
:101A2300AC07AF05121B25D292AF0422121BF5128D
:101A330002E7741DF2087400F2E4F526F5270000AE
:101A430075241D7525282212032008F208F2785DFB
:101A530004F2E412029BE47834F2E29020819318BA
:101A6300F222C20F7899E2C3940250107897E2C32E
:101A730094025008783EE24440F2C2AA22E4FF787E
:101A83004DE2200505C313FE8001FE744A2FF8EED4
:101A9300F20FEFB403E922C0E0C0D075D008C2DE74
:101AA300C2CD783EE24401F2A2B29201D0D0D0E09E
:101AB3003275985075D7D875D6FF438E14438E016F
:101AC300D2BCD2ACE4789DF218F2227861E2B40F72
:101AD3000412036422783008E2FA08E2F5828A836A
:101AE3001207DC221202B250137849E26004E2B416
:101AF30010057835E204F2B20512036422E4FF74A0
:101B03004A2FF8E2C394015007744A2FF87401F284
:101B13000FEFB403EA22EBF208EAF208E9F2C29209
:101B23007E008FCFE5CD30E7FB75CDC0AFCF22125E
:101B33000434E4784AF208740AF2E408F2780212F0
:101B430003297834F222E4F5D8F5E9F5F9F5D975E6
:101B5300DA4975DB4975DC49D2BFC2DE22E22433A0
:101B6300F218E23401F2E208E222E22401F218E27E
:101B73003400F2221219F3C3789BE29F18E29E50BD
:101B830005EEF208EFF2221203A6E47802F208F25D
:101B930008F2784AF208F208F22253C9DF43CA2056
:101BA30053C9EF43CA1043B10453B2FB22EF5403AA
:101BB300FF6403600A53A2F3EF25E025E042A2226B
:101BC30012029FE47834F2784604F2E408F208F251
:101BD300227888740AF2788674C8F2E47844F208AA
:101BE300F222783908E2FA08E2F91207D8A2009241
:101BF300062212029678617401F2E47835F2020447
:101C03008400007F087E017DF3DDFEDEFCDFFA2227
:101C1300121AB4120026121CC4121B49021CCB1246
:101C2300032008F208F2783412029E22D2CC121C4E
:101C330004C2CC121C04D2CC227849E26F6005C2E4
:101C430003120056221203A6C205E4783412029E40
:101C530022EF540353CEFC42CE43CE402212029FC6
:101C6300E47834F212034022120296E47834F2123A
:101C7300044922121B217FFF121B25D29222A200AC
:101C8300300B01B35001002212033FE478341202F7
:101C93009E22120434E4783412029E221203A6E434
:101CA300783412029E2275CDC075CE9043CE402269
:101CB300E47834F20412029822120296E47834F2A1
:101CC30022D2B2C288D2A822C28AD2BAC2AA22120D
:101CD3001C13021D0812029F2212029F2212029F4E
:101CE3002212029F221203A62212029F2212029F95
:101CF3002212029F2212029F2212029F2212029F8D
:101D03002212029622021A2F02030405060708096B
:101D13000A0B0C0D0E010A010B080D06050408023F
:101D2300050102010B266625332280201A1CB31BF2
:101D33002618C0163313CD0F000043003C003500B6
:101D43002E00270021001C00160010000B000503C5
:101D530094034102EE029A024701F401A0014D00EF
:101D6300FA00A600530043003C0035002E00270074
:101D730021001C00160010000B00050043003C006E
:101D830035002E00270021001C00160010000B0058
:101D93000500430019008700430024003C0016009F
:101DA30078003C002100350014006A0035001E0055
:101DB3002E0012005C002E001B00270010004E00B6
:101DC3002700170021000D004300210014001C0010
:101DD3000A0038001C001000160008002C00160032
:101DE3000D0010000600200010000A000B00040084
:101DF30016000B000700050002000A00050003019E
:101E0300310263039404C505F707280116022B0367
:101E1300410457056D068300FA01F402EE03E8045A
:101E2300E205DC00DE01BC029A03780456053400A7
:101E3300C301860247030903CB048E00A7014D01AA
:101E4300F4029B034103E8008B011601A0022C025C
:101E5300B70340006F00DE014D01BC022B029A0064
:101E63005300A600FA014D01A001F40037006E00F3
:101E7300A600DD0114014B001C00380053006E0066
:101E83008A00A50043003C0035002E0027002100F6
:101E93001C00160010000B0005016F014D012C0101
:101EA3000B00E900C800A70085006400430021017E
:101EB3001300FA00C800AF0096007D0064004B00D9
:101EC30032001900000043003C0035002E002700BB
:101ED30021001C00160010000B00050226018601DC
:101EE3006F012500DC00840054003B001D01F40158
:101EF30068014D010B00C80078004C0035001B0140
:101F0300C2014A012C00F000B4006C004400300010
:101F1300180190012C010B00D500A00060003E00C9
:101F23002A0016015E010E00E900BB008C0054007C
:101F33003800250013012C00F000C800A000780031
:101F43004800300020001000FA00B400A70085000C
:101F530064003C0028001B000D00C80096008500AB
:101F63006B0050003000200016000A009600780035
:101F7300640050003C0024001800100008006400B6
:101F83005000430035002800180010000B00050026
:101F93003200280021001B0014000C00080005007B
:101FA30003003300330033003300250033003300D4
:101FB30033002F002F002F002F0021002F002F00B0
:101FC3002F002A002A002A002A001E002A002A00C5
:101FD3002A0025002500250025001B0025002500DB
:101FE30025002100210021002100180021002100EB
:101FF30021001C001C001C001C0014001C001C0001
:102003001C00170017001700170010001700170017
:10201300170013001300130013000D001300130027
:1020230013000E000E000E000E000A000E000E003C
:102033000E00090009000900090007000900090052
:102043000900050005000500050004000500050062
:10205300050394034102EE029A024701F401A00131
:102063004D00FA00A6005300020002000200020025
:1020730002000200020808080C0C101014180E0EBF
:102083000E0E0A0E0E0E030405060708090A0305C1
:1020930007070C0F131704070B0F141A1F2304074A
:1020A3000B10161C21290A0B0C0D0023262F0043AD
:1020B30010100100431010010143101001024310DE
:1020C30010010343101001044310100105431010C5
:0120D300010B
:00000001FF
