:100000000211F4021A96C202D20F220209721202DF
:020010009F222D
:1000130002178512032008F208F2783412029E2296
:1000230002170B538E7F5389F0758A80758CFEC23D
:100033008DD28CD2A9C2B922021280121CA5E4FF70
:0F004300121C50E4FF121BACD292D2B6C2B722ED
:1000530002158AC28CC2A97849E27861F27849E232
:10006300B411004003020278900072F8282873024A
:1000730000A50200AB0200C60200E1020101020179
:10008300210201410201590201740201940201B4E7
:100093000201D40201F402020E0202280202470204
:1000A300025B121BF1020278121BBF1202E77400FB
:1000B300F2740E1203BC1202E07415F20874DFF23C
:1000C300020278121C5C1202E7741CF274D412034D
:1000D300BC1202E07416F208742CF2020278121BAE
:1000E3002E1202E77414F20874DCF275261D7527CC
:1000F3004E1202E07413F20874D0F2020278121C5A
:10010300871202E7741CF20874D8F275261D75274E
:10011300641202E07413F2087472F202027812009D
:10012300161202E7741CF20874DCF275261D75279B
:100133007A1202E07411F208745EF2020278121C61
:10014300911202E7741CF274E01202CA7414F208EA
:100153007484F2020278121CE41202E7740CF27443
:100163001D1203D11202DA7419F20874CFF20202DB
:1001730078121C1E1202E7741CF20874E8F275264A
:100183001E7527821202E07410F2087427F202022D
:1001930078121C441202E7741AF208747CF2752672
:1001A3001E7527981202E0741AF20874E3F2020231
:1001B30078121C9B1202E7741CF20874ECF2752689
:1001C3001E7527AE1202E07418F2087453F202028D
:1001D30078121CB81202E7741CF20874F0F2752648
:1001E3001E7527C41202E07414F208742BF2020283
:1001F30078121C671202E7741CF274F41203E21201
:1002030002DA7416F20874C4F2806A121A461202F1
:10021300E7741CF274F81203F31202DA740EF20894
:1002230074D1F28050121B861202E77415F208741F
:1002330033F27526207527501202E07418F2087401
:10024300DAF28031121D001202E7741CF20874FC0A
:10025300F2E4F526F527801D121CAF1202E7741A8B
:10026300F20874FCF27526207527661202E07413F7
:10027300F2087409F27861E2640E6009E2640360D3
:1002830004E2B40703D38001C39207121BD0D28CBC
:10029300D2A92274017846F208F208F2784DE27886
:1002A3004AF2784DE2784BF2784DE2784CF22285AF
:1002B30027828526837842E275F0021207C5D3743C
:1002C30001939FE4939E2208F27842E275F00AA418
:1002D3002490F582E4341DAF82F5268F277830749D
:1002E300FFF20822783974FFF20822EF24FFFFE4BB
:1002F30034FFFEEF25E0FFEE33FEE5252FF582E523
:10030300243EF58322E47844F208F27834E204F2DE
:10031300E222AD07AC0685278285268322784674C0
:1003230001F2E4227846F20804F2E408F22293FD93
:100333007880E2FA08E2FBD39DEA9C22E47846F255
:1003430008F20804F2227842E225E02450F582E420
:100353003420F583E493FE740193FBAA06E4F9F8D1
:1003630022E47844F208F2227834E275F0021207AC
:10037300C5E493C313FE74019313FFC3ED9FEC9E77
:1003830022E493FF740193CFF208EFF222E2FE24FA
:100393004AF8EFF2744A2EF8E275F00AA4FFC3EBB1
:1003A3009FFF2278467401F208F208F2227D64E28C
:1003B300FE08E2FF7C000207D708F275261D7527A9
:1003C3003822FFED2FF2EC3E18F2E208E22208F2A7
:1003D3007842E275F00CA424FEF582E4341D220871
:1003E300F27842E275F012A424DAF582E4341E2294
:1003F30008F27842E2C454F024A0F582E4341F22C8
:10040300EEF208EFF218E2FE08E2FFC374649F22E3
:10041300E2FA08E2FB7C007D0AFFAE020206A2AD0F
:1004230007C374649D787DF22293FDD3EB9DEA9C10
:1004330022E47846F20804F208F222AD07ED249C88
:10044300787DF2227834E29020749318F222744675
:100453002FF87401F2227802F2E408F208228525CB
:1004630082852483227844E2FF08E222F208F2E440
:1004730008F22274462FF8E4F2227861E214B40EF3
:1004830000400302063B90049775F003A4C583253F
:10049300F0C583730204C10204DD0204F9020519E5
:1004A30002053902055902057102058C0205AC02E9
:1004B30005CB02063B0205EA02060402061E121BD6
:1004C300BF1202E77400F208740E1203BD1202E0B9
:1004D3007415F20874DFF202063B121C5C1202E789
:1004E300741CF20874D41203BD1202E07416F208ED
:1004F300742CF202063B121B2E1202E77414F2084C
:1005030074DCF275261D75274E1202E07413F2088F
:1005130074D0F202063B121C871202E7741CF20825
:1005230074D8F275261D7527641202E07413F2085D
:100533007472F202063B1200161202E7741CF208F0
:1005430074DCF275261D75277A1202E07411F20825
:10055300745EF202063B121C911202E7741CF274E1
:10056300E01202CA7414F2087484F202063B121CED
:10057300E41202E7740CF2741D1203D11202DA744E
:1005830019F20874CFF202063B121C1E1202E77422
:100593001CF20874E8F275261E7527821202E074B5
:1005A30010F2087427F202063B121C441202E7748D
:1005B3001AF208747CF275261E7527981202E074ED
:1005C3001AF20874E3F28070121C9B1202E7741C87
:1005D300F20874ECF275261E7527AE1202E0741849
:1005E300F2087453F28051121C671202E7741CF272
:1005F30074F41203E21202DA7416F20874C4F2807D
:1006030037121A461202E7741CF274F81203F3123B
:1006130002DA740EF20874D1F2801D121B861202E4
:10062300E77415F2087433F2752620752750120209
:10063300E07418F20874DAF21203647861E2640E6B
:100643006009E264036004E2B40703D38001C39248
:100653000722BB010689828A83E0225002E722BB7C
:10066300FE02E32289828A83E49322F8BB010DE52B
:100673008229F582E5833AF583E8F0225006E925DD
:1006830082C8F622BBFE05E92582C8F222EF8DF06F
:10069300A4A8F0CF8CF0A428CE8DF0A42EFE22BC0B
:1006A300000BBE0029EF8DF084FFADF022E4CCF8FF
:1006B30075F008EF2FFFEE33FEEC33FCEE9DEC9864
:1006C3004005FCEE9DFE0FD5F0E9E4CEFD22EDF8EA
:1006D300F5F0EE8420D21CFEADF075F008EF2FFF8D
:1006E300ED33FD4007985006D5F0F222C398FD0F75
:1006F300D5F0EA2275F008758200EF2FFFEE33FE86
:10070300CD33CDCC33CCC58233C5829BED9AEC99E6
:10071300E58298400CF582EE9BFEED9AFDEC99FC88
:100723000FD5F0D6E4CEFBE4CDFAE4CCF9A88222CF
:10073300B800C1B90059BA002DEC8BF084CFCECDEF
:10074300FCE5F0CBF97818EF2FFFEE33FEED33FD28
:10075300EC33FCEB33FB10D703994004EB99FB0F0D
:10076300D8E5E4F9FA227818EF2FFFEE33FEED33E4
:10077300FDEC33FCC933C910D7059BE99A4007EC5C
:100783009BFCE99AF90FD8E0E4C9FAE4CCFB2275A3
:10079300F010EF2FFFEE33FEED33FDCC33CCC83337
:1007A300C810D7079BEC9AE899400AED9BFDEC9A99
:1007B300FCE899F80FD5F0DAE4CDFBE4CCFAE4C811
:1007C300F922A42582F582E5F03583F583228A8315
:1007D3008982E473EC8EF0A4CCC5F0CCCDF8EFA401
:1007E300CEC5F02DFDE43CFCE8A42EC8C5F03DFDCC
:1007F300E43CFCEFA4FFE5F028FEE43DFDE43CFC13
:1008030022C2AF121B99121CCE121C2BD2AF1200A4
:100813003E1218AD53C17F43C110783EE230E20B64
:1008230012174A783EE254FBF280E9783EE220E672
:10083300030208B9E47869F2087402F27893E230AB
:10084300E069E230E7657869E2C394075043E2FD6B
:1008530074037E00A805088005C333CE33CED8F9D0
:10086300FF7893E2FB7A00EF5BFB74027E00A8053E
:10087300088005C333CE33CED8F9B5030DEEB502E8
:10088300097869E204F208E204F27869E204F2808A
:10089300B5786AE2FF7890E2C39F500F7893E254F1
:1008A3007EC3137868F2E2FF120E1D783EE254BF56
:1008B300F2D2AA020817783EE230E0533000051264
:1008C3000AD1803FE47855F218F2785AF218F27898
:1008D3005CF218F2538FEF1218AD7BFE7A00795455
:1008E300E4FD1216797BFE7A0079597D011216799F
:1008F3007BFE7A00795B7D021216797F041219322E
:10090300438F10121BE1783EE254FEF2020817787F
:100913003EE230E4137844E2FE08E2FF121ACA789A
:100923003EE254EFF2020817783EE230E7237BFE03
:100933007A007943121906EF700B7843E27868F274
:10094300E2FF120E1D438F10783EE2547FF202083D
:1009530017783EE230E50C1219AC783EE254DFF230
:10096300020817200303020817121B73020817C09B
:10097300E0C0F0C083C082C0D075D018788DE21477
:10098300F2E2700B783EE24420F2788D741EF27826
:100993008EE214F2E27010783EE24410F2784512CF
:1009A3001B69788E7414F2300F2B7892E214F230B4
:1009B300B30D788FE2C3940850057897E204F27878
:1009C30092E270117404F2788FE214F2E27006740A
:1009D3000AF2121A61200203020AC67892E214F2A2
:1009E3007896E2FF25E0F230B303E204F27892E274
:1009F3006003020AC67404F2788FE214F27896E276
:100A030025E07885F2E2FF7896E2FEEF6E7885F2D4
:100A130018E4F208E2FF30E10418E204F2EF30E2F6
:100A2300057884E204F2EF30E3057884E204F2EF20
:100A330030E4057884E204F27884E2D3940240023D
:100A4300C202788FE2B40706D20E7891E4F2788F6F
:100A5300E2B40302C20E7895E225E07995F318E239
:100A63003319F37896E260057895121B697896E45A
:100A7300F2788FE2704D740AF27898E214F2E47817
:100A830094F208E25478F2E2700218E26012789568
:100A9300E26478700218E260077891E26002C202B1
:100AA3007893E2FF25E0F27895E2700218E26005A0
:100AB3007893E204F27894E4F208F27898E270030F
:100AC300120006D0D0D082D083D0F0D0E032784A62
:100AD300E2783FF2784BE27840F2784CE27841F2E8
:100AE300783FE2786BF27840E2786CF27841E27812
:100AF3006DF2E47862F208F208F208F208F208F202
:100B0300786BE2FF600D7846E260081202EE7862CD
:100B1300120384786CE2FF600D7847E260081202EA
:100B2300EE7864120384786DE2FF60157848E26022
:100B3300101202EEE493FF7401937866CFF208EF8C
:100B4300F2AFF9EFADE9786EF2ED08F2200702801B
:100B5300577846E26011786BE2782D120C167862B2
:100B6300EEF208EFF28006E47862F208F27847E2E8
:100B73006011786CE2782E120C167864EEF208EFAE
:100B8300F28006E47864F208F27848E26014786D43
:100B9300E2FF782FE2FD1210C57866EEF208EFF25D
:100BA3008006E47866F208F27862E27854F27862BA
:100BB300E208E27855F27864E27859F27864E20860
:100BC300E2785AF27866E2785BF27866E208E278D5
:100BD3005CF27862E2FE08E2FF786EE2FC08E2FD76
:100BE3002F784F1203C8F5EA18E2F5FA7864E2FEAB
:100BF30008E278511203C5F5EB18E2F5FB7866E2DB
:100C0300FE08E278531203C5F5EC18E2F5FCD2DED8
:100C1300021987FFE2FD1210C5221204687880CF03
:100C2300F208EFF2187DC81203B2C006C007120320
:100C330019740A93FE740B93FBAA06E4F9F8D00720
:100C4300D006120733120319E493FC740112033123
:100C5300500F120422C374439D08F2C37422020D81
:100C630007120319E493FC740112042C401B740251
:100C730093FC740393FDD37881E29D18E29C5009A1
:100C8300120422C374439D8040120319740293FC1F
:100C930074031203314013740493FC740512042C7F
:100CA3005008120422ED24BE801F1203197404930A
:100CB300FC7405120331401A740693FC7407120482
:100CC3002C500F12043EED24BE08F2EF24DF08F28D
:100CD3008035120319740693FC740712033140180C
:100CE300740893FC740912042C500D12043EED2475
:100CF300BE08F2C374EA800C12043EC3740B9D0851
:100D0300F2C374EA9F08F2E4FF747D2FF8E275F0F2
:100D13000A84FE744A2FF8EEF2744A2FF8E275F053
:100D23000AA4FE747D2FF8E2C39EFE742D2FF8EE05
:100D3300F20FEFB403D322C18081490F81610F8188
:100D43004D0A833F0A0000834A0A0000814205835B
:100D530046010101835D01010182440000816000BD
:100D6300813E00C103C10283560000008662000178
:100D730000010001864E0001000100018143008251
:100D830054000082590000825B0000829A00008EAA
:100D93000506060104030202030306030101018F92
:100DA3001307010202010602010101020105010309
:100DB300C107832D000000813500813D00830200BF
:100DC3000000C18581340082001E808237007A8151
:100DD3003600812A00C186C1048186C881880A81C0
:100DE3008D1E81873C82890000818E14818500815C
:100DF3008400C10DC10C819204818F0A81980881FE
:100E0300960082940000819300819100819000817B
:100E13009900819700C10EC10F00A200920A784980
:100E2300E2787CF2C2ACEF5403FE787AF208F2EF78
:100E3300543C1313543F18F2EE7031E2FF64016027
:100E430004EFB4020FEF1424FF9200A20A920B12D4
:100E53001C7D8077787AE2B40505E47849802778A9
:100E63007AE2640A706578497410801A787BE264C8
:100E730001701D18E2FF6053D394104003D3800127
:100E8300C340487849EFF2787CE2FF121C38803B7C
:100E9300787BE2FFB4021718E2FE602FD3940B4075
:100EA30003D38001C34024EE14784DF2801DEFB4C8
:100EB3000318787AE2FF6013D3940B4003D38001C5
:100EC300C34008EF147842F2800100D2AC2212032F
:100ED3001512036B5003020F7BE4FF745D2FF8E2DE
:100EE3007002800774462FF8E260051204768003CF
:100EF3001204510FEFB403E37834E2FF7005785D19
:100F030004801EEFB40102800AEFB402028004EFF2
:100F1300B40306785D7401801AEFB40409785D7434
:100F23000112046F801EEFB40502800EEFB40606B3
:100F3300E4785DF2800AEFB4070A785D7401F2E4A5
:100F430008F208F27833E214F2E2702908E204F2BC
:100F5300E2FF6408600A7849E2B41016EFB40412A1
:100F6300E47834F27849E26004E2B410057835E2BB
:100F730004F212044712036422A20092087849E2A1
:100F83007870F2EF54F0C4540F24FCFE786EF2082C
:100F9300F2EF540F18F2EE702FE2FF64016004EFDA
:100FA300B4020DEF1424FF9200A208920B021C7DE1
:100FB300786EE2B40505E478498027786EE2640A26
:100FC300706178497410801A786FE26401701B189D
:100FD300E2FF604FD394104003D38001C3404478B1
:100FE30049EFF27870E2FF021C38786FE2FFB40237
:100FF3001618E2FE602DD3940B4003D38001C34047
:1010030022EE14784DF222EFB40317786EE2FF60FC
:1010130012D3940B4003D38001C34007EF147842EB
:10102300F22200221202B240030210C47834E2FF1B
:101033007005784604804DEFB401028037EFB402A7
:10104300028025EFB403028016EFB404028048EF58
:10105300B405028042EFB40602803CEFB4070512E8
:10106300033F8045EFB40808E47846F2080480366D
:10107300EFB4090878467401F208802AEFB40A092C
:101083007846740112046F8020EFB40B061203201C
:10109300088013EFB40C07E47846F2088008EFB435
:1010A3000D0712032008F208F2120308B40E127897
:1010B30049E26004E2B410057835E204F2E47834DE
:1010C300F2227870EDF2AB07EBB40A0C12046174F0
:1010D3001293FE741393FF22EB70287870E2FFC320
:1010E300740A9FFFE49400FE7C007D7812069078DA
:1010F30071EEF208EFF21204617401932FFFE4938F
:101103003EFE22EB1202EFE493FE740193FF1204FE
:101113006175F002EB1207C5E493FC740193FDC300
:10112300EF9D7872F2EE9C18F2E2FE08E2FF7C007B
:101133007D0A1206A27873EEF208EFF2EB1202EFC9
:101143007870E2FF7E007873E2FC08E2FD120690FD
:10115300C37401939FFFE4939EFE221202B24003E5
:101163000211F37834E2FF70028017EFB4010280BA
:101173001AEFB402028044EFB403028054EFB404C4
:1011830006E41203278051EFB40506E47846F280A3
:1011930007EFB4060A12032008F20804F28039EFBD
:1011A300B40708E47846F20804802AEFB408087804
:1011B300467401F208801EEFB40907E47846F2088A
:1011C3008013EFB40A07E47846F2088008EFB40B03
:1011D3000712032008F208F2120308B40C1278492C
:1011E300E26004E2B410057835E204F2E47834F204
:1011F30022787FE4F6D8FD75816702123B0208046A
:10120300E493A3F8E493A34003F68001F208DFF428
:101213008029E493A3F85407240CC8C333C4540FA0
:101223004420C8834004F456800146F6DFE4800B73
:101233000102040810204080900D3AE47E0193607F
:10124300BCA3FF543F30E509541FFEE493A36001A0
:101253000ECF54C025E060A840B8E493A3FAE4930A
:10126300A3F8E493A3C8C582C8CAC583CAF0A3C8B8
:10127300C582C8CAC583CADFE9DEE780BEC0E0C055
:10128300D075D00830D82CC2D87863E2700218E247
:10129300601F7856E26006C2CDE4F28016D2CD78A4
:1012A3004F121B5CF5EA18E2F5FA78567401F280E6
:1012B30002C2CD30D924C2D97865E2700218E26047
:1012C300197857E26004E4F280107851121B5CF540
:1012D300EB18E2F5FB78577401F230DA24C2DA78BE
:1012E30067E2700218E260197858E26004E4F28061
:1012F300107853121B5CF5EC18E2F5FC7858740176
:10130300F2D0D0D0E0321203197834E2FD1202BBDE
:10131300505CED7002803D7834E2FFB4010280340A
:10132300EFB40202802E7834E2FFB403028025EF8B
:10133300B40402801F7834E2FFB40514784DE2143C
:10134300784AF2784DE214784BF2784DE214801328
:10135300EFB40612784DE2784AF2784DE2784BF218
:10136300784DE2784CF2120308B40702E4F2221239
:1013730002B250587834E2FF7006784704F28034A2
:10138300EFB4010478468029EF64026027EFB403C9
:1013930006E47846F2801DEFB40406E47847F28051
:1013A30013EFB40506E47848F28009EFB40B05782F
:1013B300487401F2120308B40C127849E26004E2A3
:1013C300B410057835E204F2E47834F2221202B262
:1013D30050557834E2FF70090412045904F2E48092
:1013E3002BEFB4010BE47802120329784604800D35
:1013F300EFB4020E740112045904F2784612046F1A
:10140300800DEFB40309E4780212032912043512A4
:101413000308B404127849E26004E2B41005783595
:10142300E204F2E47834F2221202B250537834E246
:10143300FF70028014EFB401028004EFB4050512BB
:10144300033F8024EFB40606E4120327801AEFB4A7
:101453000705120320800DEFB40B0512032080044F
:10146300E47846F208F208F2120308B40C12784941
:10147300E26004E2B410057835E204F2E47834F271
:10148300221203197834E2FD1202BB504BED7002B5
:1014930080267834E2FFB401051203208012EFB4F2
:1014A3000206E47846F28008EFB40307E47846F2D4
:1014B30008800AEFB40409E47846F20804F208F25B
:1014C300120308B405127849E26004E2B410057807
:1014D30035E204F2E47834F222120468787ECFF223
:1014E30008EFF2E4787DF2787E1203B0C006C007FD
:1014F300120349D007D00612073378801204037809
:1015030083F2E49E18F2787DE22402F8E270047814
:101513008080027882120413787D120390787DE232
:10152300242DF8EFF2787DE204F2E2640370B8222E
:10153300120468787ECFF208EFF2E4787DF2787EC9
:101543001203B0C006C007120349D007D006120722
:101553003378801204037883F2E49E18F2787DE2F4
:101563002402F8E2700478808002788212041378EF
:101573007D120390787DE2242DF8EFF2787DE2046A
:10158300F2E2640370B822C0E0C0F0C083C082C03E
:10159300D075D000C000C001C002C003C004C005A4
:1015A300C006C007538FEF7BFE7A007943121906FA
:1015B300EF700B7843E27879F2E2FF120E1D438F4E
:1015C30010D007D006D005D004D003D002D001D06C
:1015D30000D0D0D082D083D0F0D0E0321202B2500B
:1015E300477834E2FF70051203278024EFB4010526
:1015F30012033F801BEFB40206E47846F2800DEF3E
:10160300B405051203208004E47846F208F208F2D8
:10161300120308B406127849E26004E2B4100578B4
:1016230035E204F2E47834F2221202B250477834FD
:10163300E2FF70051203278024EFB4010512032093
:101643008017EFB40206E47846F2800DEFB4050587
:1016530012033F8008E47846F208F208F212030806
:10166300B406127849E26004E2B410057835E20466
:10167300F2E47834F2227870EBF208EAF208E9F245
:1016830008EDF2C2B7D3940550141217BB787874DF
:1016930005F27F301217F078731217BB800E121702
:1016A300CB7F301217F07BFF7A2079AD7878740501
:1016B300F27F2A1217F0D2B778701217E712195D6A
:1016C3002212031512036B403EE4FF74462FF8E227
:1016D300600512047680031204510FEFB403EC1279
:1016E30003647833E214F2E2701D08E204F2E2B418
:1016F30009127849E26004E2B410057835E204F295
:10170300E47834F212044722C0E0C0D075D000C0A0
:1017130000309825C298789CE22428F8A699789CF2
:10172300E204F2C394204002E4F2E599B40A0A7891
:101733009CE4F2783EE24404F2309904C299C20C6C
:10174300D000D0D0D0E032E4786BF2786BE2FFC304
:101753009402502BE2FE2428F8E6FD746C2EF8ED7B
:10176300F2EFB40113786BE2246CF8E2B40A09785F
:101773006CE2FF120F7C8007786BE204F280CCD21C
:10178300AC22C0E0C0D075D01030B30920020620CF
:101793000F0312188030B308300F057899E204F272
:1017A30020B31030020D300E057891E204F27890E8
:1017B300E204F2D0D0D0E032E275F005A424B2F90D
:1017C300742035F0FA7BFF227BFF7A2079AD78789D
:1017D3007405F2227F07121C72AB07AD037F271239
:1017E3001A1CEB22E2FB08E2FA08E2F922787512EE
:1017F3001B15AD07E4FC7878E2FFECC39F501D781E
:1018030075E2FB0808E2F92401F218E2FA3400F267
:10181300120655FF7E00121B210C80DAD292AF050F
:1018230022787E121B15AD07E4FC7881E2FFECC33E
:101833009F50187FFF7E00121B21787E1217E78CC2
:1018430082758300EF12066E0C80DFD292AF052201
:101853001202B25027E4FF74462FF8E26005120427
:101863007680031204510FEFB403EC7849E260046D
:10187300E2B410057835E204F2120364227892741C
:1018830004F2788F740AF278987408F2E47896F286
:101893007894F208F27893F27891F218F27899F248
:1018A3007897F2D202C20FC20E22C2B71217CB7FB1
:1018B300301217F01217CB7F2A1217F07D017F2108
:1018C300121A1C7F22121A1C1D7F24121A0E1D7F4E
:1018D30020121A1CD2B7221202B25026E4FF74025D
:1018E3002FF8E26004E4F280037401F20FEFB40313
:1018F300ED7849E26004E2B410057835E204F212AF
:10190300036422787AEBF208EAF208E9F21217D7B5
:1019130030E619787A1217E778817401F27F611241
:1019230018247DFF7FE2121A1C7F00227F0122C24E
:10193300B7EF1217BC78787405F27F2A1217F07D7F
:10194300017F31121A1C7D3F7F21121A1C7F221244
:101953001A0E7F20121A1CD2B722C2B778787402EB
:10196300F27FA01217F0D2B720B6FD1217D730E4DA
:101973000A7DFF7FE1121A1C7F1022EB7FFF30E507
:10198300027F2022538FEF1218AD7BFE7A00795924
:101993007D011216797BFE7A00795B7D021216793E
:1019A3007F04121932438F10227849E2701D786147
:1019B300E22404F8E2FF7835E2B5070F7861E2909C
:1019C3001D0693F2E47835F212047D22120319D333
:1019D300740B939F740A939E50117849E26004E25A
:1019E300B410057835E204F21203642243BC080004
:1019F300000000E5BC30E4FB53BCEFAFBDEF75F076
:101A030004A4FFAEF0ADBEEF4DFF22121A1C7D28D9
:101A13007F25121A1C7D0F7F26121B1DAC07AF05F5
:101A2300121B21D292AF0422121BF11202E7741C83
:101A3300F20874FCF2E4F526F527000075241D7501
:101A430025242212032008F208F2785D04F2E4123E
:101A5300029BE47834F2E290207D9318F222C20FC5
:101A63007899E2C3940250107897E2C39402500825
:101A7300783EE24440F2C2AA22E4FF784DE2200518
:101A830005C313FE8001FE744A2FF8EEF20FEFB484
:101A930003E922C0E0C0D075D008C2DEC2CD783ED3
:101AA300E24401F2A2B29201D0D0D0E03275985054
:101AB30075D7D875D6FF438E14438E01D2BCD2ACF2
:101AC300E4789DF218F2227861E2B40F0412036401
:101AD30022783008E2FA08E2F5828A831207D522D7
:101AE3001202B250137849E26004E2B4100578356B
:101AF300E204F2B20512036422E4FF744A2FF8E20F
:101B0300C394015007744A2FF87401F20FEFB40322
:101B1300EA22EBF208EAF208E9F2C2927E008FCFE2
:101B2300E5CD30E7FB75CDC0AFCF22120434E478A6
:101B33004AF208740AF2E408F278021203297834AC
:101B4300F222E4F5D8F5E9F5F9F5D975DA4975DB4B
:101B53004975DC49D2BFC2DE22E22433F218E234F3
:101B630001F2E208E222E22401F218E23400F22256
:101B73001219EFC3789BE29F18E29E5005EEF2081C
:101B8300EFF2221203A6E47802F208F208F2784A8E
:101B9300F208F208F22253C9DF43CA2053C9EF43C4
:101BA300CA1043B10453B2FB22EF5403FF64036032
:101BB3000A53A2F3EF25E025E042A22212029FE49A
:101BC3007834F2784604F2E408F208F22278887452
:101BD3000AF2788674C8F2E47844F208F22278397B
:101BE30008E2FA08E2F91207D1A2009206221202D1
:101BF3009678617401F2E47835F202047D00007F87
:101C0300087E017DF3DDFEDEFCDFFA22121AB0123C
:101C13000026121CC0121B45021CC712032008F227
:101C230008F2783412029E22D2CC121C00C2CC12CB
:101C33001C00D2CC227849E26F6005C20312005621
:101C4300221203A6C205E4783412029E22EF540343
:101C530053CEFC42CE43CE402212029FE47834F2AC
:101C630012034022120296E47834F212044922123B
:101C73001B1D7FFF121B21D29222A200300B01B346
:101C83005001002212033FE4783412029E22120410
:101C930034E4783412029E221203A6E4783412024A
:101CA3009E2275CDC075CE9043CE4022E47834F2A7
:101CB3000412029822120296E47834F222D2B2C2BB
:101CC30088D2A822C28AD2BAC2AA22121C0F021D2B
:101CD3000412029F2212029F2212029F2212029FCB
:101CE300221203A62212029F2212029F2212029F95
:101CF3002212029F2212029F2212029F2212029696
:101D030022021A2B02030405060708090A0B0C0D0D
:101D13000E010A010B080D06050408020501020164
:101D23000B266625332280201A1CB31B2618C016E7
:101D33003313CD0F000043003C0035002E00270075
:101D430021001C00160010000B0005039403410240
:101D5300EE029A024701F401A0014D00FA00A60029
:101D6300530043003C0035002E00270021001C00D7
:101D7300160010000B00050043003C0035002E0048
:101D8300270021001C00160010000B000500430073
:101D930019008700430024003C00160078003C0033
:101DA3002100350014006A0035001E002E001200C9
:101DB3005C002E001B00270010004E0027001700B8
:101DC30021000D004300210014001C000A0038000C
:101DD3001C001000160008002C0016000D00100057
:101DE3000600200010000A000B00040016000B0080
:101DF3000700050002000A00050003013102630326
:101E03009404C505F707280116022B03410457055F
:101E13006D068300FA01F402EE03E804E205DC0038
:101E2300DE01BC029A03780456053400C30186021E
:101E330047030903CB048E00A7014D01F4029B0362
:101E43004103E8008B011601A0022C02B7034000F6
:101E53006F00DE014D01BC022B029A005300A60065
:101E6300FA014D01A001F40037006E00A600DD0168
:101E730014014B001C00380053006E008A00A500BB
:101E830043003C0035002E00270021001C001600F3
:101E930010000B0005016F014D012C010B00E9003F
:101EA300C800A70085006400430021011300FA0065
:101EB300C800AF0096007D0064004B00320019009B
:101EC300000043003C0035002E00270021001C00C9
:101ED300160010000B000502260186016F01250084
:101EE300DC00840054003B001D01F40168014D0136
:101EF3000B00C80078004C0035001B01C2014A01E9
:101F03002C00F000B4006C00440030001801900174
:101F13002C010B00D500A00060003E002A00160132
:101F23005E010E00E900BB008C0054003800250060
:101F330013012C00F000C800A00078004800300016
:101F430020001000FA00B400A700850064003C00E4
:101F530028001B000D00C800960085006B00500090
:101F63003000200016000A0096007800640050003C
:101F73003C002400180010000800640050004300D7
:101F830035002800180010000B000500320028005F
:101F930021001B0014000C0008000500030033009F
:101FA30033003300330025003300330033002F00A8
:101FB3002F002F002F0021002F002F002F002A00B9
:101FC3002A002A002A001E002A002A002A002500CF
:101FD3002500250025001B002500250025002100E4
:101FE30021002100210018002100210021001C00F4
:101FF3001C001C001C0014001C001C001C0017000B
:102003001700170017001000170017001700130020
:102013001300130013000D001300130013000E0030
:102023000E000E000E000A000E000E000E00090046
:10203300090009000900070009000900090005005B
:1020430005000500050004000500050005039403D1
:102053004102EE029A024701F401A0014D00FA0089
:10206300A600530002000200020002000200020068
:10207300020808080C0C101014180E0E0E0E0A0E8F
:102083000E0E030405060708090A030507070C0FCC
:10209300131704070B0F141A1F2304070B10161C26
:1020A30021290A0B0C0D0023262F004310100100D9
:1020B30043101001014310100102431010010343A8
:0D20C300101001044310100105431010011E
:00000001FF
