:10000000020BA29000F2E04410F0220212840217C8
:0100100006E9
:100013000215D97E007FB2E4FB7D847C03020F6B63
:10002300020CAA53C9EF43CA1053C9DF43CA205372
:1000330091EF4392100217B1020B05E709F608DFAF
:10004300FA8046E709F208DFFA803E88828C83E76C
:1000530009F0A3DFFA8032E309F608DFFA8078E3D8
:1000630009F208DFFA807088828C83E309F0A3DF4A
:10007300FA806489828A83E0A3F608DFFA805889CC
:10008300828A83E0A3F208DFFA804C80D280FA8070
:10009300C680D4806980F28033801080A680EA8095
:1000A3009A80A880DA80E280CA803389828A83ECCE
:1000B300FAE493A3C8C582C8CCC583CCF0A3C8C552
:1000C30082C8CCC583CCDFE9DEE7800D89828A83D1
:1000D300E493A3F608DFF9ECFAA9F0EDFB22898299
:1000E3008A83ECFAE0A3C8C582C8CCC583CCF0A34D
:1000F300C8C582C8CCC583CCDFEADEE880DB898251
:100103008A83E493A3F208DFF980CC88F0EF6001DF
:100113000E4E60C388F0ED2402B4040050B9F5829A
:10012300EB2402B4040050AF232345822390008EB6
:1001330073BB010689828A83E0225002E722BBFE59
:1001430002E32289828A83E49322BB010CE582299C
:10015300F582E5833AF583E0225006E92582F8E645
:1001630022BBFE06E92582F8E222E58229F582E533
:10017300833AF583E49322F8BB010DE58229F582E6
:10018300E5833AF583E8F0225006E92582C8F62292
:10019300BBFE05E92582C8F222EF8DF0A4A8F0CFBB
:1001A3008CF0A428CE8DF0A42EFE22BC000BBE0042
:1001B30029EF8DF084FFADF022E4CCF875F008EF61
:1001C3002FFFEE33FEEC33FCEE9DEC984005FCEE86
:1001D3009DFE0FD5F0E9E4CEFD22EDF8F5F0EE84B7
:1001E30020D21CFEADF075F008EF2FFFED33FD407C
:1001F30007985006D5F0F222C398FD0FD5F0EA22F6
:10020300C5F0F8A3E028F0C5F0F8E5821582700286
:100213001583E038F022EB9FF5F0EA9E42F0E99D6A
:1002230042F0EC6480C864809845F0228A83898216
:10023300E473E709F60870FA8046E709F20870FAF2
:10024300803E88828C83E709F0A370FA807EE309FD
:10025300F60870FA8076E309F20870FA806E8882F5
:100263008C83E309F0A370FA806289828A83E0A316
:10027300F60870FA805689828A83E0A3F20870FA3E
:10028300804A80D280FA80C680D4806580F2803133
:10029300801080A680EA809A80A880DA80E280CAF3
:1002A300803189828A83ECFAE493A3C8C582C8CCDF
:1002B300C583CCF0A3C8C582C8CCC583CC70E98004
:1002C3000D89828A83E493A3F60870F9ECFAA9F006
:1002D300EDFB2289828A83ECFAE0A3C8C582C8CCED
:1002E300C583CCF0A3C8C582C8CCC583CC70EA80D3
:1002F300DD89828A83E493A3F20870F980CE88F0C3
:10030300ED2402B4040050C4F582EB2402B40400CB
:1003130050BA232345822390028573E3F5F009E263
:1003230008B5F06BDFF58067E3F5F009E608B5F093
:100333005EDFF5805A87F009E608B5F052DFF680F4
:100343004E87F009E208B5F046DFF6804288828CDA
:100353008387F009E0A3B5F036DFF6803288828C1C
:100363008387F009E493A3B5F025DFF58021888224
:100373008C83E3F5F009E0A3B5F014DFF580108872
:10038300828C83E3F5F009E493A3B5F002DFF40272
:10039300044D808780E9809080D4803E8015806EF4
:1003A300807E809D80B7808D80A380518074803C47
:1003B30002045989828A83ECFAE493F5F0A3C8C551
:1003C30082C8CCC583CCE493A3C8C582C8CCC583FB
:1003D300CCB5F076DFE3DEE1807089828A83E49333
:1003E300F5F0A3E208B5F062DFF4805E89828A83C8
:1003F300E0F5F0A3E608B5F051DFF5804D89828A78
:1004030083E0F5F0A3E208B5F040DFF5803C898294
:100413008A83E493F5F0A3E608B5F02EDFF4802A8F
:100423008002805789828A83ECFAE493F5F0A3C8AB
:10043300C582C8CCC583CCE0A3C8C582C8CCC5835C
:10044300CCB5F006DFE4DEE280007FFFB5F0020FFB
:100453002240027F012289828A83ECFAE0F5F0A32D
:10046300C8C582C8CCC583CCE0A3C8C582C8CCC5E7
:1004730083CCB5F0D5DFE5DEE380CF89828A83ECD8
:10048300FAE0F5F0A3C8C582C8CCC583CCE493A336
:10049300C8C582C8CCC583CCB5F0AFDFE4DEE2804B
:1004A300A988F0EF60010E4E60ABED2402B40400A6
:1004B3005098F582EB2402B40400508E2323458226
:1004C3002390039573EF4E6012EF60010EEDBB01B5
:1004D3000B89828A83F0A3DFFCDEFA2289F05007BE
:1004E300F709DFFCA9F022BBFEFCF309DFFCA9F04E
:1004F300228B2C8A2D892EA801AC02AD037BFF7AB7
:100503000A79CD7E007F051204A4EF6003020595EE
:10051300AB2CAA2DA92E90000512014DB43D0F90CE
:10052300000612014DB43F061214160205F5AB2C5A
:10053300AA2DA92E90000512014DB43D229000066C
:1005430012014DB430191217CDE4F518D2B71215B4
:10055300EF1216E8E4F5249000D57404020802AB08
:100563002CAA2DA92E90000512014DB43D0E90002A
:100573000612014DB4310512142E8076AB2CAA2D30
:10058300A92E90000512014DB43F05D2B702176E94
:100593008060A82EAC2DAD2C7BFF7A0A79D37E0028
:1005A3007F071204A4EF704DAB2CAA2DA92E900047
:1005B3000712014DB43F0302148EAB2CAA2DA92EB2
:1005C30090000712014DB4310C12169275330112CB
:1005D30010D90214A6AB2CAA2DA92E900007120144
:1005E3004DB4300E1214A61217DBC2B6E4F5330273
:1005F3000806020806A82EAC2DAD2C7BFF7A0A79DB
:10060300DB7E007F0B1204A4EF60030207C0AB2C58
:10061300AA2DA92E90000B12014DB43F030214D64C
:10062300AB2CAA2DA92E90000B12014D642260035E
:100633000206D890001012014D642260030206D80E
:1006430090000D12014DFF3395E0FEEF24D0FFEE35
:1006530034FFFE7C007D6412019CC006C00790003D
:100663000C12014DFF3395E0FEEF24D0FFEE34FF73
:10067300FE7C037DE812019CD0E02FFDD0E03EFC20
:10068300C004C00590000E12014DFF3395E0FEEF4C
:1006930024D0FFEE34FFFE7C007D0A12019CD0E0E3
:1006A3002FFFD0E03EFE90000F12014DFD3395E089
:1006B300FCED24D0FDEC34FFCD2FFFED3EFE7C009E
:1006C3007D141201AE8E258F26AB2CAA2DA92E9058
:1006D30000130207B0AB2CAA2DA92E90000B120118
:1006E3004D642260030207BA90001112014D642287
:1006F30060030207BA90000D12014DFF3395E0FE2F
:10070300EF24D0FFEE34FFFE7C037DE812019CC092
:1007130006C00790000C12014DFF3395E0FEEF2455
:10072300D0FFEE34FFFE7C277D1012019CD0E02F1A
:10073300FDD0E03EFCC004C00590000E12014DFF49
:100743003395E0FEEF24D0FFEE34FFFE7C007D64A2
:1007530012019CD0E02FFDD0E03EFCC004C0059008
:10076300000F12014DFF3395E0FEEF24D0FFEE346E
:10077300FFFE7C007D0A12019CD0E02FFFD0E03EFB
:10078300FE90001012014DFD3395E0FCED24D0FDE9
:10079300EC34FFCD2FFFED3EFE7C007D141201AE45
:1007A3008E258F26AB2CAA2DA92E90001412014D55
:1007B30024D0F5230214EE121506020882A82EACEB
:1007C3002DAD2C7BFF7A0A79E77E007F081204A403
:1007D300EF7032AB2CAA2DA92E90000812014DB454
:1007E3003F0302154EAB2CAA2DA92E90000812012F
:1007F3004DB4310F1217EE1217069000D57402F0A4
:1008030002120D807AA82EAC2DAD2C7BFF7A0A79CB
:10081300F07E007F091204A4EF7049AB2CAA2DA926
:100823002E90000912014DB43F03021536AB2CAADA
:100833002DA92E90000912014DB4310E120016900D
:1008430000D57401F012120D8015AB2CAA2DA92E20
:1008530090000912014DB430091216B612173E0268
:10086300151E801BA82EAC2DAD2C7BFF7A0A79FABE
:100873007E007F0A1204A4EF700512156680001231
:10088300173E22C2AF1217F4120D24121715D2AF5E
:10089300D2B2D2AA9000F27410F053C17F43C110B8
:1008A3009000F2E030E21A120ED4E519600312133D
:1008B30091E5106003120FAC9000F2E054FBF0805E
:1008C300D99000F2E030E30C1213FD9000F2E054F3
:1008D300F7F080C69000F2E020E1030209697E0090
:1008E3007FEA120E7D50079000F2E04408F0E52401
:1008F300702D121193EFD394284024C290C291C259
:1009030093C2921217D420B3051217328009E4F56B
:1009130035121724753401E4F518752401C2B7E5BF
:100923002170331211BCEFD39428402AE4F534E547
:100933002770087535021217CD8006753501121719
:10094300BFE4F514752101C290C291C293C292D241
:10095300AAC2B71217241216041217FA9000F2E073
:1009630054FDF002089D9000F2E030E01012173EB3
:100973007519019000F2E054FEF002089D9000F218
:10098300E030E41DE4F533C2B69000D5F01216B69C
:10099300C201D2AA9000F2E054EFF0758702020878
:1009A3009D9000F2E030E52C1217C61217D41217EF
:1009B300B81217BF1215C31216F7D2B7E4F521F513
:1009C300149000D57403F012120D9000F2E054DF7E
:1009D300F002089D9000F2E020E60302089D121742
:1009E300D41217CDE49000E7F0C2CDC294C2CC7507
:1009F3003401753503121724D2AA9000F2E054BFD4
:100A0300F002089D2B4C4F434B3A28302D31290DD2
:100A13000A4F4B0D0A004F4B0D0A002B434353481B
:100A2300553A4552524F520D0A002B4C4F434B3A05
:100A3300310D0A4F4B0D0A002B4C4F434B3A300DEF
:100A43000A4552524F520D0A002B4C4F434B3A303A
:100A53000D0A4F4B0D0A002B414C41524D3A2830A1
:100A63002D31290D0A4F4B0D0A002B414C41524D9C
:100A73003A300D0A002B414C41524D504152413AFC
:100A8300224B4559222C2256414C5545220D0A4FE3
:100A93004B0D0A002B524553455256453A28302DEB
:100AA30031290D0A4F4B0D0A002B5245534552561F
:100AB300453A310D0A4F4B0D0A002B46494E444D22
:100AC300453A310D0A4F4B0D0A002B4C4F434B0057
:100AD3002B414C41524D3D002B414C41524D504115
:100AE30052413D002B46494E444D453D002B524556
:100AF30053455256453D002B444941474E4F5345BC
:100B03003F00C0E0C0F0C083C082C0D075D008C22F
:100B1300D8E53370028058E5336401703FB2B6788C
:100B23003BE6FE08E6783E26F618EE36F6E6FE08C5
:100B3300E6F5EAEEF5FA783C06E618700106783B2E
:100B4300E6FE08E6FFE4FCFD7BE6FAF9F8D31202C1
:100B5300195041783B76000876738038E533640298
:100B6300600BE53364046005E533B40527B2B6AF23
:100B730033EF25E02417F582E43418F583E493FE7C
:100B8300740193783E26F618EE36F6E6FE08E6F58F
:100B9300EAEEF5FAD0D0D082D083D0F0D0E032782C
:100BA3007FE4F6D8FD75813F020BE9020886E493E2
:100BB300A3F8E493A34003F68001F208DFF480294D
:100BC300E493A3F85407240CC8C333C4540F44203C
:100BD300C8834004F456800146F6DFE4800B01022B
:100BE300040810204080900D9DE47E019360BCA317
:100BF300FF543F30E509541FFEE493A360010ECF79
:100C030054C025E060A840B8E493A3FAE493A3F8A2
:100C1300E493A3C8C582C8CAC583CAF0A3C8C58262
:100C2300C8CAC583CADFE9DEE780BE9000F1E09061
:100C330000F0F01217A8EFF4FFA3F09000F0E0FE2D
:100C43006FFDEE5D621DED6F651C603CAF1B051B08
:100C5300EFD3940A4004A3E0421CE51BD394054060
:100C6300069000F1E0521DE51BD394004007E51FF9
:100C7300700312173EE51BD39400402AC293C2921D
:100C8300D290D291751F0122E4F51BE51F600FD2AC
:100C9300AAC290C291C293C292E4F51FF5199000C3
:100CA300F1E0521C521D22C0E0C083C082C0D07547
:100CB300D000C00730982DC2989000EFE0702590C7
:100CC30000EDE0C394404002E4F09000EDE0FF0447
:100CD300F074002FF582E43400F583E599F0900079
:100CE300EE7404F030992FC2999000EBE0FF90006E
:100CF300EAE06F601CE02440F582E43400F583E011
:100D0300F5999000EAE004F0C394144009E4F080FC
:100D1300059000ECE4F0D007D0D0D082D083D0E0AF
:100D2300327E007FBC7C117D0C1213757E007FD058
:100D33007C127DF21213757E007FAD7C167D7F12CF
:100D430013757E007FA87C157DAD1213757E007F21
:100D5300C67C007D0E1213757E007FB27C007D037E
:100D63001213757E007FCB7C177DE21213757E0014
:100D73007FB77C177DE81213757E007FC17C0F7DE2
:100D8300EB1213757E007FD67C177D791213757E67
:100D9300007FDC7C127DAB021375023D0000023B39
:100DA3000073C100013300013400C1810127010137
:100DB3002401012101022500960123014100DB00EA
:100DC300053600C8643232012900012200C1020144
:100DD3002800013500011300021500000110000175
:100DE3001100011700011800011900011A00011276
:100DF30000011400013F044100F200C103011D0082
:100E0300011C00011F00011B00011E00008E2A8F20
:100E13002B8F828E83E0FEA3E0FF4E700D852B8225
:100E2300852A83A3A3E07002C322852B82852A83AC
:100E3300A3A3E014F07041EF4E7025852B82852A21
:100E430083A3A3A3E0FEA3E04E6013852B82852A30
:100E530083A3A3A3E0FEA3E0AA06F912022FD322E1
:100E6300852B82852A8374FFF5F0120203852B827A
:100E7300852A83A3A37432F0C3228F828E83A3A314
:100E8300A3E07002C322EF2404F582E43EF583E07D
:100E9300601AEF2404F582E43EF583E014F0700C4D
:100EA300EF2405F582E43EF5837401F0EF2404F5A5
:100EB30082E43EF583E0700CEF2405F582E43EF511
:100EC300837401F0EF2405F582E43EF583E024FF0B
:100ED300227E007FBC120E107E007FD0120E107E89
:100EE300007FAD120E107E007FA8120E107E007FD1
:100EF300C6120E107E007FB2120E107E007FCB1240
:100F03000E107E007FB7120E107E007FC1120E10EE
:100F13007E007FD6120E107E007FDC020E107E0054
:100F23007F147D007B017A0079401204C87E007F24
:100F3300407D007B017A0079001204C87E007FEABD
:100F430012113CE598543F4440F598438E01D2ACCE
:100F530043981053A23F53B1FE53B2FE53B1FD5316
:100F6300B2FD5397EF0213C98E2F8F308C318D3220
:100F7300EB701EE53224FFFEE53134FF85308285B8
:100F83002F83F0A3CEF08F82852F83A3A37432F037
:100F930022853082852F83E531F0A3E532F0853059
:100FA30082852F83A3A3EBF022E513B4102AE51562
:100FB300C4F854F0C868FEE516C4540F48D39436F9
:100FC300EE94014005E4F53480037534017535076B
:100FD300C2B7121724E4F510121356EF2516F516AF
:100FE300EE3515F515051322D2B2E5357005121449
:100FF3002E8030E535B401051214468026E535B45C
:10100300020512145E801CE535B4030512147680C4
:1010130012E535B404051214BE8008E535B40703A0
:101023001212CF02173E0528E528B40102800DE510
:1010330028B40203D2CD22E528B40307C2CDC2945B
:10104300C2CC22E528B40403D2CD22E528B405118D
:10105300E49000E7F0C2CDC294C2CCF5289000D54D
:10106300F0229000D5E025E0240DF582E43418F554
:10107300837401937002E493601B9000D5E025E034
:10108300240DF582E43418F583E493FE740193AAE6
:1010930006F912022FE49000E8F0A3F0228E2A8FC3
:1010A3002B7E007F407D007B017A0079541204C8B7
:1010B300AA2AA92B7B0178547C007D011203017BB2
:1010C300017A0079547D2B1213ADEA494B60030278
:1010D30004F412173E22AE25AF267C007D321201A6
:1010E300AEAC06AD07C004C0057E007FADC006C030
:1010F30007AE25AF267C007D321201AEAB05D007CB
:10110300D006D005D004020F6BC290C291C293C225
:1011130092E5217013121657EF700DD2AA7535029E
:10112300121724E4F534800BD2AA75350312172461
:10113300753401752101C2B7228F828E83E4F0A337
:10114300F08F828E83A3A3F08F828E83A3A3A3F059
:10115300EF2404F582E43EF583E4F0EF2405F58201
:10116300E43EF583E4F022E4F5D8F5E9F5F99018C7
:101173001793FE740193783E26F618EE36F6E6FED4
:1011830008E6F5EAEEF5FAE4F5D975DA49D2DE2296
:10119300121356D3EF9436EE940140057511018076
:1011A30003E4F511E5117008E517700405188003D1
:1011B300E4F518851117AF1822121356D3EF94369E
:1011C300EE94014005751A018003E4F51AE51A60EF
:1011D30008E512600405148003E4F514851A12AFC0
:1011E30014229000E7E0601A9000D5E02436F8E678
:1011F300FFC39000E9E09F9000E8E09400400A02FA
:101203001065E49000E8F0A3F0229000D5E025E01B
:101213002403F582E43418F583E493FE740193FF09
:101223004E6007AA06A90712022FE49000E8F0A374
:10123300F0228B2F8A30893112162EAE07E4FDED92
:10124300C39E5015AB2FAA30A9318D82758300122E
:10125300014DFF12125D0D80E6229000EBE0244069
:10126300F582E43400F583EFF09000EBE004F0C383
:1012730094144002E4F09000ECE0700404F0D2997E
:1012830022C0E0C083C082C0D075D0089000F2E0D5
:101293004402F0783F16E67006E04404F07604D08A
:1012A300D0D082D083D0E032121657EF7007F534D6
:1012B3007535018006753401E4F535121724C2B77C
:1012C300C290C291C293C29275210122E5347894EF
:1012D3007C007D017BFFB401067A0A794C80047A95
:1012E3000A792D1203017B017A007994021235C227
:1012F30090C291C293C292E524700F30B30C75343F
:1013030001F535C2B7121724800312173275240171
:10131300225391FB4392045391F74392085391FE56
:101323004392015391FD439202C290C291C293C270
:1013330092224391405392BF53B17F43B28043B152
:101343000853B2F753B1FB43B204C2B7C2B3D28A54
:10135300C2AA2243BC0800000000E5BC30E4FB53F2
:10136300BCEFAFBDEF75F004A4FFAEF0ADBEEF4D23
:10137300FF228F828E83E4F0A3F08F828E83A3A358
:10138300F08F828E83A3A3A3ECF0A3EDF022120CC3
:101393002EE51E7011E51C600D30E00A9000F2E0AE
:1013A3004420F0E4F51F851C1E22E94A4B700122FC
:1013B300120134FF6D700122EF7004FBFAF9220968
:1013C300E970ED0A80EA200317538EEF538EF7433B
:1013D3008E0475D77075D6FF53AFFB438E10D203BF
:1013E300220522E522B40107C2CDC294C2CC22E574
:1013F30022B40405D2CCE4F522229000D5E06401A6
:1014030060031217C67E007F001210A07E007FEAE1
:1014130002161978947C007D017BFF7A0A79071202
:1014230003017B017A00799402123578947C007D64
:10143300017BFF7A0A79191203017B017A007994FF
:1014430002123578947C007D017BFF7A0A791E12A3
:1014530003017B017A00799402123578947C007D34
:10146300017BFF7A0A792D1203017B017A007994BB
:1014730002123578947C007D017BFF7A0A793B1256
:1014830003017B017A00799402123578947C007D04
:10149300017BFF7A0A795A1203017B017A0079945E
:1014A30002123578947C007D017BFF7A0A79191248
:1014B30003017B017A00799402123578947C007DD4
:1014C300017BFF7A0A796D1203017B017A0079941B
:1014D30002123578947C007D017BFF7A0A797812B9
:1014E30003017B017A00799402123578947C007DA4
:1014F300017BFF7A0A79191203017B017A0079943F
:1015030002123578947C007D017BFF7A0A791E12E2
:1015130003017B017A00799402123578947C007D73
:10152300017BFF7A0A79191203017B017A0079940E
:1015330002123578947C007D017BFF7A0A79AC1224
:1015430003017B017A00799402123578947C007D43
:10155300017BFF7A0A79BD1203017B017A0079943A
:1015630002123578947C007D017BFF7A0A79191287
:1015730003017B017A00799402123512166B121360
:101583001412133512116A12178D120026121762E4
:10159300020F21C293C292D290D2917527017E008D
:1015A3007FDCE4FB7D03FC020F6B9000DBE004F0C7
:1015B300E0C394034006C2B6E4F533221216D822E0
:1015C300C293C292D290D291E4F5277E007FBCFBF6
:1015D3007D03FC020F6BC0E0C083C082C2AA9000EF
:1015E300F2E04401F0D082D083D0E0327E007FD09D
:1015F300E4FB7D03FC120F6BD293D292C290C29193
:10160300229000E7E0600E9000E9E004F07006909D
:1016130000E8E004F0228F828E83A3A3A3E4F0EF1B
:101623002405F582E43EF583E4F022E4FFFE120193
:1016330034600C0FEF70010E09E970F20A80EF229B
:10164300E49000E7F0C2CDC294C2CCF5299000D556
:10165300F002120DE4FFFE121356D3EF9436EE940C
:10166300017F0140027F0022538E7F5389FB538900
:10167300FC758CF7E4F58AD2A9D28C22C2B6E4F5C4
:1016830033E523700675350402172412173E2290A2
:101693001819E493FE740193FF783BA60608A60786
:1016A30022E49000E7F0C2CDC294C2CCF5299000A9
:1016B300D5F022E49000E7F0C2CDC294C2CCF52964
:1016C3009000D5F0228F828E83E4F0A3F08F828E78
:1016D30083A3A3F022C2B6E4F5337E007FC67B1951
:1016E300FDFC020F6B7533047E007FCB7B0AE4FDA8
:1016F300FC020F6B7533057E007FB77B0AE4FDFCAC
:10170300020F6B7533027E007FA87B19E4FDFC0298
:101713000F6B00007F167E037DE3DDFEDEFCDFFA48
:1017230022C2B27E007FC17B0AE4FDFC020F6B7E06
:10173300007FD6E4FB7D02FC020F6B7E007FB2E4E8
:10174300FB7D03FC020F6B9000E77401F0E4F522CC
:10175300D2CC229000E77401F0E4F528D2CD2243E5
:101763009D20E4F5BDF5BE75BC8522E4F513F515A2
:10177300F51675100122E4F514F521D2B70215967A
:10178300E49000E7F0A3F0A3F02253B1BF43B240CB
:10179300C2B6229000E77401F0D2CD229000E77424
:1017A30001F0D294227FFEA2B3E433420722C2CDDA
:1017B300C294C2CC227E007FD60216C87E007FDC94
:1017C3000216C87E007FB20216C87E007FBC0216D6
:1017D300C87E007FD00216C87E007FAD0216C8E423
:1017E300F533C2B622E4F533C2B622E49000DBF04F
:1017F3002212157E0218000211E50217B1021783A7
:1018030017FD174A17561796179F000013E4102960
:1018130016A416431200007300E600E600E600E695
:00000001FF
