:10000000020AF9E49000B7F0C2B6220211610213AD
:01001000CA25
:100013000213001206C712146B90009BE004F02237
:10002300020C0853C9EF43CA1053C9DF43CA205314
:1000330091EF4392100215020209C6C2AF121433A4
:1000430012152C120C82121412E4900044F0D2B751
:10005300D2AFD2AA53C17F43C1109000B9E030E2BE
:100063001E120ED59000A8E0600312118890009F25
:10007300E0600312091B9000B9E054FBF080D590B7
:1000830000B9E030E30C1212EA9000B9E054F7F043
:1000930080C29000B9E020E1030201487E007FB1F5
:1000A300120D4950079000B9E04408F0900011E0A8
:1000B300702E120F94EFD39428402512151EC29070
:1000C300C291C293C2929000B87401F0E49000A769
:1000D300F090001104F0120DF3C2B7D2AA121483E8
:1000E300900000E0704F120FCEEFD394284046C229
:1000F30090C291C293C292121517D2AAE49000B88B
:10010300F090009AE0701C1207A090009EE004F0AB
:10011300700690009DE004F09000127401F0121438
:100123009B8006120E3F121483E49000A3F090000C
:100133000004F0C2B71213401215329000B9E05414
:10014300FDF00200579000B9E030E01612151012CE
:1001530014839000A87401F09000B9E054FEF002FB
:1001630000579000B9E030E41FD2AAC2B7E4900070
:10017300B7F0C2B690003DF01214009000B9E054FD
:10018300EFF07587020200579000B9E030E53712AF
:10019300151012152512151E1213161213B8D2B705
:1001A30090009CE004F0E490009AF0900000F0903E
:1001B30000A3F090003D7403F01211399000B9E0F0
:1001C30054DFF00200579000B9E030E62E12151EFE
:1001D300121517E490004BF0C2CDC294C2CC90002C
:1001E300B804F01207A09000127401F012149BD20D
:1001F300AA9000B9E054BFF00200579000B9E02084
:10020300E7030200571212D39000B9E0547FF002C3
:100213000057E709F608DFFA8046E709F208DFFA34
:10022300803E88828C83E709F0A3DFFA8032E309FA
:10023300F608DFFA8078E309F208DFFA8070888233
:100243008C83E309F0A3DFFA806489828A83E0A3C5
:10025300F608DFFA805889828A83E0A3F208DFFA7E
:10026300804C80D280FA80C680D4806980F280334B
:10027300801080A680EA809A80A880DA80E280CA13
:10028300803389828A83ECFAE493A3C8C582C8CCFD
:10029300C583CCF0A3C8C582C8CCC583CCDFE9DE57
:1002A300E7800D89828A83E493A3F608DFF9ECFAE9
:1002B300A9F0EDFB2289828A83ECFAE0A3C8C58208
:1002C300C8CCC583CCF0A3C8C582C8CCC583CCDF5A
:1002D300EADEE880DB89828A83E493A3F208DFF90C
:1002E30080CC88F0EF60010E4E60C388F0ED2402ED
:1002F300B4040050B9F582EB2402B4040050AF23D8
:100303002345822390026573BB010689828A83E0B9
:10031300225002E722BBFE02E32289828A83E4930E
:1003230022BB010CE58229F582E5833AF583E022BD
:100333005006E92582F8E622BBFE06E92582F8E2AB
:1003430022E58229F582E5833AF583E49322F8BB1B
:10035300010DE58229F582E5833AF583E8F0225021
:1003630006E92582C8F622BBFE05E92582C8F222EA
:10037300C5F0F8A3E028F0C5F0F8E5821582700215
:100383001583E038F022EB9FF5F0EA9E42F0E99DF9
:1003930042F0EC6480C864809845F0228A838982A5
:1003A300E473EF4E6012EF60010EEDBB010B898227
:1003B3008A83F0A3DFFCDEFA2289F05007F709DF16
:1003C300FCA9F022BBFEFCF309DFFCA9F02290009C
:1003D3005EEEF0A3EFF0A3ECF0A3EDF0A37401F055
:1003E300E4A3F09000B4E0900072F01215109000B6
:1003F30072E0FFC394064006EFD39409400A7E00DF
:100403007FB11213550214837E007F107D0090008C
:1004130060E0FAA3E0F97B011203A5900072E0FF0C
:100423007E0090005EE0FCA3E0AA04F97B01A3E058
:10043300FCA3E0F87D011202E57E007FB1121355A3
:10044300900060E0FEA3E0FFF5828E83E0647E60AF
:1004530003020579900072E024FFFDE434FFFCEF12
:100463002DF582EE3CF583E0647F6003020579900D
:100473000072E024FEFF900062E0FED39F4003027F
:100483000584900060E0FCA3E0FD2EF582E43CF5DA
:1004930083E0FF647D601E900063E02464F582E4E2
:1004A3003400F583EFF0900063E004F0900062E025
:1004B30004F002053A900062E0F92401FFE433FE00
:1004C300ED2FF582EC3EF583E0FFB45E12900063FE
:1004D300E02464F582E43400F583747EF0804BEF0E
:1004E300B45F12900063E02464F582E43400F58382
:1004F300747FF08035E92401FFE433FE900060E06F
:10050300FCA3E02FF582EC3EF583E0B45D1290008E
:1005130063E02464F582E43400F583747DF0800A9B
:1005230090003DE0640160598054900063E004F062
:10053300900062E02402F0900065E0FF900064E028
:100543002FFFE433FE900066E07C002FFFEC3EFEBD
:10055300A3E0B50710ECB5060C7B017A00796412B1
:10056300058602047290003DE06401700302047288
:1005730012148302047290003DE0640160031214BC
:10058300830022900073EBF0A3EAF0A3E9F090005C
:1005930073E0FBA3E0FAA3E0F912030B14B4080021
:1005A30040030206BB9005B675F003A4C58325F08E
:1005B300C583730205CE0205F002060B0206520242
:1005C30006600206650206AB0206B6121517E49032
:1005D30000A7F0D2B7D293D292C290C291900011E9
:1005E300F012132B90003D7404F002113912151010
:1005F30012151E121316D2B7E4900000F090009A61
:1006030004F0E49000A3F022900073E0FBA3E0FA6F
:10061300A3E0F9900001120324B4021990003DE015
:100623006401600312148F1213A6B2B69000B7745C
:1006330001F0121477C2B2900073E0FBA3E0FAA3B7
:10064300E0F9900001120324FF12126DD2B222E4EA
:10065300900012F090009DF0A304F08063D2B702E3
:100663001412900073E0FBA3E0FAA3E0F9900001F9
:10067300120324B4010E12145E90003D7401F012B3
:100683001139801C900073E0FBA3E0FAA3E0F9901A
:10069300000112032470091215101214001214839E
:1006A3009000B9E04480F02290009B7401F0121591
:1006B30009800D1214D8800890003DE064016003A6
:1006C3001214832220B30C9000B8E0700690004E01
:1006D300F0803230B30F9000B8E0B4010890004EC0
:1006E3007411F0802020B30F9000B8E0B40108909B
:1006F300004E7410F0800E30B30B9000B8E070051C
:1007030090004E04F090004EE02487FF90009BE0A1
:100713002FFE7F7E1210417F8712104190004EE022
:10072300FF12104190009BE0B47E097F7D121041BF
:100733007F5E802590009BE0B47F097F7D1210418E
:100743007F5F801590009BE0B47D097F7D1210418F
:100753007F5D800590009BE0FF121041EEB47E099F
:100763007F7D1210417F5E801CEEB47F097F7D1276
:1007730010417F5F800FEEB47D097F7D1210417FB2
:100783005D8002AF061210417F7F12104190009BE3
:10079300E0B4FF08121509D2AA1214832220B30968
:1007A3009000B8E07003FE802730B30B9000B8E0F0
:1007B300B401047E11801920B30B9000B8E0B4019A
:1007C300047E10800B30B3089000B8E070027E0105
:1007D30090009CE024842EFD7F7E1210417F8412C2
:1007E3001041AF0612104190009CE0B47E097F7D5A
:1007F3001210417F5E802590009CE0B47F097F7DCD
:100803001210417F5F801590009CE0B47D097F7DCD
:100813001210417F5D800590009CE0FF121041EDB6
:10082300B47E097F7D1210417F5E801CEDB47F0989
:100833007F7D1210417F5F800FEDB47D097F7D12B4
:1008430010417F5D8002AF051210417F7F1210417E
:1008530090009DE0B4020AA3E0B45805E4900012AE
:10086300F0229000AEE09000ADF01214E1EFF4A39B
:10087300F09000ADE0FFA3E0FE6FFDEF5DFF9000A1
:10088300ACE06FF0EE6DFF9000ABE0FE6F6059904F
:1008930000AAE0FF04F0EFD39428400B9000AEE0F1
:1008A300FFEE4F9000ABF09000AAE0FCD39405401C
:1008B300109000ACE0FE9000AEE0FDEE5D9000AC69
:1008C300F0ECD3940040099000B0E070031214835D
:1008D3009000AAE0D39400403EC293C292D290D239
:1008E300919000B07401F022E49000AAF09000B05F
:1008F300E06010D2AAC290C291C293C292E4F09077
:1009030000A8F09000ABE0FF9000AEE0FEEF5E9039
:1009130000ABF0A3E05EF0229000A1E0641060035E
:100923000209B09000A4E0C4F854F0C868FEA3E044
:10093300C4540F48D39436EE94014007E49000B8B2
:10094300F080069000B87401F0900044E07016C285
:10095300B71206C790009BE004F012146B9000449A
:100963007401F0804320B30B9000B8E070057D0163
:10097300FF802D30B30D9000B8E0B401067D017FF8
:1009830011801D20B30D9000B8E0B401067D017FF6
:1009930010800D30B30D9000B8E070077D017F012A
:1009A3001211AFC2B7121483E490009FF012121415
:1009B3009000A5E02FF09000A4E03EF09000A1E0AD
:1009C30004F022C0E0C0F0C083C082C0D075D0085C
:1009D300C2D89000B7E07002805D9000B7E0640178
:1009E300703FB2B67815E6FE08E6781826F618EEDC
:1009F30036F6E6FE08E6F5EAEEF5FA781606E618A8
:100A03007001067815E6FE08E6FFE4FCFD7BE6FAD6
:100A1300F9F8D3120389504278157600087673806B
:100A2300399000B7E064026009E064046004E0B454
:100A33000528B2B69000B7E025E02485F582E434BA
:100A430015F583E493FE740193781826F618EE36B1
:100A5300F6E6FE08E6F5EAEEF5FAD0D0D082D083CA
:100A6300D0F0D0E03202170000021500734100B746
:100A7300004100B800410012004100440041001150
:100A8300014100000141003E00051000C8643232FC
:100A930041003C0041000100C10041002C00420024
:100AA3009D000141009C0041009B0141009A0041CF
:100AB30000A0004100A6004100A7004100A800419A
:100AC30000A9004100A2004100A3004100A100428F
:100AD30000A4000041009F000119044100B900C1B6
:100AE300014100AC004100AB004100B0004100AA4D
:100AF300004100AF0000787FE4F6D8FD7581200245
:100B03000B4002003EE493A3F8E493A34003F68072
:100B130001F208DFF48029E493A3F85407240CC8F6
:100B2300C333C4540F4420C8834004F456800146A1
:100B3300F6DFE4800B0102040810204080900A686D
:100B4300E47E019360BCA3FF543F30E509541FFECC
:100B5300E493A360010ECF54C025E060A840B8E43D
:100B630093A3FAE493A3F8E493A3C8C582C8CAC5C0
:100B730083CAF0A3C8C582C8CAC583CADFE9DEE752
:100B830080BE90004EEEF0A3EFF0F5828E83E0FE80
:100B9300A3E0FF4E701290004EE0FCA3E0F5828CC0
:100BA30083A3A3E07002C32290004EE0FCA3E0F510
:100BB300828C83A3A3E014F07049EF4E7029900058
:100BC3004EE0FEA3E0FFF5828E83A3A3A3E0FCA384
:100BD300E04C60118F828E83A3A3A3E0FEA3E0AA5F
:100BE30006F912039FD32290004EE0FEA3E0FFF527
:100BF300828E8374FFF5F01203738F828E83A3A317
:100C03007432F0C322C0E0C083C082C0D075D0006C
:100C1300C00730982DC2989000B6E070259000B4BC
:100C2300E0C394104002E4F09000B4E0FF04F074D9
:100C33007A2FF582E43400F583E599F09000B574DA
:100C430002F030992FC2999000B2E0FF9000B1E01A
:100C53006F601CE0248AF582E43400F583E0F599A3
:100C63009000B1E004F0C394104009E4F0800590D3
:100C730000B3E4F0D007D0D0D082D083D0E0327E6E
:100C8300007F277C0D7DA01212517E007F377C10E0
:100C93007D081212517E007F187C147DF2121251CE
:100CA3007E007F137C127DA31212517E007F2D7C68
:100CB300007D0E1212517E007F1D7C147DFA1212EC
:100CC300517E007F327C007D031212517E007F2211
:100CD3007C147DEA1212517E007F3F7C107DE91265
:100CE30012517E007F027C007D1602125190007625
:100CF300EEF0A3EFF0A3ECF0A3EDF0EB7026E0240D
:100D0300FFFF900078E034FFFE900076E0FCA3E064
:100D1300FDF5828C83EEF0A3EFF08D828C83A3A389
:100D23007432F022900078E0FEA3E0FF900076E0BA
:100D3300FCA3E0FDF5828C83EEF0A3EFF08D828CB3
:100D430083A3A3EBF0228F828E83A3A3A3E070027D
:100D5300C322EF2404F582E43EF583E0601AEF2416
:100D630004F582E43EF583E014F0700CEF2405F5FE
:100D730082E43EF5837401F0EF2404F582E43EF54A
:100D830083E0700CEF2405F582E43EF5837401F0F3
:100D9300EF2405F582E43EF583E024FF22D2AAC2C4
:100DA30090C291C293C292900000E0700C12137E25
:100DB300EF70069000B8F080069000B87401F090D0
:100DC300009AE0701C1207A090009EE004F07006E9
:100DD30090009DE004F09000127401F012149B80C7
:100DE30003120E3F1214839000007401F0C2B72265
:100DF3007F7E1210417F8112104120B3099000B809
:100E0300E07003FE802730B30B9000B8E0B4010418
:100E13007E11801920B30B9000B8E0B401047E105A
:100E2300800B30B3089000B8E070027E0112103AD4
:100E3300EE2481FF1210417F7F0210417F7E12104A
:100E4300417F8212104120B3099000B8E07003FE85
:100E5300802730B30B9000B8E0B401047E118019F1
:100E630020B30B9000B8E0B401047E10800B30B3C4
:100E7300089000B8E070027E0112103AEE2482FF5F
:100E83001210417F7F0210417E007F107D007B01A5
:100E93007A00798A1203A57E007F107D007B017A98
:100EA30000797A1203A57E007FB1121068E5985489
:100EB3003F4440F598438E01D2AC43981053A23F70
:100EC30053B1FE53B2FE53B1FD53B2FD5397EF023C
:100ED30012887E007F27120B857E007F37120B85D9
:100EE3007E007F18120B857E007F13120B857E0018
:100EF3007F2D120B857E007F1D120B857E007F32B6
:100F0300120B857E007F22120B857E007F3F120B22
:100F1300857E007F02020B8590002CE004F0E0FF49
:100F2300B40102800BEFB40203D2CD22EFB4030766
:100F3300C2CDC294C2CC22EFB40403D2CD22EFB40B
:100F43000513E490004BF0C2CDC294C2CC90002CA8
:100F5300F090003DF02290003DE025E0247BF582F7
:100F6300E43415F5837401937002E493601B9000DD
:100F73003DE025E0247BF582E43415F583E493FE1C
:100F8300740193AA06F912039FE490004CF0A3F0B6
:100F930022121214D3EF9436EE940140089000A06D
:100FA3007401F08005E49000A0F09000A0E0FF70D1
:100FB3000C9000A6E07006A3E004F08005E4900026
:100FC300A7F09000A6EFF0A3E0FF22121214D3EFD4
:100FD3009436EE940140089000A97401F08005E472
:100FE3009000A9F09000A9E0FF600C9000A2E060DF
:100FF30006A3E004F08005E49000A3F09000A2EFC4
:10100300F0A3E0FF22C290C291C293C2929000115A
:10101300E0701112137EEF600B120DF39000B874A1
:1010230001F08008120DF3E49000B8F09000117401
:1010330001F0C2B7021483AF06121041E4FF90001F
:10104300B2E0248AF582E43400F583EFF09000B235
:10105300E004F0C394104002E4F09000B3E07004A5
:1010630004F0D299228F828E83E4F0A3F08F828ED4
:1010730083A3A3F08F828E83A3A3A3F0EF2404F5AD
:1010830082E43EF583E4F0EF2405F582E43EF58344
:10109300E4F022900076EBF0A3EAF0A3E9F0E4FE9B
:1010A300900076E0FBA3E0FAA3E0F98E827583005B
:1010B300120324FF1210410EEEB408E422E4F5D823
:1010C300F5E9F5F990158593FE740193781826F6E2
:1010D30018EE36F6E6FE08E6F5EAEEF5FAE4F5D99B
:1010E30075DA49D2DE22900012E070030214839075
:1010F3000012E0B401171215101207A012149B90EE
:10110300009EE004F0700690009DE004F022900041
:101113004BE0601A90003DE02410F8E6FFC3900016
:101123004DE09F90004CE09400400A020F59E49078
:10113300004CF0A3F02290003DE025E02471F582FD
:10114300E43415F583E493FE740193FF4E6007AA1C
:1011530006A90712039FE490004CF0A3F022C0E01D
:10116300C083C082C0D075D0089000B9E04402F0BB
:10117300781916E67006E04404F07604D0D0D082E5
:10118300D083D0E0321208659000AFE07015900074
:10119300ABE0600F30E00C9000B9E04420F0E49045
:1011A30000B0F09000ABE09000AFF022AE077F7E7E
:1011B3001210417F85121041AF06121041AF051284
:1011C3001041EE24852DFF1210417F7F0210415301
:1011D30091FB4392045391F74392085391FE439238
:1011E300015391FD439202C290C291C293C29222D3
:1011F3004391405392BF53B17F43B28053B1FB43FA
:10120300B204C2B743B10853B2F7C2B3D28AC2AA77
:101213002243BC0800000000E5BC30E4FB53BCEFF4
:10122300AFBDEF75F004A4FFAEF0ADBEEF4DFF22EE
:10123300900001E004F0E0FFB40107C2CDC294C204
:10124300CC22EFB40407D2CCE4900001F0228F82C9
:101253008E83E4F0A3F08F828E83A3A3F08F828E1C
:1012630083A3A3A3ECF0A3EDF022AE077F7E1210BD
:10127300417F8312104112103AEE2483FF12104172
:101283007F7F021041200117538EEF538EF7438E59
:101293000475D77075D6FF53AFFB438E10D201226E
:1012A30090003EE004F0E0C394034008C2B6E4902B
:1012B30000B7F0221213DC221213921211D2121170
:1012C300F31210C01214BD1200261214A7020E8BC3
:1012D3007F7E1210417F8612103C1210417F8612CE
:1012E30010417F7F02104190003DE06401600312D2
:1012F30015107E007F7A7C007D4E0203D1C0E0C0D2
:1013030083C082C2AA9000B9E04401F0D082D083A6
:10131300D0E0327E007F27E4FB7D03FC120CF0C299
:1013230093C292D290D291227E007F37E4FB7D025A
:10133300FC120CF0D293D292C290C2912290004B35
:10134300E0600E90004DE004F0700690004CE00465
:10135300F0228F828E83A3A3A3E4F0EF2405F5820A
:10136300E43EF583E4F022E490004BF0C2CDC29456
:10137300C2CC90003CF0A3F0021139E4FFFE12123C
:1013830014D3EF9436EE94017F0140027F00225381
:101393008E7F5389FB5389FC758CF7E4F58AD2A9B8
:1013A300D28C22901587E493FE740193FF7815A6DF
:1013B3000608A607229000B77405F07E007F227B03
:1013C3000AE4FDFC020CF09000B77402F07E007F8B
:1013D300137B19E4FDFC020CF0C2B6E49000B7F0F5
:1013E3007E007F2D7B19FDFC020CF0E490004BF096
:1013F300C2CDC294C2CC90003CF0A3F022E4900092
:101403004BF0C2CDC294C2CC90003CF0A3F022E4D6
:101413009000A1F09000A4F0A3F090009F04F022AC
:101423008F828E83E4F0A3F08F828E83A3A3F022B6
:1014330000007F167E037DE3DDFEDEFCDFFA2290F3
:10144300004B7401F0E4900001F0D2CC2290004BE9
:101453007401F0E490002CF0D2CD227E007F1DE4D5
:10146300FB7D847C03020CF07E007F02E4FB7D01A4
:10147300FC020CF07E007F18E4FB7D05FC020CF0FF
:101483007E007F1DE4FB7D03FC020CF07E007F1DCC
:10149300E4FB7D06FC020CF07E007F3FE4FB7D0154
:1014A300FC020CF0439D20E4F5BDF5BE75BC85221E
:1014B300E490004BF0A3F0A3F02253B1BF43B2403A
:1014C300C2B62290004B7401F0D2CD2290004B742F
:1014D30001F0D294227BFF7A15795F0210967FFE8A
:1014E300A2B3E4334FFF22E49000B7F0C2B622C2A6
:1014F300B6E49000B7F0229000B9E04410F022C2A5
:10150300CDC294C2CC227E007F020214237E007FD0
:101513001D0214237E007F270214237E007F3702DF
:1015230014237E007F3F0214231212BB02153802DC
:1015330011110215020214B37E810000817F7E81A6
:101543000001827F7E840000847F7E840001857F8A
:101553007E830000837F7E830000837F7E8801007B
:10156300897F7E860000867F7E870000877F153512
:101573001442145014C614CF000012330F1B13EE81
:0E158300136A1200007300E600E600E600E6C0
:00000001FF
