:0900000002202802000E02350066
:10000B0002111AC0E0C083C08220B205B20D1232B9
:10001B0042D082D083D0E032022445900333E0B447
:10002B0001107F121229FF7E027FACE4FB7DB4022C
:10003B002E7F7F0C1229FF220221C5E709F608DF6C
:10004B00FA8046E709F208DFFA803E88828C83E764
:10005B0009F0A3DFFA8032E309F608DFFA8078E3D0
:10006B0009F208DFFA807088828C83E309F0A3DF42
:10007B00FA806489828A83E0A3F608DFFA805889C4
:10008B00828A83E0A3F208DFFA804C80D280FA8068
:10009B00C680D4806980F28033801080A680EA808D
:1000AB009A80A880DA80E280CA803389828A83ECC6
:1000BB00FAE493A3C8C582C8CCC583CCF0A3C8C54A
:1000CB0082C8CCC583CCDFE9DEE7800D89828A83C9
:1000DB00E493A3F608DFF9ECFAA9F0EDFB22898291
:1000EB008A83ECFAE0A3C8C582C8CCC583CCF0A345
:1000FB00C8C582C8CCC583CCDFEADEE880DB898249
:10010B008A83E493A3F208DFF980CC88F0EF6001D7
:10011B000E4E60C388F0ED2402B4040050B9F58292
:10012B00EB2402B4040050AF2323458223900096A6
:10013B0073BB010CE58229F582E5833AF583E02256
:10014B005006E92582F8E622BBFE06E92582F8E295
:10015B0022E58229F582E5833AF583E49322EB9F2E
:10016B00F5F0EA9E42F0E99D42F0E89C45F022E86A
:10017B00600FECC313FCED13FDEE13FEEF13FFD872
:10018B00F122ECF0A3EDF0A3EEF0A3EFF022A882A6
:10019B008583F0D083D0821201B01201B01201B06E
:1001AB001201B0E473E493A3C583C5F0C583C8C53E
:1001BB0082C8F0A3C583C5F0C583C8C582C822D049
:1001CB0083D082F8E4937012740193700DA3A39300
:1001DB00F8740193F5828883E4737402936860EF7B
:1001EB00A3A3A380DF8A838982E473E3F5F009E29A
:1001FB0008B5F06D606B80F3E3F5F009E608B5F038
:10020B0060605E80F387F009E608B5F054605280B9
:10021B00F487F009E208B5F048604680F488828CD8
:10022B008387F009E0A3B5F038603680F488828CC0
:10023B008387F009E493A3B5F027602580F38882C8
:10024B008C83E3F5F009E0A3B5F016601480F38816
:10025B00828C83E3F5F009E493A3B5F0046002808C
:10026B00F2020321808580E7808E80D2803C80154E
:10027B00806C807E809B80B5808B80A1804F80704E
:10028B00803A02032D89828A83ECFAE493F5F0A37A
:10029B00C8C582C8CCC583CCE493A3C8C582C8CCDF
:1002AB00C583CCB5F070606E80E189828A83E4935C
:1002BB00F5F0A3E208B5F05E605C80F289828A8378
:1002CB00E0F5F0A3E608B5F04D604B80F389828A28
:1002DB0083E0F5F0A3E208B5F03C603A80F3898245
:1002EB008A83E493F5F0A3E608B5F02A602880F240
:1002FB00805389828A83ECFAE493F5F0A3C8C58214
:10030B00C8CCC583CCE0A3C8C582C8CCC583CCB54B
:10031B00F004600280E27FFFB5F0020F2240027F03
:10032B00012289828A83ECFAE0F5F0A3C8C582C862
:10033B00CCC583CCE0A3C8C582C8CCC583CCB5F0F3
:10034B00D560D380E389828A83ECFAE0F5F0A3C809
:10035B00C582C8CCC583CCE493A3C8C582C8CCC521
:10036B0083CCB5F0B160AF80E288F0ED2402B40429
:10037B000050A3F582EB2402B404005099232345CB
:10038B00822390026F73EF4E6012EF60010EEDBB94
:10039B00010B89828A83F0A3DFFCDEFA2289F050FD
:1003AB0007F709DFFCA9F022BBFEFCF309DFFCA970
:1003BB00F022BB010689828A83E0225002E722BB2E
:1003CB00FE02E32289828A83E49322BB010689829F
:1003DB008A83F0225002F722BBFE01F322C5F0F80C
:1003EB00A3E028F0C5F0F8E582158270021583E0D2
:1003FB0038F02275F008758200EF2FFFEE33FECD3B
:10040B0033CDCC33CCC58233C5829BED9AEC99E5C9
:10041B008298400CF582EE9BFEED9AFDEC99FC0F59
:10042B00D5F0D6E4CEFBE4CDFAE4CCF9A88222B821
:10043B0000C1B90059BA002DEC8BF084CFCECDFCA6
:10044B00E5F0CBF97818EF2FFFEE33FEED33FDEC33
:10045B0033FCEB33FB10D703994004EB99FB0FD81C
:10046B00E5E4F9FA227818EF2FFFEE33FEED33FDBA
:10047B00EC33FCC933C910D7059BE99A4007EC9BB9
:10048B00FCE99AF90FD8E0E4C9FAE4CCFB2275F049
:10049B0010EF2FFFEE33FEED33FDCC33CCC833C85A
:1004AB0010D7079BEC9AE899400AED9BFDEC9AFC60
:1004BB00E899F80FD5F0DAE4CDFBE4CCFAE4C8F90F
:1004CB0022F8E0FBA3A3E0F925F0F0E5821582709A
:1004DB00021583E0FA38F022EBF0A3EAF0A3E9F07F
:1004EB00229002DBECF0A3EDF09002D9EEF0A3EF3B
:1004FB00F0F5828E83A3A3A3E0648360030208005C
:10050B009002D9E0FEA3E02405F582E43EF583E0FA
:10051B001201CA05D704074705075D0607730707CE
:10052B008908079F0907B50A05A80B060F10067661
:10053B001407BE4005F45005FD5106035205F15357
:10054B0005F75405855505FA56059457058F58053B
:10055B009959059C5A05A25B05A55C06095D07BA6E
:10056B005E07BC5F07D66007DC6107E96207EC63D7
:10057B0007EF6407F2650000097D7E027FA212354A
:10058B009FC2102212332F805D1232FD805802342D
:10059B00141233480207BA0233C10233169002D940
:1005AB00E0FEA3E02408F582E43EF583E0600890CA
:1005BB000296E04440800E90032DE0541E600A909A
:1005CB000296E04420F0A3E0F0C210229002D9E0A2
:1005DB00FEA3E02408F582E43EF583E024FF920DB0
:1005EB00123242C210220207BA0207BA0207BA023B
:1005FB0007BA1200260207BA1230B80207BA123530
:10060B0000C210229002D9E0FCA3E0FD2408F58281
:10061B00E43CF583E07E007810C333CE33CED8F9BB
:10062B00FBAA06ED2407F582E43CF583E07E007817
:10063B0018C333CE33CED8F9FFEE4AFCEF4BFD9007
:10064B0002D9E0FAA3E0FB2409F582E43AF583E052
:10065B004CFEEDFFEB240AF582E43AF583E0FDEF67
:10066B004DFFE4FCFD90028A0207419002D9E0FCA9
:10067B00A3E0FD2408F582E43CF583E07E007810CE
:10068B00C333CE33CED8F9FBAA06ED2407F582E4AB
:10069B003CF583E07E007818C333CE33CED8F9FF18
:1006AB00EE4AFCEF4BFD9002D9E0FAA3E0FB2409E4
:1006BB00F582E43AF583E04CFEEDFFEB240AF5827C
:1006CB00E43AF583E0FDEF4DFFE4FCFD90028E1262
:1006DB00018D9002D9E0FCA3E0FD240CF582E43CF3
:1006EB00F583E07E007810C333CE33CED8F9FBAA66
:1006FB0006ED240BF582E43CF583E07E007818C30D
:10070B0033CE33CED8F9FFEE4AFCEF4BFD9002D936
:10071B00E0FAA3E0FB240DF582E43AF583E04CFE0E
:10072B00EDFFEB240EF582E43AF583E0FDEF4DFF90
:10073B00E4FCFD9001D912018DD210229002D9E078
:10074B00FEA3E02408F582E43EF583E0FF12312D91
:10075B00805D9002D9E0FEA3E02408F582E43EF52B
:10076B0083E0FF12315280479002D9E0FEA3E024D0
:10077B0008F582E43EF583E0FF1231778031900279
:10078B00D9E0FEA3E02408F582E43EF583E0FF12F6
:10079B002FA1801B9002D9E0FEA3E02408F582E490
:1007AB003EF583E0FF12319C803D12351780388077
:1007BB003680349002D9E0FEA3E0AA06F97B011241
:1007CB001CA3200D031225A7D21022123517C2101D
:1007DB002212347490032DE054FDF00214D3023432
:1007EB003702339202327A7E027FA2E4FB7DB4128F
:1007FB002E7FD210229002D9E0FEA3E0FFF5828E6D
:10080B0083A3A3A3E06481600302097DEF2404F5B5
:10081B0082E43EF583E024FD700302096724E36064
:10082B000302097D9002DF7401F090032BE090022C
:10083B00DEF0E49002DDF09002DFE0FF9002DEE0FC
:10084B005F70030209509001D0E0FEA3E0FF7D5AD8
:10085B00122E499001D0E0FEA3E0FF7DA5122E4998
:10086B009001D0E0FEA3E0FF7D09122E499001D04C
:10087B00E0FEA3E0FF7D82122E499001D0E0FEA3A3
:10088B00E0FFE4FD122E499001D0E0FEA3E0FF90C3
:10089B0002DDE075F006A42480FD122E499001D0F4
:1008AB00E0FEA3E0FF9002D9E0FCA3E02406F58272
:1008BB00E43CF583E0FD122E499001D0E0FEA3E06D
:1008CB00FF9002D9E0FCA3E02407F582E43CF5831A
:1008DB00E0FD122E499001D0E0FEA3E0FF9002D97B
:1008EB00E0FCA3E02408F582E43CF583E0FD122E46
:1008FB00499001D0E0FEA3E0FF9002D9E0FCA3E019
:10090B00240AF582E43CF583E0FD122E499001D0D8
:10091B00E0FEA3E0FF9002D9E0FCA3E0240BF582FC
:10092B00E43CF583E0FD122E499001D0E0FEA3E0FC
:10093B00FF9002D9E0FCA3E0240CF582E43CF583A4
:10094B00E0FD122E499002DFE025E0F09002DDE0A1
:10095B0004F0E0C394055003020842229002D9E050
:10096B00FEA3E02407F582E43EF583E09001DDF081
:10097B00D21022E51824E1F582E43402F583E00578
:10098B0018229002DE3007039002E1E475F00112A9
:10099B0004CC0203BD2000E97F2ED2008018EF5457
:1009AB000F2490D43440D4FF30040BEF24BFB41A7F
:1009BB000050032461FFE51960021519051CE51CA5
:1009CB007002051B30070E9002DEE475F001120475
:1009DB00CCEF0203D60234B07403D2078003E4C217
:1009EB0007F5189002DE1204E3E4F519F51BF51C6C
:1009FB00E51960077F201209C180F5751AFFC20146
:100A0B00C200C202C203C205C206C20812098DFF90
:100A1B00700D3007057F001209D2AF1CAE1B22B43C
:100A2B00255FC2D5C20412098DFF24D0B40A005031
:100A3B001A75F00A781930D50508B6FF0106C6A459
:100A4B0026F620D5047002D20380D924CFB41A0025
:100A5B00EF5004C2E5D204020BD3D20180C6D20000
:100A6B0080C0D20280BCD2D580BAD20580B47F20A0
:100A7B001209C12002077401B5190040F112097E59
:100A8B00FF1209C10209FBD208D206809512097E1A
:100A9B00FB12097EFA12097EF94A4B700679A47A89
:100AAB000C7BFF20022EE519602A7E008E82758357
:100ABB000012013C60060EEE651A70F0C2D5EBC059
:100ACB00E0EAC0E0E9C0E0EE120C1AD0E0F9D0E0A9
:100ADB00FAD0E0FB1203BDFF60AAEBC0E0EAC0E076
:100AEB00E9C0E01209C1D0E02401F9D0E03400FAEA
:100AFB00D0E0FBE51A0460DCD51AD980877BFF7A3E
:100B0B000C7916D202809C791080027908C206C239
:100B1B00088008D2D5790A8004790AC2D5E51A046F
:100B2B007002F51AE4FAFDFEFF12097EFC7B082029
:100B3B00011312097EFD7B1030000A12097EFE1292
:100B4B00097EFF7B20EC3382D592D55013C3E43062
:100B5B0000069FFFE49EFEE42001039DFDE49CFC48
:100B6B00E4CBF8C201EC700CCFCECDCCE824F8F876
:100B7B0070F38017C3EF33FFEE33FEED33FDEC3331
:100B8B00FCEB33FB994002FB0FD8E9EB300105F886
:100B9B00D0E0C448B201C0E00AEC4D4E4F78207B48
:100BAB000070C2EAB51A0040BCC0E0120C1CD0F0B9
:100BBB00D0E0200104C4C0E0C4B201C0F01209AA05
:100BCB00D0F0D5F0EB0209FB1201CA0A98530B12B5
:100BDB00580A694C0A65420B164F0B1E440B1E49F3
:100BEB000A7E430B24550B08460B08450B08470C94
:100BFB00C4500A6D2D0A712E0A942B0A75230A9282
:100C0B00200CAD2A0A2D4800000A8C3F3F3F00798B
:100C1B000AA2D5200314300509B910020404B9083F
:100C2B000104A2D52006025001042002689202B5ED
:100C3B0019005034C0E07F203003197F30A20272BC
:100C4B00067205500F120C73C202C206C205C2080F
:100C5B007F30800F300503E9C0E01209C130050376
:100C6B00D0E0F9D0E0B519CC3005177F30B9100CB6
:100C7B001209C17F583004077F788003B90803122B
:100C8B0009C13002057F2D0209C17F202008F87FA2
:100C9B002B2006F322920280CF286E756C6C2900F4
:100CAB00D20112097E3001F8C201781930D5010842
:100CBB00F6020A2D2D5043495812097E2403B40520
:100CCB00004001E4900CBF931209B2743A1209B2BE
:100CDB00D203751904020B121234DA123456123580
:100CEB00B11220B41233EC1224BC122AC4C2A412C7
:100CFB001D3E1235D4D2AF1235E9900330EFF0120E
:100D0B0035EF900331EFF0FB900330E0FD7F2E7E4B
:100D1B0000121C0612129C121ABB123447123426F4
:100D2B001235C3123595D28C53C17F43C11090023B
:100D3B0097E030E00E7BFF7A2E79F71209E99002EB
:100D4B00978034900297E030E1117BFF7A2F790680
:100D5B001209E9122930900297805E900296E0A367
:100D6B0030E01A7BFF7A2F791C1209E97F011235CB
:100D7B00BA122F31900296E054FEF080AB9002969F
:100D8B00E0A330E13B7BFF7A2F79241209E9C28380
:100D9B00122FD61235A89001DFE0FF12347A9003A0
:100DAB002DE020E0111235957BFF7A2F792A12095D
:100DBB00E9E4FF1235BA900296E054FDF0020D33D0
:100DCB00900297E030E519122A627E007F07122C01
:100DDB003150077F087E0012350C900297020F0AE4
:100DEB00900297E030E35A7E007F2E122CD89002AF
:100DFB00D7EEF0A3EFF07E007F071233AA900271BB
:100E0B00E0FEA3E0FF9002D7E0FCA3E0FD1204ECB0
:100E1B0090031BE0B4022590031FE0FBA3E0FAA3B1
:100E2B00E04A4B601790031FA3A3E0F91201F09067
:100E3B00031B7403F07F107E0012350C9002978019
:100E4B0064900297E030E208121E70900297803295
:100E5B00900297E030E4081216A7900297806990F1
:100E6B000297E030E70E12224C12346512299C9047
:100E7B0002978074900296E0A330E20D1232E49058
:100E8B000296E054FBF0020D33900296E0A330E3A0
:100E9B001B7E027F9212359F7E027FBC12359F1202
:100EAB00300A900296E054F7F0020D33900296E070
:100EBB0030E41CE49001DFF090032DE054FDF0448E
:100ECB0001F0123543900296E054EFF0020D33908F
:100EDB000296E030E71990032DE054FEF0E4FF1288
:100EEB0035BA123595900296E0547FF0020D33908F
:100EFB000296E0A330E50FD2A41235CC900296E017
:100F0B0054DFF0020D33900296E020E603020D331E
:100F1B00C2A4900296E054BFF0020D339002E0EEB3
:100F2B00F0A3EFF09001D0E0FEA3E0FF7D5A122E6C
:100F3B00499001D0E0FEA3E0FF7DA5122E49900160
:100F4B00D0E0FEA3E0FF7D1F122E499001D0E0FE02
:100F5B00A3E0FF7D82122E499002E0E0FD9001D0CC
:100F6B00E0FEA3E0FF122E499001D0E0FEA3E0FFCC
:100F7B009002E0A3E0FD122E499001D0E0FEA3E029
:100F8B00FFE4FD122E499001D0E0FEA3E0FF90029A
:100F9B006DE0FD122E499001D0E0FEA3E0FFE4FDD1
:100FAB00122E499001D0E0FEA3E0FF9001E3E0FD9B
:100FBB00122E499001D0E0FEA3E0FFE4FD122E4972
:100FCB009001D0E0FEA3E0FF90026BE0FD122E49F2
:100FDB009001D0E0FEA3E0FFE4FD122E499001D07A
:100FEB00E0FEA3E0FF9001D7E0FD122E499001D067
:100FFB00E0FEA3E0FFE4FD122E499001D0E0FEA33A
:10100B00E0FF90026EE0FD122E499001D0E0FEA3AE
:10101B00E0FFE4FD122E499001D0E0FEA3E0FF902B
:10102B000264E0FD122E499001D0E0FEA3E0FFE444
:10103B00FD122E499001D0E0FEA3E0FF9001E1E00C
:10104B00FD122E499001D0E0FEA3E0FFE4FD122E2D
:10105B00499001D0E0FEA3E0FF9001E2E0FD122EEB
:10106B00499001D0E0FEA3E0FFE4FD122E49900170
:10107B00D0E0FEA3E0FF90026FE0FD122E4990013D
:10108B00D0E0FEA3E0FFE4FD122E499001D0E0FE7C
:10109B00A3E0FF900268E0FD122E499001D0E0FE24
:1010AB00A3E0FFE4FD122E499001D0E0FEA3E0FF88
:1010BB00900266E0FD122E499001D0E0FEA3E0FF06
:1010CB00E4FD122E499001D0E0FEA3E0FF900273E5
:1010DB00E0FD122E499001D0E0FEA3E0FFE4FD12EB
:1010EB002E499001D0E0FEA3E0FF900267E0FD12D5
:1010FB002E499001D0E0FEA3E0FFE4FD122E4990B3
:10110B0001D0E0FEA3E0FF900289E0FD022E49C072
:10111B00E0C0F0C083C082C0D075D008900297E0C9
:10112B004420F09002C4E014F0700D900297E0445C
:10113B0080F09002C47464F0A2B3E433FF9002B663
:10114B00E06F605530B3119002CDE4F0A3F0900244
:10115B00B0F0A3F0D20B8041C20B9002B0E4F0A32D
:10116B00F0900332E0FDB40410D20A900298E4F040
:10117B00A3F090032DE054FEF09001E0E06008ED49
:10118B00B40306C20C8002C20C900332E0B4060911
:10119B00D2099002AAE4F0A3F0300B729002B1E0F6
:1011AB0004F070069002B0E004F0900267E075F076
:1011BB0064A4FF9002B0E0FCA3E0FDB50F15ECB505
:1011CB00F011900332E0B4020A900296E04408F06A
:1011DB00A3E0F09001D8E075F064A4B50D1AECB55E
:1011EB00F016C20C9002CDE4F0A3F0122FD69002B1
:1011FB0096E04410F0A3E0F0200C03021289900259
:10120B00CEE004F070069002CDE004F08070300A5E
:10121B003A900299E004F07006900298E004F09086
:10122B0001D3E075F064A4FFC3900299E09F900294
:10123B0098E095F0401590032DE054FEF090029845
:10124B00E4F0A3F0C20AD20D123242300930900200
:10125B00ABE004F070069002AAE004F0C39002AB7E
:10126B00E094199002AAE094004013900296E04497
:10127B0004F0A3E0F0C2099002AAE4F0A3F0A2B339
:10128B00E4339002B6F0D0D0D082D083D0F0D0E04F
:10129B00327F007E42121F7FEFF4600302133A7F0E
:1012AB00017E40121F7F7E00EF7810C333CE33CE0A
:1012BB00D8F9FDAC067F007E40121F7F7E00EF78D1
:1012CB0018C333CE33CED8F9FFEE4CFCEF4DFD7F78
:1012DB00027E40121F7FEF4CFC7F037E40121F7F6C
:1012EB00ECFEED4FFFE4FCFD90032712018D7F0513
:1012FB007E40121F7F7E00EF7810C333CE33CED8E3
:10130B00F9FDAC067F047E40121F7F7E00EF78183C
:10131B00C333CE33CED8F9FFEE4CFCEF4DFD7F0639
:10132B007E40121F7FEF4CFC7F077E400213C77F6E
:10133B00017E42121F7F7E00EF7810C333CE33CE77
:10134B00D8F9FDAC067F007E42121F7F7E00EF783E
:10135B0018C333CE33CED8F9FFEE4CFCEF4DFD7FE7
:10136B00027E42121F7FEF4CFC7F037E42121F7FD7
:10137B00ECFEED4FFFE4FCFD90032712018D7F0681
:10138B007E42121F7F7E00EF7810C333CE33CED850
:10139B00F9FDAC067F057E42121F7F7E00EF7818A9
:1013AB00C333CE33CED8F9FFEE4CFCEF4DFD7F07A8
:1013BB007E42121F7FEF4CFC7F087E42121F7FEC98
:1013CB00FEED4FFFE4FCFD90032312018D22420240
:1013DB00960000C10DC10CC10AC109C10B4102B677
:1013EB00004202AA000042029800004202CD000017
:1013FB004202B000004102C464C10E41032200410D
:10140B00030B00410330004103310041032D004128
:10141B00032B0041032E0041032C0041032F0044FA
:10142B00028A0000000044028E000000004401D933
:10143B00000000004101DDFF42027101E44101DFC8
:10144B000041026F0A410268144101D71441026442
:10145B000641026E0041026D054101E32341026B1F
:10146B00014101E1324101E2014102661441027383
:10147B006441026702410289014101D80A4101D34B
:10148B001441026514410270064101D6004101D599
:10149B000541026C234101D4014102693241026AC8
:1014AB0001410275144101DE644101D2024101E0A8
:1014BB0001C10F4403270000000044032300000078
:1014CB000041033300C190009001D0E0FEA3E0FF88
:1014DB007D5A122E499001D0E0FEA3E0FF7DA512AC
:1014EB002E499001D0E0FEA3E0FF7D0F122E499014
:1014FB0001D0E0FEA3E0FF7D82122E499001D0E0E7
:10150B00FEA3E0FFE4FD122E499001D0E0FEA3E024
:10151B00FF7D86122E499001D0E0FEA3E0FFE4FD93
:10152B00122E499001D0E0FEA3E0FFE4FD122E49FC
:10153B009001D0E0FEA3E0FFE4FD122E499001D014
:10154B00E0FEA3E0FFE4FD122E499001D0E0FEA3E4
:10155B00E0FFE4FD122E499001D0E0FEA3E0FFE492
:10156B00FD122E499001D0E0FEA3E0FFE4FD122E08
:10157B00499001D0E0FEA3E0FFE4FD122E4990015B
:10158B00D0E0FEA3E0FFE4FD122E499001D0E0FE77
:10159B00A3E0FFE4FD122E499001D0E0FEA3E0FF93
:1015AB00E4FD122E499001D0E0FEA3E0FFE4FD0222
:1015BB002E499001D0E0FEA3E0FF7D5A122E4990F8
:1015CB0001D0E0FEA3E0FF7DA5122E499001D0E0F3
:1015DB00FEA3E0FF7D0F122E499001D0E0FEA3E0A9
:1015EB00FF7D82122E499001D0E0FEA3E0FFE4FDC7
:1015FB00122E499001D0E0FEA3E0FF7D05122E498B
:10160B009001D0E0FEA3E0FFE4FD122E499001D043
:10161B00E0FEA3E0FFE4FD122E499001D0E0FEA313
:10162B00E0FFE4FD122E499001D0E0FEA3E0FFE4C1
:10163B00FD122E499001D0E0FEA3E0FFE4FD122E37
:10164B00499001D0E0FEA3E0FFE4FD122E4990018A
:10165B00D0E0FEA3E0FFE4FD122E499001D0E0FEA6
:10166B00A3E0FFE4FD122E499001D0E0FEA3E0FFC2
:10167B00E4FD122E499001D0E0FEA3E0FFE4FD1241
:10168B002E499001D0E0FEA3E0FFE4FD122E49901D
:10169B0001D0E0FEA3E0FFE4FD022E49E49002D965
:1016AB00F09002D9E0FFC394024003021784EF7558
:1016BB00F009A42410F582E43403AF82FE9002DA21
:1016CB00F0A3EFF0F5828E83A3A3E0FF7003021764
:1016DB007BEF6402700302177BEF6401704E900284
:1016EB00DAE0FEA3E0FFF5828E83A3A3A3E0FBA3C6
:1016FB00E0FAA3E0F9EA494B60228F828E83A3A321
:10170B00A3A3E0FAA3E0F91201F09002DAE0FEA342
:10171B00E0F5828E83A3A37402F080109002DAE0CE
:10172B00FEA3E0F5828E83A3A37403F09002DAE0AC
:10173B00FEA3E0F5828E83A3A3E0640370329002D4
:10174B00DAA3E0FFF5828E83A3A3E4F08F828E836E
:10175B00A3F0F98F828E83A3A3A3C9F0A3F0A3E90F
:10176B00F0EF2406F582E43EF583E4F0A3F0A3F05A
:10177B009002D9E004F00216AC22AC07E49002DA36
:10178B00F0A3F0FBAF041230669002DBE02FF09079
:10179B0002DAE03EF00BEBB420EA9002DAE0FEA3B3
:1017AB00E07805CEC313CE13D8F9F0EE9002DAF041
:1017BB00E0FEA3E0FBAA06E4F9F8FF7E407D9CFC6B
:1017CB00122DFDEF24F0FBEE34D8FAED34FFF9ECDB
:1017DB0034FFF87F007E2D7D317C01122DFDE4FB63
:1017EB00C39035F57401939FE4939E5005E4FEFF7F
:1017FB00804AD39036A97401939FE4939E40067E52
:10180B00007F5A8037EB25E024F5F582E43435F57B
:10181B0083C37401939FE4939E401CEB25E024F754
:10182B00F582E43435F583C37401939FE4939E50A2
:10183B0006EBFF7E0080050BEBB45BA4C3EF941E9D
:10184B00EE94005006C3741E9F8003EF24E29002B7
:10185B00D9F09002D9E0FF22121A0590028EE0FC1B
:10186B00A3E0FDA3E0FEA3E0FFEC4D4E4F701A90FA
:10187B0001D9E0FCA3E0FDA3E0FEA3E0FFEC4D4E9D
:10188B004F600690032302191590028EE0FCA3E033
:10189B00FDA3E0FEA3E0FFEC4D4E4F60279001D976
:1018AB00E0FCA3E0FDA3E0FEA3E0FFEC4D4E4F7088
:1018BB001390028EE0FCA3E0FDA3E0FEA3E0FF90FB
:1018CB000327804690028EE0FCA3E0FDA3E0FEA37D
:1018DB00E0FFEC4D4E4F60389001D9E0FCA3E0FDEA
:1018EB00A3E0FEA3E0FFEC4D4E4F60249001D9A383
:1018FB00A3A3E090032312018D90028EE0FCA3E0E2
:10190B00FDA3E0FEA3E0FF90032712018D12193E09
:10191B0090028E120199000000009001D9120199DA
:10192B0000000000E4900333F07E027FAC12359F81
:10193B000234A17E421231E4900327E0FCA3E0FDC8
:10194B00A3E0FEA3E0FF781812017AAD077F007EBB
:10195B00421231EB900327E0FCA3E0FDA3E0FEA3D2
:10196B00E0FF781012017AAD077F017E421231EB56
:10197B00900327E0FCA3E0FDA3E0FEA3E0FF7808C3
:10198B0012017AAD077F027E421231EB900327A33F
:10199B00A3A3E0FD7F031231EB900323E0FCA3E054
:1019AB00FDA3E0FEA3E0FF781812017AAD077F05D7
:1019BB007E421231EB900323E0FCA3E0FDA3E0FE9B
:1019CB00A3E0FF781012017AAD077F067E42123139
:1019DB00EB900323E0FCA3E0FDA3E0FEA3E0FF7884
:1019EB000812017AAD077F077E421231EB90032379
:1019FB00A3A3A3E0FD7F080231EB9001D0E0FEA38F
:101A0B00E0FF7D5A122E499001D0E0FEA3E0FF7D4E
:101A1B00A5122E499001D0E0FEA3E0FF7D0B122E04
:101A2B00499001D0E0FEA3E0FF7D82122E49900188
:101A3B00D0E0FEA3E0FFE4FD122E499001D0E0FEC2
:101A4B00A3E0FF7D14122E499001D0E0FEA3E0FF2E
:101A5B00E4FD122E499001D0E0FEA3E0FFE4FD125D
:101A6B002E499001D0E0FEA3E0FFE4FD122E499039
:101A7B0001D0E0FEA3E0FFE4FD122E499001D0E07F
:101A8B00FEA3E0FFE4FD122E499001D0E0FEA3E09F
:101A9B00FFE4FD122E499001D0E0FEA3E0FFE4FD30
:101AAB00122E499001D0E0FEA3E0FFE4FD022E4987
:101ABB007F007E44121F7FEFF4700EFF121F059004
:101ACB000267EFF07F0D021B567F027E44121F7FD1
:101ADB0090026FEFF07F03121F7F900268EFF07F91
:101AEB0004121F7F9001D7EFF07F05121F7F90022A
:101AFB0064EFF07F06121F7F90026EEFF07F0712EC
:101B0B001F7F90026DEFF07F08121F7F9001E3EFB4
:101B1B00F07F09121F7F90026BEFF07F0A121F7F7D
:101B2B009001E1EFF07F0B121F7F9001E2121F7B00
:101B3B00900266EFF07F0D121F7F900273EFF07F24
:101B4B000E121F7F900267EFF07F0F121F7F900224
:101B5B0089EFF01225A7227F007E421233D70F7E2A
:101B6B0040121F7F7E00EF7810C333CE33CED8F9EF
:101B7B00FDAC067F007E40121F7F7E00EF7818C3FE
:101B8B0033CE33CED8F9FFEE4CFCEF4DFD7F027E0A
:101B9B0040121F7FEF4CFC7F037E40121F7FECFE39
:101BAB00ED4FFFE4FCFD90032712018D7F057E4076
:101BBB00121F7F7E00EF7810C333CE33CED8F9FDE2
:101BCB00AC067F047E40121F7F7E00EF7818C33374
:101BDB00CE33CED8F9FFEE4CFCEF4DFD7F067E40A9
:101BEB00121F7FEF4CFC7F077E40121F7FECFEED38
:101BFB004FFFE4FCFD90032302018D9002D9EEF020
:101C0B00A3EFF0A3EDF0A3EBF09001D0E0FEA3E087
:101C1B00FF7D5A122E499001D0E0FEA3E0FF7DA577
:101C2B00122E499001D0E0FEA3E0FF7D07122E4952
:101C3B009001D0E0FEA3E0FF7D82122E499002D9E5
:101C4B00E0FD9001D0E0FEA3E0FF122E499001D001
:101C5B00E0FEA3E0FF9002D9A3E0FD122E49900114
:101C6B00D0E0FEA3E0FFE4FD122E499001D0E0FE90
:101C7B00A3E0FF9002DBE0FD122E499001D0E0FEC5
:101C8B00A3E0FFE4FD122E499001D0E0FEA3E0FF9C
:101C9B009002DCE0FD022E4990000812013C9002FC
:101CAB006DF090000A12013C9001E3F090000C12D1
:101CBB00013C90026BF090000E12013C9001D7F0AA
:101CCB0090001012013C90026EF090001212013C39
:101CDB00900264F090001412013C9001E1F090002E
:101CEB001612013C9001E2F090001812013C900298
:101CFB006FF090001A12013C900268F090001C12D9
:101D0B00013CFF900266F090001E12013CFE900217
:101D1B0073F090002012013C900267F090002212A9
:101D2B00013C900289F0900275EFF09001DEEEF02D
:101D3B00D20F227E027FD37C327DCB1234007E0207
:101D4B007F927C307D0A1234007E027F9E7C217D47
:101D5B003D1234007E027FBC7C347DBE1234007E8B
:101D6B00027FB77C2E7DBC1234007E027F9A7C32C0
:101D7B007D041234007E027FC97C347DF412340062
:101D8B007E027FC57C357D591234007E027FA67C96
:101D9B00357D631234007E027FCF7C357D6D12342E
:101DAB00007E027FC07C357D771234007E027FB2CD
:101DBB007C357D811234007E027FA27C337D6112E3
:101DCB0034007E027FAC7C007D060234009002DC86
:101DDB00EEF0A3EFF04E7003021E6F9002DCE0FEFC
:101DEB00A3E0F5828E83E0C3940250787BFF7A27C1
:101DFB00793C9002DCE0FEA3E0F5828E83A3E090B9
:101E0B0002E1F01209E99002DCE0FEA3E0FFF582AB
:101E1B008E83E025E0240CF582E43403F583E4F0B3
:101E2B00A3F08F828E83A3A374FFF09002DCE0FEFD
:101E3B00A3E0FFF5828E83A3A3A3E4F0EF240AF5BE
:101E4B0082E43EF583E0FBA3E0FAA3E0F9EA494B19
:101E5B006012EF240AF582E43EF583A3E0FAA3E0D7
:101E6B00F91201F022E49002D9F09002D9E0FFC3FD
:101E7B0094014003021F0474017E00A8070880052B
:101E8B00C333CE33CED8F9FF90030BE0FDEF5D608B
:101E9B005F9002D9E025E02409F582E43403F58351
:101EAB00E0FFA3E09002DACFF0A3EFF09002DAE0CC
:101EBB00FCA3E0FDF5828C83A3A3E0FF9002DCF092
:101ECB00ED2410F582E43CF583A3E0FAA3E0F58260
:101EDB008A831201F490030BE0FF9002D9E0FE74A9
:101EEB0001A806088002C333D8FCF45F90030BF003
:101EFB009002D9E004F0021E75227E46121F7F90DD
:101F0B00026FEFF07F01121F7F900268EFF07F02EC
:101F1B00121F7F9001D7EFF07F03121F7F90026497
:101F2B00EFF07F04121F7F90026EEFF07F05121F00
:101F3B007F90026DEFF07F06121F7F9001E3EFF0B1
:101F4B007F07121F7F90026BEFF07F08121F7F90AD
:101F5B0001E1EFF07F09121F7F9001E2EFF07F0AA2
:101F6B00121F7F900266EFF07F0B121F7F900273A0
:101F7B00EFF07F0C75C78075C5018FC4EEF5C37587
:101F8B00C65A75C6A500AFC21234CC227E4412319C
:101F9B00E490026FE0FD7F021231EB900268E0FDEE
:101FAB007F031231EB9001D7E0FD7F041231EB90F0
:101FBB000264E0FD7F051231EB90026EE0FD7F06BF
:101FCB001231EB90026DE0FD7F071231EB9001E3D4
:101FDB00E0FD7F081231EB90026BE0FD7F091231BF
:101FEB00EB9001E1E0FD7F0A1231EB9001E2E0FDA5
:101FFB007F0B1231EB900266E0FD7F0C1231EB9000
:10200B000273E0FD7F0D1231EB900267E0FD7F0E56
:10201B001231EB900289E0FD7F0F0231EB787FE408
:10202B00F6D8FD75812202206F020CE3E493A3F82E
:10203B00E493A34003F68001F208DFF48029E493D4
:10204B00A3F85407240CC8C333C4540F4420C883CB
:10205B004004F456800146F6DFE4800B01020408CD
:10206B00102040809013D9E47E019360BCA3FF54F1
:10207B003F30E509541FFEE493A360010ECF54C01B
:10208B0025E060A840B8E493A3FAE493A3F8E493A3
:10209B00A3C8C582C8CAC583CAF0A3C8C582C8CAAB
:1020AB00C583CADFE9DEE780BEE598543F4440F5BF
:1020BB0098438E0153A23FD2AC439810E49000009A
:1020CB00F0FE7F20FD7B017A0079AE1203917E003A
:1020DB007F207D007B017A00790E1203917E007FB9
:1020EB0000122F699001CEEEF0A3EFF0539A7F53BD
:1020FB00BAFE539A7F439A1043AF01439A02900062
:10210B00077401F0FE7F007D00FB7A0079CE12038D
:10211B00917E007F807D007B017A00792E120391E6
:10212B007E007F07122F699001D0EEF0A3EFF00233
:10213B0032967BFF7A29792C1209E99001E0E06055
:10214B0050900269E075F00AA4FFC39002CEE09FA5
:10215B009002CDE095F050249001DFE004F0900266
:10216B006AE0FE9001DFE0FDC39E90032DE0400589
:10217B004402F0800354FDF0AF05801090032DE076
:10218B0054FDF09001DFE0601AE4F0FF12347A8026
:10219B00129001DFE07005F0FF12347A90032DE00E
:1021AB0054FDF0E49002CDF0A3F0C20C30B30790D5
:1021BB0003327406F0221232E422C0E0C083C082E4
:1021CB00C0D075D000C006C007E59A30E02E900055
:1021DB000DE0702590000BE0C394804002E4F0907A
:1021EB00000BE0FF04F0742E2FF582E43400F5832E
:1021FB00E59BF090000C7432F0539AFEE59A30E1B7
:10220B0033539AFD900009E0FF900008E0FE6F60E9
:10221B001E74CE2EF582E43400F583E0F59B90001E
:10222B0008E004F0C3748094814009E4F0800590C9
:10223B00000AE4F0D007D006D0D0D082D083D0E013
:10224B00321235E9900330EFF01235EF900331EF96
:10225B00F0900330E0FD90032EE0B5050C900331B8
:10226B00E0FF90032CE06F600C900331E0FB7F2EBE
:10227B007E00121C06900330E090032EF090033189
:10228B00E0FF90032CF0900273E0FEEFC39E400B37
:10229B0090032DE04410F04408F022900266E0FF1A
:1022AB00900331E0FDC39F400FED9E500B90032D2B
:1022BB00E04408F054EFF02290032DE054EFF0547B
:1022CB00F7F0229001D0E0FEA3E0FF7D5A122E49D9
:1022DB009001D0E0FEA3E0FF7DA5122E499001D026
:1022EB00E0FEA3E0FF7D07122E499001D0E0FEA394
:1022FB00E0FF7D82122E499001D0E0FEA3E0FFE4C7
:10230B00FD122E499001D0E0FEA3E0FF7D10122EAE
:10231B00499001D0E0FEA3E0FFE4FD122E499001AD
:10232B00D0E0FEA3E0FFE4FD122E499001D0E0FEC9
:10233B00A3E0FFE4FD122E499001D0E0FEA3E0FFE5
:10234B00E4FD022E499002E0EEF0A3EFF0A3EDF0D6
:10235B009001D0E0FEA3E0FF7D5A122E499001D0F0
:10236B00E0FEA3E0FF7DA5122E499001D0E0FEA375
:10237B00E0FF7D05122E499001D0E0FEA3E0FF7D2A
:10238B0082122E499002E0E0FD9001D0E0FEA3E026
:10239B00FF122E499001D0E0FEA3E0FF9002E0A3D4
:1023AB00E0FD122E499001D0E0FEA3E0FFE4FD1208
:1023BB002E499001D0E0FEA3E0FF9002E2E0FD0287
:1023CB002E491222CE900327E0FCA3E0FDA3E0FEF2
:1023DB00A3E0FF90028AE0F8A3E0F9A3E0FAA3E000
:1023EB00FBC3120169700990033304F07F05802A47
:1023FB00900323E0FCA3E0FDA3E0FEA3E0FF90022B
:10240B008AE0F8A3E0F9A3E0FAA3E0FBC3120169A9
:10241B0070189003337402F07F101229FF7E027F35
:10242B00ACE4FB7DB4122E7F8005E4900333F09077
:10243B00028A1201990000000022C0E0C083C08212
:10244B00C0D075D01030982DC298900006E0702542
:10245B00900004E0C394204002E4F0900004E0FFFD
:10246B0004F0740E2FF582E43400F583E599F090B7
:10247B0000057419F0309930C299900002E0FF907A
:10248B000001E0FE6F601C74AE2EF582E43400F5A3
:10249B0083E0F599900001E004F0C394204009E437
:1024AB00F08005900003E4F0D0D0D082D083D0E050
:1024BB0032E4FFEF25E0240CF582E43403F583E4EA
:1024CB00F0A3F00FEFB402EBE4FFEF75F009A424D7
:1024DB0010F582E43403F583EFF075F009A42411B1
:1024EB00F582E43403F583E4F0EF75F009A42412CC
:1024FB00F582E43403F583E4F0EF75F009A42413BB
:10250B00F582E43403F583E4F0A3F0A3F0EF75F068
:10251B0009A42416F582E43403F583E4F0A3F0A3B5
:10252B00F00FEFB402A4229002D9EEF0A3EFF0F576
:10253B00828E83E0FF70119002D9E0FCA3E0F5825C
:10254B008C83A3E07002C3229002D9E0FCA3E0F5D8
:10255B00828C83A3E014F07041EF70279002D9E0D6
:10256B00FEA3E0FFF5828E83A3A3E0FCA3E04C6007
:10257B00108F828E83A3A3E0FEA3E0AA06F91201BB
:10258B00F0D3229002D9E0FEA3E0FFF5828E83E028
:10259B0014F08F828E83A37464F0C32290026FE0D9
:1025AB009001D8F0900268E09001D3F09001D7E051
:1025BB00FF900265F0900264E0900270F090026E62
:1025CB00E0FEEFD39E40079001D7E09E8001E490A0
:1025DB0001D6F090026DE09001D5F09001E3E09010
:1025EB00026CF090026BE09001D4F09001E1E0906E
:1025FB000269F09001E2E090026AF0900267E090CD
:10260B0001D2F0900289E09001E0F070031234E700
:10261B00229002E0EEF0A3EFF09001D0E0FEA3E0F9
:10262B00FF7D5A122E499001D0E0FEA3E0FF7DA55D
:10263B00122E499001D0E0FEA3E0FF7D05122E493A
:10264B009001D0E0FEA3E0FF7D82122E499001D0D5
:10265B00E0FEA3E0FFE4FD122E499001D0E0FEA3C3
:10266B00E0FF9002E0A3E0FD122E499001D0E0FEC6
:10267B00A3E0FFE4FD122E499001D0E0FEA3E0FFA2
:10268B00E4FD022E499001DDE0FF6405601DEF645F
:10269B00076018EF64096013EF6416600EEF6410A7
:1026AB006009EF64116004EFB41D097F407E0012D6
:1026BB000F27803A9001DDE0B4121990028E1201BF
:1026CB0099000000009001D912019900000000123E
:1026DB001A05801A9001DDE0FF64036004EFB40C6F
:1026EB000D90028A120199000000001222CE1234C2
:1026FB00A19001DD74FFF022776F726B666C6F77C0
:10270B00205B2562755D206F6E20434F4D256275F2
:10271B000D0A004C6F6164696E6720776F726B6690
:10272B006C6F77205B2562755D202E2E2E200D0A97
:10273B000046696E697368696E6720776F726B66A6
:10274B006C6F77205B2562755D202E2E2E200D0A77
:10275B0000776F726B666C6F77205B2562755D20FF
:10276B0074696D656F75740D0A009002D9EFF09066
:10277B0001D0E0FEA3E0FF7D5A122E499001D0E07C
:10278B00FEA3E0FF7DA5122E499001D0E0FEA3E051
:10279B00FF7D05122E499001D0E0FEA3E0FF7D8264
:1027AB00122E499001D0E0FEA3E0FFE4FD122E496A
:1027BB009001D0E0FEA3E0FF7D01122E499001D0E5
:1027CB00E0FEA3E0FFE4FD122E499001D0E0FEA352
:1027DB00E0FF9002D9E0FD022E499002D9EFF09074
:1027EB0001D0E0FEA3E0FF7D5A122E499001D0E00C
:1027FB00FEA3E0FF7DA5122E499001D0E0FEA3E0E1
:10280B00FF7D05122E499001D0E0FEA3E0FF7D82F3
:10281B00122E499001D0E0FEA3E0FFE4FD122E49F9
:10282B009001D0E0FEA3E0FF7D30122E499001D045
:10283B00E0FEA3E0FFE4FD122E499001D0E0FEA3E1
:10284B00E0FF9002D9E0FD022E49EFC394025068DD
:10285B00EF75F009A42410F582E43403AF82FE90E7
:10286B0002E7F0A3EFF0F5828E83A3A3E07049900B
:10287B0002E7E0FEA3E0FFF5828E83A3A37401F0D1
:10288B008F828E83A3F08F828E83A3A3A3EBF0A3FF
:10289B00EAF0A3E9F09002E4E0FBA3E0FAA3E0F98D
:1028AB00EF2406F582E43EF583EBF0A3EAF0A3E90F
:1028BB00F07F107E0012350C2273707261795F7796
:1028CB006173682C20506F570D0A00506F57310DF4
:1028DB000A00464545445F494E54455243455054C2
:1028EB002C20506F570D0A00464545445F53554306
:1028FB0054494F4E2C20506F570D0A004645454406
:10290B005F4449534348415247450D0A0064656E85
:10291B00676461690D0A006775616E676A690D0A04
:10292B0000670D0A00E49002D9F09002D9E0FFC3D2
:10293B009401505C74017E00A807088005C333CE58
:10294B0033CED8F9FF900322E0FDEF5D603A9002A1
:10295B00D9E025E02409F582E43403F583E0FEA3F6
:10296B00E0FF9002DAEEF0A3EFF0121DD8900322F5
:10297B00E0FF9002D9E0FE7401A806088002C33381
:10298B00D8FCF45F900322F09002D9E004F0809A17
:10299B002290032DE0FE90032FE06EFDFFEE5F9083
:1029AB00032BF0ED6045540E600890032DE0FF12F1
:1029BB00277590032DE0602990032BE06003122C08
:1029CB008A90032DE0FF5415600A900296E04402B2
:1029DB00F0A3E0F0EF541E6012900296E0442080CA
:1029EB0006900296E04440F0A3E0F090032DE090B7
:1029FB00032FF0229002E0EFF09001D0E0FEA3E075
:102A0B00FF7D5A122E499001D0E0FEA3E0FF7DA579
:102A1B00122E499001D0E0FEA3E0FF7D04122E4957
:102A2B009001D0E0FEA3E0FF7D80122E499001D0F3
:102A3B00E0FEA3E0FF7D03122E499001D0E0FEA340
:102A4B00E0FFE4FD122E499001D0E0FEA3E0FF90E1
:102A5B0002E0E0FD022E497E027FD31225327E0278
:102A6B007F9E1225327E027F921225327E027FBC20
:102A7B001225327E027FB71225327E027F9A1225F3
:102A8B00327E027FC91225327E027FC51225327E2D
:102A9B00027FA61225327E027FCF1225327E027F65
:102AAB00C01225327E027FB21225327E027FA21225
:102ABB0025327E027FAC0225329002767401F0E45F
:102ACB00A3F0A374FFF0E4A3F0A374FFF0A374339B
:102ADB00F0A3747AF0A374FFF0A37434F0A374839F
:102AEB00F090028674FFF0A37435F0A3748BF09012
:102AFB00028074FFF0A37435F0A374E2F0A3E4F04A
:102B0B00A3F0A3F090027474FFF09003097402F029
:102B1B00A37476F0229001D0E0FEA3E0FF7D5A1261
:102B2B002E499001D0E0FEA3E0FF7DA5122E499027
:102B3B0001D0E0FEA3E0FF7D04122E499001D0E00E
:102B4B00FEA3E0FF7D83122E499001D0E0FEA3E0AF
:102B5B00FFE4FD122E499001D0E0FEA3E0FF7D10B3
:102B6B00122E499001D0E0FEA3E0FF7D02022E4918
:102B7B009001D0E0FEA3E0FF7D5A122E499001D0C8
:102B8B00E0FEA3E0FF7DA5122E499001D0E0FEA34D
:102B9B00E0FF7D04122E499001D0E0FEA3E0FF7D03
:102BAB0083122E499001D0E0FEA3E0FFE4FD122E2C
:102BBB00499001D0E0FEA3E0FF7D40122E49900129
:102BCB00D0E0FEA3E0FF7D0E022E499001D0E0FE87
:102BDB00A3E0FF7D5A122E499001D0E0FEA3E0FF47
:102BEB007DA5122E499001D0E0FEA3E0FF7D0412DB
:102BFB002E499001D0E0FEA3E0FF7D83122E499079
:102C0B0001D0E0FEA3E0FFE4FD122E499001D0E0DD
:102C1B00FEA3E0FF7D14122E499001D0E0FEA3E04D
:102C2B00FF7D04022E49EF2404F582E43EF583E098
:102C3B007002C322EF2405F582E43EF583E0601AAF
:102C4B00EF2405F582E43EF583E014F0700CEF24DD
:102C5B0006F582E43EF5837401F0EF2405F582E47A
:102C6B003EF583E0700CEF2406F582E43EF58374A9
:102C7B0001F0EF2406F582E43EF583E024FF229079
:102C8B0001D0E0FEA3E0FF7D5A122E499001D0E067
:102C9B00FEA3E0FF7DA5122E499001D0E0FEA3E03C
:102CAB00FF7D03122E499001D0E0FEA3E0FF7D8152
:102CBB00122E499001D0E0FEA3E0FF7D20122E4999
:102CCB009001D0E0FEA3E0FF7D07022E499002D9D0
:102CDB00EEF0A3EFF090000BE09002DBF07E007FB4
:102CEB00807D007B017A0179E41203919002DBE095
:102CFB00FDD394804004E4FEFF22EDFF7E009002A2
:102D0B00D9E0FCA3E0AA04F97B0178E47C017D0106
:102D1B001201169002DBE0FF7E00229001D0E0FE54
:102D2B00A3E0FF7D5A122E499001D0E0FEA3E0FFF5
:102D3B007DA5122E499001D0E0FEA3E0FF7D03128A
:102D4B002E499001D0E0FEA3E0FF7D81122E499029
:102D5B0001D0E0FEA3E0FF7D03122E499001D0E0ED
:102D6B00FEA3E0FF7D02022E491222CE900327E044
:102D7B00FCA3E0FDA3E0FEA3E0FF90028AE0F8A332
:102D8B00E0F9A3E0FAA3E0FBC3120169701590030D
:102D9B003304F07F121229FF7E027FACE4FB7DB47B
:102DAB00122E7F90028A1201990000000022D2821B
:102DBB00E49002B0F0A3F09001D6E070051234BE9F
:102DCB00800C7BFF7A2879F31209E912352D9002DA
:102DDB0065E0FF9001D6E0FD6F60097E027FBCE4E9
:102DEB00FB122E7F7E027F92900265E0FDE4FB02D8
:102DFB002E7FC2D5E830E70FB2D5E4C39BFBE49A34
:102E0B00FAE499F9E498F8EC30E717B2D5122E33BF
:102E1B0012043AE4C39BFBE49AFAE499F9E498F8B8
:102E2B00800312043A30D50DE4C39FFFE49EFEE409
:102E3B009DFDE49CFC22900000E0FEA3E0FF9003CC
:102E4B0008EDF0900306EEF0A3EFF0F5828E83E031
:102E5B007008900308E0FF0230E0900306E0FEA349
:102E6B00E0F5828E83E0900308B40105E0FF0230A9
:102E7B003CE0FF229002E0EEF0A3EFF0EB701AEDD6
:102E8B0014FF9002E0E0FCA3E0FDF5828C83EFF0F1
:102E9B008D828C83A37464F022AF059002E0E0FC7A
:102EAB00A3E0FDF5828C83EFF08D828C83A3EBF096
:102EBB00227BFF7A2979181209E9C2819002BBE0C3
:102ECB0014F0E070097E027FC9FB7D01801A7E023F
:102EDB007F9A90026CE0FC75F00A84FDEC75F00AA9
:102EEB0084E5F075F00AA4FB122E7F2244575F4451
:102EFB005554592C20506F570D0A0057465F4649C1
:102F0B004E4953485F445554592C20506F570D0A66
:102F1B000053544152540D0A00454E440D0A0069AA
:102F2B00646C650D0A0020B3237BFF7A2879D612D7
:102F3B0009E9C20A7E027FD3E4FB7D01122E7FD208
:102F4B008312352290032DE054FEF022D20AD20BCD
:102F5B0012354390032DE054FDF04401F0228F8293
:102F6B008E83A3E4F08F828E83A3A3F08F828E8354
:102F7B00A3A3A3F0EF2404F582E43EF583E4F0EF82
:102F8B002405F582E43EF583E4F0EF2406F582E4B4
:102F9B003EF583E4F022200D2AEF70127E027FB201
:102FAB0012359F900296E04440F0A3E0F02290028D
:102FBB0096E04420F0A3E0F07E027FB2E4FB7D0AB2
:102FCB00022E7F7F087E0012261C227E027FD312E8
:102FDB00359F7E027F9212359F7E027F9E12359F18
:102FEB007E027FBC12359F7E027FB712359F7E0219
:102FFB007F9A12359F7E027FC912359FC20D227BAD
:10300B00FF7A2979071209E9C280C2821235387E0C
:10301B00027F9E900270E0FDE4FB122E7F9001E098
:10302B00E06004D20C8002C20CE49002CDF0A3F05D
:10303B0022900009E024CEF582E43400F583EFF012
:10304B00900009E004F0C3748094814002E4F09096
:10305B00000AE0700504F0439A0222E4F5BDF5BEC8
:10306B0053BCF8EF42BC43BC0800000000E5BC3089
:10307B00E4FB53BCEFAFBDEF75F004A4FFAEF0ADB6
:10308B00BEEF4DFF227BFF7A2879C41209E9D2816A
:10309B007E027FB79001D5E0FC75F00A84FDEC75DC
:1030AB00F00A84E5F075F00AA4FB022E7F9003333F
:1030BB00E0B401047F058009900333E0B402107F74
:1030CB00101229FF7E027FACE4FB7DB4022E7F7FC2
:1030DB00031229FF22900002E024AEF582E43400B3
:1030EB00F583EFF0900002E004F0C394204002E47B
:1030FB00F0900003E0700404F0D29922AD07900326
:10310B000BE0FF7401A805088002C333D8FCFEF462
:10311B005F90030BF0900322E04EF07F027E0002E3
:10312B00350C200D1AEF700A7E027FC512359FC237
:10313B008122D2817E027FC5E4FB7D0A022E7F7F36
:10314B00057E0012261C22200D1AEF700A7E027FCC
:10315B00A612359FC28222D2827E027FA6E4FB7D1D
:10316B000A022E7F7F067E0012261C22200D1AEFEC
:10317B00700A7E027FCF12359FC28022D2807E02E0
:10318B007FCFE4FB7D0A022E7F7F077E0012261C79
:10319B0022200D1AEF700A7E027FC012359FC28368
:1031AB0022D2837E027FC0E4FB7D0A022E7F7F0941
:1031BB007E0012261C227E027FC512359F7E027F67
:1031CB00A612359F7E027FCF12359F7E027FC012E3
:1031DB00359F7E027FB202359F7F001233D77D0170
:1031EB0075C78075C5028FC4EEF5C3AF058FC27569
:1031FB00C65A75C6A5000234CCD2817E027FB79029
:10320B0001D5E0FC75F00A84FDEC75F00A84E5F05D
:10321B0075F00AA4FB022E7F4391045392FB43915A
:10322B00085392F74391105392EF4391205392DF3F
:10323B004391405392BF2290032DE054146002C27D
:10324B000D900296E0200D04440280024401F0A38D
:10325B00E0F02290030BE0FE7401A807088002C384
:10326B0033D8FC4E90030BF07F047E0002350C7FAD
:10327B00407E00120F277E027FA212359F7E027FB7
:10328B00ACE4FB7DB4122E7FC21022200E17538E9E
:10329B00EF538EF7438E0475D6FF75D7CC53AFFB28
:1032AB00438E10D20E227F007E441233D7121F059D
:1032BB00900267EFF07F0D121F7F900289EFF022D3
:1032CB00300F051225A7C20F9001D4E09002BBF07E
:1032DB006003023090122DB922300F051225A7C2C0
:1032EB000F9001D4E09002BBF06003023090122DDE
:1032FB00B9229002E474FFF0A37423F0A374CDF011
:10330B007BFF7A2B79207F010228559002E474FF12
:10331B00F0A37434F0A37492F07BFF7A2B797B7F4C
:10332B00010228559002E474FFF0A3742DF0A374EE
:10333B0074F07BFF7A2B79207F010228559002E4F1
:10334B0074FFF0A37418F0A37463F07BFF7A2B79EE
:10335B00D67F010228559002E474FFF0A37426F087
:10336B00A37490F07BFF7A2D79267F01022855906C
:10337B0002D9EBF0A3EAF0A3E9F0A3ECF0A3EDF094
:10338B00E4FF123107D3227E027FA212359F121A5D
:10339B00057E027FACE4FB7DB4122E7FC21022EFC0
:1033AB002404F582E43EF583E4F0EF2406F582E491
:1033BB003EF583E4F0221232B1D20F7F407E001231
:1033CB000F277F207E00120F270234A175C780754F
:1033DB00C5038FC4EEF5C375C65A75C6A500023476
:1033EB00CC538E7F5389FB5389FC758CB1758AE066
:1033FB00D2A9C28C228F828E83E4F0A3F08F828EAF
:10340B0083A3A3ECF0A3EDF022121A05121B62E4C6
:10341B00900333F07E027FAC02359F7F207E00123B
:10342B000F271235C37F407E00020F277E027FA23B
:10343B0012359F1222CE123500C2102200007F5C83
:10344B007E327DEEDDFEDEFCDFFA22123223439D5F
:10345B007CE4F5BDF5BE75BCE02290032DE020A306
:10346B000454FBF0224404F022E49001DFF0FFADA2
:10347B00077F327E000223509002797402F0E490B1
:10348B000278F0FF02325E7F207E00120F27121FA0
:10349B0097D20F0234A17F011229FF7E027FA21265
:1034AB00359FC21022AD079001CEE0FEA3E0FF12C4
:1034BB002E49227BFF7A2879DD1209E9D280023569
:1034CB004EE4F5C7F5C5F5C675C3FF75C4FF2212EB
:1034DB0035DB1234565395E7439618221234749009
:1034EB00032DE054FDF00214D37BFF7A29792212CD
:1034FB0009E9022DB9E4900333F07E027FAC02356B
:10350B009F900296E04EF0A3E04FF0221235A8C236
:10351B00A41231C10215BD9003327401F07F020277
:10352B0027E59003327402F07F040227E590033203
:10353B007403F07F100227E59003327404F07F20B0
:10354B000227E59003327405F07F080227E57F051B
:10355B007E0012261CC281227F067E0012261CC210
:10356B0082227F077E0012261CC280227F097E00EA
:10357B0012261CC283227F087E0012261CC2A422A4
:10358B009002D9EFF0E4FF023107E4900332F07FB1
:10359B00010227E58F828E83E4F0A3F022C281C261
:1035AB0082C280C283225393F043940F0235A8AD9D
:1035BB00077F047E000223507F757EB8DEFEDFFCA2
:1035CB0022E4FD7F0BFE022350D2B2C288D2A82286
:1035DB004395085396F72290027474FFF0227F02F2
:1035EB00121785227F0612178522431C3F0C3B4C7A
:1035FB0037C83480317E2EA42C0629862738251017
:10360B00230321171F4A1D9A1C041A86192017D051
:10361B0016931569144D13401243115310710F9BE0
:10362B000ED10E120D5E0CB30C160B810AF40A6E42
:10363B0009EF097609420897082F07CD077007187D
:10364B0006C40674062905E1059D055C051E04E408
:10365B0004AC04770445041503E803BD0394036D20
:10366B0003470324030202E202C302A6028A02708A
:10367B000256023E0227021101FC01E801D501C3EB
:10368B0001B101A101910182017301650158014B47
:10369B00013F01330128011D0113010900FF00F651
:00000001FF
