:10000000022346022FE6C2832222220228199001EF
:100010009FE0600E9001A1E004F070069001A0E066
:1000200004F0220225E19000A4E004F0E0B407020D
:10003000E4F0E4FFEF25E025E02401F582E434005C
:10004000F583E4F0EF25E025E02400F582E43400B8
:10005000F583E4F0EF25E025E02402F582E43400A6
:10006000F583E4F00FEFB413CB9000A4E0FF60033E
:1000700002013A90000174FFF0900000F09000023D
:10008000F0900004F0900009F090000D74C9F0A306
:100090007457F090001274E6F090001174E0F09044
:1000A000001074B0F090001574FFF090001974C047
:1000B000F090001874FFF090001A74CBF090001DBF
:1000C00074FFF090001CF090001EF0900020F09063
:1000D0000025F090002974C9F0A37457F090002E09
:1000E00074E6F090002D74E0F090002C74B0F09065
:1000F000003174FFF090003574C0F090003474FF4C
:10010000F090003674CBF090003974FFF090003816
:10011000F090003AF090003CF0900041F0900045E3
:1001200074C9F0A37457F090004A74E6F090004947
:1001300074E0F090004874B0F022EF6401600302B4
:10014000020990000174C0F090000074FFF090006C
:100150000274CBF090000574FFF0900004F0900062
:1001600006F0900008F090000DF090001174C9F0B6
:10017000A37457F090001674E6F090001574E0F048
:1001800090001474B0F090001974FFF090001D748A
:10019000C0F090001C74FFF090001E74CBF0900033
:1001A0002174FFF0900020F0900022F0900024F0E5
:1001B000900029F090002D74C9F0A37457F09000BE
:1001C0003274E6F090003174E0F090003074B0F0DA
:1001D00090003574FFF090003974C0F090003874CE
:1001E000FFF090003A74CBF090003D74FFF0900067
:1001F0003CF090003EF0900040F0900045F0900000
:100200004974C9F0A37457F022EF6402600302023C
:10021000D490000174FFF090000574C0F0900004C9
:1002200074FFF090000674CBF090000974FFF0901A
:100230000008F090000AF090000CF0900011F0908F
:10024000001574C9F0A37457F090001A74E6F0908A
:10025000001974E0F090001874B0F090001D74FF65
:10026000F090002174C0F090002074FFF090002204
:1002700074CBF090002574FFF0900024F0900026DD
:10028000F0900028F090002DF090003174C9F0A398
:100290007457F090003674E6F090003574E0F090FA
:1002A000003474B0F090003974FFF090003D74C0D9
:1002B000F090003C74FFF090003E74CBF090004151
:1002C00074FFF0900040F0900042F0900044F090F5
:1002D0000049F022EF640360030203AD9000027452
:1002E000E6F090000174E0F090000074B0F090002F
:1002F0000574FFF090000974C0F090000874FFF0DE
:1003000090000A74CBF090000D74FFF090000CF098
:1003100090000EF0900010F0900015F0900019740D
:10032000C9F0A37457F090001E74E6F090001D749D
:10033000E0F090001C74B0F090002174FFF0900089
:100340002574C0F090002474FFF090002674CBF068
:1003500090002974FFF0900028F090002AF090009F
:100360002CF0900031F090003574C9F0A37457F070
:1003700090003A74E6F090003974E0F09000387420
:10038000B0F090003D74FFF090004174C0F0900018
:100390004074FFF090004274CBF090004574FFF081
:1003A000900044F0900046F0900048F022EF640482
:1003B000600302048C90000174C9F0A37457F0909C
:1003C000000674E6F090000574E0F090000474B04C
:1003D000F090000974FFF090000D74C0F090000CD4
:1003E00074FFF090000E74CBF090001174FFF09049
:1003F0000010F0900012F0900014F0900019F090AE
:10040000001D74C9F0A37457F090002274E6F090B8
:10041000002174E0F090002074B0F090002574FF8B
:10042000F090002974C0F090002874FFF090002A2A
:1004300074CBF090002D74FFF090002CF090002E03
:10044000F0900030F0900035F090003974C9F0A3BE
:100450007457F090003E74E6F090003D74E0F09028
:10046000003C74B0F090004174FFF090004574C0FF
:10047000F090004474FFF090004674CBF090004977
:1004800074FFF0900048F090004AF022EF6405609D
:100490000302056390000174FFF090000574C9F039
:1004A000A37457F090000A74E6F090000974E0F02D
:1004B00090000874B0F090000D74FFF0900011747B
:1004C000C0F090001074FFF090001274CBF0900018
:1004D0001574FFF0900014F0900016F0900018F0E2
:1004E00090001DF090002174C9F0A37457F09000A3
:1004F0002674E6F090002574E0F090002474B0F0CB
:1005000090002974FFF090002D74C0F090002C74BE
:10051000FFF090002E74CBF090003174FFF090004B
:1005200030F0900032F0900034F0900039F09000FC
:100530003D74C9F0A37457F090004274E6F0900047
:100540004174E0F090004074B0F090004574FFF00A
:1005500090004974C0F090004874FFF090004A7415
:10056000CBF022EF6406600302062B90000074FFBC
:10057000F0900005F090000974C9F0A37457F09052
:10058000000E74E6F090000D74E0F090000C74B072
:10059000F090001174FFF090001574C0F0900014FA
:1005A00074FFF090001674CBF090001974FFF09077
:1005B0000018F090001AF090001CF0900021F090CC
:1005C000002574C9F0A37457F090002A74E6F090E7
:1005D000002974E0F090002874B0F090002D74FFB2
:1005E000F090003174C0F090003074FFF090003251
:1005F00074CBF090003574FFF0900034F09000362A
:10060000F0900038F090003DF090004174C9F0A3E4
:100610007457F090004674E6F090004574E0F09056
:10062000004474B0F090004974FFF022900057E04D
:1006300004F07006900056E004F0C3900057E09478
:10064000E0900056E09406403AE4F0A3F0FFEF2576
:10065000E025E02400F582E43400F583E4F0EF25A2
:10066000E025E02401F582E43400F583E4F0EF2591
:10067000E025E02402F582E43400F583E4F00FEF96
:10068000B413CB900056E0FCA3E0FDC394FAEC94C5
:1006900000503BE4FFEF25E025E02400F582E43440
:1006A00000F583E004F0EF25E025E02401F582E485
:1006B0003400F583E004F0EF25E025E02402F58224
:1006C000E43400F583E004F00FEFB413C822C3ED67
:1006D00094F4EC9401504AC3900057E094FA9000CF
:1006E00056E09400403BE4FFEF25E025E02400F5D0
:1006F00082E43400F583E014F0EF25E025E02401E6
:10070000F582E43400F583E014F0EF25E025E024E1
:1007100002F582E43400F583E014F00FEFB413C85F
:1007200022900056E0FCA3E0FDC394EEEC9402504E
:1007300042C3ED94F4EC94014039E4FFEF25E02549
:10074000E02400F582E43400F583E004F0EF25E0D6
:1007500025E02401F582E43400F583E4F0EF25E0A0
:1007600025E02402F582E43400F583E4F00FEFB4D1
:1007700013CA22900056E0FCA3E0FDC394E8EC9479
:10078000035042C3ED94EEEC94024039E4FFEF25B0
:10079000E025E02400F582E43400F583E014F0EF76
:1007A00025E025E02401F582E43400F583E4F0EF50
:1007B00025E025E02402F582E43400F583E4F00F1F
:1007C000EFB413CA22900056E0FCA3E0FDC394E20C
:1007D000EC94045042C3ED94E8EC94034039E4FFF8
:1007E000EF25E025E02400F582E43400F583E4F011
:1007F000EF25E025E02401F582E43400F583E004F0
:10080000F0EF25E025E02402F582E43400F583E4EE
:10081000F00FEFB413CA22900056E0FCA3E0FDC332
:1008200094DCEC94055042C3ED94E2EC940440391E
:10083000E4FFEF25E025E02400F582E43400F583B1
:10084000E4F0EF25E025E02401F582E43400F583AF
:10085000E014F0EF25E025E02402F582E43400F511
:1008600083E4F00FEFB413CA22900056E0FCA3E03B
:10087000FDC394E2EC94045042C3ED94E8EC94037D
:100880004039E4FFEF25E025E02400F582E4340060
:10089000F583E4F0EF25E025E02401F582E434005F
:1008A000F583E4F0EF25E025E02402F582E434004E
:1008B000F583E004F00FEFB413CA22900056E0FC79
:1008C000A3E0FDC394DCEC94055042C3ED94E2EC4C
:1008D00094044039E4FFEF25E025E02400F582E4AC
:1008E0003400F583E4F0EF25E025E02401F582E40F
:1008F0003400F583E4F0EF25E025E02402F582E4FE
:100900003400F583E014F00FEFB413CA22900056C0
:10091000E0FCA3E0FDC394F0EC94055047C3ED94D4
:10092000DCEC9405403EE4FFEF25E025E02402F5F1
:1009300082E43400F583E0240AF0EF25E025E0248A
:1009400001F582E43400F583E02409F0EF25E02589
:10095000E02400F582E43400F583E02406F00FEF94
:10096000B413C522900056E0FCA3E0FDC39404EC50
:1009700094065047C3ED94F0EC9405403EE4FFEF3D
:1009800025E025E02402F582E43400F583E024F636
:10099000F0EF25E025E02401F582E43400F583E062
:1009A00024F7F0EF25E025E02400F582E43400F59B
:1009B00083E024FAF00FEFB413C522900056E0FC58
:1009C000A3E0FDC3944AEC94065044C3ED9404ECB8
:1009D0009406403BE4FFEF25E025E02401F582E4A6
:1009E0003400F583E02403F0EF25E025E02402F550
:1009F00082E43400F583E004F0EF25E025E02400F4
:100A0000F582E43400F583E4F00FEFB413C82290CC
:100A10000056E0FCA3E0FDC39490EC94065044C360
:100A2000ED944AEC9406403BE4FFEF25E025E024FA
:100A300001F582E43400F583E024FDF0EF25E025A4
:100A4000E02402F582E43400F583E014F0EF25E0C1
:100A500025E02400F582E43400F583E4F00FEFB4E0
:100A600013C822900056E0FCA3E0FDC394B8EC94B8
:100A7000065047C3ED9490EC9406403EE4FFEF250A
:100A8000E025E02401F582E43400F583E02404F05D
:100A9000EF25E025E02400F582E43400F583E0242E
:100AA00005F0EF25E025E02402F582E43400F5832B
:100AB000E02404F00FEFB413C522900056E0FCA32D
:100AC000E0FDC394E0EC94065046C3ED94B8EC947A
:100AD00006403DE4FFEF25E025E02401F582E43403
:100AE00000F583E024FCF0EF25E025E02400F5820A
:100AF000E43400F583E024FBF0EF25E025E0240258
:100B0000F582E43400F583E024FCF00FEFB413C564
:100B100022E4FFEF25E025E02401F582E43400F52E
:100B200083E4F0EF25E025E02400F582E43400F5CD
:100B300083E4F0EF25E025E02402F582E43400F5BB
:100B400083E4F00FEFB413CB9000A8E004F0E0B41E
:100B50001A02E4F09000A8E0FF703E90000074FFDD
:100B6000F0900005F090000974C9F0A37457F0905C
:100B7000000E74E6F090000D74E0F090000C74B07C
:100B8000F090001274FFF090001574C0F090001403
:100B900074FFF0900016020F2BEF64016004EFB4B5
:100BA000193E90000474FFF0900009F090000D745D
:100BB000C9F0A37457F090001274E6F0900011741D
:100BC000E0F090001074B0F090001674FFF0900008
:100BD0001974C0F090001874FFF090001A020F2BE7
:100BE000EF64026004EFB4183E90000874FFF090C8
:100BF000000DF090001174C9F0A37457F090001626
:100C000074E6F090001574E0F090001474B0F09069
:100C1000001A74FFF090001D74C0F090001C74FF67
:100C2000F090001E020F2BEF64036004EFB4173E38
:100C300090000C74FFF0900011F090001574C9F052
:100C4000A37457F090001A74E6F090001974E0F065
:100C500090001874B0F090001E74FFF090002174A2
:100C6000C0F090002074FFF0900022020F2BEF6480
:100C7000046004EFB4163E90001074FFF09000156D
:100C8000F090001974C9F0A37457F090001E74E638
:100C9000F090001D74E0F090001C74B0F090002201
:100CA00074FFF090002574C0F090002474FFF09061
:100CB0000026020F2BEF64056004EFB4153E900090
:100CC0001474FFF0900019F090001D74C9F0A37423
:100CD00057F090002274E6F090002174E0F090004C
:100CE0002074B0F090002674FFF090002974C0F0DA
:100CF00090002874FFF090002A020F2BEF6406602A
:100D000004EFB4143E90001874FFF090001DF090B2
:100D1000002174C9F0A37457F090002674E6F09097
:100D2000002574E0F090002474B0F090002A74FF65
:100D3000F090002D74C0F090002C74FFF090002E05
:100D4000020F2BEF64076004EFB4133E90001C7495
:100D5000FFF0900021F090002574C9F0A37457F0C3
:100D600090002A74E6F090002974E0F09000287456
:100D7000B0F090002E74FFF090003174C0F090003D
:100D80003074FFF0900032020F2BEF64086004EF24
:100D9000B4123E90002074FFF0900025F0900029DE
:100DA00074C9F0A37457F090002E74E6F090002DF3
:100DB00074E0F090002C74B0F090003274FFF0906A
:100DC000003574C0F090003474FFF0900036020FCC
:100DD0002BEF64096004EFB4113E90002474FFF01F
:100DE000900029F090002D74C9F0A37457F0900082
:100DF0003274E6F090003174E0F090003074B0F09E
:100E000090003674FFF090003974C0F09000387490
:100E1000FFF090003A020F2BEF640A6004EFB41069
:100E20003E90002874FFF090002DF090003174C9BE
:100E3000F0A37457F090003674E6F090003574E03B
:100E4000F090003474B0F090003A74FFF090003DE0
:100E500074C0F090003C74FFF090003E020F2BEF46
:100E6000640B6004EFB40F3E90002C74FFF0900010
:100E700031F090003574C9F0A37457F090003A74C3
:100E8000E6F090003974E0F090003874B0F0900013
:100E90003E74FFF090004174C0F090004074FFF089
:100EA000900042020F2BEF640C6004EFB40E3D90F3
:100EB000003074FFF0900035F090003974C9F0A351
:100EC0007457F090003E74E6F090003D74E0F090AE
:100ED000003C74B0F090004274FFF090004574C084
:100EE000F090004474FFF0900046803FEFB40D3E58
:100EF00090003474FFF0900039F090003D74C9F018
:100F0000A37457F090004274E6F090004174E0F052
:100F100090004074B0F090004674FFF09000497467
:100F2000C0F090004874FFF090004A74CBF022901B
:100F30000053E004F0E0B40A0EE4F090004CE0044A
:100F4000F0E0B40602E4F090004CE0FE7059FF902F
:100F50000053E0FD6F6007C374129DB50713EF25C2
:100F6000E025E02400F582E43400F58374FFF0808E
:100F700010EF25E025E02400F582E43400F583E459
:100F8000F0EF25E025E02401F582E43400F583E468
:100F9000F0EF25E025E02402F582E43400F583E457
:100FA000F00FEFB413A922EE64017059FF900053C3
:100FB000E0FE6F6007C374129EB50713EF25E025AE
:100FC000E02401F582E43400F58374FFF08010EF33
:100FD00025E025E02401F582E43400F583E4F0EF18
:100FE00025E025E02400F582E43400F583E4F0EF09
:100FF00025E025E02402F582E43400F583E4F00FD7
:10100000EFB413A92290004CE0FE64027077FF90C9
:101010000053E0FD6F6007C374129DB50730EF25E4
:10102000E025E02401F582E43400F58374C9F0EF93
:1010300025E025E02402F582E43400F5837457F0BE
:10104000EF25E025E02400F582E43400802CEF2534
:10105000E025E02401F582E43400F583E4F0EF2597
:10106000E025E02400F582E43400F583E4F0EF2588
:10107000E025E02402F582E43400F583E4F00FEF8C
:101080006413708B22EE6403707CFF900053E0FECB
:101090006F6007C374129EB50735EF25E025E02485
:1010A00002F582E43400F58374E6F0EF25E025E0F4
:1010B0002401F582E43400F58374E0F0EF25E025A7
:1010C000E02400F582E43400F58374B0F08030EF62
:1010D00025E025E02401F582E43400F583E4F0EF17
:1010E00025E025E02400F582E43400F583E4F0EF08
:1010F00025E025E02402F582E43400F583E4F00FD6
:10110000EF641370862290004CE0FE6404707AFF56
:10111000900053E0FD6F6007C374129DB50733EF75
:1011200025E025E02401F582E43400F583E4F0EFC6
:1011300025E025E02400F582E43400F583E4F0EFB7
:1011400025E025E02402F582E43400F58374FFF005
:101150008030EF25E025E02401F582E43400F583BA
:10116000E4F0EF25E025E02400F582E43400F58387
:10117000E4F0EF25E025E02402F582E43400F58375
:10118000E4F00FEF6413708822EE6405707BFF902B
:101190000053E0FE6F6007C374129EB50735EF255C
:1011A000E025E02401F582E43400F58374C0F0EF1B
:1011B00025E025E02400F582E43400F58374FFF097
:1011C000EF25E025E02402F582E43400F58374CBBA
:1011D000F08030EF25E025E02401F582E43400F5CD
:1011E00083E4F0EF25E025E02400F582E43400F507
:1011F00083E4F0EF25E025E02402F582E43400F5F5
:1012000083E4F00FEF6413708622E709F608DFFA33
:101210008046E709F208DFFA803E88828C83E7097E
:10122000F0A3DFFA8032E309F608DFFA8078E309F9
:10123000F208DFFA807088828C83E309F0A3DFFA7A
:10124000806489828A83E0A3F608DFFA8058898265
:101250008A83E0A3F208DFFA804C80D280FA80C64D
:1012600080D4806980F28033801080A680EA809AE2
:1012700080A880DA80E280CA803389828A83ECFA8F
:10128000E493A3C8C582C8CCC583CCF0A3C8C582EB
:10129000C8CCC583CCDFE9DEE7800D89828A83E490
:1012A00093A3F608DFF9ECFAA9F0EDFB2289828A14
:1012B00083ECFAE0A3C8C582C8CCC583CCF0A3C830
:1012C000C582C8CCC583CCDFEADEE880DB89828AB0
:1012D00083E493A3F208DFF980CC88F0EF60010E7D
:1012E0004E60C388F0ED2402B4040050B9F582EBDF
:1012F0002402B4040050AF232345822390125A7372
:10130000BB010689828A83E0225002E722BBFE02EB
:10131000E32289828A83E49322BB010CE58229F5CA
:1013200082E5833AF583E0225006E92582F8E62239
:10133000BBFE06E92582F8E222E58229F582E583F3
:101340003AF583E49322F8BB010DE58229F582E5A5
:10135000833AF583E8F0225006E92582C8F622BBDD
:10136000FE05E92582C8F222EF8DF0A4A8F0CF8C0B
:10137000F0A428CE8DF0A42EFE22A3F8E0C5F0251F
:10138000F0F0E582158270021583E0C838F0E8229B
:10139000BB0110E58229F582E5833AF583E0F5F09B
:1013A000A3E0225009E92582F886F008E622BBFE78
:1013B0000AE92582F8E2F5F008E222E5832AF583BE
:1013C000E993F5F0A3E99322EB9FF5F0EA9E42F052
:1013D000E99D42F0EC6480C864809845F0228A83DD
:1013E0008982E473EF4E6012EF60010EEDBB010BDA
:1013F00089828A83F0A3DFFCDEFA2289F05007F7A6
:1014000009DFFCA9F022BBFEFCF309DFFCA9F022F6
:1014100075F008758200EF2FFFEE33FECD33CDCC93
:1014200033CCC58233C5829BED9AEC99E582984016
:101430000CF582EE9BFEED9AFDEC99FC0FD5F0D6F3
:10144000E4CEFBE4CDFAE4CCF9A88222B800C1B91D
:101450000059BA002DEC8BF084CFCECDFCE5F0CB5B
:10146000F97818EF2FFFEE33FEED33FDEC33FCEB94
:1014700033FB10D703994004EB99FB0FD8E5E4F94F
:10148000FA227818EF2FFFEE33FEED33FDEC33FC3C
:10149000C933C910D7059BE99A4007EC9BFCE99A30
:1014A000F90FD8E0E4C9FAE4CCFB2275F010EF2F75
:1014B000FFEE33FEED33FDCC33CCC833C810D70775
:1014C0009BEC9AE899400AED9BFDEC9AFCE899F8B0
:1014D0000FD5F0DAE4CDFBE4CCFAE4C8F9229000B1
:1014E0004FE004F0E0B4130EE4F09000A9E004F043
:1014F000E0B40602E4F09000A9E0FE7050FF900016
:101500004FE0B5071225E025E02400F582E4340021
:10151000F58374FFF08010EF25E025E02400F582CC
:10152000E43400F583E4F0EF25E025E02401F582C2
:10153000E43400F583E4F0EF25E025E02402F582B1
:10154000E43400F583E4F00FEFB413B222EE64014B
:101550007050FF90004FE0B5071225E025E0240110
:10156000F582E43400F58374FFF08010EF25E02568
:10157000E02401F582E43400F583E4F0EF25E02572
:10158000E02400F582E43400F583E4F0EF25E02563
:10159000E02402F582E43400F583E4F00FEFB413A5
:1015A000B2229000A9E0FE64027060FF90004FE05C
:1015B000B5072225E025E02401F582E43400F58317
:1015C00074C9F0EF25E025E02402F582E43400F54B
:1015D000837457801FEF25E025E02401F582E43471
:1015E00000F583E4F0EF25E025E02402F582E43401
:1015F00000F583E4F0EF25E025E02400F582E434F3
:1016000000F583E4F00FEFB413A222EE64037072CE
:10161000FF90004FE0B5073425E025E02402F58275
:10162000E43400F58374E6F0EF25E025E02401F5CD
:1016300082E43400F58374E0F0EF25E025E0240037
:10164000F582E43400F58374B0F08030EF25E025B6
:10165000E02402F582E43400F583E4F0EF25E02590
:10166000E02401F582E43400F583E4F0EF25E02581
:10167000E02400F582E43400F583E4F00FEFB413C6
:1016800090229000A9E0FE64047050FF90004FE0AB
:10169000B5071225E025E02402F582E43400F58345
:1016A00074FFF08010EF25E025E02402F582E43499
:1016B00000F583E4F0EF25E025E02401F582E43431
:1016C00000F583E4F0EF25E025E02400F582E43422
:1016D00000F583E4F00FEFB413B222EE64057071ED
:1016E000FF90004FE0B5073425E025E02401F582A6
:1016F000E43400F58374C0F0EF25E025E02400F524
:1017000082E43400F58374FFF0EF25E025E0240245
:10171000F582E43400F58374CBF08030EF25E025CA
:10172000E02401F582E43400F583E4F0EF25E025C0
:10173000E02400F582E43400F583E4F0EF25E025B1
:10174000E02402F582E43400F583E4F00FEFB413F3
:101750009022900055E004F07006900054E004F0F0
:10176000C3900055E094DC900054E094054004E4FC
:10177000F0A3F0900054E0FCA3E0FDC394FAEC94D5
:10178000005039E4FFEF25E025E02400F582E43441
:1017900000F583E004F0EF25E025E02401F582E484
:1017A0003400F583E4F0EF25E025E02402F582E43F
:1017B0003400F583E4F00FEFB413CA22C3ED94F4C0
:1017C000EC94015048C3900055E094FA900054E026
:1017D00094004039E4FFEF25E025E02400F582E4A1
:1017E0003400F583E014F0EF25E025E02401F582D4
:1017F000E43400F583E4F0EF25E025E02402F582EF
:10180000E43400F583E4F00FEFB413CA22900054DF
:10181000E0FCA3E0FDC394EEEC94025042C3ED94CF
:10182000F4EC94014039E4FFEF25E025E02400F5D5
:1018300082E43400F583E4F0EF25E025E02401F5AF
:1018400082E43400F583E004F0EF25E025E0240293
:10185000F582E43400F583E4F00FEFB413CA22906C
:101860000054E0FCA3E0FDC394E8EC94035042C3B1
:10187000ED94EEEC94024039E4FFEF25E025E024FE
:1018800000F582E43400F583E4F0EF25E025E02460
:1018900001F582E43400F583E014F0EF25E025E063
:1018A0002402F582E43400F583E4F00FEFB413CAA8
:1018B00022900054E0FCA3E0FDC394E2EC940450B9
:1018C00042C3ED94E8EC94034039E4FFEF25E025B2
:1018D000E02400F582E43400F583E4F0EF25E02510
:1018E000E02401F582E43400F583E4F0EF25E025FF
:1018F000E02402F582E43400F583E004F00FEFB455
:1019000013CA22900054E0FCA3E0FDC394DCEC94E5
:10191000055041C3ED94E2EC94044038E4FFEF2518
:10192000E025E02400F582E43400F583E4F0EF25BF
:10193000E025E02401F582E43400F583E4F0EF25AE
:10194000E025E02402F582E43400F583E014F00F92
:10195000EFB413CA22122FB6EFD3947A4072EF2459
:1019600086FCC3940350057D320219F5ECC3940341
:101970004009EC940A50047D64807AECC3940A40D8
:1019800009EC940D50047D7D806BECC3940D4009EF
:10199000EC941150047D96805CECC394114009ECEA
:1019A000941450047DAF804DECC394144009EC9422
:1019B0001750047DC8803EECC394174009EC941A7C
:1019C00050047DE1802FECC3941A40297DFA8025D4
:1019D000C3747A9FFCC3940350047D328017ECC318
:1019E00094034009EC940A50047D198008ECC394D8
:1019F0000A4002E4FD9000A6E004F0E0B40702E42F
:101A0000F09000A6E0FF7017FEEE25E025E0240030
:101A1000F582E43400F583EDF00EEEB413EB22EF23
:101A2000B40118E4FEEE25E025E02401F582E4345B
:101A300000F583EDF00EEEB413EB229000A6E0FF6C
:101A4000B40218E4FEEE25E025E02402F582E43439
:101A500000F583EDF00EEEB413EB22EF6403702774
:101A6000FEEE25E025E02401F582E43400F583ED67
:101A7000F0EE25E025E02402F582E43400F583ED64
:101A8000F00EEEB413DB229000A6E0FF6404702792
:101A9000FEEE25E025E02402F582E43400F583ED36
:101AA000F0EE25E025E02400F582E43400F583ED36
:101AB000F00EEEB413DB22EF64057027FEEE25E096
:101AC00025E02400F582E43400F583EDF0EE25E016
:101AD00025E02401F582E43400F583EDF00EEEB448
:101AE00013DB229000A6E064067036FEEE25E025AA
:101AF000E02400F582E43400F583EDF0EE25E025E6
:101B0000E02401F582E43400F583EDF0EE25E025D4
:101B1000E02402F582E43400F583EDF00EEEB41318
:101B2000CB229000A5E004F0E0B40702E4F0E4FF6B
:101B3000EF25E025E02400F582E43400F583E4F0AD
:101B4000EF25E025E02401F582E43400F583E4F09C
:101B5000EF25E025E02402F582E43400F583E4F08B
:101B60000FEFB413CB9000A5E0FE703AFFEF25E035
:101B700025E02401F582E43400F58374FFF0EF25BD
:101B8000E025E02400F582E43400F58374FFF0EFF3
:101B900025E025E02402F582E43400F58374FFF0AB
:101BA0000FEFB413C822EEB40119E4FFEF25E025CE
:101BB000E02400F582E43400F58374FFF00FEFB405
:101BC00013EA229000A5E0FEB40219E4FFEF25E03D
:101BD00025E02401F582E43400F58374FFF00FEF73
:101BE000B413EA22EE64037029FFEF25E025E02418
:101BF00001F582E43400F58374C9F0EF25E025E0B7
:101C00002402F582E43400F5837457F00FEFB41327
:101C1000D9229000A5E0FE6404703AFFEF25E0258C
:101C2000E02402F582E43400F58374E6F0EF25E069
:101C300025E02401F582E43400F58374E0F0EF251B
:101C4000E025E02400F582E43400F58374B0F00F61
:101C5000EFB413C822EEB40519E4FFEF25E025E048
:101C60002401F582E43400F58374FFF00FEFB41320
:101C7000EA229000A5E064067039FFEF25E025E038
:101C80002401F582E43400F58374C0F0EF25E025EB
:101C9000E02400F582E43400F58374FFF0EF25E0E2
:101CA00025E02402F582E43400F58374CBF00FEFD5
:101CB000B413C822E4FFEF25E025E02400F582E418
:101CC0003400F583E4F0EF25E025E02401F582E41B
:101CD0003400F583E4F0EF25E025E02402F582E40A
:101CE0003400F583E4F00FEFB413CB90019E740140
:101CF000F0A3F09000527405F0E49000A4F090007E
:101D00000174FFF0900000F0900002F0900004F0E9
:101D1000900009F090000D74C9F0A37457F0900082
:101D20001274E6F090001174E0F090001074B0F0BE
:101D300090001574FFF090001974C0F090001874B2
:101D4000FFF090001A74CBF090001D74FFF090002B
:101D50001CF090001EF0900020F0900025F0900004
:101D60002974C9F0A37457F090002E74E6F0900027
:101D70002D74E0F090002C74B0F090003174FFF0FE
:101D800090003574C0F090003474FFF09000367409
:101D9000CBF090003974FFF0900038F090003AF0EA
:101DA00090003CF0900041F090004574C9F0A3749D
:101DB00057F090004A74E6F090004974E0F090000B
:101DC0004874B0F02290017AE07004A3E0640170DE
:101DD00009200103021EC7B2812290017AE070043B
:101DE000A3E064027026B2013001129000A704F053
:101DF000E0FF122F2CD200E49001A4F022C281C295
:101E000000123087E49000A7F0021E9390017AE060
:101E10007004A3E064047017200103021EC7900041
:101E2000A7E004F0E0B40B02E4F09000A780649017
:101E3000017AE07004A3E064087011200003021E20
:101E4000C79001A4E070777405F0807290017AE089
:101E50007004A3E06410700A7E017F8D122D4ED2B3
:101E6000832290017AE07004A3E06420700A7E016E
:101E70007F88122D4ED2822290017AE07004A3E076
:101E8000644070149000A7E004F0E0B40B02E4F0AA
:101E90009000A7E0FF022F2C90017AE07004A3E0ED
:101EA00064807003B2812290017AE0B40119A3E04A
:101EB000B40014D2009001A4E070037405F0900106
:101EC000A4E014F01230872212265BEFF4FFEEF448
:101ED0005401FE900180E0FDA3E090017DCDF0A3D0
:101EE000EDF0900180EEF0A3EFF090017DE0FEA315
:101EF000E0FF900180E06EFEA3E06FFF90017DE0C7
:101F00005EFEA3E05FFF90017AE06EF0A3E06FF069
:101F100090017DE0FEA3E0FF900180E06EFEA3E073
:101F20006FFF900180E06EFEA3E06FFF900178E00C
:101F30006EFEA3E06F4E6038900176E475F00112FA
:101F4000137AFED3E5F09464EE9400401290018081
:101F5000E0FEA3E0FF900178E04EF0A3E04FF0D365
:101F6000900177E09414900176E09400402D801960
:101F7000E4900176F0A3F0900180E0FEA3E0FF90F2
:101F80000178E05EF0A3E05FF0900180E0FEA3E066
:101F9000FF90017AE05EF0A3E05FF022900170EE26
:101FA000F0A3EFF0F5828E83E0644170239001701E
:101FB000E0FEA3E0FFF5828E83A3E024D075F00A53
:101FC000A4FD8F828E83A3A3E024D02DFF022F2CAB
:101FD000900170E0FEA3E0FFF5828E83E0B4420B37
:101FE000A3E024D09001A4F0023087900170E0FEBD
:101FF000A3E0FFF5828E83E0B44309AA06A9077B1C
:10200000010221F6900170E0FEA3E0F5828E83E0EC
:10201000B44408A3E024D0FF022F0A900170E0FE30
:10202000A3E0FFF5828E83E0B44517A3E024D075CA
:10203000F00AA4FD8F828E83A3A3E024D02DFF029B
:102040002EE4900170E0FEA3E0FFF5828E83E0B401
:102050004617A3E024D075F00AA4FD8F828E83A3D7
:10206000A3E024D02DFF12306422900159EFF0A399
:10207000ECF0A3EDF043BA80900159E0FFA3E0FA41
:10208000A3E0FBF5828A83E0FCA3E0FD8B828A83D8
:10209000A3A3E0FAA3E0FB122C4290015AE0FEA3B6
:1020A000E0FF2406F582E43EF583E025E025E054D8
:1020B00004FDEF2405F582E43EF583E054084DFF6E
:1020C00090015AE0FCA3E0FD2408F582E43CF5838E
:1020D000E025E054024FFFED2407F582E43CF58350
:1020E000E054014FFF900159E0FE25E024FBF5820A
:1020F000E43432F583E493FC740193F5828C83EF2E
:10210000F053BA7F7401A806088002C333D8FCF4E8
:1021100052F190015AE0FEA3E02404F582E43EF57A
:1021200083E05401FF900159E0FEEFA80608800209
:10213000C333D8FC42F122900051E004F0700690C5
:102140000050E004F0C3900051E094F4900050E09F
:1021500094014004E4F0A3F0900050E0FCA3E0FD03
:10216000C394FAEC9400503BE4FFEF25E025E02413
:1021700000F582E43400F583E004F0EF25E025E08B
:102180002401F582E43400F583E004F0EF25E02536
:10219000E02402F582E43400F583E004F00FEFB4AC
:1021A00013C822C3ED94F4EC94015049C39000513C
:1021B000E094FA900050E09400403AE4FFEF25E00C
:1021C00025E02400F582E43400F583E014F0EF25E7
:1021D000E025E02401F582E43400F583E014F0EF1B
:1021E00025E025E02402F582E43400F583E014F0D4
:1021F0000FEFB413C8229000527401F090019EF0CA
:10220000E4A3F0FF90000212131924D075F00AA481
:10221000FE90000112131924D075F064A42EFE90D4
:10222000000312131924D02EFEEF25E025E0240030
:10223000F582E43400F583EEF090000512131924C2
:10224000D075F00AA4FE90000412131924D075F082
:1022500064A42EFE90000612131924D02EFEEF2542
:10226000E025E02401F582E43400F583EEF09000EF
:102270000812131924D075F00AA4FE900007121357
:102280001924D075F064A42EFE90000912131924AD
:10229000D02EFEEF25E025E02402F582E43400F59F
:1022A00083EEF00FEF64136003022204022E90C24B
:1022B000AF1230E9122E64D2AF53C17F43C11090E8
:1022C00001A3E030E212122E37123051122F4A9041
:1022D00001A3E054FBF080E19001A3E030E30C1295
:1022E00030979001A3E054F7F080CE9001A3E03046
:1022F000E11F7E017F0A12292E50079001A3E044BE
:1023000008F012000E1230FE9001A3E054FDF080A0
:10231000A89001A3E030E015C200123087E4FF125C
:102320002F2C9001A3E054FEF0D2A8808C9001A342
:10233000E030E485E49001A4F01230879001A3E03E
:1023400054EFF00222B9787FE4F6D8FD75812002BF
:10235000238D0222AFE493A3F8E493A34003F68015
:1023600001F208DFF48029E493A3F85407240CC891
:10237000C333C4540F4420C8834004F4568001463C
:10238000F6DFE4800B01020408102040809023D285
:10239000E47E019360BCA3FF543F30E509541FFE67
:1023A000E493A360010ECF54C025E060A840B8E4D8
:1023B00093A3FAE493A3F8E493A3C8C582C8CAC55B
:1023C00083CAF0A3C8C582C8CAC583CADFE9DEE7ED
:1023D00080BEC1024101970441019DC8450198009A
:1023E0000F1E3C5A4201A2000042017D0000420142
:1023F00080000042017A0000420178000042018220
:102400000000420176000041018C1441017F0A4125
:10241000017C0A4100A7004100520041004D0941E2
:10242000004E09C18341004C00410053004100A906
:102430000041004F004100A8004100A400420054A8
:102440000000420056000042005000004100A5007C
:102450004100A600C100C101C1040090019E7401A9
:10246000F0A3F09000527404F0E49000A8F0FFEFA5
:1024700025E025E02401F582E43400F583E4F0EF63
:1024800025E025E02400F582E43400F583E4F0EF54
:1024900025E025E02402F582E43400F583E4F00F22
:1024A000EFB413CB90000074FFF0900005F09000A3
:1024B0000974C9F0A37457F090000E74E6F0900010
:1024C0000D74E0F090000C74B0F090001274FFF006
:1024D00090001574C0F090001474FFF09000167412
:1024E000CBF0229001737480F0900001121319FE5A
:1024F000E4FD900173E05EFCC41313135401FFB4B8
:102500000105122FFD8003122FCFEE25E0FE0DED09
:10251000B408DF121300FEE4FD900173E05EC41303
:1025200013135401FFB40105122FFD8003122FCFA6
:10253000EE25E0FE0DEDB408E0900002121319FE46
:10254000E4FD900173E05EC41313135401FFB40162
:1025500005122FFD8003122FCFEE25E0FE0DEDB406
:1025600008E022900173EFF0A3ECF0A3EDF04C60D3
:1025700008EDB50320ECB5021C900173E0FF740177
:10258000A807088002C333D8FCF452F5EC4D24FFB1
:102590009205022F66900174E0FEA3E0FFC006C022
:1025A00007E4F9F87FC07E5DFDFC122C87AD07AC17
:1025B00006D007D006121368900174EEF0A3EFF076
:1025C000900173E0FF7401A807088002C333D8FCB0
:1025D00042F5900174E0FAA3E0FBE4FDFC122C420A
:1025E00022C0E0C083C082C0D075D000C007309840
:1025F0002DC29890010FE0702590010DE0C394204A
:102600004002E4F090010DE0FF04F074AA2FF5827F
:10261000E43400F583E599F090010E7402F03099EE
:102620002FC29990010BE0FF90010AE06F601CE05F
:1026300024CAF582E43400F583E0F59990010AE0BC
:1026400004F0C394404009E4F0800590010CE4F0EC
:10265000D007D0D0D082D083D0E032E4FE25E0FF96
:10266000EE33FEA2B5E433FDEF4D25E0FFEE33FE81
:10267000A2B4E433FDEF4D25E0FFEE33FEA2B3E458
:1026800033FDEF4D25E0FFEE33FEA2A5E433FDEF71
:102690004D25E0FFEE33FEA2A6E433FDEF4D25E02D
:1026A000FFEE33FEA2A7E433FDEF4D25E0FFEE334E
:1026B000FEA280E433FDEF4D25E0FFEE33FEA29253
:1026C000E433FDEF4D25E0FFEE33FEA291E433FD50
:1026D000EF4DFF22900150EEF0A3EFF0F5828E83D4
:1026E000E0FF7011900150E0FCA3E0F5828C83A321
:1026F000E07002C322900150E0FCA3E0F5828C83DD
:10270000A3E014F07041EF7027900150E0FEA3E0C9
:10271000FFF5828E83A3A3E0FCA3E04C60108F82C0
:102720008E83A3A3E0FEA3E0AA06F91213DED32250
:10273000900150E0FEA3E0FFF5828E83E014F08F5D
:10274000828E83A37432F0C322900178E07004A3D8
:10275000E064807017900182E07002A3E0700D7E4B
:10276000017F917B06FD122D51D28122900178E0EC
:102770007004A3E06410701790017FE07033740A56
:10278000F07E017F8D7B06E4FD122D51D2832290D5
:102790000178E07004A3E06420701690017CE07082
:1027A00010740AF07E017F887B06E4FD122D51D261
:1027B000822290019E7401F0A3F09000527403F005
:1027C000E49000A9F090004FF0FF90004FE0B507B3
:1027D0001225E025E02400F582E43400F58374FF3F
:1027E000F08010EF25E025E02400F582E43400F5C8
:1027F00083E4F0EF25E025E02401F582E43400F5E0
:1028000083E4F0EF25E025E02402F582E43400F5CE
:1028100083E4F00FEFB413B222C0E0C083C082C0E3
:10282000D075D0089001A3E04402F0900197E01425
:10283000F0700D9001A3E04404F09001977404F04F
:1028400030022D90019DE014F07025900196E01467
:10285000F0B4FF16743BF0900195E0FF14F0EF70B8
:1028600009C2029001A3E04401F090019D74C8F0F8
:10287000D0D0D082D083D0E032900170EBF0A3EAC8
:10288000F0A3E9F090010DE0601CE0FF7E009001F4
:1028900070E0FBA3E0FAA3E0F8AC02AD037B017AA1
:1028A0000079AA1212DA900170E0FBA3E0FAA3E02B
:1028B000F990010DE0F582758300E41213467E0065
:1028C0007F207D007B017A0079AA1213E4E4900155
:1028D0000DF090010FF02290019E7401F0A3F09092
:1028E000005204F0E490004CF0900053F0FFEF250C
:1028F000E025E02401F582E43400F583E4F0EF25DF
:10290000E025E02400F582E43400F583E4F0EF25CF
:10291000E025E02402F582E43400F583E4F00FEFD3
:10292000B413CB90000074FFF0900048F0228F8227
:102930008E83A3A3A3E07002C322EF2404F582E4F4
:102940003EF583E0601AEF2404F582E43EF583E06F
:1029500014F0700CEF2405F582E43EF5837401F069
:10296000EF2404F582E43EF583E0700CEF2405F5D6
:1029700082E43EF5837401F0EF2405F582E43EF530
:1029800083E024FF2290019FE06045900052E075B3
:10299000F003A42440F582E43432F583E493FB741D
:1029A0000193FA740293F990004EE075F002A4F5D9
:1029B0008285F083121390FFE5F0C313FEEF13FF3F
:1029C000C39001A1E09F9001A0E09E400A022D8EDD
:1029D000E49001A0F0A3F022E4FFEF25E025E0243D
:1029E00000F582E43400F5837401F0EF25E025E082
:1029F0002401F582E43400F5837401F0EF25E0252D
:102A0000E02402F582E43400F5837401F00FEFB4A2
:102A100013C890019E7401F0A3F09000527407F067
:102A2000E4900056F0A3F0227E007F407D007B0101
:102A30007A0079CA1213E47E007F207D007B017A40
:102A40000079AA1213E47E017F0A122E09E5985438
:102A50003F4440F598438E01D2AC439810E5A25410
:102A60003F4440F5A253B17F53B27F53B1BF53B23D
:102A7000BF5397EF022F81E4FFEF25E025E024000C
:102A8000F582E43400F5837401F0EF25E025E024BD
:102A900001F582E43400F583E4F0EF25E025E0243D
:102AA00002F582E43400F583E4F00FEFB413CA902A
:102AB000019E7401F0A3F09000527406F0E49000BF
:102AC00054F0A3F022E4FFEF25E025E02400F58296
:102AD000E43400F5837401F0EF25E025E02401F5EE
:102AE00082E43400F5837401F0EF25E025E0240250
:102AF000F582E43400F5837401F00FEFB413C8904D
:102B0000019E7401F0A3F0E4900050F0A3F0A374D0
:102B100008F022E4FFEF25E025E02400F582E4340C
:102B200000F58374FFF0EF25E025E02401F582E451
:102B30003400F58374FFF0EF25E025E02402F582F0
:102B4000E43400F58374FFF00FEFB413C890019ED6
:102B50007401F0A3F09000527409F0E49000A5F025
:102B600022E4FFEF25E025E02400F582E43400F5BF
:102B70008374FFF0EF25E025E02401F582E43400C2
:102B8000F58374FFF0EF25E025E02402F582E434BC
:102B900000F58374FFF00FEFB413C890019E740129
:102BA000F0A3F0900052740AF0E49000A6F022E442
:102BB000900155F0900154F0900156F0900150F0C2
:102BC000A304F0E4A3F0A3F0900157F0A3F07C017C
:102BD0007D507F0512206A7DC07C5DE4FF123013BA
:102BE0005395F743960853917F4392805395FD4345
:102BF000960243F58053F5BF2290019E7401F0E4E4
:102C0000A3F090005204F0E4FFEF25E025E024005B
:102C1000F582E43400F5837480F0EF25E025E024AC
:102C200001F582E43400F5837480F0EF25E025E0BF
:102C30002402F582E43400F5837480F00FEFB413BE
:102C4000C822A90743BA80AE04AF05E925E024E312
:102C5000F582E43432F583E493FC740193F5828CBD
:102C600083EEF0A3EFF0AF03E925E024EFF582E473
:102C70003432F583E493FC740193F5828C83EAF09B
:102C8000A3EFF053BA7F22C2D5E830E70FB2D5E404
:102C9000C39BFBE49AFAE499F9E498F8EC30E7175F
:102CA000B2D5122CBD12144CE4C39BFBE49AFAE497
:102CB00099F9E498F8800312144C30D50DE4C39FC1
:102CC000FFE49EFEE49DFDE49CFC22E490019EF066
:102CD000A3F0900052F0FFEF25E025E02400F582FC
:102CE000E43400F583E4F0EF25E025E02401F582EB
:102CF000E43400F583E4F0EF25E025E02402F582DA
:102D0000E43400F583E4F00FEFB413CB22900172AA
:102D1000EFF0BF04047D5F801F900172E0B40304F4
:102D20007D5A8014900172E0B402047D50800990B5
:102D30000172E0B4010A7D467F051230D0D2A12293
:102D4000900172E0700753F5DFC297C2A1227B06A3
:102D5000FD900150EEF0A3EFF0EB701AED14FF9030
:102D60000150E0FCA3E0FDF5828C83EFF08D828CB6
:102D700083A37432F022AF05900150E0FCA3E0FD84
:102D8000F5828C83EFF08D828C83A3EBF022900090
:102D900052E025E0248DF582E43432F5837401930A
:102DA0007002E493601B900052E025E0248DF582D0
:102DB000E43432F583E493FE740193AA06F9121306
:102DC000DE122E90E49001A0F0A3F0224391025372
:102DD00092FD4391045392FB4393015394FE439518
:102DE000C053963F43B10853B2F743B11053B2EF0B
:102DF00043B12053B2DF5393F143940E43910153F7
:102E000092FEC281C282C283228F828E83E4F0A3AB
:102E1000F08F828E83A3A3F08F828E83A3A3A3F06F
:102E2000EF2404F582E43EF583E4F0EF2405F58217
:102E3000E43EF583E4F022121EC890017AE07002AD
:102E4000A3E06003121DC5900178E07002A3E0606A
:102E500003122749900178E0FFA3E0900182CFF0B0
:102E6000A3EFF0227E017F8D7C007D0612303D7E37
:102E7000017F887C307DF512303D7E017F847C307F
:102E80007DF812303D7E017F917C307DFB02303D2C
:102E9000E4900172F0900172E0FFC39413501AEFB6
:102EA00075F004A42400F9740035F0FA7B011224B3
:102EB000E3900172E004F080DC22900052E025E013
:102EC0002461F582E43432F583E493FE740193FFC8
:102ED0004E6007AA06A9071213DEE49001A0F0A332
:102EE000F0022E90EF6022D394104003D38001C3F0
:102EF0004017E4FEEE25E025E02403F582E43400EB
:102F0000F583EFF00EEEB413EB2274982FF582E404
:102F10003401F583E0FF7003C20222D20290019DCA
:102F200074C8F0900195EFF0E4A3F022EFD3940A77
:102F30004003D38001C34011900052E06F600AEF5C
:102F4000F0E09000A7F0122EBA227E017F8D1226AB
:102F5000D47E017F881226D47E017F841226D47EFF
:102F6000017F910226D4EFB40105A20592A122EFC0
:102F7000B40305A20592A322EFB40504A20592971B
:102F800022200417538EEF538EF7438E0475D7CC4F
:102F900075D6FF53AFFB438E10D204221230291294
:102FA0002DCC1230DA122BAF1230B6C2A31230E29F
:102FB0001230A7022A2843BC0800000000E5BC30FC
:102FC000E4FB53BCEFE5BD25E025E045BEFF22D282
:102FD000A3000000000000C2A300000000000000E9
:102FE000000000000022C0E0C083C08220B2079031
:102FF00001A3E04410F0D082D083D0E032D2A3000D
:103000000000000000000000000000C2A30000005B
:1030100000002243BA8090FFF2EFF0AF0590FFF07E
:10302000ECF0A3EFF053BA7F22538E7F5389FB530A
:1030300089FC758CD8758AF0D2A9D28C228F828EA9
:1030400083E4F0A3F08F828E83A3A3ECF0A3EDF0D2
:103050002290017FE06003E014F090017CE06003C7
:10306000E014F022EFD394104003D38001C3400555
:1030700090004EEFF022E490019EF0A3F0A3F0A3A5
:10308000F0122CCB022E903000079001A4E0FF80BC
:1030900002E4FF122D0D227B017A0179501228796A
:1030A0007E017F50021F9C439D015397DFE4F5BDD5
:1030B000F5BE75BCE022E4FD7F051230D0E4FD7F53
:1030C000010230D090019F7401F0E4A3F0A3F0223C
:1030D000ED7C007B647A00022563C200E49001A4C9
:1030E000F022D2B2D288D2A822122F9C0230EF1244
:1030F00030C4023076C28222C28122C281220229D9
:1031000085022E90022E90022E90022E90022E907A
:10311000022E90022E90022E90022E90022E9022CD
:1031200000A00096008C00820078006E0064005AB7
:1031300000500046003C00320028001E0014000A27
:1031400000A00096008C00820078006E0064005A97
:1031500000500046003C00320028001E0014000A07
:103160000140012C0118010400F000DC00C800B48B
:1031700000A0008C007800640050003C002800147F
:103180000140012C0118010400F000DC00C800B46B
:1031900000A0008C007800640050003C002800145F
:1031A0000020001E001C001A001800160014001257
:1031B0000010000E000C000A0008000600040002C7
:1031C0000020001E001C001A001800160014001237
:1031D0000010000E000C000A0008000600040002A7
:1031E0000020001E001C001A001800160014001217
:1031F0000010000E000C000A000800060004000287
:103200000140012C0118010400F000DC00C800B4EA
:1032100000A0008C007800640050003C00280014DE
:10322000001E001E001E001E001E001E001E001EAE
:10323000001E001E001E001E001E001E001E001E9E
:10324000000000000000FF3120FF3140FF3160FF2F
:103250003180FF31A0FF31C0FF31E0FF3200FF328B
:10326000202CCB2BF928D727B2245B1CB42A772932
:10327000D82AC52B132B61000931013104310731E4
:103280000A310D3110311331163119311C000A3158
:103290001F0F2F14DE0B1100261752062C21371B8F
:1032A000221955000000000000000000000000008E
:1032B000000000000000000000000000000000000E
:1032C00000000000000000000000000000000000FE
:1032D00000000000000000000000000000000000EE
:1032E000000000FF00FF10FF20FF30FF40FF50FFF5
:1032F00002FF12FF22FF32FF42FF52FF04FF14FFC2
:0733000024FF34FF44FF54D9
:00000001FF
