:0A0000000221609000AFEFF0D32260
:10000B000221EC9000EB74C8F09000E5F09000E753
:10001B007405F0A37401F022021963E709F608DFF7
:10002B00FA8046E709F208DFFA803E88828C83E784
:10003B0009F0A3DFFA8032E309F608DFFA8078E3F0
:10004B0009F208DFFA807088828C83E309F0A3DF62
:10005B00FA806489828A83E0A3F608DFFA805889E4
:10006B00828A83E0A3F208DFFA804C80D280FA8088
:10007B00C680D4806980F28033801080A680EA80AD
:10008B009A80A880DA80E280CA803389828A83ECE6
:10009B00FAE493A3C8C582C8CCC583CCF0A3C8C56A
:1000AB0082C8CCC583CCDFE9DEE7800D89828A83E9
:1000BB00E493A3F608DFF9ECFAA9F0EDFB228982B1
:1000CB008A83ECFAE0A3C8C582C8CCC583CCF0A365
:1000DB00C8C582C8CCC583CCDFEADEE880DB898269
:1000EB008A83E493A3F208DFF980CC88F0EF6001F8
:1000FB000E4E60C388F0ED2402B4040050B9F582B3
:10010B00EB2402B4040050AF2323458223900076E6
:10011B0073BB010689828A83E0225002E722BBFE71
:10012B0002E32289828A83E49322BB010CE58229B4
:10013B00F582E5833AF583E0225006E92582F8E65D
:10014B0022BBFE06E92582F8E222E58229F582E54B
:10015B00833AF583E49322F8BB010DE58229F582FE
:10016B00E5833AF583E8F0225006E92582C8F622AA
:10017B00BBFE05E92582C8F222CFF4CFCEF4CECD5B
:10018B00F4CDCCF4CC22E8600FECC313FCED13FDE3
:10019B00EE13FEEF13FFD8F122E8600FEFC333FF2E
:1001AB00EE33FEED33FDEC33FCD8F122ECF0A3ED96
:1001BB00F0A3EEF0A3EFF022A8828583F0D083D0DA
:1001CB00821201DA1201DA1201DA1201DAE473E4B3
:1001DB0093A3C583C5F0C583C8C582C8F0A3C583E7
:1001EB00C5F0C583C8C582C822E3F5F009E208B59E
:1001FB00F06D606B80F3E3F5F009E608B5F0606035
:10020B005E80F387F009E608B5F054605280F487FE
:10021B00F009E208B5F048604680F488828C838749
:10022B00F009E0A3B5F038603680F488828C8387C0
:10023B00F009E493A3B5F027602580F388828C83C3
:10024B00E3F5F009E0A3B5F016601480F388828C17
:10025B0083E3F5F009E493A3B5F004600280F202A6
:10026B00031F808580E7808E80D2803C8015806C58
:10027B00807E809B80B5808B80A1804F8070803A80
:10028B0002032B89828A83ECFAE493F5F0A3C8C5A9
:10029B0082C8CCC583CCE493A3C8C582C8CCC58324
:1002AB00CCB5F070606E80E189828A83E493F5F0BF
:1002BB00A3E208B5F05E605C80F289828A83E0F588
:1002CB00F0A3E608B5F04D604B80F389828A83E09A
:1002DB00F5F0A3E208B5F03C603A80F389828A839B
:1002EB00E493F5F0A3E608B5F02A602880F280537A
:1002FB0089828A83ECFAE493F5F0A3C8C582C8CC53
:10030B00C583CCE0A3C8C582C8CCC583CCB5F004EB
:10031B00600280E27FFFB5F0020F2240027F0122D4
:10032B0089828A83ECFAE0F5F0A3C8C582C8CCC5F4
:10033B0083CCE0A3C8C582C8CCC583CCB5F0D5604F
:10034B00D380E389828A83ECFAE0F5F0A3C8C582F7
:10035B00C8CCC583CCE493A3C8C582C8CCC583CC19
:10036B00B5F0B160AF80E288F0ED2402B404005028
:10037B00A3F582EB2402B404005099232345822376
:10038B0090026D73EF4E6012EF60010EEDBB010B2F
:10039B0089828A83F0A3DFFCDEFA2289F05007F70B
:1003AB0009DFFCA9F022BBFEFCF309DFFCA9F0225C
:1003BB00900097EBF0A3EAF0A3E9F07E007F147DA9
:1003CB00007B017A00799A12038F900097E0FBA3D0
:1003DB00E0FAA3E0F912011C0490009AF0121578D0
:1003EB0050030205DAE490009BF0900097E0FBA32A
:1003FB00E0FAA3E0F912011C70051222E48056907A
:10040B000097E0FBA3E0FAA3E0F912011CB402058C
:10041B001223578040900097E0FBA3E0FAA3E0F98A
:10042B0012011CB404051223CA802A900097E0FB2A
:10043B00A3E0FAA3E0F912011CB4060512243D80D7
:10044B0014900097E0FBA3E0FAA3E0F912011CB4AF
:10045B0016091222709000B51201B7E490009CF0BF
:10046B009000AE7403F09000B5E0FCA3E0FDA3E0B8
:10047B00FEA3E0FF9000AEE0FBC374059B75F00894
:10048B00A4F9F8120191120184749A2BF582E434C9
:10049B0000F583EFF09000AEE004F0E0B406C7E4A3
:1004AB009000AEF09000AEE0FF2401FDE433FC9031
:1004BB000097E0FBA3E0FAA3E0F98D828C83120195
:1004CB0035F4FE74AF2FF582E43400F583EEF09033
:1004DB0000AEE004F0E0B406CB9000AE7406F090F2
:1004EB0000AEE0FF24A9F582E43400F583E0F4FECE
:1004FB00749A2FF582E43400F583EEF09000AEE0B1
:10050B0004F0E0B40CD97B017A00799A9000BF74A7
:10051B000FF07D0C12281B9000BF740FF0A3740119
:10052B00F0A37400F0A374AFF0A37402F0A37405EE
:10053B00F0A37401F0A37400F0A3749AF0A3740CED
:10054B00F0A3740FF07B017A00799A7D0C1220C610
:10055B009000D2740FF0A37401F0A37400F0A37495
:10056B009AF0A3740CF0A3740FF07B017A00799AC4
:10057B007D0C1225F27B017A00799A9000DE7407CC
:10058B00F0E4FD12251D9000AAEFF07B017A0079B3
:10059B009A9000DE740FF07D0812251D9000ABEFD2
:1005AB00F07B017A00799A9000DF7411F0E4FD1270
:1005BB0028C5EE9000ACF07B017A00799A9000DFB1
:1005CB007411F0E4FD1228C59000ADEFF08032906D
:1005DB00009B7401F09000AE04F09000AEE0FFC3FE
:1005EB0094115014749A2FF582E43400F583E4F0DF
:1005FB009000AEE004F080E2E49000ADF09000AC2F
:10060B00F07B017A00799A022917E0FBA3E0FAA3A9
:10061B00E0F99000BBEBF0A3EAF0A3E9F01223574B
:10062B009000D01201B79000D0E0FCA3E0FDA3E056
:10063B00FEA3E0FF78181201919000BEEFF090003E
:10064B00D0E0FCA3E0FDA3E0FEA3E0FF78101201D5
:10065B00919000BFEFF09000D0E0FCA3E0FDA3E091
:10066B00FEA3E0FF78081201919000C0EFF090001C
:10067B00D0A3A3A3E09000C1F07B017A0079C290D4
:10068B0000D87403F0E4FD1228709000D87403F0C6
:10069B00A37401F0A37400F0A374C6F0E4A3F0A359
:1006AB007403F07B017A0079C2E4FD122588E4FF24
:1006BB00EF240AFDE433FC9000BBE0FBA3E0FAA3BC
:1006CB00E0F98D828C83120135F4FE74CA2FF5820A
:1006DB00E43400F583EEF00FEFB406D49000D87439
:1006EB0003F09000BBE0F9A3E0FAA3E09000D9C9B6
:1006FB00F0A3EAF0A3E9F0A37401F0A37403F07B79
:10070B00017A0079BE7D01122029400302083C903A
:10071B0000D87403F09000BBE0F9A3E0FAA3E090DB
:10072B0000D9C9F0A3EAF0A3E9F0E4A3F0A37403A2
:10073B00F09000BBE0F9A3A3E09000DEC9F0A3EAC0
:10074B00F0A3E9F0A37404F0A37407F07B017A0023
:10075B0079C6E4FD121BA7400302083C9000D87435
:10076B0003F09000BBE0FBA3E0FAA3E0F9900008D4
:10077B00120135F49000D9F0900009120135F49074
:10078B0000DAF07B017A0079C2E4FD1229EC400318
:10079B0002083C9000D87407F09000BBE0FBA3E08C
:1007AB00FAA3E0F99000101201359000D9F09000F7
:1007BB00BBA3A3E4FD122A6F50779000D8740FF0FF
:1007CB009000BBE0FBA3E0FAA3E0F990001112014B
:1007DB00359000D9F09000BBA3A3E07D08122A6FDF
:1007EB00504F9000D87411F09000BBE0FBA3E0FADF
:1007FB00A3E0F99000121201359000D9F09000138C
:10080B001201359000DAF09000BBA3A3E4FD12298E
:10081B00EC501E9000D0E0FCA3E0FDA3E0FEA3E0B3
:10082B002401FFE43EFEE43DFDE43CFC122771C3D2
:10083B0022D322900097EBF0A3EAF0A3E9F07E001D
:10084B007F147D007B017A00799A12038F90009AB6
:10085B007411F0900097E0FBA3E0FAA3E0F9120EFD
:10086B00695003020A1BE490009BF09000AEF090DD
:10087B0000AEE0FF2404FDE433FC900097E0FBA303
:10088B00E0FAA3E0F98D828C83120135F4FE74B388
:10089B002FF582E43400F583EEF09000AEE004F027
:1008AB00E0B406CB9000AE7402F09000AEE0FF24F3
:1008BB00B1F582E43400F583E0FE749A2FF582E4FF
:1008CB003400F583EEF09000AEE004F0E0B408DA0B
:1008DB009000D2740DF0A37401F0A37400F0A37414
:1008EB00AFF0E4A3F0A37403F0900097E0FBA3E058
:1008FB00FAA3E0F97D0A1225F29000BF7403F0A36E
:10090B007401F0A37400F0A3749AF0A37404F0A321
:10091B007407F0A37401F0A37400F0A3749AF0A30E
:10092B007408F0A3740BF07B017A0079AFE4FD122D
:10093B0020C69000D2740BF0A37401F0A37400F0E6
:10094B00A3749AF0A37408F0A3740BF07B017A00E4
:10095B00799A7D081225F29000BF7403F0A37401FD
:10096B00F0A37400F0A3749AF0E4A3F0A37403F063
:10097B00A37401F0A37400F0A3749AF0A3740CF0A9
:10098B00A3740FF07B017A0079AFE4FD1220C690BF
:10099B0000D2740FF0A37401F0A37400F0A3749A47
:1009AB00F0A3740CF0A3740FF07B017A00799A7D9D
:1009BB000C1225F27B017A00799A9000DE7407F015
:1009CB00E4FD12251D9000AAEFF07B017A00799AC5
:1009DB009000DE740FF07D0812251D9000ABEFF038
:1009EB007B017A00799A9000DF7411F0E4FD1228F4
:1009FB00C5EEF49000ACF07B017A00799A9000DFA1
:100A0B007411F0E4FD1228C5EFF49000ADF08032C4
:100A1B0090009B7401F09000AE04F09000AEE0FFEC
:100A2B00C394115014749A2FF582E43400F583E4C7
:100A3B00F09000AEE004F080E2E49000ADF09000A6
:100A4B00ACF07B017A00799A022917900097EBF0B2
:100A5B00A3EAF0A3E9F07E007F147D007B017A000E
:100A6B00799A12038F90009A740FF0900097E0FB25
:100A7B00A3E0FAA3E0F91213C35003020C2CE49089
:100A8B00009BF09000AEF09000AEE0FF2404FDE47C
:100A9B0033FC900097E0FBA3E0FAA3E0F98D828C86
:100AAB0083120135F4FE74AF2FF582E43400F58325
:100ABB00EEF09000AEE004F0E0B406CB9000AE7424
:100ACB0002F09000AEE0FF24ADF582E43400F58334
:100ADB00E0FE749A2FF582E43400F583EEF090007B
:100AEB00AEE004F0E0B408DA7B017A00799A90006A
:100AFB00BF740BF07D0812281B7B017A00799A904A
:100B0B0000D8740FF07D0C1228709000BF740BF09E
:100B1B00A37401F0A37400F0A3749AF0A37404F00F
:100B2B00A37407F0A37401F0A37400F0A3749AF0FC
:100B3B00A37408F0A3740BF07B017A00799A7D08FB
:100B4B001220C69000D2740BF0A37401F0A37400B2
:100B5B00F0A3749AF0A37408F0A3740BF07B017AE2
:100B6B0000799A7D081225F29000BF740FF0A374E0
:100B7B0001F0A37400F0A3749AF0E4A3F0A3740340
:100B8B00F0A37401F0A37400F0A3749AF0A3740C97
:100B9B00F0A3740FF07B017A00799A7D0C1220C6BA
:100BAB009000D2740FF0A37401F0A37400F0A3743F
:100BBB009AF0A3740CF0A3740FF07B017A00799A6E
:100BCB007D0C1225F27B017A00799A9000DE740776
:100BDB00F0E4FD12251D9000AAEFF07B017A00795D
:100BEB009A9000DE740FF07D0812251D9000ABEF7C
:100BFB00F07B017A00799A9000DF7411F0E4FD121A
:100C0B0028C5EEF49000ACF07B017A00799A900045
:100C1B00DF7411F0E4FD1228C5EFF49000ADF08005
:100C2B003290009B7401F09000AE04F09000AEE0A7
:100C3B00FFC394115014749A2FF582E43400F5839A
:100C4B00E4F09000AEE004F080E2E49000ADF090B0
:100C5B0000ACF07B017A00799A022917900097EB90
:100C6B00F0A3EAF0A3E9F07E007F147D007B017A0C
:100C7B0000799A12038F90009A7413F0900097E00A
:100C8B00FBA3E0FAA3E0F91218205003020E34E4A0
:100C9B0090009BF0A3F0A37440F0E4A3F0A37403C3
:100CAB00F0A37481F0A37436F07B017A00799A90EB
:100CBB0000BF740BF07D0812281B9000BF740BF063
:100CCB00A37401F0A37400F0A3749AF0A37404F05E
:100CDB00A37407F0A37401F0A37400F0A3749AF04B
:100CEB00A37408F0A3740BF07B017A00799A7D084A
:100CFB001220C69000D2740BF0A37401F0A3740001
:100D0B00F0A3749AF0A37408F0A3740BF07B017A30
:100D1B0000799A7D081225F27B017A00799A90006E
:100D2B00BF740FF07D0C12281B9000BF740FF0A343
:100D3B007401F0A37400F0A3749AF0E4A3F0A3740D
:100D4B0003F0A37401F0A37400F0A3749AF0A374DE
:100D5B000CF0A3740FF07B017A00799A7D0C1220B2
:100D6B00C69000D2740FF0A37401F0A37400F0A32B
:100D7B00749AF0A3740CF0A3740FF07B017A0079D2
:100D8B009A7D0C1225F27B017A00799A9000DE7421
:100D9B0007F0E4FD12251D9000AAEFF07B017A000D
:100DAB00799A9000DE740FF07D0812251D9000AB30
:100DBB00EFF07B017A00799A9000DF7411F0E4FD7B
:100DCB001228C5EEF49000ACF07B017A00799A9072
:100DDB0000DF7411F0E4FD1228C5EFF49000AD12A2
:100DEB002910122AC19000AE7404F0900097E0FB1A
:100DFB00A3E0FAA3E0F99000AEE0FFF58275830063
:100E0B00120135FE74AB2FF582E43400F583EEF05E
:100E1B009000AEE004F0E0B410D17B017A0079AF22
:100E2B001224B0122AC1022A5990009B7401F0902F
:100E3B0000AE04F09000AEE0FFC394115014749A0E
:100E4B002FF582E43400F583E4F09000AEE004F07B
:100E5B0080E2E49000ADF09000AC122910229000DB
:100E6B00B9EBF0A3EAF0A3E9F012243D9000CA120B
:100E7B0001B79000CAE0FCA3E0FDA3E0FEA3E0FFF6
:100E8B0078181201919000BCEFF09000CAE0FCA31F
:100E9B00E0FDA3E0FEA3E0FF78101201919000BDEE
:100EAB00EFF09000CAE0FCA3E0FDA3E0FEA3E0FF9F
:100EBB0078081201919000BEEFF09000CAA3A3A393
:100ECB00E09000BFF0E4FFEF2404FDE433FC90005E
:100EDB00B9E0FBA3E0FAA3E0F98D828C8312013514
:100EEB00F4FE74C42FF582E43400F583EEF00FEFBB
:100EFB00B406D49000D2740DF0A37401F0A3740067
:100F0B00F0A374C0F0E4A3F0A37403F09000B9E075
:100F1B00FBA3E0FAA3E0F97D0A1225F29000D87446
:100F2B0003F09000B9E0F9A3E0FAA3E09000D9C96F
:100F3B00F0A3EAF0A3E9F0A37401F0A37403F07B30
:100F4B00017A0079BC7D01122029400302104690E2
:100F5B0000D8740DF09000B9E0FBA3E0FAA3E0F920
:100F6B0090000E1201359000D9F090000F12013550
:100F7B009000DAF09000B9A3A3E4FD1229EC400332
:100F8B000210469000D87407F09000B9E0FBA3E084
:100F9B00FAA3E0F99000101201359000D9F09000FF
:100FAB00B9A3A3E4FD122A6F40030210469000D8A8
:100FBB00740FF09000B9E0FBA3E0FAA3E0F9900006
:100FCB00111201359000D9F09000B9A3A3E07D0870
:100FDB00122A6F50669000D87411F09000B9E0FBA4
:100FEB00A3E0FAA3E0F99000121201359000D9F0BA
:100FFB009000131201359000DAF09000B9A3A3E42E
:10100B00FD1229EC50357B017A0079C09000D27427
:10101B0003F0E4FD121E079000CAE0FCA3E0FDA361
:10102B00E0FEA3E02401FFE43EFEE43DFDE43CFCD6
:10103B009000D27401F0121C7BC322D32290009734
:10104B00EBF0A3EAF0A3E9F07E007F147D007B01B7
:10105B007A00799A12038F90009A740CF090009793
:10106B0012061550030211CBE490009BF09000AEDA
:10107B00F09000AEE0FF240AFDE433FC900097E013
:10108B00FBA3E0FAA3E0F98D828C83120135F4FE09
:10109B0074AF2FF582E43400F583EEF09000AEE0F0
:1010AB0004F0E0B406CB9000AE7402F09000AEE01A
:1010BB00FF24ADF582E43400F583E0FE749A2FF53E
:1010CB0082E43400F583EEF09000AEE004F0E0B47F
:1010DB0008DA7B017A00799A9000DE7407F0E4FD60
:1010EB0012251D9000A2EFF0900097E0FBA3E0FA11
:1010FB00A3E0F9900008120135F4FF90009BE0F497
:10110B006F9000A3F07B017A00799A9000DF74074F
:10111B00F0E4FD1228C5EEF49000A4F07B017A00F8
:10112B00799A9000DF7407F0E4FD1228C5EFF49074
:10113B0000A5F07B017A00799A9000DF740BF07DAB
:10114B00081228C5EEF49000A6F07B017A00799A7C
:10115B009000DF740BF07D081228C5EFF49000A708
:10116B00F09000D27407F0A37401F0A37400F0A305
:10117B0074B5F0E4A3F0A37405F07B017A00799ABF
:10118B007D021225F29000BF7405F0A37401F0A349
:10119B007400F0A3749AF0A37408F0A3740DF0A379
:1011AB007401F0A37400F0A3749AF0A3740EF0A36F
:1011BB007413F07B017A0079B5E4FD1220C68032FE
:1011CB0090009B7401F09000AE04F09000AEE0FF35
:1011DB00C394115014749A2FF582E43400F583E410
:1011EB00F09000AEE004F080E2E49000ADF09000EF
:1011FB00ACF07B017A00799A12291722900097EBB9
:10120B00F0A3EAF0A3E9F07E007F147D007B017A66
:10121B0000799A12038F90009A7409F0900097123C
:10122B0006155003021387E490009BF09000AEF07C
:10123B009000AEE0FF240AFDE433FC900097E0FB46
:10124B00A3E0FAA3E0F98D828C83120135F4FE74CE
:10125B00AF2FF582E43400F583EEF09000AEE0049E
:10126B00F0E0B406CB9000AE7402F09000AEE0FF5D
:10127B0024ADF582E43400F583E0FE749A2FF582F9
:10128B00E43400F583EEF09000AEE004F0E0B40837
:10129B00DA7B017A00799A9000DE7407F0E4FD1294
:1012AB00251D9000A2EFF090009AE0F49000A3F0BF
:1012BB007B017A00799A9000DF7407F0E4FD122825
:1012CB00C5EEF49000A4F07B017A00799A9000DFD0
:1012DB007407F0E4FD1228C5EFF49000A5F07B0134
:1012EB007A00799A9000DF740BF07D081228C5EE16
:1012FB00F49000A6F07B017A00799A9000DF740BD2
:10130B00F07D081228C5EFF49000A7F09000D2747E
:10131B0007F0A37401F0A37400F0A374B5F0E4A379
:10132B00F0A37405F07B017A00799A7D021225F205
:10133B009000BF7405F0A37401F0A37400F0A374C4
:10134B009AF0A37408F0A3740DF0A37401F0A374C6
:10135B0000F0A3749AF0A3740EF0A37413F07B0146
:10136B007A0079B5E4FD1220C67B017A00799A12D6
:10137B002917C20112000ED200D2CD2290009B740D
:10138B0001F09000AE04F09000AEE0FFC39411505A
:10139B0014749A2FF582E43400F583E4F09000AED8
:1013AB00E004F080E2E49000ADF09000ACF07B0143
:1013BB007A00799A122917229000B5EBF0A3EAF084
:1013CB00A3E9F01223CA9000C21201B79000C2E049
:1013DB00FCA3E0FDA3E0FEA3E0FF781812019190BF
:1013EB0000B8EFF09000C2E0FCA3E0FDA3E0FEA389
:1013FB00E0FF78101201919000B9EFF09000C2E07D
:10140B00FCA3E0FDA3E0FEA3E0FF7808120191909E
:10141B0000BAEFF09000C2A3A3A3E09000BBF0E4EE
:10142B00FFEF2404FDE433FC9000B5E0FBA3E0FAEE
:10143B00A3E0F98D828C83120135F4FE74BC2FF579
:10144B0082E43400F583EEF00FEFB406D49000D8AD
:10145B007403F09000B5E0F9A3E0FAA3E09000D993
:10146B00C9F0A3EAF0A3E9F0A37401F0A37403F0AD
:10147B007B017A0079B87D01122029400302157691
:10148B009000D87405F09000B5E0F9A3E0FAA3E062
:10149B009000D9C9F0A3EAF0A3E9F0E4A3F0A37498
:1014AB0005F09000B5E0F9A3A3E09000DEC9F0A32E
:1014BB00EAF0A3E9F0A3740AF0A3740FF07B017AAE
:1014CB000079BCE4FD121BA740030215769000D8EF
:1014DB007407F09000B5E0FBA3E0FAA3E0F99000ED
:1014EB00101201359000D9F09000B5A3A3E4FD12C2
:1014FB002A6F50779000D8740FF09000B5E0FBA3E3
:10150B00E0FAA3E0F99000111201359000D9F090A8
:10151B0000B5A3A3E07D08122A6F504F9000D8743A
:10152B0011F09000B5E0FBA3E0FAA3E0F9900012F4
:10153B001201359000D9F09000131201359000DAAA
:10154B00F09000B5A3A3E4FD1229EC501E9000C24D
:10155B00E0FCA3E0FDA3E0FEA3E02401FFE43EFEDC
:10156B00E43DFDE43CFC1227C6C322D3229000B914
:10157B00EBF0A3EAF0A3E9F0E4FFEF2401FDE43381
:10158B00FC9000B9E0FBA3E0FAA3E0F98D828C8319
:10159B00120135F4FE74BC2FF582E43400F583EEB2
:1015AB00F00FEFB406D49000B9E0FBA3E0FAA3E090
:1015BB00F9900007120135FF12011CF46F60030252
:1015CB0016CA9000D87407F09000081201359000ED
:1015DB00D9F09000B9A3A3E4FD122A6F40030216C1
:1015EB00CA9000D87405F09000B9E0F9A3E0FAA313
:1015FB00E09000D9C9F0A3EAF0A3E9F0E4A3F0A3CB
:10160B007405F09000B9E0F9A3A3E09000DEC9F0F7
:10161B00A3EAF0A3E9F0A37409F0A3740EF07B0125
:10162B007A0079BCE4FD121BA740030216CA900096
:10163B00D8740EF09000B9E0FBA3E0FAA3E0F990A8
:10164B00000F1201359000D9F09000B9A3A3E07DF3
:10165B0007122A6F50699000D87407F09000B9E018
:10166B00FBA3E0FAA3E0F9900010120135F490000F
:10167B00D9F0900011120135F49000DAF09000B916
:10168B00A3A3E4FD1229EC50369000D8740FF09010
:10169B0000B9E0FBA3E0FAA3E0F9900012120135C8
:1016AB00F49000D9F0900013120135F49000DAF0A9
:1016BB009000B9A3A3E07D081229EC5002C322D3FA
:1016CB00229000AFEBF0A3EAF0A3E9F0E4FFEF24E4
:1016DB0001FDE433FC9000AFE0FBA3E0FAA3E0F9DB
:1016EB008D828C83120135F4FE74B22FF582E434B3
:1016FB0000F583EEF00FEFB406D49000AFE0FBA340
:10170B00E0FAA3E0F9900007120135FF12011CF477
:10171B006F600302181E9000D87407F09000081237
:10172B0001359000D9F09000AFA3A3E4FD122A6F0E
:10173B00400302181E9000D87405F09000AFE0F93A
:10174B00A3E0FAA3E09000D9C9F0A3EAF0A3E9F073
:10175B00E4A3F0A37405F09000AFE0F9A3A3E0902D
:10176B0000DEC9F0A3EAF0A3E9F0A37409F0A374B7
:10177B000EF07B017A0079B2E4FD121BA740030245
:10178B00181E9000D8740EF09000AFE0FBA3E0FAA7
:10179B00A3E0F990000F1201359000D9F09000AF43
:1017AB00A3A3E07D07122A6F50699000D87407F04D
:1017BB009000AFE0FBA3E0FAA3E0F9900010120158
:1017CB0035F49000D9F0900011120135F49000DA45
:1017DB00F09000AFA3A3E4FD1229EC50369000D893
:1017EB00740FF09000AFE0FBA3E0FAA3E0F99000D8
:1017FB0012120135F49000D9F0900013120135F458
:10180B009000DAF09000AFA3A3E07D081229EC5012
:10181B0002C322D3229000BBEBF0A3EAF0A3E9F0C2
:10182B001222709000C21201B79000C2E0FCA3E03C
:10183B00FDA3E0FEA3E0FF78181201919000BEEF2C
:10184B00F09000C2E0FCA3E0FDA3E0FEA3E0FF7874
:10185B00101201919000BFEFF09000C2E0FCA3E0EA
:10186B00FDA3E0FEA3E0FF78081201919000C0EF0A
:10187B00F09000C2A3A3A3E09000C1F09000D87435
:10188B0003F09000BBE0F9A3E0FAA3E09000D9C904
:10189B00F0A3EAF0A3E9F0A37401F0A37403F07BC7
:1018AB00017A0079BE7D0112202940030219619053
:1018BB0000D87407F09000BBE0FBA3E0FAA3E0F9BB
:1018CB009000101201359000D9F09000BBA3A3E457
:1018DB00FD122A6F40030219619000D8740FF0902B
:1018EB0000BBE0FBA3E0FAA3E0F990001112013575
:1018FB009000D9F09000BBA3A3E07D08122A6F5093
:10190B00559000D87411F09000BBE0FBA3E0FAA354
:10191B00E0F99000121201359000D9F090001312EB
:10192B0001359000DAF09000BBA3A3E4FD1229EC83
:10193B0050249000C2E0FCA3E0FDA3E0FEA3E02452
:10194B0001FFE43EFEE43DFDE43CFC9000D274025A
:10195B00F0121C7BC322D322C0E0C083C082C0D054
:10196B0075D000C007209803021A609000F1E06068
:10197B0003021A44900081E0702BA3E07027E599D5
:10198B00C394414007E599D3945A400EE599C3940B
:10199B0061400CE599D3947A5005900081800390B7
:1019AB0000827401F0900081E060539000EFE0FF43
:1019BB0004F074002FF582E43400F583E599F0E52B
:1019CB0099B40A149000F17401F0900081E4F09046
:1019DB0000F2E04401F08017900001E0B44B10904E
:1019EB000000E0B44F099000EFE4F0900081F0901C
:1019FB0000EFE0C394204006E4F0900081F09000EB
:101A0B0082E0602D9000EFE0FF04F074002FF58270
:101A1B00E43400F583E599F09000EFE0B4141290F4
:101A2B0000F17401F09000F2E04408F0900082E4C1
:101A3B00F09000F07402F0801A900080E0C39420C4
:101A4B005011E0FF04F074602FF582E43400F5834D
:101A5B00E599F0C29830992FC2999000EDE0FF9074
:101A6B0000ECE06F601CE02420F582E43400F58389
:101A7B00E0F5999000ECE004F0C394404009E4F0E9
:101A8B0080059000EEE4F0D007D0D0D082D083D088
:101A9B00E032900097EBF0A3EAF0A3E9F07E007F31
:101AAB00147D007B017A00799A12038F90009A744F
:101ABB0015F0900097E0FBA3E0FAA3E0F91216CC27
:101ACB005003021B6CE490009BF0A3F07E03E490A8
:101ADB0000AEF0AF06120003E433FF749A2EF582CA
:101AEB00E43400F583E025E04FFF749A2EF582E491
:101AFB003400F583EFF09000AEE004F0E0C39408FF
:101B0B0040D10EEEB40FC77B017A00799A9000DEBC
:101B1B007407F0E4FD12251D9000AAEFF07B017A0B
:101B2B0000799A9000DE740FF07D0812251D90004D
:101B3B00ABEFF07B017A00799A9000DF7411F0E43F
:101B4B00FD1228C5EE9000ACF07B017A00799A90DB
:101B5B0000DF7411F0E4FD1228C59000ADEFF080AA
:101B6B003290009B7401F09000AE04F09000AEE058
:101B7B00FFC394115014749A2FF582E43400F5834B
:101B8B00E4F09000AEE004F080E2E49000ADF09061
:101B9B0000ACF07B017A00799A0229179000D4EB04
:101BAB00F0A3EAF0A3E9F0A3EDF0E49000E4F090E9
:101BBB0000E3EDF09000D8E0FF9000E3E0FED39F50
:101BCB004003021C58EEFF9000E1E02FFFE433FED0
:101BDB009000D7E0FDC3EF9DFFEE9400FE9000DE7A
:101BEB00E0FBA3E0FAA3E0F98F828E83120135FFAD
:101BFB009000D4E0FBA3E0FAA3E0F99000E3E0FE51
:101C0B00F582758300120135B507047F0180027FD1
:101C1B0000EEFD9000DCE02DFDE433FC9000D7E0FE
:101C2B00FBC3ED9BFDEC9400FC9000D9E0FBA3E023
:101C3B00FAA3E0F98D828C831201356F6006900058
:101C4B00E4E004F09000E3E004F0021BBF9000D747
:101C5B00E0FFA3E0C39FFFE49400CF2401CF340047
:101C6B00FE9000E4E0B50706E4B50602D322C322DA
:101C7B009000CE1201B79000D2E0B401199000CEC3
:101C8B00E0FCA3E0FDA3E0FEA3E0FF9000D4120173
:101C9B00B7122270801E9000D2E0B4021D12243DB8
:101CAB009000D41201B79000CEE0FCA3E0FDA3E0BE
:101CBB00FEA3E0FF9000D81201B77F007E32122AFC
:101CCB0085E49000D3F09000D3E0FB2400FFE434D4
:101CDB0032FEC006C007A3E0FCA3E0FDA3E0FEA319
:101CEB00E0FFC374039B75F008A4F9F8120191ADE2
:101CFB0007D007D006122A289000D3E0FB2404FF5C
:101D0B00E43432FEC006C0079000D8E0FCA3E0FD2F
:101D1B00A3E0FEA3E0FFC374039B75F008A4F9F8DE
:101D2B00120191AD07D007D006122A289000D3E0FC
:101D3B0004F0E0C39404408E227B017A0079831275
:101D4B0026BD78837C007D017BFF7A1F798A120385
:101D5B0072EF700812000ED201022AED78837C001C
:101D6B007D017BFF7A1F7996120372EF7002803A26
:101D7B0078837C007D017BFF7A1F79B3120372EFAE
:101D8B007002807278837C007D017BFF7A1F79A4BF
:101D9B00120372EF7002801278837C007D017BFF4F
:101DAB007A1F79BF120372EF7004C201002278838D
:101DBB007C007D017BFF7A1F79CD120372EF7005DA
:101DCB00C20102000E78837C007D017BFF7A1F79B4
:101DDB00E2120372EF700AC20112000ED200D2CDD2
:101DEB002278837C007D017BFF7A1F79F7120372C7
:101DFB00EF700812000EC201122A59229000CEEB8E
:101E0B00F0A3EAF0A3E9F0A3EDF0E49000D3F09097
:101E1B0000D3E0FFC394045022EF2404FFE4342EDC
:101E2B00FE122A419000D3E024D4F582E43400F56D
:101E3B0083EFF09000D3E004F080D47F007E2E126D
:101E4B002A859000D1E09000D3F09000D2E0FFA360
:101E5B00E0FED39F50679000D1E0FDEEC39DFFE401
:101E6B009400CF2400CF342EFE9000CEE0FBA3E0F5
:101E7B00FAA3E0F99000D3E0F582758300120135E7
:101E8B00FD122A289000D1E0FDFF9000D3E0FCC3A7
:101E9B009FFFE49400CF2404CF342EFEEDFBECC364
:101EAB009BFDE49400FC74D42DF58274003CF58307
:101EBB00E0FD122A289000D3E004F0808D227B01F4
:101ECB007A0079831226BD900083E0FF60126402D2
:101EDB00600EEF64046009EF64066004EFB4160E45
:101EEB00C20112000E7B017A0079830203BB9000C2
:101EFB0083E0B4080EC20112000E7B017A007983D5
:101F0B00021207900083E0B40B0EC20112000E7B8D
:101F1B00017A007983021048900083E0B40E0EC260
:101F2B000112000E7B017A007983020A569000831E
:101F3B00E0B4100EC20112000E7B017A007983020D
:101F4B00083E900083E0B4120EC20112000E7B011A
:101F5B007A007983020C67900083E0B4140EC201FF
:101F6B0012000E7B017A007983021A9D12000EC2B9
:101F7B0001122A592241542B525345540D0A004346
:101F8B006F6E6E65637465640D0A004164766572ED
:101F9B00746973696E670D0A00446973636F6E6EC3
:101FAB0065637465640D0A0054696D6564204F7533
:101FBB00740D0A00496E697469616C697A65640D08
:101FCB000A00566572696669636174654964656E7A
:101FDB00746974790D0A00506C656173655F6F707D
:101FEB00656E746865646F6F720D0A004F4B00432A
:101FFB006F6E6E656374696F6E2069732062726FAA
:10200B006B656E000001020341542B534E414D2B67
:10201B000000000000000000000000000D0A90000E
:10202B00D4EBF0A3EAF0A3E9F0A3EDF0E49000DF2A
:10203B00F09000DEEDF09000D8E0FF9000DEE0FEC7
:10204B00D39F5054EEFF9000DCE02FFFE433FE9063
:10205B0000D7E0FDC3EF9DFFEE9400FE9000D9E0AA
:10206B00FBA3E0FAA3E0F98F828E83120135F4FF14
:10207B009000D4E0FBA3E0FAA3E0F99000DEE0F5DA
:10208B0082758300120135B507069000DFE004F07E
:10209B009000DEE004F0809E9000D7E0FFA3E0C349
:1020AB009FFFE49400CF2401CF3400FE9000DFE0CB
:1020BB00B50706E4B50602D322C3229000BBEBF0B2
:1020CB00A3EAF0A3E9F0A3EDF09000CAF09000BFF3
:1020DB00E0FF9000CAE0FED39F5079EEFF9000C363
:1020EB00E02FFFE433FE9000BEE0FDC3EF9DFFEE5B
:1020FB009400FE9000C0E0FBA3E0FAA3E0F98F820E
:10210B008E83120135FF9000BBE0FBA3E0FAA3E046
:10211B00F99000CAE0FEF5827583001201356FFF5E
:10212B00EEFD9000C8E02DFDE433FC9000BEE0FB1B
:10213B00C3ED9BFDEC9400FC9000C5E0FBA3E0FA23
:10214B00A3E0F98D828C83EF1201629000CAE00448
:10215B00F00220D822787FE4F6D8FD758120022189
:10216B00A702265BE493A3F8E493A34003F6800154
:10217B00F208DFF48029E493A3F85407240CC8C3B6
:10218B0033C4540F4420C8834004F456800146F6F0
:10219B00DFE4800B0102040810204080902943E407
:1021AB007E019360BCA3FF543F30E509541FFEE44E
:1021BB0093A360010ECF54C025E060A840B8E49310
:1021CB00A3FAE493A3F8E493A3C8C582C8CAC58352
:1021DB00CAF0A3C8C582C8CAC583CADFE9DEE780D7
:1021EB00BEC0E0C083C0829000E9E07022D2CC90E8
:1021FB0000E6E014F0701D74C8F09000EAE014F0F3
:10220B007012745AF09000E97401F0C2CC80059002
:10221B0000E9E4F03001229000EBE014F0E07019DB
:10222B0074C8F09000E7E014F0E0700D9000F2E05D
:10223B004404F09000E77405F03000229000E5E0D4
:10224B0014F0E0701974C8F09000E8E014F0E0703E
:10225B000D9000F2E04402F09000E87401F0D0829F
:10226B00D083D0E0329000DD1201C300000000E407
:10227B009000DCF09000DCE0FFC39404504CEF24A2
:10228B0004FFE43432FE122A41E4FCFDFEC004C01C
:10229B0005C006C0079000DDE0FCA3E0FDA3E0FE57
:1022AB00A3E0FF78081201A4D003D002D001D00024
:1022BB00EF4BFFEE4AFEED49FDEC48FC9000DD12C2
:1022CB0001B79000DCE004F080AA9000DDE0FCA3F5
:1022DB00E0FDA3E0FEA3E0FF229000BA1201C300D1
:1022EB00000000E49000B9F09000B9E0FFC3940443
:1022FB00504BE42FFFE4342CFE122A41E4FCFDFE8C
:10230B00C004C005C006C0079000BAE0FCA3E0FD06
:10231B00A3E0FEA3E0FF78081201A4D003D002D003
:10232B0001D000EF4BFFEE4AFEED49FDEC48FC906F
:10233B0000BA1201B79000B9E004F080AB9000BA7C
:10234B00E0FCA3E0FDA3E0FEA3E0FF229000D5128A
:10235B0001C300000000E49000D4F09000D4E0FF33
:10236B00C39404504BE42FFFE4342CFE122A41E4B7
:10237B00FCFDFEC004C005C006C0079000D5E0FC04
:10238B00A3E0FDA3E0FEA3E0FF78081201A4D003B5
:10239B00D002D001D000EF4BFFEE4AFEED49FDEC31
:1023AB0048FC9000D51201B79000D4E004F080AB4C
:1023BB009000D5E0FCA3E0FDA3E0FEA3E0FF22909C
:1023CB0000C71201C300000000E49000C6F09000AB
:1023DB00C6E0FFC39404504BE42FFFE43430FE12ED
:1023EB002A41E4FCFDFEC004C005C006C0079000F6
:1023FB00C7E0FCA3E0FDA3E0FEA3E0FF7808120119
:10240B00A4D003D002D001D000EF4BFFEE4AFEED7B
:10241B0049FDEC48FC9000C71201B79000C6E004E0
:10242B00F080AB9000C7E0FCA3E0FDA3E0FEA3E0CF
:10243B00FF229000DD1201C300000000E49000DCDD
:10244B00F09000DCE0FFC39404504BE42FFFE43426
:10245B0032FE122A41E4FCFDFEC004C005C006C0DA
:10246B00079000DDE0FCA3E0FDA3E0FEA3E0FF7816
:10247B00081201A4D003D002D001D000EF4BFFEE25
:10248B004AFEED49FDEC48FC9000DD1201B79000CF
:10249B00DCE004F080AB9000DDE0FCA3E0FDA3E00A
:1024AB00FEA3E0FF229000BBEBF0A3EAF0A3E9F060
:1024BB0078BE7C007D017BFF7A2079137E007F162E
:1024CB001200F67E08EE24F8FDE434FFFC9000BB0E
:1024DB00E0FBA3E0FAA3E0F98D828C83120135FFB8
:1024EB0074BE2EF582E43400F583EFF00EEEB414D7
:1024FB00D4C290122AFAE4FE74BE2EF582E43400A4
:10250B00F583E0FF1229A40EEEB416EC122AC1D209
:10251B0090229000DAEBF0A3EAF0A3E9F0E490004C
:10252B00E0F09000DEE0FFEDD39F504BE4A3F09082
:10253B0000DAE0FBA3E0FAA3E0F98D8275830012C9
:10254B000135FFE4FEAC07EFC313FF25E0FBC3EC43
:10255B009B60069000DFE004F00EEEB408E79000FD
:10256B00DFE030E007A3E025E0F080089000E0E03A
:10257B0025E004F00D80AB9000E0E0FF229000D44A
:10258B00EBF0A3EAF0A3E9F0A3EDF09000DEF090FE
:10259B0000D8E0FF9000DEE0FED39F50499000D4BE
:1025AB00E0FBA3E0FAA3E0F98E82758300120135FC
:1025BB00FFEEFD9000DDE0C39DFDE49400FC900078
:1025CB00D7E0FBC3ED9BFDEC9400FC9000D9E0FB46
:1025DB00A3E0FAA3E0F98D828C83EF1201629000E5
:1025EB00DEE004F080A9229000CEEBF0A3EAF0A38A
:1025FB00E9F0A3EDF09000D8F09000D2E0FF90004E
:10260B00D8E0FED39F50489000CEE0FBA3E0FAA3A6
:10261B00E0F98E82758300120135F4FFEEFD900018
:10262B00D6E02DFDE433FC9000D1E0FBC3ED9BFD28
:10263B00EC9400FC9000D3E0FBA3E0FAA3E0F98D4F
:10264B00828C83EF1201629000D8E004F080AA2202
:10265B00C2AF122AD0122B0353C9DF43CA20D2AF09
:10266B0053C17F43C1109000F2E030E00C121D44C7
:10267B009000F2E054FEF080E79000F2E030E10AC7
:10268B00C200C2CDE054FDF080D69000F2E030E203
:10269B000EC201122A599000F2E054FBF080C19057
:1026AB0000F2E030E3BA121EC99000F2E054F7F0EA
:1026BB0080AE9000A3EBF0A3EAF0A3E9F09000EF5B
:1026CB00E0601CE0FF7E009000A3E0FBA3E0FAA318
:1026DB00E0F8AC02AD037B017A0079001200F690B2
:1026EB0000A3E0FBA3E0FAA3E0F99000EFE0F58292
:1026FB00758300E4120162E49000EFF09000F1F0BA
:10270B00FE7F20FD7B017A00790002038F7E007F24
:10271B00407D007B017A00792012038F7E007F20A1
:10272B007D007B017A00790012038F7E007F207D74
:10273B00007B017A00796012038F7E007FEC1229F7
:10274B0076E598543F4440F598438E01D2AC4398BC
:10275B001053A23F53B1FE53B2FE53B1FD53B2FD22
:10276B005397EF022A0D9000D41201B77F007E2CF5
:10277B00122A85E49000D8F09000D8E0FBC39404B3
:10278B005038EB2400FFE4342CFEC006C007900049
:10279B00D4E0FCA3E0FDA3E0FEA3E0FFC374039B26
:1027AB0075F008A4F9F8120191AD07D007D0061205
:1027BB002A289000D8E004F080BE229000C61201B7
:1027CB00B77F007E30122A85E49000CAF09000CAD1
:1027DB00E0FBC394045038EB2400FFE43430FEC01C
:1027EB0006C0079000C6E0FCA3E0FDA3E0FEA3E05B
:1027FB00FFC374039B75F008A4F9F8120191AD07A0
:10280B00D007D006122A289000CAE004F080BE221E
:10281B009000BBEBF0A3EAF0A3E9F0A3EDF090007E
:10282B00C0F09000BFE0FFA3E0FED39F50369000B6
:10283B00BEE0FDEEC39DFFE49400CF2400CF342E09
:10284B00FE122A419000BBE0FBA3E0FAA3E0F99053
:10285B0000C0E0F582758300EF1201629000C0E0CA
:10286B0004F080BE229000D4EBF0A3EAF0A3E9F0D1
:10287B00A3EDF09000D9F09000D8E0FFA3E0FED3D9
:10288B009F50369000D7E0FDEEC39DFFE49400CF40
:10289B002404CF342EFE122A419000D4E0FBA3E097
:1028AB00FAA3E0F99000D9E0F582758300EF1201ED
:1028BB00629000D9E004F080BE229000DBEBF0A325
:1028CB00EAF0A3E9F0E49000E0F0A3F0AF0590008C
:1028DB00DFE0FEEFD39E50249000DBE0FBA3E0FA99
:1028EB00A3E0F98F82758300120135FD9000E1E0C2
:1028FB002DF09000E0E03400F00F80D29000E0E08B
:10290B00FEA3E0FF22F07B017A00799A9000BBEBEB
:10291B00F0A3EAF0A3E9F0E4FE9000BBE0FBA3E038
:10292B00FAA3E0F98E82758300120135FF1229A4F8
:10293B000EEEB414E4022AC1410080004100820073
:10294B00410081004100E9004100E6C84100EA5A1C
:10295B004100EBC84100E5C84100E7054100E80133
:10296B00C1024100F200C101C100008F828E83E4DD
:10297B00F0A3F08F828E83A3A3F08F828E83A3A309
:10298B00A3F0EF2404F582E43EF583E4F0EF240595
:10299B00F582E43EF583E4F0229000EDE02420F58F
:1029AB0082E43400F583EFF09000EDE004F0C39483
:1029BB00404002E4F09000EEE0700404F0D2992263
:1029CB007E007F207D007B017A00790012038FE46B
:1029DB009000EFF09000F1F0900082F0900081F009
:1029EB00229000D8E09000DFF01228C5AD07AC06AE
:1029FB00ECFF9000D9E0B50707A3E0B50502D322A1
:102A0B00C322200217538EEF538EF7438E0475D6D5
:102A1B00FD75D78F53AFFB438E10D2022275C78043
:102A2B0075C5028FC4EEF5C3AF058FC275C65A7557
:102A3B00C6A500022ADF75C78075C5018FC4EEF5E8
:102A4B00C375C65A75C6A500AFC2122ADF22C29043
:102A5B00122AFA7BFF7A1F7980122AAE122AC1D270
:102A6B00900229CB9000D8E09000DEF012251D904B
:102A7B0000D9E0B50702D322C32275C78075C50301
:102A8B008FC4EEF5C375C65A75C6A500022ADF536F
:102A9B008E7F5389FB5389FC758CD8758AF0D2A92C
:102AAB00D28C2212011CFF600C1229A4740129F98B
:102ABB00E43AFA80EE2200007F057E907D47DDFE32
:102ACB00DEFCDFFA2200007F2E7E997DF5DDFEDE37
:102ADB00FCDFFA22E4F5C7F5C5F5C675C3FF75C46F
:102AEB00FF229000E674C8F09000EA745AF0227F3F
:102AFB002F7EAEDEFEDFFC22122B09022B0F122AD9
:072B0B009A022718C2CD2237
:00000001FF
