:100000000207ECE49000ACF0C2B622020DA9120D7A
:0200100082224A
:0F001300020EF97E007F0FE4FB7D03FC020ACB97
:1000230002097B53C9EF43CA1053C9DF43CA2053A4
:1000330091EF4392100210B0020749E5102474F5C2
:1000430082E43400F583E005102290007130070349
:10005300900074E475F0011205710204992000E91F
:100063007F2ED2008018EF540F2490D43440D4FF55
:1000730030040BEF24BFB41A0050032461FFE511D1
:10008300600215110514E5147002051330070E9074
:100093000071E475F001120571EF02055F02000EB5
:1000A3007403D2078003E4C207F5109000711205B0
:1000B30088E4F511F513F514E51160077F201200AC
:1000C3008180F57512FFC201C200C202C203C205DC
:1000D300C206C20812004DFF700D3007057F0012E3
:1000E3000092AF14AE1322B4255FC2D5C20412002E
:1000F3004DFF24D0B40A00501A75F00A781130D598
:100103000508B6FF0106C6A426F620D5047002D260
:100113000380D924CFB41A00EF5004C2E5D20402FD
:100123000293D20180C6D20080C0D20280BCD2D555
:1001330080BAD20580B47F201200812002077401A7
:10014300B5110040F112003EFF1200810200BBD244
:1001530008D206809512003EFB12003EFA12003EC2
:10016300F94A4B700679647A037BFF20022EE5116E
:10017300602A7E008E827583001204B260060EEE42
:10018300651270F0C2D5EBC0E0EAC0E0E9C0E0EE72
:100193001202DAD0E0F9D0E0FAD0E0FB120499FFC2
:1001A30060AAEBC0E0EAC0E0E9C0E0120081D0E061
:1001B3002401F9D0E03400FAD0E0FBE5120460DC5E
:1001C300D512D980877BFF7A0279D6D202809C79B7
:1001D3001080027908C206C2088008D2D5790A8045
:1001E30004790AC2D5E512047002F512E4FAFDFEA1
:1001F300FF12003EFC7B0820011312003EFD7B1022
:1002030030000A12003EFE12003EFF7B20EC3382D8
:10021300D592D55013C3E43000069FFFE49EFEE45D
:100223002001039DFDE49CFCE4CBF8C201EC700CBF
:10023300CFCECDCCE824F8F870F38017C3EF33FFAB
:10024300EE33FEED33FDEC33FCEB33FB994002FB65
:100253000FD8E9EB300105F8D0E0C448B201C0E0A3
:100263000AEC4D4E4F78207B0070C2EAB512004075
:10027300BCC0E01202DCD0F0D0E0200104C4C0E036
:10028300C4B201C0F012006AD0F0D5F0EB0200BB9B
:1002930012059101585301D25801294C01254201FD
:1002A300D64F01DE4401DE49013E4301E45501C856
:1002B3004601C84501C847038450012D2D01312E45
:1002C30001542B013523015220036D2A00ED480010
:1002D30000014C3F3F3F00790AA2D52003143005AB
:1002E30009B910020404B9080104A2D5200602507A
:1002F30001042002689202B511005034C0E07F204F
:100303003003197F30A20272067205500F120333B5
:10031300C202C206C205C2087F30800F300503E95E
:10032300C0E0120081300503D0E0F9D0E0B511CC74
:100333003005177F30B9100C1200817F5830040745
:100343007F788003B908031200813002057F2D02F4
:1003530000817F202008F87F2B2006F32292028061
:10036300CF286E756C6C2900D20112003E3001F863
:10037300C201781130D50108F60200ED2D50434932
:100383005812003E2403B405004001E490037F9318
:10039300120072743A120072D2037511040201D270
:1003A300E709F608DFFA8046E709F208DFFA803E3C
:1003B30088828C83E709F0A3DFFA8032E309F60829
:1003C300DFFA8078E309F208DFFA807088828C8391
:1003D300E309F0A3DFFA806489828A83E0A3F60845
:1003E300DFFA805889828A83E0A3F208DFFA804C1F
:1003F30080D280FA80C680D4806980F280338010F6
:1004030080A680EA809A80A880DA80E280CA80335E
:1004130089828A83ECFAE493A3C8C582C8CCC583D6
:10042300CCF0A3C8C582C8CCC583CCDFE9DEE780A6
:100433000D89828A83E493A3F608DFF9ECFAA9F025
:10044300EDFB2289828A83ECFAE0A3C8C582C8CC7B
:10045300C583CCF0A3C8C582C8CCC583CCDFEADE94
:10046300E880DB89828A83E493A3F208DFF980CCF6
:1004730088F0EF60010E4E60C388F0ED2402B404EF
:100483000050B9F582EB2402B4040050AF23234596
:1004930082239003F373BB010689828A83E022508F
:1004A30002E722BBFE02E32289828A83E49322BB12
:1004B300010CE58229F582E5833AF583E0225006B3
:1004C300E92582F8E622BBFE06E92582F8E222E569
:1004D3008229F582E5833AF583E49322F8BB010D83
:1004E300E58229F582E5833AF583E8F0225006E9AF
:1004F3002582C8F622BBFE05E92582C8F222C5F093
:10050300F8A3E028F0C5F0F8E582158270021583A0
:10051300E038F022EB9FF5F0EA9E42F0E99D42F0CD
:10052300EC6480C864809845F0228A838982E473EE
:10053300EF4E6012EF60010EEDBB010B89828A83DF
:10054300F0A3DFFCDEFA2289F05007F709DFFCA9EC
:10055300F022BBFEFCF309DFFCA9F022BB010689F4
:10056300828A83F0225002F722BBFE01F322F8E0D5
:10057300FBA3A3E0F925F0F0E58215827002158351
:10058300E0FA38F022EBF0A3EAF0A3E9F022D083FB
:10059300D082F8E4937012740193700DA3A393F8BF
:1005A300740193F5828883E4737402936860EFA304
:1005B300A3A380DFC2AF1210C5120A68D2B7D2AFAD
:1005C30053C17F43C1109000AEE030E212120BC55D
:1005D300120DD0120C7D9000AEE054FBF080E19040
:1005E30000AEE030E30C1210449000AEE054F7F09C
:1005F30080CE9000AEE030E11F7E007FA6120B2478
:1006030050079000AEE04408F0120F391210CE905C
:1006130000AEE054FDF080A89000AEE030E006E0CC
:1006230054FEF0809B9000AEE030E530C293C2925E
:10063300D290D291120F0F120F9DE4900000F09010
:1006430000A2F090002F7403F09000017401F012E7
:100653000D5A9000AEE054DFF00205C39000AEE007
:1006630020E6030205C31210BE1210B7E490003C4B
:10067300F0C2CDC294C2CC9000AD04F012108690AB
:1006830000047402F0121021D2AA9000AEE054BF0D
:10069300F00205C390009DE090009CF012108FEFD4
:1006A300F4A3F090009CE0FFA3E0FE6FFDEF5DFF7D
:1006B30090009BE06FF0EE6DFF90009AE0FE6F609C
:1006C30059900099E0FF04F0EFD39419400B900088
:1006D3009DE0FFEE4F90009AF0900099E0FCD394D8
:1006E3000A401090009BE0FE90009DE0FDEE5D90BF
:1006F300009BF0ECD39400400990009FE07003123C
:100703000016900099E0D39400403AC293C292D26B
:1007130090D29190009F7401F022E4900099F090A0
:10072300009FE0600CD2AAC290C291C293C292E42D
:10073300F090009AE0FF90009DE0FEEF5E90009A3B
:10074300F0A3E05EF022C0E0C0F0C083C082C0D05E
:1007530075D008C2D89000ACE07002805E9000AC07
:10076300E064017040B2B6781AE6FE08E6781D260A
:10077300F618EE36F6E6FE08E6F5EAEEF5FA781B2D
:1007830006E618700106781AE6FE08E6FFE4FCFDAB
:100793007BE87A03F9F8D31205175042781A7601E9
:1007A3000876F480399000ACE064026009E06404E8
:1007B3006004E0B40528B2B69000ACE025E0241B49
:1007C300F582E43411F583E493FE740193781D26D6
:1007D300F618EE36F6E6FE08E6F5EAEEF5FAD0D0C0
:1007E300D082D083D0F0D0E032787FE4F6D8FD75A4
:1007F30081210208330205B7E493A3F8E493A340ED
:1008030003F68001F208DFF48029E493A3F8540788
:10081300240CC8C333C4540F4420C8834004F45683
:10082300800146F6DFE4800B0102040810204080BB
:100833009009F5E47E019360BCA3FF543F30E509C2
:10084300541FFEE493A360010ECF54C025E060A8BB
:1008530040B8E493A3FAE493A3F8E493A3C8C5824E
:10086300C8CAC583CAF0A3C8C582C8CAC583CADFBC
:10087300E9DEE780BE90006FEEF0A3EFF0F5828E25
:1008830083E0FEA3E0FF4E701290006FE0FCA3E054
:10089300F5828C83A3A3E07002C32290006FE0FC77
:1008A300A3E0F5828C83A3A3E014F07049EF4E70AC
:1008B3002990006FE0FEA3E0FFF5828E83A3A3A33C
:1008C300E0FCA3E04C60118F828E83A3A3A3E0FE20
:1008D300A3E0AA06F912052DD32290006FE0FEA330
:1008E300E0FFF5828E8374FFF5F01205018F828E8F
:1008F30083A3A37432F0C32290007FEEF0A3EFF042
:10090300A3ECF0A3EDF09000A9E0900083F07E004B
:100913007F107D00900081E0FAA3E0F97B011205CE
:1009230033900083E0FF7E0090007FE0FCA3E0AA09
:1009330004F97B01A3E0FCA3E0F87D011204737EBC
:10094300007FA6120F4E900081E0FEA3E0F5828E99
:1009530083E0B423221210B7E49000A4F0D2B7903E
:100963000001F0120F24120F8BE4900003F09000AB
:100973002F7404F0120D5A22C0E0C083C082C0D08D
:1009830075D000C00730982DC2989000ABE0702559
:100993009000A9E0C394104002E4F09000A9E0FFA6
:1009A30004F0743F2FF582E43400F583E599F09069
:1009B30000AA7405F030992FC2999000A7E0FF9028
:1009C30000A6E06F601CE0244FF582E43400F58359
:1009D300E0F5999000A6E004F0C394204009E4F008
:1009E30080059000A8E4F0D007D0D0D082D083D087
:1009F300E032021C0000021A01F4C1094100AC00FC
:100A03004100AD00C18A41000100410004004100E2
:100A130003014100000141003000051500C86432A4
:100A23003241002E0041000200C10B41001E004173
:100A330000A0004100A3004100A4004100A5004123
:100A430000A1004100A200011E044100AE00C10C40
:100A530041009B0041009A0041009F004100990022
:100A630041009E00007E007F197C107D39120E929A
:100A73007E007F297C107D62120E927E007F0A7CAD
:100A8300107DA0120E927E007F057C0E7DC9120E92
:100A9300927E007F1F7C107DCB120E927E007F0F13
:100AA3007C107DA8120E927E007F247C007D0312B1
:100AB3000E927E007F147C107D98120E927E007F32
:100AC300317C0E7D76020E92900084EEF0A3EFF05F
:100AD300A3ECF0A3EDF0EB7026E024FFFF9000867B
:100AE300E034FFFE900084E0FCA3E0FDF5828C83FC
:100AF300EEF0A3EFF08D828C83A3A37432F02290E7
:100B03000086E0FEA3E0FF900084E0FCA3E0FDF597
:100B1300828C83EEF0A3EFF08D828C83A3A3EBF0A2
:100B2300228F828E83A3A3A3E07002C322EF240447
:100B3300F582E43EF583E0601AEF2404F582E43E97
:100B4300F583E014F0700CEF2405F582E43EF583A1
:100B53007401F0EF2404F582E43EF583E0700CEFBA
:100B63002405F582E43EF5837401F0EF2405F58254
:100B7300E43EF583E024FF227E007F207D007B019D
:100B83007A00794F1205337E007F107D007B017A56
:100B930000793F1205337E007FA6120CB1E598540D
:100BA3003F4440F598438E01D2AC43981053A23F83
:100BB30053B1FE53B2FE53B1FD53B2FD5397EF024F
:100BC3000EAE7E007F191208787E007F2912087806
:100BD3007E007F0A1208787E007F051208787E0067
:100BE3007F1F1208787E007F0F1208787E007F2413
:100BF3001208787E007F141208787E007F31020885
:100C03007890001EE004F0E0FFB40102800BEFB423
:100C13000203D2CD22EFB40307C2CDC294C2CC22C9
:100C2300EFB40403D2CD22EFB40513E490003CF0FB
:100C3300C2CDC294C2CC90001EF090002FF022903F
:100C4300002FE025E02411F582E43411F5837401CB
:100C5300937002E493601B90002FE025E02411F5CC
:100C630082E43411F583E493FE740193AA06F91226
:100C7300052DE490003DF0A3F022E490006FF0A373
:100C8300F0120E3990006FEEF0A3EFF07BFF20B36C
:100C9300067A0F79F580047A0F79FD90006FE0FFF3
:100CA300A3E0900074CFF0A3EFF01200A9228F828B
:100CB3008E83E4F0A3F08F828E83A3A3F08F828EC2
:100CC30083A3A3A3F0EF2404F582E43EF583E4F0C9
:100CD300EF2405F582E43EF583E4F02290006FEB08
:100CE300F0A3EAF0A3E9F0E4FE90006FE0FBA3E0D9
:100CF300FAA3E0F98E827583001204B2FF120D820B
:100D03000EEEB406E422E4F5D8F5E9F5F990111BEB
:100D130093FE740193781D26F618EE36F6E6FE0868
:100D2300E6F5EAEEF5FAE4F5D975DA49D2DE229072
:100D3300003CE0601A90002FE02415F8E6FFC39012
:100D4300003EE09F90003DE09400400A020C42E424
:100D530090003DF0A3F02290002FE025E02407F55A
:100D630082E43411F583E493FE740193FF4E60072C
:100D7300AA06A90712052DE490003DF0A3F02290E6
:100D830000A7E0244FF582E43400F583EFF09000F0
:100D9300A7E004F0C394204002E4F09000A8E070C0
:100DA3000404F0D29922C0E0C083C082C0D075D0C1
:100DB300089000AEE04402F0781E16E67006E044A8
:100DC30004F07604D0D0D082D083D0E032120697DC
:100DD30090009EE0701590009AE0600F30E00C9058
:100DE30000AEE04420F0E490009FF090009AE09081
:100DF300009EF0225391FB4392045391F7439208D0
:100E03005391FE4392015391FD439202C290C291CA
:100E1300C293C292224391405392BF53B17F43B2D4
:100E23008043B10853B2F753B1FB43B204C2B7C214
:100E3300B3D28AD2AA2243BC0800000000E5BC302A
:100E4300E4FB53BCEFAFBDEF75F004A4FFAEF0AD10
:100E5300BEEF4DFF22900002E004F0E0FFB4010773
:100E6300C2CDC294C2CC22EFB40407D2CCE490002A
:100E730002F022900004E07003020016900004E0E8
:100E8300B4010512107D8003121086121021228FE7
:100E9300828E83E4F0A3F08F828E83A3A3F08F82EC
:100EA3008E83A3A3A3ECF0A3EDF022200C17538EA3
:100EB300EF538EF7438E0475D78F75D6FD53AFFB73
:100EC300438E10D20C22900030E004F0E0C3940370
:100ED3004008C2B6E49000ACF022120FC122120FF8
:100EE30077120DF7120E18120D091210591200265F
:100EF30012102D020B7BC0E0C083C082C2AA9000F7
:100F0300AEE04401F0D082D083D0E0327E007F197E
:100F1300E4FB7D05FC120ACBC293C292D290D2911C
:100F2300227E007F29E4FB7D03FC120ACBD293D2FD
:100F330092C290C2912290003CE0600E90003EE08D
:100F430004F0700690003DE004F0228F828E83A3AC
:100F5300A3A3E4F0EF2405F582E43EF583E4F02255
:100F6300E490003CF0C2CDC294C2CC90002EF0A31A
:100F7300F0020D5A538E7F5389FB5389FC758CD82D
:100F8300758AF0D2A9D28C229000AC7404F07E0052
:100F93007F247B0AE4FDFC020ACB9000AC7405F0CD
:100FA3007E007F147B0AE4FDFC020ACB9000AC7444
:100FB30002F07E007F057B19E4FDFC020ACBC2B67A
:100FC300E49000ACF07E007F1F7B19FDFC020ACB8E
:100FD300E490003CF0C2CDC294C2CC90002EF0A3AA
:100FE300F0228F828E83E4F0A3F08F828E83A3A3FB
:100FF300F02225642C312C0D0A0025642C302C0D95
:101003000A0090003C7401F0E4900002F0D2CC227C
:1010130090003C7401F0E490001EF0D2CD227E00DB
:101023007F31E4FB7D01FC020ACB439D20E4F5BD47
:10103300F5BE75BC8522C290C291C293C292D2AA58
:10104300227E007F3F7C007D6F0208FBE490003C22
:10105300F0A3F0A3F02253B1BF43B240C2B622C201
:1010630090C291C293C2922290003C7401F0D2CDFF
:101073002290003C7401F0D294227BFF7A1079E332
:10108300020CDF7BFF7A1079E9020CDF7FFEA2B34B
:10109300E4334FFF22E49000ACF0C2B622C2B6E4C0
:1010A3009000ACF0229000AEE04410F022C2CDC21A
:1010B30094C2CC227E007F19020FE57E007F2902B5
:1010C3000FE5120EE10210D4020FAF020D3202102F
:1010D300B002104F7E810000817F7E810001827FFC
:1010E3007E840000847F7E840001857F7E830000F0
:1010F300837F7E830000837F7E860000867F7E87DA
:101103000000877F10D110051013106B10740000BE
:101113000E580C040FD30F634E2001F403E803E8C9
:0411230003E803E8F2
:00000001FF
