:0900000002236F02000E02300120
:10000B00021306C0E0C083C08220B205B20D1234C9
:10001B007DD082D083D0E03202278C90033CE0B4B9
:10002B0001107F12122E2A7E027FAEE4FB7DB402FA
:10003B0032C07F0C122E2A2202250C9002E0ECF02B
:10004B00A3EDF09002DEEEF0A3EFF0F5828E83A32A
:10005B00A3A3E06483600302039B9002DEE0FEA394
:10006B00E02405F582E43EF583E01206B5013A047F
:10007B0002AA0502C00602D60702EC080302090316
:10008B00180A010B0B01721001D9140321400363F1
:10009B004E015750016051016652015453015A549D
:1000AB0000E855015D5600F75700F25800FC590067
:1000BB00FF5A01055B01085C016C5D031D5E031FAC
:1000CB005F033960033F61034C62034F6303526468
:1000DB000355650395660386B0000005307E027FED
:1000EB00A3123A1AC21122123782805D1237508046
:1000FB005802386712379B02031D02381402376906
:10010B009002DEE0FEA3E02408F582E43EF583E0F6
:10011B006008900296E04440800E900336E0541E37
:10012B00600A900296E04420F0A3E0F0C211229006
:10013B0002DEE0FEA3E02408F582E43EF583E02432
:10014B00FF920D12347DC2112202031D02031D0208
:10015B00031D02031D12002602031D123527020385
:10016B001D12397BC211229002DEE0FCA3E0FD24BC
:10017B0008F582E43CF583E07E007810C333CE3380
:10018B00CED8F9FBAA06ED2407F582E43CF583E013
:10019B007E007818C333CE33CED8F9FFEE4AFCEF8E
:1001AB004BFD9002DEE0FAA3E0FB2409F582E43A72
:1001BB00F583E04CFEEDFFEB240AF582E43AF58380
:1001CB00E0FDEF4DFFE4FCFD90028A0202A49002D9
:1001DB00DEE0FCA3E0FD2408F582E43CF583E07E41
:1001EB00007810C333CE33CED8F9FBAA06ED240723
:1001FB00F582E43CF583E07E007818C333CE33CE32
:10020B00D8F9FFEE4AFCEF4BFD9002DEE0FAA3E0DB
:10021B00FB2409F582E43AF583E04CFEEDFFEB2479
:10022B000AF582E43AF583E0FDEF4DFFE4FCFD9027
:10023B00028E1206789002DEE0FCA3E0FD240CF5A2
:10024B0082E43CF583E07E007810C333CE33CED806
:10025B00F9FBAA06ED240BF582E43CF583E07E0066
:10026B007818C333CE33CED8F9FFEE4AFCEF4BFDF3
:10027B009002DEE0FAA3E0FB240DF582E43AF5836D
:10028B00E04CFEEDFFEB240EF582E43AF583E0FD46
:10029B00EF4DFFE4FCFD9001D9120678D2112290AC
:1002AB0002DEE0FEA3E02408F582E43EF583E0FFE6
:1002BB0012359C805D9002DEE0FEA3E02408F582FF
:1002CB00E43EF583E0FF1235C180479002DEE0FE8D
:1002DB00A3E02408F582E43EF583E0FF1235E680C7
:1002EB00319002DEE0FEA3E02408F582E43EF583C4
:1002FB00E0FF1233E2801B9002DEE0FEA3E0240855
:10030B00F582E43EF583E0FF12360B803D12399205
:10031B008038803680349002DEE0FEA3E0AA06F936
:10032B007B01121FEA200D031228EED21122123983
:10033B0092C211221238C7900336E054FDF0021618
:10034B00C602388A0237E50236CD7E027FA3E4FB74
:10035B007DB41232C0D211227E027FA3E4FB7DB4A6
:10036B001232C09002DEE0FEA3E02408F582E43EE8
:10037B00F583E0700302396F0200069002DEE0FEA7
:10038B00A3E0AA06F97B01021EA9123A72C211223E
:10039B009002DEE0FEA3E0FFF5828E83A3A3A3E031
:1003AB0064816003020530EF2404F582E43EF5839B
:1003BB00E024FD700302051A24E36003020530906C
:1003CB000334E070129002DEE0FEA3E0AA06F97B94
:1003DB000112148B0239039002E47401F090033480
:1003EB00E09002E3F0E49002E2F09002E4E0FF9090
:1003FB0002E3E05F70030205039001D0E0FEA3E08F
:10040B00FF7D5A12328A9001D0E0FEA3E0FF7DA55A
:10041B0012328A9001D0E0FEA3E0FF7D0912328AEE
:10042B009001D0E0FEA3E0FF7D8212328A9001D0D2
:10043B00E0FEA3E0FFE4FD12328A9001D0E0FEA3C0
:10044B00E0FF9002E2E075F006A42480FD12328AF0
:10045B009001D0E0FEA3E0FF9002DEE0FCA3E024DD
:10046B0006F582E43CF583E0FD12328A9001D0E080
:10047B00FEA3E0FF9002DEE0FCA3E02407F582E49C
:10048B003CF583E0FD12328A9001D0E0FEA3E0FF41
:10049B009002DEE0FCA3E02408F582E43CF583E067
:1004AB00FD12328A9001D0E0FEA3E0FF9002DEE065
:1004BB00FCA3E0240AF582E43CF583E0FD12328ACA
:1004CB009001D0E0FEA3E0FF9002DEE0FCA3E0246D
:1004DB000BF582E43CF583E0FD12328A9001D0E00B
:1004EB00FEA3E0FF9002DEE0FCA3E0240CF582E427
:1004FB003CF583E0FD12328A9002E4E025E0F090B7
:10050B0002E2E004F0E0C3940550030203F52290ED
:10051B0002DEE0FEA3E02407F582E43EF583E090E3
:10052B0001DDF0D21122E709F608DFFA8046E70970
:10053B00F208DFFA803E88828C83E709F0A3DFFAAA
:10054B008032E309F608DFFA8078E309F208DFFA74
:10055B00807088828C83E309F0A3DFFA8064898240
:10056B008A83E0A3F608DFFA805889828A83E0A3A6
:10057B00F208DFFA804C80D280FA80C680D4806982
:10058B0080F28033801080A680EA809A80A880DA7F
:10059B0080E280CA803389828A83ECFAE493A3C811
:1005AB00C582C8CCC583CCF0A3C8C582C8CCC583D3
:1005BB00CCDFE9DEE7800D89828A83E493A3F6081A
:1005CB00DFF9ECFAA9F0EDFB2289828A83ECFAE0E1
:1005DB00A3C8C582C8CCC583CCF0A3C8C582C8CC80
:1005EB00C583CCDFEADEE880DB89828A83E493A3D0
:1005FB00F208DFF980CC88F0EF60010E4E60C38803
:10060B00F0ED2402B4040050B9F582EB2402B404DB
:10061B000050AF232345822390058173BB010CE56A
:10062B008229F582E5833AF583E0225006E925829B
:10063B00F8E622BBFE06E92582F8E222E58229F5DF
:10064B0082E5833AF583E49322EB9FF5F0EA9E4231
:10065B00F0E99D42F0E89C45F022E8600FECC313F3
:10066B00FCED13FDEE13FEEF13FFD8F122ECF0A31C
:10067B00EDF0A3EEF0A3EFF022A8828583F0D083F8
:10068B00D08212069B12069B12069B12069BE473EA
:10069B00E493A3C583C5F0C583C8C582C8F0A3C5C1
:1006AB0083C5F0C583C8C582C822D083D082F8E445
:1006BB00937012740193700DA3A393F8740193F5C7
:1006CB00828883E4737402936860EFA3A3A380DF33
:1006DB008A838982E473E3F5F009E208B5F06D6073
:1006EB006B80F3E3F5F009E608B5F060605E80F32C
:1006FB0087F009E608B5F054605280F487F009E200
:10070B0008B5F048604680F488828C8387F009E056
:10071B00A3B5F038603680F488828C8387F009E4C7
:10072B0093A3B5F027602580F388828C83E3F5F0E3
:10073B0009E0A3B5F016601480F388828C83E3F58F
:10074B00F009E493A3B5F004600280F202080C8078
:10075B008580E7808E80D2803C8015806C807E8087
:10076B009B80B5808B80A1804F8070803A020818E7
:10077B0089828A83ECFAE493F5F0A3C8C582C8CCCE
:10078B00C583CCE493A3C8C582C8CCC583CCB5F0D4
:10079B0070606E80E189828A83E493F5F0A3E208AE
:1007AB00B5F05E605C80F289828A83E0F5F0A3E6A7
:1007BB0008B5F04D604B80F389828A83E0F5F0A396
:1007CB00E208B5F03C603A80F389828A83E493F5C2
:1007DB00F0A3E608B5F02A602880F2805389828A5C
:1007EB0083ECFAE493F5F0A3C8C582C8CCC583CCDF
:1007FB00E0A3C8C582C8CCC583CCB5F00460028029
:10080B00E27FFFB5F0020F2240027F012289828A2C
:10081B0083ECFAE0F5F0A3C8C582C8CCC583CCE065
:10082B00A3C8C582C8CCC583CCB5F0D560D380E353
:10083B0089828A83ECFAE0F5F0A3C8C582C8CCC5DF
:10084B0083CCE493A3C8C582C8CCC583CCB5F0B127
:10085B0060AF80E288F0ED2402B4040050A3F5826F
:10086B00EB2402B404005099232345822390075AAA
:10087B0073EF4E6012EF60010EEDBB010B89828AA4
:10088B0083F0A3DFFCDEFA2289F05007F709DFFCC7
:10089B00A9F022BBFEFCF309DFFCA9F022BB010689
:1008AB0089828A83E0225002E722BBFE02E322897F
:1008BB00828A83E49322BB010689828A83F02250C9
:1008CB0002F722BBFE01F322C5F0F8A3E028F0C526
:1008DB00F0F8E582158270021583E038F02275F08E
:1008EB0008758200EF2FFFEE33FECD33CDCC33CC2A
:1008FB00C58233C5829BED9AEC99E58298400CF545
:10090B0082EE9BFEED9AFDEC99FC0FD5F0D6E4CE72
:10091B00FBE4CDFAE4CCF9A88222B800C1B90059A6
:10092B00BA002DEC8BF084CFCECDFCE5F0CBF97873
:10093B0018EF2FFFEE33FEED33FDEC33FCEB33FB07
:10094B0010D703994004EB99FB0FD8E5E4F9FA2291
:10095B007818EF2FFFEE33FEED33FDEC33FCC9338C
:10096B00C910D7059BE99A4007EC9BFCE99AF90F54
:10097B00D8E0E4C9FAE4CCFB2275F010EF2FFFEEC0
:10098B0033FEED33FDCC33CCC833C810D7079BEC0B
:10099B009AE899400AED9BFDEC9AFCE899F80FD583
:1009AB00F0DAE4CDFBE4CCFAE4C8F922F8E0FBA3DF
:1009BB00A3E0F925F0F0E582158270021583E0FAC9
:1009CB0038F022EBF0A3EAF0A3E9F022E51824E6D5
:1009DB00F582E43402F583E00518229002E3300738
:1009EB00039002E6E475F0011209B70208A8200093
:1009FB00E97F2ED2008018EF540F2490D43440D4CA
:100A0B00FF30040BEF24BFB41A0050032461FFE541
:100A1B001960021519051CE51C7002051B30070E29
:100A2B009002E3E475F0011209B7EF0208C1023935
:100A3B00127403D2078003E4C207F5189002E31285
:100A4B0009CEE4F519F51BF51CE51960077F20129B
:100A5B000A1A80F5751AFFC201C200C202C203C294
:100A6B0005C206C2081209E6FF700D3007057F00AC
:100A7B00120A2BAF1CAE1B22B4255FC2D5C20412C7
:100A8B0009E6FF24D0B40A00501A75F00A78193021
:100A9B00D50508B6FF0106C6A426F620D5047002BC
:100AAB00D20380D924CFB41A00EF5004C2E5D2048C
:100ABB00020C2CD20180C6D20080C0D20280BCD2E4
:100ACB00D580BAD20580B47F20120A1A200207748F
:100ADB0001B5190040F11209D7FF120A1A020A5484
:100AEB00D208D20680951209D7FB1209D7FA120940
:100AFB00D7F94A4B700679FD7A0C7BFF20022EE565
:100B0B0019602A7E008E8275830012062760060EFE
:100B1B00EE651A70F0C2D5EBC0E0EAC0E0E9C0E0C8
:100B2B00EE120C73D0E0F9D0E0FAD0E0FB1208A87B
:100B3B00FF60AAEBC0E0EAC0E0E9C0E0120A1AD0FD
:100B4B00E02401F9D0E03400FAD0E0FBE51A0460B0
:100B5B00DCD51AD980877BFF7A0C796FD202809C07
:100B6B00791080027908C206C2088008D2D5790AAA
:100B7B008004790AC2D5E51A047002F51AE4FAFD6D
:100B8B00FEFF1209D7FC7B082001131209D7FD7B4E
:100B9B001030000A1209D7FE1209D7FF7B20EC3365
:100BAB0082D592D55013C3E43000069FFFE49EFE1E
:100BBB00E42001039DFDE49CFCE4CBF8C201EC7046
:100BCB000CCFCECDCCE824F8F870F38017C3EF33FD
:100BDB00FFEE33FEED33FDEC33FCEB33FB994002C0
:100BEB00FB0FD8E9EB300105F8D0E0C448B201C0E7
:100BFB00E00AEC4D4E4F78207B0070C2EAB51A002C
:100C0B0040BCC0E0120C75D0F0D0E0200104C4C091
:100C1B00E0C4B201C0F0120A03D0F0D5F0EB020A27
:100C2B00541206B50AF1530B6B580AC24C0ABE425A
:100C3B000B6F4F0B77440B77490AD7430B7D550B43
:100C4B0061460B61450B61470D1D500AC62D0ACA43
:100C5B002E0AED2B0ACE230AEB200D062A0A864814
:100C6B0000000AE53F3F3F00790AA2D5200314306C
:100C7B000509B910020404B9080104A2D520060223
:100C8B005001042002689202B519005034C0E07F75
:100C9B00203003197F30A20272067205500F120C1E
:100CAB00CCC202C206C205C2087F30800F300503DA
:100CBB00E9C0E0120A1A300503D0E0F9D0E0B5190B
:100CCB00CC3005177F30B9100C120A1A7F5830043C
:100CDB00077F788003B90803120A1A3002057F2DAB
:100CEB00020A1A7F202008F87F2B2006F32292029B
:100CFB0080CF286E756C6C2900D2011209D7300198
:100D0B00F8C201781930D50108F6020A862D504336
:100D1B0049581209D72403B405004001E4900D187B
:100D2B0093120A0B743A120A0BD203751904020BB5
:100D3B006BC20E1239491238A9123A2C1223FB122C
:100D4B00383F122803122EEFC2A4122085123A58F4
:100D5B00D2AF123A66900339EFF0123A6C90033A25
:100D6B00EFF0FB900339E0FD7F2E7E00121F4D123A
:100D7B00117B121D5E12389A123879123A47123AC9
:100D8B0010123A47D28C122DC753C17F43C110901A
:100D9B000297E030E00E7BFF7A337938120A4290EB
:100DAB0002978034900297E030E1117BFF7A337920
:100DBB0047120A42122D5B900297805E900296E0DA
:100DCB00A330E01A7BFF7A33795D120A427F01125E
:100DDB003A3E123372900296E054FEF080AB9002D2
:100DEB0096E0A330E13B7BFF7A337965120A42C26E
:100DFB0083123417123A239001DFE0FF1238CD90A3
:100E0B000336E020E011123A107BFF7A33796B1234
:100E1B000A42E4FF123A3E900296E054FDF0020DB6
:100E2B0094900297E030E519122E8D7E007F071209
:100E3B0030B750077F087E00123987900297020F58
:100E4B006B900297E030E35A7E007F2E12315E905A
:100E5B0002DCEEF0A3EFF07E007F071237FD90026D
:100E6B0071E0FEA3E0FF9002DCE0FCA3E0FD1200CA
:100E7B0046900320E0B40225900324E0FBA3E0FAA4
:100E8B00A3E04A4B6017900324A3A3E0F91206DBFF
:100E9B009003207403F07F107E0012398790029725
:100EAB008064900297E030E2081221B7900297809D
:100EBB0032900297E030E40812189A9002978069FA
:100ECB00900297E030E70E1225931238B81229D70B
:100EDB009002978074900296E0A330E20D123737A0
:100EEB00900296E054FBF0020D94900296E0A33032
:100EFB00E31B7E027F92123A1A7E027FC0123A1ACD
:100F0B0012344B900296E054F7F0020D9490029637
:100F1B00E030E41CE49001DFF0900336E054FDF088
:100F2B004401F01239BE900296E054EFF0020D949A
:100F3B00900296E030E719900336E054FEF0E4FFA0
:100F4B00123A3E123A10900296E0547FF0020D9442
:100F5B00900296E0A330E50FD2A4123A509002967D
:100F6B00E054DFF0020D94900296E020E603020DB0
:100F7B0094C2A4900296E054BFF0020D949002E547
:100F8B00EEF0A3EFF09001D0E0FEA3E0FF7D5A124C
:100F9B00328A9001D0E0FEA3E0FF7DA512328A9049
:100FAB0001D0E0FEA3E0FF7D1F12328A9001D0E05A
:100FBB00FEA3E0FF7D8212328A9002E5E0FD9001F4
:100FCB00D0E0FEA3E0FF12328A9001D0E0FEA3E056
:100FDB00FF9002E5A3E0FD12328A9001D0E0FEA360
:100FEB00E0FFE4FD12328A9001D0E0FEA3E0FF9017
:100FFB00026DE0FD12328A9001D0E0FEA3E0FFE427
:10100B00FD12328A9001D0E0FEA3E0FF9001E3E0F5
:10101B00FD12328A9001D0E0FEA3E0FFE4FD123214
:10102B008A9001D0E0FEA3E0FF90026BE0FD12324C
:10103B008A9001D0E0FEA3E0FFE4FD12328A90011A
:10104B00D0E0FEA3E0FF9001D7E0FD12328A9001C1
:10105B00D0E0FEA3E0FFE4FD12328A9001D0E0FE67
:10106B00A3E0FF90026EE0FD12328A9001D0E0FE09
:10107B00A3E0FFE4FD12328A9001D0E0FEA3E0FF73
:10108B00900264E0FD12328A9001D0E0FEA3E0FFF3
:10109B00E4FD12328A9001D0E0FEA3E0FF9001E163
:1010AB00E0FD12328A9001D0E0FEA3E0FFE4FD12D6
:1010BB00328A9001D0E0FEA3E0FF9001E2E0FD1246
:1010CB00328A9001D0E0FEA3E0FFE4FD12328A9059
:1010DB0001D0E0FEA3E0FF90026FE0FD12328A9098
:1010EB0001D0E0FEA3E0FFE4FD12328A9001D0E0D4
:1010FB00FEA3E0FF900268E0FD12328A9001D0E07F
:10110B00FEA3E0FFE4FD12328A9001D0E0FEA3E0E3
:10111B00FF900266E0FD12328A9001D0E0FEA3E060
:10112B00FFE4FD12328A9001D0E0FEA3E0FF9002B3
:10113B0073E0FD12328A9001D0E0FEA3E0FFE4FDE4
:10114B0012328A9001D0E0FEA3E0FF900267E0FD2F
:10115B0012328A9001D0E0FEA3E0FFE4FD12328A46
:10116B009001D0E0FEA3E0FF900289E0FD02328AFD
:10117B007F007E421222C6EFF460030212197F0138
:10118B007E401222C67E00EF7810C333CE33CED80A
:10119B00F9FDAC067F007E401222C67E00EF781868
:1011AB00C333CE33CED8F9FFEE4CFCEF4DFD7F02AF
:1011BB007E401222C6EF4CFC7F037E401222C6EC0F
:1011CB00FEED4FFFE4FCFD9003301206787F057EA9
:1011DB00401222C67E00EF7810C333CE33CED8F93F
:1011EB00FDAC067F047E401222C67E00EF7818C34A
:1011FB0033CE33CED8F9FFEE4CFCEF4DFD7F067EA0
:10120B00401222C6EF4CFC7F077E400212A67F02E3
:10121B007E421222C67E00EF7810C333CE33CED877
:10122B00F9FDAC067F017E421222C67E00EF7818D4
:10123B00C333CE33CED8F9FFEE4CFCEF4DFD7F031D
:10124B007E421222C6EF4CFC7F047E421222C6EC79
:10125B00FEED4FFFE4FCFD9003301206787F067E17
:10126B00421222C67E00EF7810C333CE33CED8F9AC
:10127B00FDAC067F057E421222C67E00EF7818C3B6
:10128B0033CE33CED8F9FFEE4CFCEF4DFD7F077E0E
:10129B00421222C6EF4CFC7F087E421222C6ECFEA5
:1012AB00ED4FFFE4FCFD9003281206787F097E408A
:1012BB001222C67E00EF7810C333CE33CED8F9FDA1
:1012CB00AC067F087E401222C67E00EF7818C3332F
:1012DB00CE33CED8F9FFEE4CFCEF4DFD7F0A7E40AE
:1012EB001222C6EF4CFC7F0B7E401222C6ECFEEDA9
:1012FB004FFFE4FCFD90032C020678C0E0C0F0C069
:10130B0083C082C0D075D008900297E04420F09043
:10131B0002C9E014F0700D900297E04480F0900247
:10132B00C97464F0A2B3E433FF9002BAE06F605863
:10133B0030B314300E119002D2E4F0A3F09002B34C
:10134B00F0A3F0D20B8041C20B9002B3E4F0A3F0F8
:10135B0090033BE0FDB40410D20A900298E4F0A392
:10136B00F0900336E054FEF09001E0E06008EDB43D
:10137B000306C20C8002C20C90033BE0B40609D2F8
:10138B00099002ACE4F0A3F0300B729002B4E004CD
:10139B00F070069002B3E004F09001D2E075F00A11
:1013AB00A4FF9002B3E0FCA3E0FDB50F15ECB5F084
:1013BB001190033BE0B4020A900296E04408F0A3BC
:1013CB00E0F09001D8E075F064A4B50D1AECB5F01F
:1013DB0016C20C9002D2E4F0A3F0123417900296CE
:1013EB00E04410F0A3E0F0200C030214789002D339
:1013FB00E004F070069002D2E004F08070300A3AFC
:10140B00900299E004F07006900298E004F09001CD
:10141B00D3E075F064A4FFC3900299E09F9002980B
:10142B00E095F04015900336E054FEF0900298E4FE
:10143B00F0A3F0C20AD20D12347D3009309002AD08
:10144B00E004F070069002ACE004F0C39002ADE053
:10145B0094199002ACE094004013900296E044047F
:10146B00F0A3E0F0C2099002ACE4F0A3F0A2B3E465
:10147B00339002BAF0D0D0D082D083D0F0D0E0320B
:10148B009002E5EBF0A3EAF0A3E9F09002E5E0FBB4
:10149B00A3E0FAA3E0F9900006120627FFC4540F4D
:1014AB0075F00AA4FEEF540F2EFF900007120627CB
:1014BB00FEC4540F75F00AA4FDEE540F2DFE9000E0
:1014CB0008120627FDC4540F75F00AA4FCED540F47
:1014DB002CFD9002B9E0D39F400280229002B9E02C
:1014EB006F70249002B2E0D39E40028011AF069041
:1014FB0002B2E0B5070F9002C4E0D39D4009E4901F
:10150B00029EF08008800090029E7401F09001CE44
:10151B00E0FEA3E0FF9002E5E0FBA3E0FAA3E0F915
:10152B00900006120627FD12328A9001CEE0FEA330
:10153B00E0FF9002E5E0FBA3E0FAA3E0F9900007DF
:10154B00120627FD12328A9001CEE0FEA3E0FF9037
:10155B0002E5E0FBA3E0FAA3E0F9900008120627EE
:10156B00FD12328A9001CEE0FEA3E0FF9002B9E0BB
:10157B00FD12328A9001CEE0FEA3E0FF9002B2E0B2
:10158B00FD12328A9001CEE0FEA3E0FF9002C4E090
:10159B00FD12328A9001CEE0FEA3E0FF90029EE0A6
:1015AB00FD02328A4202960000C10DC10CC10AC174
:1015BB0009C10E41029E004102AB004102B900413C
:1015CB0002B2004102C400C10B4102BA004202AC9C
:1015DB00000042029800004202D200004202B30017
:1015EB00004102C964C10F410327004103100041B0
:1015FB0003390041033A00410336004103340041F3
:10160B00033700410335004103380044028A0000D0
:10161B00000044028E000000004401D900000000CD
:10162B004101DDFF42027101E44101DF0041026F24
:10163B000A410268144101D7144102640641026E4B
:10164B000041026D054101E32341026B014101E1C0
:10165B00324101E2014102661441027364410267A7
:10166B0002410289014101D80A4101D314410265AB
:10167B0014410270064101D6004101D50541026CAF
:10168B00234101D4014102693241026A01410275D1
:10169B00144101DE644101D2024101E001C1104459
:1016AB000330000000004403280000000044032C1A
:1016BB000000000041033C00C191009001D0E0FE0E
:1016CB00A3E0FF7D5A12328A9001D0E0FEA3E0FF27
:1016DB007DA512328A9001D0E0FEA3E0FF7D0F12B0
:1016EB00328A9001D0E0FEA3E0FF7D8212328A9015
:1016FB0001D0E0FEA3E0FFE4FD12328A9001D0E0BE
:10170B00FEA3E0FF7D8612328A9001D0E0FEA3E0BB
:10171B00FFE4FD12328A9001D0E0FEA3E0FFE4FD6E
:10172B0012328A9001D0E0FEA3E0FFE4FD12328A70
:10173B009001D0E0FEA3E0FFE4FD12328A9001D0CD
:10174B00E0FEA3E0FFE4FD12328A9001D0E0FEA39D
:10175B00E0FFE4FD12328A9001D0E0FEA3E0FFE44B
:10176B00FD12328A9001D0E0FEA3E0FFE4FD1232BD
:10177B008A9001D0E0FEA3E0FFE4FD12328A9001D3
:10178B00D0E0FEA3E0FFE4FD12328A9001D0E0FE30
:10179B00A3E0FFE4FD12328A9001D0E0FEA3E0FF4C
:1017AB00E4FD02328A9001D0E0FEA3E0FF7D5A12E5
:1017BB00328A9001D0E0FEA3E0FF7DA512328A9021
:1017CB0001D0E0FEA3E0FF7D0F12328A9001D0E042
:1017DB00FEA3E0FF7D8212328A9001D0E0FEA3E0EF
:1017EB00FFE4FD12328A9001D0E0FEA3E0FF7D05FD
:1017FB0012328A9001D0E0FEA3E0FFE4FD12328AA0
:10180B009001D0E0FEA3E0FFE4FD12328A9001D0FC
:10181B00E0FEA3E0FFE4FD12328A9001D0E0FEA3CC
:10182B00E0FFE4FD12328A9001D0E0FEA3E0FFE47A
:10183B00FD12328A9001D0E0FEA3E0FFE4FD1232EC
:10184B008A9001D0E0FEA3E0FFE4FD12328A900102
:10185B00D0E0FEA3E0FFE4FD12328A9001D0E0FE5F
:10186B00A3E0FFE4FD12328A9001D0E0FEA3E0FF7B
:10187B00E4FD12328A9001D0E0FEA3E0FFE4FD12FA
:10188B00328A9001D0E0FEA3E0FFE4FD02328AE44D
:10189B009002DEF09002DEE0FFC3940240030219D7
:1018AB0077EF75F009A42415F582E43403AF82FEBB
:1018BB009002DFF0A3EFF0F5828E83A3A3E0FF701D
:1018CB000302196EEF6402700302196EEF6401706C
:1018DB004E9002DFE0FEA3E0FFF5828E83A3A3A36D
:1018EB00E0FBA3E0FAA3E0F9EA494B60228F828E7A
:1018FB0083A3A3A3A3E0FAA3E0F91206DB9002DF14
:10190B00E0FEA3E0F5828E83A3A37402F080109017
:10191B0002DFE0FEA3E0F5828E83A3A37403F090B5
:10192B0002DFE0FEA3E0F5828E83A3A3E0640370E5
:10193B00329002DFA3E0FFF5828E83A3A3E4F08F46
:10194B00828E83A3F0F98F828E83A3A3A3C9F0A306
:10195B00F0A3E9F0EF2406F582E43EF583E4F0A36F
:10196B00F0A3F09002DEE004F002189F22AC07E433
:10197B009002DFF0A3F0FBAF041234D59002E0E04D
:10198B002FF09002DFE03EF00BEBB420EA9002DF89
:10199B00E0FEA3E07805CEC313CE13D8F9F0EE909A
:1019AB0002DFF0E0FEA3E0FBAA06E4F9F8FF7E40BD
:1019BB007D9CFC12323EEF24F0FBEE34D8FAED3472
:1019CB00FFF9EC34FFF87F007E2D7D317C01123264
:1019DB003EE4FBC3903A757401939FE4939E5005CC
:1019EB00E4FEFF804AD3903B297401939FE4939EBE
:1019FB0040067E007F5A8037EB25E02475F582E4A4
:101A0B00343AF583C37401939FE4939E401CEB25FA
:101A1B00E02477F582E4343AF583C37401939FE4B1
:101A2B00939E5006EBFF7E0080050BEBB45BA4C3CB
:101A3B00EF941EEE94005006C3741E9F8003EF2498
:101A4B00E29002DEF09002DEE0FF22121BF8900221
:101A5B008EE0FCA3E0FDA3E0FEA3E0FFEC4D4E4FB8
:101A6B00701A9001D9E0FCA3E0FDA3E0FEA3E0FF18
:101A7B00EC4D4E4F6006900328021B0890028EE03F
:101A8B00FCA3E0FDA3E0FEA3E0FFEC4D4E4F60276F
:101A9B009001D9E0FCA3E0FDA3E0FEA3E0FFEC4D39
:101AAB004E4F701390028EE0FCA3E0FDA3E0FEA36B
:101ABB00E0FF900330804690028EE0FCA3E0FDA394
:101ACB00E0FEA3E0FFEC4D4E4F60389001D9E0FCF7
:101ADB00A3E0FDA3E0FEA3E0FFEC4D4E4F6024908E
:101AEB0001D9A3A3A3E090032812067890028EE0FD
:101AFB00FCA3E0FDA3E0FEA3E0FF90033012067809
:101B0B00121B3190028E120684000000009001D946
:101B1B0012068400000000E490033CF07E027FAECE
:101B2B00123A1A0239037E42123653900330E0FC0C
:101B3B00A3E0FDA3E0FEA3E0FF7818120665AD0756
:101B4B007F017E4212365A900330E0FCA3E0FDA3E6
:101B5B00E0FEA3E0FF7810120665AD077F027E4220
:101B6B0012365A900330E0FCA3E0FDA3E0FEA3E0A5
:101B7B00FF7808120665AD077F037E4212365A9036
:101B8B000330A3A3A3E0FD7F0412365A900328E091
:101B9B00FCA3E0FDA3E0FEA3E0FF7818120665AD01
:101BAB00077F057E4212365A900328E0FCA3E0FD26
:101BBB00A3E0FEA3E0FF7810120665AD077F067E5B
:101BCB004212365A900328E0FCA3E0FDA3E0FEA3EB
:101BDB00E0FF7808120665AD077F077E4212365A82
:101BEB00900328A3A3A3E0FD7F0802365A9001D0EF
:101BFB00E0FEA3E0FF7D5A12328A9001D0E0FEA3F3
:101C0B00E0FF7DA512328A9001D0E0FEA3E0FF7DBC
:101C1B000B12328A9001D0E0FEA3E0FF7D821232DC
:101C2B008A9001D0E0FEA3E0FFE4FD12328A90011E
:101C3B00D0E0FEA3E0FF7D1412328A9001D0E0FECB
:101C4B00A3E0FFE4FD12328A9001D0E0FEA3E0FF97
:101C5B00E4FD12328A9001D0E0FEA3E0FFE4FD1216
:101C6B00328A9001D0E0FEA3E0FFE4FD12328A90AD
:101C7B0001D0E0FEA3E0FFE4FD12328A9001D0E038
:101C8B00FEA3E0FFE4FD12328A9001D0E0FEA3E058
:101C9B00FFE4FD12328A9001D0E0FEA3E0FFE4FDE9
:101CAB0002328A9002DEEFF0A3EDF0A3EBF090018D
:101CBB00D0E0FEA3E0FF7D5A12328A9001D0E0FE05
:101CCB00A3E0FF7DA512328A9001D0E0FEA3E0FFD6
:101CDB007D0912328A9001D0E0FEA3E0FF7D8212D3
:101CEB00328A9001D0E0FEA3E0FFE4FD12328A902D
:101CFB0001D0E0FEA3E0FF7DB012328A9001D0E06C
:101D0B00FEA3E0FFE4FD12328A9001D0E0FEA3E0D7
:101D1B00FF9002DEE0FD12328A9001D0E0FEA3E0DC
:101D2B00FFE4FD12328A9001D0E0FEA3E0FF9002A7
:101D3B00DFE0FD12328A9001D0E0FEA3E0FFE4FD6C
:101D4B0012328A9001D0E0FEA3E0FF9002E0E0FDAA
:101D5B0002328A7F007E441222C6EFF4700EFF120D
:101D6B00224C900267EFF07F0D021DF97F027E443B
:101D7B001222C690026FEFF07F031222C690026808
:101D8B00EFF07F041222C69001D7EFF07F051222ED
:101D9B00C6900264EFF07F061222C690026EEFF03F
:101DAB007F071222C690026DEFF07F081222C690B9
:101DBB0001E3EFF07F091222C690026BEFF07F0A6E
:101DCB001222C69001E1EFF07F0B1222C69001E2C6
:101DDB001222C2900266EFF07F0D1222C6900273A0
:101DEB00EFF07F0E1222C6900267EFF07F0F1222E8
:101DFB00C6900289EFF01228EE227F007E42123845
:101E0B002A0F7E401222C67E00EF7810C333CE33EA
:101E1B00CED8F9FDAC067F007E401222C67E00EFC5
:101E2B007818C333CE33CED8F9FFEE4CFCEF4DFD13
:101E3B007F027E401222C6EF4CFC7F037E401222B3
:101E4B00C6ECFEED4FFFE4FCFD9003301206787FED
:101E5B00057E401222C67E00EF7810C333CE33CE00
:101E6B00D8F9FDAC067F047E401222C67E00EF78C7
:101E7B0018C333CE33CED8F9FFEE4CFCEF4DFD7FBC
:101E8B00067E401222C6EF4CFC7F077E401222C614
:101E9B00ECFEED4FFFE4FCFD900328020678900268
:101EAB00E5EBF0A3EAF0A3E9F07F007E3E12365596
:101EBB007E007F009002E5E0FBA3E0FAA3E0F9903F
:101ECB000008120627FD12328A7E007F009002E581
:101EDB00E0FBA3E0FAA3E0F990000A120627FD123B
:101EEB00328A7E007F009002E5E0FBA3E0FAA3E0DC
:101EFB00F990000C120627FD12328A9002E5E0FBE6
:101F0B00A3E0FAA3E0F9900008120627FD7F027EFA
:101F1B003E12365A9002E5E0FBA3E0FAA3E0F990FB
:101F2B00000A120627FD7F0312365A9002E5E0FBEA
:101F3B00A3E0FAA3E0F990000C120627FD7F040240
:101F4B00365A9002DEEEF0A3EFF0A3EDF0A3EBF028
:101F5B009001D0E0FEA3E0FF7D5A12328A9001D0AF
:101F6B00E0FEA3E0FF7DA512328A9001D0E0FEA334
:101F7B00E0FF7D0712328A9001D0E0FEA3E0FF7DE7
:101F8B008212328A9002DEE0FD9001D0E0FEA3E0E7
:101F9B00FF12328A9001D0E0FEA3E0FF9002DEA395
:101FAB00E0FD12328A9001D0E0FEA3E0FFE4FD12C7
:101FBB00328A9001D0E0FEA3E0FF9002E0E0FD1238
:101FCB00328A9001D0E0FEA3E0FFE4FD12328A904A
:101FDB0001D0E0FEA3E0FF9002E1E0FD02328A9027
:101FEB00000812062790026DF090000A1206279047
:101FFB0001E3F090000C12062790026BF090000E9C
:10200B001206279001D7F090001012062790026E4F
:10201B00F0900012120627900264F0900014120642
:10202B00279001E1F09000161206279001E2F09044
:10203B00001812062790026FF090001A12062790D4
:10204B000268F090001C120627FF900266F09000C9
:10205B001E120627FE900273F090002012062790A6
:10206B000267F0900022120627900289F090027509
:10207B00EFF09001DEEEF0D210227E027FD87C379B
:10208B007D1E1238537E027F927C347D4B12385367
:10209B007E027F9F7C247D841238537E027FC07C1E
:1020AB00397D201238537E027FBB7C327DFD123886
:1020BB00537E027F9A7C367D731238537E027FCE1D
:1020CB007C397D631238537E027FCA7C397DD412F2
:1020DB0038537E027FA77C397DDE1238537E027F18
:1020EB00D47C397DE81238537E027FC57C397DF272
:1020FB001238537E027FB57C397DFC1238537E0239
:10210B007FA37C377DB41238537E027FAE7C3A7D41
:10211B00720238539002E1EEF0A3EFF04E7003021F
:10212B0021B69002E1E0FEA3E0F5828E83E0C3943A
:10213B000250787BFF7A2A79F69002E1E0FEA3E069
:10214B00F5828E83A3E09002E6F0120A429002E140
:10215B00E0FEA3E0FFF5828E83E025E02411F582FB
:10216B00E43403F583E4F0A3F08F828E83A3A3748E
:10217B00FFF09002E1E0FEA3E0FFF5828E83A3A3C4
:10218B00A3E4F0EF240AF582E43EF583E0FBA3E041
:10219B00FAA3E0F9EA494B6012EF240AF582E43E18
:1021AB00F583A3E0FAA3E0F91206DB22E49002DE4A
:1021BB00F09002DEE0FFC39401400302224B740156
:1021CB007E00A807088005C333CE33CED8F9FF9025
:1021DB000310E0FDEF5D605F9002DEE025E0240E72
:1021EB00F582E43403F583E0FFA3E09002DFCFF048
:1021FB00A3EFF09002DFE0FCA3E0FDF5828C83A35C
:10220B00A3E0FF9002E1F0ED2410F582E43CF583AE
:10221B00A3E0FAA3E0F5828A831206DF900310E0B5
:10222B00FF9002DEE0FE7401A806088002C333D8DB
:10223B00FCF45F900310F09002DEE004F00221BC8E
:10224B00227E461222C690026FEFF07F011222C649
:10225B00900268EFF07F021222C69001D7EFF07F59
:10226B00031222C6900264EFF07F041222C6900282
:10227B006EEFF07F051222C690026DEFF07F061213
:10228B0022C69001E3EFF07F071222C690026BEF9C
:10229B00F07F081222C69001E1EFF07F091222C6EF
:1022AB009001E2EFF07F0A1222C6900266EFF07FF8
:1022BB000B1222C6900273EFF07F0C75C78075C5A9
:1022CB00018FC4EEF5C375C65A75C6A500AFC21211
:1022DB00392E227E4412365390026FE0FD7F02129C
:1022EB00365A900268E0FD7F0312365A9001D7E010
:1022FB00FD7F0412365A900264E0FD7F0512365AB8
:10230B0090026EE0FD7F0612365A90026DE0FD7F63
:10231B000712365A9001E3E0FD7F0812365A9002FD
:10232B006BE0FD7F0912365A9001E1E0FD7F0A1246
:10233B00365A9001E2E0FD7F0B12365A900266E0AE
:10234B00FD7F0C12365A900273E0FD7F0D12365A48
:10235B00900267E0FD7F0E12365A900289E0FD7FF6
:10236B000F02365A787FE4F6D8FD7581220223B628
:10237B00020D3CE493A3F8E493A34003F68001F22F
:10238B0008DFF48029E493A3F85407240CC8C33363
:10239B00C4540F4420C8834004F456800146F6DF32
:1023AB00E4800B01020408102040809015AFE47EFE
:1023BB00019360BCA3FF543F30E509541FFEE49327
:1023CB00A360010ECF54C025E060A840B8E493A3EE
:1023DB00FAE493A3F8E493A3C8C582C8CAC583CA19
:1023EB00F0A3C8C582C8CAC583CADFE9DEE780BED1
:1023FB00E598543F4440F598438E0153A23FD2AC2D
:10240B00439810E4900000F0FE7F20FD7B017A00E2
:10241B0079AE12087C7E007F207D007B017A0079EB
:10242B000E12087C7E007F001233AA9001CEEEF0D4
:10243B00A3EFF0539A7F53BAFE539A7F439A1043FC
:10244B00AF01439A029000077401F0FE7F007D00FC
:10245B00FB7A0079CE12087C7E007F807D007B01A9
:10246B007A00792E12087C7E007F071233AA900126
:10247B00D0EEF0A3EFF00236E97BFF7A2D795712FD
:10248B000A429001E0E06050900269E075F00AA406
:10249B00FFC39002D3E09F9002D2E095F0502490BE
:1024AB0001DFE004F090026AE0FE9001DFE0FDC383
:1024BB009E900336E040054402F0800354FDF0AFDC
:1024CB00058010900336E054FDF09001DFE0601AB8
:1024DB00E4F0FF1238CD80129001DFE07005F0FFC1
:1024EB001238CD900336E054FDF0E49002D2F0A305
:1024FB00F0C20C30B30790033B7406F0221237374F
:10250B0022C0E0C083C082C0D075D000C006C00717
:10251B00E59A30E02E90000DE0702590000BE0C3A3
:10252B0094804002E4F090000BE0FF04F0742E2F37
:10253B00F582E43400F583E59BF090000C7432F0E7
:10254B00539AFEE59A30E133539AFD900009E0FF70
:10255B00900008E0FE6F601E74CE2EF582E434000E
:10256B00F583E0F59B900008E004F0C37480948140
:10257B004009E4F0800590000AE4F0D007D006D0C3
:10258B00D0D082D083D0E032123A66900339EFF08C
:10259B00123A6C90033AEFF0900339E0FD90033759
:1025AB00E0B5050C90033AE0FF900335E06F600C4B
:1025BB0090033AE0FB7F2E7E00121F4D900339E013
:1025CB00900337F090033AE0FF900335F0900273DD
:1025DB00E0FEEFC39E400B900336E04410F044083E
:1025EB00F022900266E0FF90033AE0FDC39F400F9C
:1025FB00ED9E500B900336E04408F054EFF0229020
:10260B000336E054EFF054F7F0229001D0E0FEA334
:10261B00E0FF7D5A12328A9001D0E0FEA3E0FF7DED
:10262B00A512328A9001D0E0FEA3E0FF7D071232A3
:10263B008A9001D0E0FEA3E0FF7D8212328A9001E6
:10264B00D0E0FEA3E0FFE4FD12328A9001D0E0FE61
:10265B00A3E0FF7D1012328A9001D0E0FEA3E0FFD1
:10266B00E4FD12328A9001D0E0FEA3E0FFE4FD12FC
:10267B00328A9001D0E0FEA3E0FFE4FD12328A9093
:10268B0001D0E0FEA3E0FFE4FD02328A9002E5EE0A
:10269B00F0A3EFF0A3EDF09001D0E0FEA3E0FF7DFF
:1026AB005A12328A9001D0E0FEA3E0FF7DA51232D0
:1026BB008A9001D0E0FEA3E0FF7D0512328A9001E3
:1026CB00D0E0FEA3E0FF7D8212328A9002E5E0FDAE
:1026DB009001D0E0FEA3E0FF12328A9001D0E0FE21
:1026EB00A3E0FF9002E5A3E0FD12328A9001D0E057
:1026FB00FEA3E0FFE4FD12328A9001D0E0FEA3E0DE
:10270B00FF9002E7E0FD02328A122615900330E0BB
:10271B00FCA3E0FDA3E0FEA3E0FF90028AE0F8A398
:10272B00E0F9A3E0FAA3E0FBC3120654700990038F
:10273B003C04F07F05802A900328E0FCA3E0FDA376
:10274B00E0FEA3E0FF90028AE0F8A3E0F9A3E0FA31
:10275B00A3E0FBC3120654701890033C7402F07F85
:10276B0010122E2A7E027FAEE4FB7DB41232C080A3
:10277B0005E490033CF090028A12068400000000EE
:10278B0022C0E0C083C082C0D075D01030982DC25B
:10279B0098900006E07025900004E0C3942040025E
:1027AB00E4F0900004E0FF04F0740E2FF582E434A3
:1027BB0000F583E599F09000057419F0309930C25B
:1027CB0099900002E0FF900001E0FE6F601C74AE78
:1027DB002EF582E43400F583E0F599900001E004D6
:1027EB00F0C394204009E4F08005900003E4F0D09E
:1027FB00D0D082D083D0E032E4FFEF25E02411F576
:10280B0082E43403F583E4F0A3F00FEFB402EBE4BE
:10281B00FFEF75F009A42415F582E43403F583EF7B
:10282B00F075F009A42416F582E43403F583E4F083
:10283B00EF75F009A42417F582E43403F583E4F073
:10284B00EF75F009A42418F582E43403F583E4F062
:10285B00A3F0A3F0EF75F009A4241BF582E4340375
:10286B00F583E4F0A3F0A3F00FEFB402A4229002DF
:10287B00DEEEF0A3EFF0F5828E83E0FF7011900295
:10288B00DEE0FCA3E0F5828C83A3E07002C3229010
:10289B0002DEE0FCA3E0F5828C83A3E014F0704130
:1028AB00EF70279002DEE0FEA3E0FFF5828E83A39C
:1028BB00A3E0FCA3E04C60108F828E83A3A3E0FE09
:1028CB00A3E0AA06F91206DBD3229002DEE0FEA3F8
:1028DB00E0FFF5828E83E014F08F828E83A3746405
:1028EB00F0C32290026FE09001D8F0900268E09064
:1028FB0001D3F09001D7E0FF900265F0900264E005
:10290B00900270F090026EE0FEEFD39E40079001B4
:10291B00D7E09E8001E49001D6F090026DE090012B
:10292B00D5F09001E3E090026CF090026BE0900127
:10293B00D4F09001E1E0900269F09001E2E09002A6
:10294B006AF0900267E09001D2F0900289E090016A
:10295B00E0F07003123956229002E5EEF0A3EFF08F
:10296B009001D0E0FEA3E0FF7D5A12328A9001D095
:10297B00E0FEA3E0FF7DA512328A9001D0E0FEA31A
:10298B00E0FF7D0512328A9001D0E0FEA3E0FF7DCF
:10299B008212328A9001D0E0FEA3E0FFE4FD1232F6
:1029AB008A9001D0E0FEA3E0FF9002E5A3E0FD12C8
:1029BB00328A9001D0E0FEA3E0FFE4FD12328A9050
:1029CB0001D0E0FEA3E0FFE4FD02328A900336E083
:1029DB00FE900338E06EFDFFEE5F900334F0ED6088
:1029EB0045540E6008900336E0FF122BA09003367F
:1029FB00E06029900334E06003123110900336E05D
:102A0B00FF5415600A900296E04402F0A3E0F0EF49
:102A1B00541E6012900296E044208006900296E0CD
:102A2B004440F0A3E0F0900336E0FF541E700A9090
:102A3B000296E04440F0A3E0F0900338EFF02290D0
:102A4B0001DDE0FF6405601DEF64076018EF6409AA
:102A5B006013EF6416600EEF64106009EF64116091
:102A6B0004EFB41D097F407E00120F88803A90015D
:102A7B00DDE0B4121990028E120684000000009063
:102A8B0001D912068400000000121BF8801A900175
:102A9B00DDE0FF64036004EFB40C0D90028A1206B4
:102AAB0084000000001226151239039001DD74FF1B
:102ABB00F022776F726B666C6F77205B2562755DAA
:102ACB00206F6E20434F4D2562750D0A004C6F61D0
:102ADB0064696E6720776F726B666C6F77205B250E
:102AEB0062755D202E2E2E200D0A0046696E6973CD
:102AFB0068696E6720776F726B666C6F77205B25EA
:102B0B0062755D202E2E2E200D0A00776F726B667C
:102B1B006C6F77205B2562755D2074696D656F75D1
:102B2B00740D0A00122615900330E0FCA3E0FDA300
:102B3B00E0FEA3E0FF90028AE0F8A3E0F9A3E0FA3D
:102B4B00A3E0FBC3120654700990033C04F07F1200
:102B5B00802A90032CE0FCA3E0FDA3E0FEA3E0FFA2
:102B6B0090028AE0F8A3E0F9A3E0FAA3E0FBC3121A
:102B7B000654701690033C7403F07F1E122E2A7EAF
:102B8B00027FAEE4FB7DB41232C090028A1206843F
:102B9B0000000000229002DEEFF09001D0E0FEA3D7
:102BAB00E0FF7D5A12328A9001D0E0FEA3E0FF7D58
:102BBB00A512328A9001D0E0FEA3E0FF7D05123210
:102BCB008A9001D0E0FEA3E0FF7D8212328A900151
:102BDB00D0E0FEA3E0FFE4FD12328A9001D0E0FECC
:102BEB00A3E0FF7D0112328A9001D0E0FEA3E0FF4B
:102BFB00E4FD12328A9001D0E0FEA3E0FF9002DEEA
:102C0B00E0FD02328A9002DEEFF09001D0E0FEA3ED
:102C1B00E0FF7D5A12328A9001D0E0FEA3E0FF7DE7
:102C2B00A512328A9001D0E0FEA3E0FF7D0512329F
:102C3B008A9001D0E0FEA3E0FF7D8212328A9001E0
:102C4B00D0E0FEA3E0FFE4FD12328A9001D0E0FE5B
:102C5B00A3E0FF7D3012328A9001D0E0FEA3E0FFAB
:102C6B00E4FD12328A9001D0E0FEA3E0FF9002DE79
:102C7B00E0FD02328AEFC394025068EF75F009A4AD
:102C8B002415F582E43403AF82FE9002ECF0A3EF3F
:102C9B00F0F5828E83A3A3E070499002ECE0FEA3D3
:102CAB00E0FFF5828E83A3A37401F08F828E83A342
:102CBB00F08F828E83A3A3A3EBF0A3EAF0A3E9F03A
:102CCB009002E9E0FBA3E0FAA3E0F9EF2406F5821A
:102CDB00E43EF583EBF0A3EAF0A3E9F07F107E006E
:102CEB001239872273707261795F776173682C2058
:102CFB00506F570D0A00506F57310D0A004645456E
:102D0B00445F494E544552434550542C20506F5705
:102D1B000D0A00464545445F53554354494F4E2CCD
:102D2B0020506F570D0A00464545445F44495343B5
:102D3B0048415247450D0A0064656E676461690D31
:102D4B000A006775616E676A690D0A00670D0A00F4
:102D5B00E49002DEF09002DEE0FFC39401505C745D
:102D6B00017E00A807088005C333CE33CED8F9FF08
:102D7B00900327E0FDEF5D603A9002DEE025E02452
:102D8B000EF582E43403F583E0FEA3E0FF9002DF4F
:102D9B00EEF0A3EFF012211F900327E0FF9002DE6D
:102DAB00E0FE7401A806088002C333D8FCF45F90E0
:102DBB000327F09002DEE004F0809A227F007E3E33
:102DCB001222C6BFFF16E4FF123A35E490029EF0C2
:102DDB007B017D017F10121CAE0239037F01123A79
:102DEB00357F027E3E1222C69002B9EFF07F0312AE
:102DFB0022C69002B2EFF07F041222C69002C4EFFB
:102E0B00F09002B9E0FF9002B2E0FD9002C4E0FB4B
:102E1B00121CAEE490029EF01238E5123110229093
:102E2B0002E5EFF09001D0E0FEA3E0FF7D5A1232F5
:102E3B008A9001D0E0FEA3E0FF7DA512328A9001BB
:102E4B00D0E0FEA3E0FF7D0412328A9001D0E0FEB9
:102E5B00A3E0FF7D8012328A9001D0E0FEA3E0FF59
:102E6B007D0312328A9001D0E0FEA3E0FFE4FD1255
:102E7B00328A9001D0E0FEA3E0FF9002E5E0FD0274
:102E8B00328A7E027FD81228797E027F9F122879A0
:102E9B007E027F921228797E027FC01228797E02F1
:102EAB007FBB1228797E027F9A1228797E027FCE11
:102EBB001228797E027FCA1228797E027FA71228F8
:102ECB00797E027FD41228797E027FC51228797E03
:102EDB00027FB51228797E027FA31228797E027FAA
:102EEB00AE0228799002767401F0E4A3F0A374FF8C
:102EFB00F0E4A3F0A374FFF0A37437F0A374CDF048
:102F0B00A374FFF0A37438F0A374D6F09002867408
:102F1B00FFF0A3743AF0A37406F090028074FFF0F4
:102F2B00A3743AF0A3745FF0A3E4F0A3F0A3F090C2
:102F3B00027474FFF090030E7402F0A37476F02207
:102F4B009001D0E0FEA3E0FF7D5A12328A9001D0AF
:102F5B00E0FEA3E0FF7DA512328A9001D0E0FEA334
:102F6B00E0FF7D0412328A9001D0E0FEA3E0FF7DEA
:102F7B008312328A9001D0E0FEA3E0FFE4FD12320F
:102F8B008A9001D0E0FEA3E0FF7D1012328A9001FF
:102F9B00D0E0FEA3E0FF7D0202328A9001D0E0FE7A
:102FAB00A3E0FF7D5A12328A9001D0E0FEA3E0FF2E
:102FBB007DA512328A9001D0E0FEA3E0FF7D0412C2
:102FCB00328A9001D0E0FEA3E0FF7D8312328A901B
:102FDB0001D0E0FEA3E0FFE4FD12328A9001D0E0C5
:102FEB00FEA3E0FF7D4012328A9001D0E0FEA3E009
:102FFB00FF7D0E02328A9001D0E0FEA3E0FF7D5AE6
:10300B0012328A9001D0E0FEA3E0FF7DA512328A36
:10301B009001D0E0FEA3E0FF7D0412328A9001D034
:10302B00E0FEA3E0FF7D8312328A9001D0E0FEA385
:10303B00E0FFE4FD12328A9001D0E0FEA3E0FF7DB9
:10304B00B012328A9001D0E0FEA3E0FF7D03023282
:10305B008A9001D0E0FEA3E0FF7D5A12328A9001E4
:10306B00D0E0FEA3E0FF7DA512328A9001D0E0FEF6
:10307B00A3E0FF7D0412328A9001D0E0FEA3E0FFB3
:10308B007D8312328A9001D0E0FEA3E0FFE4FD12B3
:10309B00328A9001D0E0FEA3E0FF7D1412328A90B9
:1030AB0001D0E0FEA3E0FF7D0402328AEF2404F599
:1030BB0082E43EF583E07002C322EF2405F582E43F
:1030CB003EF583E0601AEF2405F582E43EF583E0DC
:1030DB0014F0700CEF2406F582E43EF5837401F0D6
:1030EB00EF2405F582E43EF583E0700CEF2406F542
:1030FB0082E43EF5837401F0EF2406F582E43EF59D
:10310B0083E024FF229001D0E0FEA3E0FF7D5A1262
:10311B00328A9001D0E0FEA3E0FF7DA512328A90A7
:10312B0001D0E0FEA3E0FF7D0312328A9001D0E0D4
:10313B00FEA3E0FF7D8112328A9001D0E0FEA3E076
:10314B00FF7D2012328A9001D0E0FEA3E0FF7D07C5
:10315B0002328A9002DEEEF0A3EFF090000BE090CB
:10316B0002E0F07E007F807D007B017A0179E41222
:10317B00087C9002E0E0FDD394804004E4FEFF2243
:10318B00EDFF7E009002DEE0FCA3E0AA04F97B01D8
:10319B0078E47C017D011206019002E0E0FF7E00E5
:1031AB00229001D0E0FEA3E0FF7D5A12328A9001FB
:1031BB00D0E0FEA3E0FF7DA512328A9001D0E0FEA5
:1031CB00A3E0FF7D0312328A9001D0E0FEA3E0FF63
:1031DB007D8112328A9001D0E0FEA3E0FF7D0312C5
:1031EB00328A9001D0E0FEA3E0FF7D0202328AD248
:1031FB0082E49002B3F0A3F09001D6E0700512398F
:10320B0020800C7BFF7A2D791E120A421239A8906E
:10321B000265E0FF9001D6E0FD6F60097E027FC082
:10322B00E4FB1232C07E027F92900265E0FDE4FB6C
:10323B000232C0C2D5E830E70FB2D5E4C39BFBE442
:10324B009AFAE499F9E498F8EC30E717B2D5123210
:10325B0074120925E4C39BFBE49AFAE499F9E49808
:10326B00F8800312092530D50DE4C39FFFE49EFEC1
:10327B00E49DFDE49CFC22900000E0FEA3E0FF90A7
:10328B00030DEDF090030BEEF0A3EFF0F5828E83C0
:10329B00E0700890030DE0FF02354F90030BE0FE4A
:1032AB00A3E0F5828E83E090030DB40105E0FF02ED
:1032BB0034ABE0FF229002E5EEF0A3EFF0EB701AD7
:1032CB00ED14FF9002E5E0FCA3E0FDF5828C83EFAB
:1032DB00F08D828C83A37464F022AF059002E5E03D
:1032EB00FCA3E0FDF5828C83EFF08D828C83A3EB46
:1032FB00F0227BFF7A2D7943120A42C2819002BFE2
:10330B00E014F0E070097E027FCEFB7D01801A7E17
:10331B00027F9A90026CE0FC75F00A84FDEC75F06C
:10332B000A84E5F075F00AA4FB1232C02244575F01
:10333B00445554592C20506F570D0A0057465F4681
:10334B00494E4953485F445554592C20506F570DE3
:10335B000A0053544152540D0A00454E440D0A00C5
:10336B0069646C650D0A0020B3237BFF7A2D79010C
:10337B00120A42C20A7E027FD8E4FB7D011232C0E0
:10338B00D28312399D900336E054FEF022D20AD23A
:10339B000B1239BE900336E054FDF04401F0228F3E
:1033AB00828E83A3E4F08F828E83A3A3F08F828E11
:1033BB0083A3A3A3F0EF2404F582E43EF583E4F0AA
:1033CB00EF2405F582E43EF583E4F0EF2406F58265
:1033DB00E43EF583E4F022200D2AEF70127E027F8B
:1033EB00B5123A1A900296E04440F0A3E0F0229016
:1033FB000296E04420F0A3E0F07E027FB5E4FB7D73
:10340B000A0232C07F087E00122963227E027FD817
:10341B00123A1A7E027F92123A1A7E027F9F123A5A
:10342B001A7E027FC0123A1A7E027FBB123A1A7EB4
:10343B00027F9A123A1A7E027FCE123A1AC20D22DC
:10344B007BFF7A2D7932120A42C280C2821239B3C3
:10345B007E027F9F900270E0FDE4FB1232C0900170
:10346B00E0E06004D20C8002C20CE49002D2F0A324
:10347B00F02290029EE0701BD20E900336E05414A3
:10348B006002C20D900296E0200D044402800C44B1
:10349B00018008C20D900296E04402F0A3E0F022F6
:1034AB00900009E024CEF582E43400F583EFF09030
:1034BB000009E004F0C3748094814002E4F09000B2
:1034CB000AE0700504F0439A0222E4F5BDF5BE5301
:1034DB00BCF8EF42BC43BC0800000000E5BC30E484
:1034EB00FB53BCEFAFBDEF75F004A4FFAEF0ADBE68
:1034FB00EF4DFF227BFF7A2C79EF120A42D2817EAD
:10350B00027FBB9001D5E0FC75F00A84FDEC75F0F1
:10351B000A84E5F075F00AA4FB0232C090033CE08C
:10352B00B401047F05800990033CE0B402107F10C6
:10353B00122E2A7E027FAEE4FB7DB40232C07F03E3
:10354B00122E2A22900002E024AEF582E43400F51C
:10355B0083EFF0900002E004F0C394204002E4F00B
:10356B00900003E0700404F0D29922AD0790031091
:10357B00E0FF7401A805088002C333D8FCFEF45F9A
:10358B00900310F0900327E04EF07F027E0002398B
:10359B0087200D1AEF700A7E027FCA123A1AC28177
:1035AB0022D2817E027FCAE4FB7D0A0232C07F05F4
:1035BB007E0012296322200D1AEF700A7E027FA76C
:1035CB00123A1AC28222D2827E027FA7E4FB7D0AC4
:1035DB000232C07F067E0012296322200D1AEF7083
:1035EB000A7E027FD4123A1AC28022D2807E027FD8
:1035FB00D4E4FB7D0A0232C07F077E0012296322CE
:10360B00200D1AEF700A7E027FC5123A1AC283226E
:10361B00D2837E027FC5E4FB7D0A0232C07F097E26
:10362B0000122963227E027FCA123A1A7E027FA7FA
:10363B00123A1A7E027FD4123A1A7E027FC5123AD0
:10364B001A7E027FB5023A1A7F0012382A7D017565
:10365B00C78075C5028FC4EEF5C3AF058FC275C6A3
:10366B005A75C6A50002392ED2817E027FBB90010E
:10367B00D5E0FC75F00A84FDEC75F00A84E5F07575
:10368B00F00AA4FB0232C04391045392FB4391080E
:10369B005392F74391105392EF4391205392DF4390
:1036AB0091405392BF22900310E0FE7401A80708CB
:1036BB008002C333D8FC4E900310F07F047E0002CF
:1036CB0039877F407E00120F887E027FA3123A1A41
:1036DB007E027FAEE4FB7DB41232C0C21122200FFA
:1036EB0017538EEF538EF7438E0475D6FF75D7CCD9
:1036FB0053AFFB438E10D20F227F007E4412382A29
:10370B0012224C900267EFF07F0D1222C6900289B5
:10371B00EFF0223010051228EEC2109001D4E09089
:10372B0002BFF060030234FF1231FA22301005128F
:10373B0028EEC2109001D4E09002BFF06003023477
:10374B00FF1231FA229002E974FFF0A37427F0A361
:10375B007414F07BFF7A2F794B7F01022C8090023F
:10376B00E974FFF0A37438F0A374F4F07BFF7A2FA5
:10377B0079A67F01022C809002E974FFF0A3742BD1
:10378B00F0A3742FF07BFF7A2F794B7F01022C80F3
:10379B009002E974FFF0A3741AF0A37456F07BFF48
:1037AB007A30795C7F01022C809002E974FFF0A3E0
:1037BB00742AF0A3744AF07BFF7A3179AC7F010253
:1037CB002C809002DEEBF0A3EAF0A3E9F0A3ECF07F
:1037DB00A3EDF0E4FF123576D3227E027FA3123ADB
:1037EB001A121BF87E027FAEE4FB7DB41232C0C20C
:1037FB001122EF2404F582E43EF583E4F0EF240676
:10380B00F582E43EF583E4F022123704D2107F40B8
:10381B007E00120F887F207E00120F8802390375FD
:10382B00C78075C5038FC4EEF5C375C65A75C6A59B
:10383B000002392E538E7F5389FB5389FC758CB153
:10384B00758AE0D2A9C28C228F828E83E4F0A3F01A
:10385B008F828E83A3A3ECF0A3EDF022121BF81240
:10386B001E05E490033CF07E027FAE023A1A7F20E5
:10387B007E00120F88123A477F407E00020F887E2F
:10388B00027FA3123A1A12261512397BC21122009B
:10389B00007F5C7E327DEEDDFEDEFCDFFA2212362F
:1038AB0092439D7CE4F5BDF5BE75BCE022900336DA
:1038BB00E020A30454FBF0224404F022E49001DF47
:1038CB00F0FFAD077F327E000226979002797402DB
:1038DB00F0E4900278F0FF0236B100007F5C7E329C
:1038EB007DEEDDFEDEFCDFFA227F207E00120F88EC
:1038FB001222DED2100239037F01122E2A7E027FA2
:10390B00A3123A1AC21122AD079001CEE0FEA3E03A
:10391B00FF12328A227BFF7A2D7908120A42D2805B
:10392B000239C9E4F5C7F5C5F5C675C3FF75C4FF04
:10393B00224395085396F743B10853B2F722123935
:10394B003C1238A95395E7439618221238C79003B7
:10395B0036E054FDF00216C67BFF7A2D794D120A24
:10396B00420231FAE4FF123A357F007E3E02382ADA
:10397B00E490033CF07E027FAE023A1A900296E08E
:10398B004EF0A3E04FF022123A23C2A412363002BB
:10399B0017B090033B7401F07F02022C1090033B95
:1039AB007402F07F04022C1090033B7403F07F1021
:1039BB00022C1090033B7404F07F20022C10900318
:1039CB003B7405F07F08022C107F057E00122963E3
:1039DB00C281227F067E00122963C282227F077E6C
:1039EB0000122963C280227F097E00122963C283E1
:1039FB00227F087E00122963C2A4229002DEEFF020
:103A0B00E4FF023576E490033BF07F01022C108F2C
:103A1B00828E83E4F0A3F022C281C282C280C28371
:103A2B00225393F043940F023A23AD077F4E7E004F
:103A3B00022697AD077F047E000226977F757EB81E
:103A4B00DEFEDFFC22E4FD7F0BFE022697D2B2C224
:103A5B0088D2A82290027474FFF0227F0212197888
:103A6B00227F061219782202397B431C3F0C3B4CF8
:103A7B0037C83480317E2EA42C0629862738251092
:103A8B00230321171F4A1D9A1C041A86192017D0CD
:103A9B0016931569144D13401243115310710F9B5C
:103AAB000ED10E120D5E0CB30C160B810AF40A6EBE
:103ABB0009EF097609420897082F07CD07700718F9
:103ACB0006C40674062905E1059D055C051E04E484
:103ADB0004AC04770445041503E803BD0394036D9C
:103AEB0003470324030202E202C302A6028A027006
:103AFB000256023E0227021101FC01E801D501C367
:103B0B0001B101A101910182017301650158014BC2
:103B1B00013F01330128011D0113010900FF00F6CC
:00000001FF
