:03000000020420D7
:0C042000787FE4F6D8FD75813C0204678B
:0E0A9D0000007F5C7E327DEEDDFEDEFCDFFAC7
:010AAB002228
:1002A200C2AF120AC81207C3120605120A8A120A3C
:1002B200761209FC120AE4120ABB120A5B120664E5
:1002C200538EEFD202D2AF30950CC202900077E08B
:1002D2004410F0438E1053C17F43C110900077E069
:1002E20030E506120A5B758702900077E030E41B66
:1002F200D2A3D2CC120AEBD2B1C2CDD29212000E4C
:10030200D200900077E054EFF080CB900077E0309D
:10031200E30C120969900077E054F7F080B890007E
:1003220077E030E20C120369900077E054FBF08032
:10033200A5900077E030E018200203120AF11204BF
:10034200AC3007031205A1900077E054FEF08086DE
:10035200900077E020E1030202D812052F90007787
:07036200E054FDF00202D897
:1001B200C185C10601250001240501220501230094
:1001C200012100C104C101012600C102C103C1070E
:0601D200C10002271770B6
:050006001B2023262948
:1001D8004100520041002D0041002C006020000623
:1001E8000000000000000000000000000000000007
:1001F80000000000000000000000000000000000F7
:100208006020005300000000000000000000000013
:1002180000000000000000000000000000000000D6
:100228000000000060200032000000000000000014
:1002380000000000000000000000000000000000B6
:10024800000000000000000002370000013A010130
:0202580039016A
:10086000759D00BF0902800D7401A807088002C3AE
:1008700033D8FC429DE4F5BDF5BE53BCF875BC8091
:100880000000BF09028003EF42BC43BC0800000027
:1008900000E5BC30E4FB53BCEFAFBDEF75F004A442
:0908A000FFAEF0ADBEEF4DFF22EA
:10066400E4900073F0A3F0900000F0A3F090002A4F
:10067400F0A3F0900004F0A3F0900028F0A3F09011
:100684000030F0A3F0FFEF25E02406F582E4340007
:10069400F583E4F0A3F0EF25E02453F582E434007D
:1006A400F583E4F0A3F0EF25E02432F582E434008E
:0A06B400F583E4F0A3F00FBF10CCB3
:0106BE002219
:10003E007CFFE4F9FBF53B7F0312086090002EEE87
:10004E00F0A3EFF0D390002BE09F90002AE09E40AB
:10005E001F90002EE0FEA3E0FF90002BE09FFF908C
:10006E00002AE09EFED3EF9412EE940040028078B8
:10007E0090002EE0FEA3E0FF900031E02FF0900004
:10008E0030E03EF0900052E025E02406F582E434A4
:10009E0000F583E0FEA3E0FFC3900031E09FF090F7
:1000AE000030E09EF090002EE0FEA3E0FF900052A4
:1000BE00E025E02406F582E43400F583EEF0A3EFAC
:1000CE00F0900030E0C4F854F0C868FFA3E0C454C8
:1000DE000F4890002ACFF0A3EFF0900052E004F00A
:1000EE00E0B41002E4F07901EC25E049FC7F041243
:1000FE000860900026EEF0A3EFF0D3900001E09F91
:10010E00900000E09E4021900026E0FEA3E0FF90CC
:10011E000001E09FFF900000E09EFED3EF9412EEF0
:10012E0094004004E4FB8076900026E0FEA3E0FFFE
:10013E00900029E02FF0900028E03EF090002DE096
:10014E00F925E02453F582E43400F583E0FEA3E0C4
:10015E00FFC3900029E09FF0900028E09EF09000F1
:10016E0026E0FEA3E0FFE925E02453F582E4340007
:10017E00F583EEF0A3EFF0900028E0C4F854F0C839
:10018E0068FFA3E0C4540F48900000CFF0A3EFF037
:10019E0090002DE004F0E0B41002E4F07B01EC25B9
:0301AE00E04BFF24
:0101B100222B
:10036900E4FEFBFA7F09120860EB2FFBEA3EFCADC5
:10037900037E327FC012076E900006E493FD7C0075
:10038900C3EF9DEE9C5006E4F52402041AC3EF9DC9
:10039900EE9C4012900007E493FDEF9DEE9400500F
:1003A90005752401806B900007E493FDC3EF9DEE72
:1003B90094004010A3E493FDEF9DEE940050057561
:1003C9002402804D900008E493FDC3EF9DEE940054
:1003D9004010A3E493FDEF9DEE94005005752403AE
:1003E900802F900009E493FDC3EF9DEE9400401027
:1003F900A3E493FDEF9DEE9400500575240480114C
:1004090090000AE493FDC3EF9DEE94004003752428
:06041900052095021524E8
:01041F0022BA
:060AEB00E4F537F53822A6
:090AD40090002EE0FEA3E0FF22D9
:10000E00E4FEF53BF53C7F07120860C3E49FFF74E6
:10001E00049EFED3EF940FEE94004008120ADDD238
:0A002E0006D20722C206D205D2074F
:0100380022A5
:1005A100E4FEF53BF53C7F07120860C3E49FFF744E
:1005B100049EFED3EF940FEE94004005753A01803E
:1005C10003E4F53AE53A7004E5396034E53A60123E
:1005D100E539700EC2B1D2CDD292F537F538D206D7
:1005E100801EE53A7015E5396011E4F537F538D22A
:1005F100CDD292D2B1D205C2068005E4F537F538E5
:03060100853A39FE
:0106040022D3
:10025A0001100A011B64011EC8011414011A1402B8
:10026A001600C8021200C8021C0000021800000191
:05027A0015C80111C8C8
:070ADD00751C02751D582273
:100A7600538E7F5389FB5389FC758CD8758AF0D2C7
:040A8600A9D28C2243
:1009FC00E4F5D8F5E9F5F974A02519F519740F3556
:100A0C0018F5188519EAE518F5FAE4F5D975DA49F7
:030A1C00D2DE2205
:100A8A00538EFB538EF775D7FF75D6FF758F0453B8
:030A9A008EEF22BA
:070AE400D2B2C288D2A822A1
:03000B000208EAFE
:1008EA00C0E0C083C082C0D0900077E04408F0D551
:1008FA001007E04401F075100AD51B1B900077E041
:10090A004404F02095040526800A0523E523B4074C
:10091A0003752300751B64D0D0D082D083D0E03217
:10096900300635151EE51E702FB205900076E0148D
:10097900F0B4FF21743BF0900075E0FF14F0EF70C4
:1009890014C206C2CCF521D2B1C292D2CDA3F09045
:090999000075F0C200751EC822B1
:03003B000206BFFB
:1006BF00C0E0C083C082C0D0C2D874A02519F5197C
:1006CF00740F3518F5188519EAE518F5FA900077C3
:1006DF00E04402F0300412D5150F900075E004F0DD
:1006EF00E0B43D02E4F07515C8300115D511129034
:1006FF000075E07003743DF0900075E014F075150F
:0A070F00C8D0D0D082D083D0E032F1
:030003000208A947
:1008A900C0E0C0F0C083C082C0D075D00820B213A8
:1008B900538EEFC206D202120A5B120664C200C24C
:1008C900A38013438E10900077E04410F0120A5B66
:1008D900C202C206D2A3D0D0D082D083D0F0D0E059
:0108E90032DC
:04027F0041007700C3
:0C0AC800E4900076F0900075741EF0229F
:10028300012D00012E00012C00012B00012F000283
:030293002900003F
:100605004391105392EF4391085392F7439140530E
:1006150092BF4391205392DF43B10453B2FB43B1E0
:100625000853B2F743918053927F5395F743960849
:1006350053C9EF43CA1053B1FE43B2015395F74373
:10064500960853C9DF43CA2053B1FD43B202539103
:0F065500FB439204D292D2B1D2CDC2CCC2A32227
:1008120012003EEFF4852E2DF52EE52E652D552D79
:10082200622CE52E652D652E652B6024052AE52AAE
:10083200AE297002052914D39414EE94004004E505
:100842002E422BD3E52A9404E5299400400F800917
:0D085200E4F529F52AE52E522BE52E522C57
:01085F002276
:10071900E52CB4020C900075E004F0E0B43C02E46E
:10072900F0E52CB4010F900075E07003743CF09073
:100739000075E014F0E52F7007E52BB40202D2042E
:10074900E52FB40206E52B7002C204E52F7007E518
:100759002BB40102D201E52B7007E52FB40102C2C7
:0507690001852B2F2289
:060AF100120812020719B1
:100A1F003F065B4F666D7D077F6F007971010204A2
:100A2F000810200001030B2B6B030C300F3C333FDE
:0B0296000630000000000000013600F0
:1007C3005391FD4392025391FE43920153957F430C
:1007D30096805395BF4396405395DF439620539598
:1007E300EF4396105395FB4396045395FD439602AE
:1007F3005395FE43960153B17F43B28053B1BF4338
:0F080300B24053B1DF43B22053B1EF43B21022E2
:0E0AAC0000007F7D7EFA7DFADDFEDEFCDFFAC3
:010ABA002219
:10092A00EF7006ED24FF92A222BF0106ED24FF928A
:10093A00A122BF0206ED24FF92A022BF0306ED24E6
:10094A00FF92B722BF0406ED24FF92B622BF050626
:0F095A00ED24FF92B522BF0605ED24FF92B422D3
:020A3F00AE0700
:100A4100E4FCEEAF0430E0047D018002E4FD120914
:090A51002AEEC313FE0CBC07E9F8
:010A5A002279
:1009A200EF7006ED24FF929122BF0106ED24FF9223
:1009B2009022BF0206ED24FF92A722BF0306ED2478
:1009C200FF92A622BF0406ED24FF92A522BF0505D1
:0609D200ED24FF92A422B7
:0809D800E536900A2C93F4FFB0
:0209E000AE0760
:1009E200E4FCEEAF0430E0047D018002E4FD120974
:0909F200A2EEC313FE0CBC06E9E1
:0109FB0022D9
:0304AC0020952870
:1004AF0075300A75310A75330A75340AE524252625
:1004BF00F53BD394054008E4F52685243280038567
:0704CF003B32852335C20614
:1004D60022900075E07011A3E0700D75300AF531B9
:1004E60075300C75310C8022900075E075F00A8429
:1004F600F530E075F00A8485F031A3E075F00A84E2
:10050600F533E075F00A8485F034E522D39524505E
:1005160005852224800CC3E5229524FFBF010385AF
:09052600242285243285233522AC
:0D0ABB007FC01209E07F7F120A3F020AACE3
:100A5B00C2A2C2A1C2A0C2B7C2B6C2B5C2B4C29131
:0B0A6B00C290C2A7C2A6C2A5C2A4226E
:10052F00E4FF120A3F1209D8E536600F6401600B31
:10053F00E53664036005E536B4040B74302536F8F0
:10054F00E6900A1F8037E5366402701F30050320DE
:10055F00950B74302536F8E6900A328020743025DA
:10056F0036F8E6900A329344148013309503200630
:10057F0003E4800A74302536F8E6900A3893FF12A8
:10058F000A3F1209D80536E536C394064003E4F551
:02059F00362202
:10042C000202A2E493A3F8E493A34003F68001F242
:10043C0008DFF48029E493A3F85407240CC8C333D1
:10044C00C4540F4420C8834004F456800146F6DFA0
:10045C00E4800B01020408102040809001B2E47E7D
:10046C00019360BCA3FF543F30E509541FFEE49395
:10047C00A360010ECF54C025E060A840B8E493A35C
:10048C00FAE493A3F8E493A3C8C582C8CAC583CA87
:10049C00F0A3C8C582C8CAC583CADFE9DEE780BE3F
:0102A100005C
:10076E00BC000BBE0029EF8DF084FFADF022E4CC6F
:10077E00F875F008EF2FFFEE33FEEC33FCEE9DEC38
:10078E00984005FCEE9DFE0FD5F0E9E4CEFD22ED7E
:10079E00F8F5F0EE8420D21CFEADF075F008EF2FC8
:1007AE00FFED33FD4007985006D5F0F222C398FDB9
:0507BE000FD5F0EA2256
:00000001FF
