:0A000000022EA453C9FE43CA0122D8
:10000B000227EE75C78075C5038FC4EEF5C375C6A1
:10001B005A75C6A500023AEA022FB3E709F608DFC4
:10002B00FA8046E709F208DFFA803E88828C83E784
:10003B0009F0A3DFFA8032E309F608DFFA8078E3F0
:10004B0009F208DFFA807088828C83E309F0A3DF62
:10005B00FA806489828A83E0A3F608DFFA805889E4
:10006B00828A83E0A3F208DFFA804C80D280FA8088
:10007B00C680D4806980F28033801080A680EA80AD
:10008B009A80A880DA80E280CA803389828A83ECE6
:10009B00FAE493A3C8C582C8CCC583CCF0A3C8C56A
:1000AB0082C8CCC583CCDFE9DEE7800D89828A83E9
:1000BB00E493A3F608DFF9ECFAA9F0EDFB228982B1
:1000CB008A83ECFAE0A3C8C582C8CCC583CCF0A365
:1000DB00C8C582C8CCC583CCDFEADEE880DB898269
:1000EB008A83E493A3F208DFF980CC88F0EF6001F8
:1000FB000E4E60C388F0ED2402B4040050B9F582B3
:10010B00EB2402B4040050AF2323458223900076E6
:10011B0073BB010689828A83E0225002E722BBFE71
:10012B0002E32289828A83E49322BB010CE58229B4
:10013B00F582E5833AF583E0225006E92582F8E65D
:10014B0022BBFE06E92582F8E222E58229F582E54B
:10015B00833AF583E49322F8BB010DE58229F582FE
:10016B00E5833AF583E8F0225006E92582C8F622AA
:10017B00BBFE05E92582C8F222C5F0F8A3E028F002
:10018B00C5F0F8E582158270021583E038F022A3E2
:10019B00F8E0C5F025F0F0E582158270021583E0DA
:1001AB00C838F0E822CFF4CFCEF4CECDF4CDCCF4DA
:1001BB00CC22EB9FF5F0EA9E42F0E99D42F0EC6415
:1001CB0080C864809845F022E8600FECC313FCED07
:1001DB0013FDEE13FEEF13FFD8F122E8600FEFC310
:1001EB0033FFEE33FEED33FDEC33FCD8F122ECF0B4
:1001FB00A3EDF0A3EEF0A3EFF022A8828583F0D05D
:10020B0083D08212021C12021C12021C12021CE46A
:10021B0073E493A3C583C5F0C583C8C582C8F0A397
:10022B00C583C5F0C583C8C582C822E3F5F009E2D2
:10023B0008B5F06D606B80F3E3F5F009E608B5F0F7
:10024B0060605E80F387F009E608B5F05460528079
:10025B00F487F009E208B5F048604680F488828C98
:10026B008387F009E0A3B5F038603680F488828C80
:10027B008387F009E493A3B5F027602580F3888288
:10028B008C83E3F5F009E0A3B5F016601480F388D6
:10029B00828C83E3F5F009E493A3B5F0046002804C
:1002AB00F2020361808580E7808E80D2803C8015CE
:1002BB00806C807E809B80B5808B80A1804F80700E
:1002CB00803A02036D89828A83ECFAE493F5F0A3FA
:1002DB00C8C582C8CCC583CCE493A3C8C582C8CC9F
:1002EB00C583CCB5F070606E80E189828A83E4931C
:1002FB00F5F0A3E208B5F05E605C80F289828A8338
:10030B00E0F5F0A3E608B5F04D604B80F389828AE7
:10031B0083E0F5F0A3E208B5F03C603A80F3898204
:10032B008A83E493F5F0A3E608B5F02A602880F2FF
:10033B00805389828A83ECFAE493F5F0A3C8C582D3
:10034B00C8CCC583CCE0A3C8C582C8CCC583CCB50B
:10035B00F004600280E27FFFB5F0020F2240027FC3
:10036B00012289828A83ECFAE0F5F0A3C8C582C822
:10037B00CCC583CCE0A3C8C582C8CCC583CCB5F0B3
:10038B00D560D380E389828A83ECFAE0F5F0A3C8C9
:10039B00C582C8CCC583CCE493A3C8C582C8CCC5E1
:1003AB0083CCB5F0B160AF80E288F0ED2402B404E9
:1003BB000050A3F582EB2402B4040050992323458B
:1003CB0082239002AF73EF4E6012EF60010EEDBB14
:1003DB00010B89828A83F0A3DFFCDEFA2289F050BD
:1003EB0007F709DFFCA9F022BBFEFCF309DFFCA930
:1003FB00F0227F037E007D007C0078011201E6A8CD
:10040B0004A905AA06AB07A2C9E4334BFFEAFEE930
:10041B00FDE8FC78011201E6A804A905AA06AB07C2
:10042B00A2B5E4334BFFEAFEE9FDE8FC78011201CB
:10043B00E6A804A905AA06AB07A2F8E4334BFFEA2A
:10044B00FEE9FDE8FC78011201E6A804A905AA065D
:10045B00AB07A2F9E4334BFFEAFEE9FDE8FC7801B8
:10046B001201E6A804A905AA06AB07A2FAE4334BCE
:10047B00FFEAFEE9FDE8FC78011201E6A804A905F4
:10048B00AA06AB07A2FBE4334BFFEAFEE9FDE8FC4F
:10049B0078011201E6A804A905AA06AB07A2C1E4DC
:1004AB00334BFFEAFEE9FDE8FC78011201E6A804F4
:1004BB00A905AA06AB07A2C2E4334BFFEAFEE9FD8E
:1004CB00E8FC78011201E6A804A905AA06AB07A26D
:1004DB00C3E4334BFFEAFEE9FDE8FC78011201E6C9
:1004EB00A804A905AA06AB07A2C4E4334BFFEAFE96
:1004FB00E9FDE8FC78011201E6A804A905AA06AB00
:10050B0007A2A0E4334BFFEAFEE9FDE8FC780112F9
:10051B0001E6A804A905AA06AB07A2A1E4334BFF89
:10052B00EAFEE9FDE8FC78011201E6A804A905AA98
:10053B0006AB07A2A2E4334BFFEAFEE9FDE8FC7829
:10054B00011201E6A804A905AA06AB07A2A3E4338E
:10055B004BFFEAFEE9FDE8FC78011201E6A804A9CD
:10056B0005AA06AB07A2A4E4334BFFEAFEE9FDE8BC
:10057B00FC78011201E6A804A905AA06AB07A2A5FF
:10058B00E4334BFFEAFEE9FDE8FC78011201E6A833
:10059B0004A905AA06AB07A2A6E4334BFFEAFEE9C2
:1005AB00FDE8FC78011201E6A804A905AA06AB0731
:1005BB00A2A7E4334BFFEAFEE9FDE8FC7801120148
:1005CB00E6A804A905AA06AB07A2FCE4334BFFEA95
:1005DB00FEE9FDE8FC78011201E6A804A905AA06CC
:1005EB00AB07A2FDE4334BFFEAFEE9FDE8FC780123
:1005FB001201E6A804A905AA06AB07A2FEE4334B39
:10060B00FFEAFEE9FDE8FC78011201E6A804A90562
:10061B00AA06AB07A2FFE4334BFFEAFEE9FDE8FCB9
:10062B0078011201E6A804A905AA06AB07A2C5E446
:10063B00334BFFEAFEE9FDE8FC78011201E6A80462
:10064B00A905AA06AB07A2C6E4334BFFEAFEE9FDF8
:10065B00E8FC78011201E6A804A905AA06AB07A2DB
:10066B0097E4334BFFEAFEE9FDE8FC78011201E663
:10067B00A804A905AA06AB07A296E4334BFFEAFE32
:10068B00E9FDE8FC78011201E6A804A905AA06AB6E
:10069B0007A282E4334BFFEAFEE9FDE8FC78011286
:1006AB0001E6A804A905AA06AB07A283E4334BFF16
:1006BB00EAFEE9FDE8FC78011201E6A804A905AA07
:1006CB0006AB07A284E4334BFFEAFEE9FDE8FC78B6
:1006DB00011201E6A804A905AA06AB07A2CAE433D6
:1006EB004BFFEAFEE9FDE8FC2290002CEBF0A3EABD
:1006FB00F0A3E9F07E007F147D007B017A00792F57
:10070B001203D190002CE0FBA3E0FAA3E0F9120155
:10071B001C0490002FF0121CAE5003020916E4903B
:10072B000030F090002CE0FBA3E0FAA3E0F91201FB
:10073B001C70051230A1805690002CE0FBA3E0FA50
:10074B00A3E0F912011CB402051231148040900091
:10075B002CE0FBA3E0FAA3E0F912011CB404051290
:10076B003187802A90002CE0FBA3E0FAA3E0F9127A
:10077B00011CB406051231FA801490002CE0FBA387
:10078B00E0FAA3E0F912011CB4160912302D900007
:10079B004A1201F99000F9E0900031F09000437497
:1007AB0003F090004AE0FCA3E0FDA3E0FEA3E0FF12
:1007BB00900043E0FBC374059B75F008A4F9F81295
:1007CB0001D31201B0742F2BF582E43400F583EFC3
:1007DB00F0900043E004F0E0B406C7E4900043F06F
:1007EB00900043E0FF2401FDE433FC90002CE0FB80
:1007FB00A3E0FAA3E0F98D828C83120135F4FE7429
:10080B00442FF582E43400F583EEF0900043E004CE
:10081B00F0E0B406CB9000437406F0900043E0FF89
:10082B00243EF582E43400F583E0F4FE742F2FF5BB
:10083B0082E43400F583EEF0900043E004F0E0B482
:10084B000CD97B017A00792F900054740FF07D0C3A
:10085B001235DB900054740FF0A37401F0A37400F5
:10086B00F0A37444F0A37402F0A37405F0A3740115
:10087B00F0A37400F0A3742FF0A3740CF0A3740F07
:10088B00F07B017A00792F7D0C122E0A9000677491
:10089B000FF0A37401F0A37400F0A3742FF0A374F2
:1008AB000CF0A3740FF07B017A00792F7D0C1233BF
:1008BB00AF7B017A00792F9000737407F0E4FD127F
:1008CB0032DA90003FEFF07B017A00792F900073C2
:1008DB00740FF07D081232DA900040EFF07B017A52
:1008EB0000792F9000747411F0E4FD1236D4EE9061
:1008FB000041F07B017A00792F9000747411F0E4C1
:10090B00FD1236D4900042EFF0803290003074012B
:10091B00F090004304F0900043E0FFC39411501497
:10092B00742F2FF582E43400F583E4F0900043E05C
:10093B0004F080E2E4900042F0900041F07B017AF9
:10094B0000792F023812900050EBF0A3EAF0A3E9E4
:10095B00F01231149000651201F9900065E0FCA3D0
:10096B00E0FDA3E0FEA3E0FF78181201D390005343
:10097B00EFF0900065E0FCA3E0FDA3E0FEA3E0FF39
:10098B0078101201D3900054EFF0900065E0FCA3B7
:10099B00E0FDA3E0FEA3E0FF78081201D390005521
:1009AB00EFF0900065A3A3A3E0900056F07B017AD3
:1009BB0000795790006D7403F0E4FD12363090000F
:1009CB006D7403F0A37401F0A37400F0A3745BF0D7
:1009DB00E4A3F0A37403F07B017A007957E4FD12D2
:1009EB003345E4FFEF240AFDE433FC900050E0FBB9
:1009FB00A3E0FAA3E0F98D828C83120135F4FE7427
:100A0B005F2FF582E43400F583EEF00FEFB406D4DC
:100A1B0090006D7403F0900050E0F9A3E0FAA3E0AE
:100A2B0090006EC9F0A3EAF0A3E9F0A37401F0A360
:100A3B007403F07B017A0079537D01122D6D400315
:100A4B00020B7090006D7403F0900050E0F9A3E07E
:100A5B00FAA3E090006EC9F0A3EAF0A3E9F0E4A3D7
:100A6B00F0A37403F0900050E0F9A3A3E09000739F
:100A7B00C9F0A3EAF0A3E9F0A37404F0A37407F0A0
:100A8B007B017A00795BE4FD1229B44003020B7001
:100A9B0090006D7403F0900050E0FBA3E0FAA3E02C
:100AAB00F9900008120135F490006EF090000912D5
:100ABB000135F490006FF07B017A007957E4FD1259
:100ACB0039614003020B7090006D7407F090005079
:100ADB00E0FBA3E0FAA3E0F99000101201359000BF
:100AEB006EF0900050A3A3E4FD123A67507790008C
:100AFB006D740FF0900050E0FBA3E0FAA3E0F990C7
:100B0B00001112013590006EF0900050A3A3E07D10
:100B1B0008123A67504F90006D7411F0900050E03E
:100B2B00FBA3E0FAA3E0F990001212013590006EDE
:100B3B00F090001312013590006FF0900050A3A3BA
:100B4B00E4FD123961501E900065E0FCA3E0FDA3AB
:100B5B00E0FEA3E02401FFE43EFEE43DFDE43CFCAB
:100B6B00123531C322D322900050EBF0A3EAF0A34D
:100B7B00E9F01230A19000651201F9900065E0FCDC
:100B8B00A3E0FDA3E0FEA3E0FF78181201D39000D1
:100B9B0059EFF0900065E0FCA3E0FDA3E0FEA3E0BD
:100BAB00FF78101201D390005AEFF0900065E0FC33
:100BBB00A3E0FDA3E0FEA3E0FF78081201D39000B1
:100BCB005BEFF0900065A3A3A3E090005CF07B01CA
:100BDB007A00795D90006D7403F0E4FD123630906D
:100BEB00006D7403F0A37401F0A37400F0A374619F
:100BFB00F0E4A3F0A37403F07B017A00795DE4FDCC
:100C0B00123345E4FFEF240AFDE433FC900050E07F
:100C1B00FBA3E0FAA3E0F98D828C83120135F4FE7D
:100C2B0074532FF582E43400F583EEF00FEFB40626
:100C3B00D4900050E0FBA3E0FAA3E0F99000081277
:100C4B000135F4049000FAF090006D7403F09000FD
:100C5B0050E0F9A3E0FAA3E090006EC9F0A3EAF02C
:100C6B00A3E9F0A37401F0A37403F07B017A00797C
:100C7B00597D01122D6D4003020D8D90006D740393
:100C8B00F0900050E0F9A3E0FAA3E090006EC9F0F9
:100C9B00A3EAF0A3E9F0E4A3F0A37403F0900050EF
:100CAB00E0F9A3A3E0900073C9F0A3EAF0A3E9F085
:100CBB00A37404F0A37407F07B017A007961E4FD5F
:100CCB001229B44003020D8D900050E0FBA3E0FA13
:100CDB00A3E0F9900008120135F4FF900003120114
:100CEB00356FFF9000091201356F6003020D8D9077
:100CFB00006D7407F090001012013590006EF090AB
:100D0B000050A3A3E4FD123A67507790006D740F67
:100D1B00F0900050E0FBA3E0FAA3E0F99000111271
:100D2B00013590006EF0900050A3A3E07D08123ABD
:100D3B0067504F90006D7411F0900050E0FBA3E0F2
:100D4B00FAA3E0F990001212013590006EF09000BA
:100D5B001312013590006FF0900050A3A3E4FD1225
:100D6B003961501E900065E0FCA3E0FDA3E0FEA3FB
:100D7B00E02401FFE43EFEE43DFDE43CFC1234DCE8
:100D8B00C322D32290002CEBF0A3EAF0A3E9F07E70
:100D9B00007F147D007B017A00792F1203D1900024
:100DAB002F7411F090002CE0FBA3E0FAA3E0F912F2
:100DBB0015A65003020F6CE4900030F0900043F046
:100DCB00900043E0FF2404FDE433FC90002CE0FB97
:100DDB00A3E0FAA3E0F98D828C83120135F4FE7443
:100DEB00482FF582E43400F583EEF0900043E004E5
:100DFB00F0E0B406CB9000437402F0900043E0FFA8
:100E0B002446F582E43400F583E0FE742F2FF5823F
:100E1B00E43400F583EEF0900043E004F0E0B40816
:100E2B00DA900067740DF0A37401F0A37400F0A3C3
:100E3B007444F0E4A3F0A37403F090002CE0FBA344
:100E4B00E0FAA3E0F97D0A1233AF9000547403F07B
:100E5B00A37401F0A37400F0A3742FF0A37404F037
:100E6B00A37407F0A37401F0A37400F0A3742FF024
:100E7B00A37408F0A3740BF07B017A007944E4FDB2
:100E8B00122E0A900067740BF0A37401F0A3740088
:100E9B00F0A3742FF0A37408F0A3740BF07B017A0A
:100EAB0000792F7D081233AF9000547403F0A374B4
:100EBB0001F0A37400F0A3742FF0E4A3F0A3740368
:100ECB00F0A37401F0A37400F0A3742FF0A3740CBF
:100EDB00F0A3740FF07B017A007944E4FD122E0A23
:100EEB00900067740FF0A37401F0A37400F0A37467
:100EFB002FF0A3740CF0A3740FF07B017A00792F01
:100F0B007D0C1233AF7B017A00792F90007374073D
:100F1B00F0E4FD1232DA90003FEFF07B017A0079BA
:100F2B002F900073740FF07D081232DA900040EFAF
:100F3B00F07B017A00792F9000747411F0E4FD12AC
:100F4B0036D4EEF4900041F07B017A00792F9000BB
:100F5B00747411F0E4FD1236D4EFF4900042F0807B
:100F6B00329000307401F090004304F0900043E0A5
:100F7B00FFC394115014742F2FF582E43400F583C2
:100F8B00E4F0900043E004F080E2E4900042F09043
:100F9B000041F07B017A00792F02381290002CEB84
:100FAB00F0A3EAF0A3E9F07E007F147D007B017AC9
:100FBB0000792F1203D190002F740FF090002CE0CA
:100FCB00FBA3E0FAA3E0F9121946500302117DE4EA
:100FDB00900030F0900043F0900043E0FF2404FDBC
:100FEB00E433FC90002CE0FBA3E0FAA3E0F98D8244
:100FFB008C83120135F4FE74442FF582E43400F532
:10100B0083EEF0900043E004F0E0B406CB90004395
:10101B007402F0900043E0FF2442F582E43400F5C3
:10102B0083E0FE742F2FF582E43400F583EEF0900D
:10103B000043E004F0E0B408DA7B017A00792F90EA
:10104B000054740BF07D081235DB7B017A00792F8D
:10105B0090006D740FF07D0C123630900054740BB1
:10106B00F0A37401F0A37400F0A3742FF0A3740425
:10107B00F0A37407F0A37401F0A37400F0A3742F12
:10108B00F0A37408F0A3740BF07B017A00792F7D29
:10109B0008122E0A900067740BF0A37401F0A3746E
:1010AB0000F0A3742FF0A37408F0A3740BF07B0172
:1010BB007A00792F7D081233AF900054740FF0A390
:1010CB007401F0A37400F0A3742FF0E4A3F0A374E5
:1010DB0003F0A37401F0A37400F0A3742FF0A374B6
:1010EB000CF0A3740FF07B017A00792F7D0C122E7C
:1010FB000A900067740FF0A37401F0A37400F0A3BF
:10110B00742FF0A3740CF0A3740FF07B017A0079A9
:10111B002F7D0C1233AF7B017A00792F9000737403
:10112B0007F0E4FD1232DA90003FEFF07B017A001A
:10113B00792F900073740FF07D081232DA90004013
:10114B00EFF07B017A00792F9000747411F0E4FDBD
:10115B001236D4EEF4900041F07B017A00792F9097
:10116B0000747411F0E4FD1236D4EFF4900042F0E9
:10117B0080329000307401F090004304F0900043F3
:10118B00E0FFC394115014742F2FF582E43400F553
:10119B0083E4F0900043E004F080E2E4900042F03E
:1011AB00900041F07B017A00792F02381290002CCD
:1011BB00EBF0A3EAF0A3E9F07E007F147D007B0146
:1011CB007A00792F1203D190002F7413F090002C1A
:1011DB00E0FBA3E0FAA3E0F9122334500302138AD5
:1011EB00E4900030F0A3F0A37440F0E4A3F0A374F8
:1011FB0003F0A37481F0A37436F07B017A00792F8E
:10120B00900054740BF07D081235DB900054740B76
:10121B00F0A37401F0A37400F0A3742FF0A3740473
:10122B00F0A37407F0A37401F0A37400F0A3742F60
:10123B00F0A37408F0A3740BF07B017A00792F7D77
:10124B0008122E0A900067740BF0A37401F0A374BC
:10125B0000F0A3742FF0A37408F0A3740BF07B01C0
:10126B007A00792F7D081233AF7B017A00792F90AA
:10127B000054740FF07D0C1235DB900054740FF09A
:10128B00A37401F0A37400F0A3742FF0E4A3F0A3F4
:10129B007403F0A37401F0A37400F0A3742FF0A3F4
:1012AB00740CF0A3740FF07B017A00792F7D0C1274
:1012BB002E0A900067740FF0A37401F0A37400F072
:1012CB00A3742FF0A3740CF0A3740FF07B017A00BE
:1012DB00792F7D0C1233AF7B017A00792F9000733D
:1012EB007407F0E4FD1232DA90003FEFF07B017AE5
:1012FB0000792F900073740FF07D081232DA900092
:10130B0040EFF07B017A00792F9000747411F0E4B8
:10131B00FD1236D4EEF4900041F07B017A00792F68
:10132B009000747411F0E4FD1236D4EFF490004287
:10133B00F0A37404F090002CE0FBA3E0FAA3E0F917
:10134B00900043E0FFF582758300120135FE744077
:10135B002FF582E43400F583EEF0900043E004F0C7
:10136B00E0B410D17B017A00794412326D123ACC81
:10137B007B017A00792F123812123ACC023A519033
:10138B0000307401F090004304F0900043E0FFC381
:10139B0094115014742F2FF582E43400F583E4F08C
:1013AB00900043E004F080E2E4900042F0900041B2
:1013BB00F07B017A00792F1238122290002CEBF07F
:1013CB00A3EAF0A3E9F07E007F147D007B017A0095
:1013DB00792F1203D190002F740CF090002CE0FBAE
:1013EB00A3E0FAA3E0F9120B725003021570E4901C
:1013FB000030F0900043F0900043E0FF240AFDE43E
:10140B0033FC90002CE0FBA3E0FAA3E0F98D828C77
:10141B0083120135F4FE74442FF582E43400F58316
:10142B00EEF0900043E004F0E0B406CB9000437480
:10143B0002F0900043E0FF2442F582E43400F58390
:10144B00E0FE742F2FF582E43400F583EEF090006C
:10145B0043E004F0E0B408DA7B017A00792F9000C6
:10146B00737407F0E4FD1232DA900037EFF090005E
:10147B002CE0FBA3E0FAA3E0F9900008120135F48D
:10148B00FF90002FE0F46F900038F07B017A007929
:10149B002F9000747407F0E4FD1236D4EEF4900034
:1014AB0039F07B017A00792F9000747407F0E4FD1A
:1014BB001236D4EFF490003AF07B017A00792F903A
:1014CB000074740BF07D081236D4EEF490003BF0F0
:1014DB007B017A00792F900074740BF07D08123623
:1014EB00D4EFF490003CF09000677407F0A3740104
:1014FB00F0A37400F0A3744AF0E4A3F0A37405F016
:10150B007B017A00792F7D021233AF900054740562
:10151B00F0A37401F0A37400F0A3742FF0A374086C
:10152B00F0A3740DF0A37401F0A37400F0A3742F57
:10153B00F0A3740EF0A37413F07B017A00794AE4E4
:10154B00FD122E0A12380C9000FAE0641D6004E0C4
:10155B00B41E0AD2009000FAE0FF023AF89000FAAB
:10156B00E0FF023ABA9000307401F090004304F0AF
:10157B00900043E0FFC394115014742F2FF582E4B5
:10158B003400F583E4F0900043E004F080E2E49053
:10159B000042F0900041F012380C2290004EEBF01C
:1015AB00A3EAF0A3E9F01231FA90005F1201F9906F
:1015BB00005FE0FCA3E0FDA3E0FEA3E0FF781812C0
:1015CB0001D3900051EFF090005FE0FCA3E0FDA38E
:1015DB00E0FEA3E0FF78101201D3900052EFF090E1
:1015EB00005FE0FCA3E0FDA3E0FEA3E0FF780812A0
:1015FB0001D3900053EFF090005FA3A3A3E0900002
:10160B0054F0E4FFEF2404FDE433FC90004EE0FBC8
:10161B00A3E0FAA3E0F98D828C83120135F4FE74FA
:10162B00592FF582E43400F583EEF00FEFB406D4B6
:10163B00900067740DF0A37401F0A37400F0A37411
:10164B0055F0E4A3F0A37403F090004EE0FBA3E08D
:10165B00FAA3E0F97D0A1233AF90006D7403F0909A
:10166B00004EE0F9A3E0FAA3E090006EC9F0A3EA04
:10167B00F0A3E9F0A37401F0A37403F07B017A00EB
:10168B0079517D01122D6D400302178390006D740B
:10169B000DF090004EE0FBA3E0FAA3E0F990000EF2
:1016AB0012013590006EF090000F12013590006F13
:1016BB00F090004EA3A3E4FD12396140030217839F
:1016CB0090006D7407F090004EE0FBA3E0FAA3E0EE
:1016DB00F990001012013590006EF090004EA3A30C
:1016EB00E4FD123A67400302178390006D740FF00C
:1016FB0090004EE0FBA3E0FAA3E0F9900011120179
:10170B003590006EF090004EA3A3E07D08123A676F
:10171B00506690006D7411F090004EE0FBA3E0FA60
:10172B00A3E0F990001212013590006EF0900013B7
:10173B0012013590006FF090004EA3A3E4FD123917
:10174B006150357B017A0079559000677403F0E4A2
:10175B00FD122B5190005FE0FCA3E0FDA3E0FEA384
:10176B00E02401FFE43EFEE43DFDE43CFC90006719
:10177B007401F0122A88C322D3221203FD900009B0
:10178B001201F9900109E0FCA3E0FDA3E0FEA3E048
:10179B00FF9001051201F9900009E0FCA3E0FDA305
:1017AB00E0FEA3E0FF1201B09001091201F99001D4
:1017BB0005E0FCA3E0FDA3E0FEA3E0FF900109E040
:1017CB00F8A3E0F9A3E0FAA3E06FFFEA6EFEE96D80
:1017DB00FDE86CFC900105E0F8A3E0F9A3E0FAA3A7
:1017EB00E05FFFEA5EFEE95DFDE85CFC900101E075
:1017FB00F8A3E0F9A3E0FAA3E06FFFEA6EFEE96D50
:10180B00FDE86CFC9001011201F9900105E0FCA3CD
:10181B00E0FDA3E0FEA3E0FF900109E0F8A3E0F9EF
:10182B00A3E0FAA3E06FFFEA6EFEE96DFDE86CFC46
:10183B00900109E0F8A3E0F9A3E0FAA3E06FFFEA57
:10184B006EFEE96DFDE86CFC9000FDE0F8A3E0F99D
:10185B00A3E0FAA3E06FFFEA6EFEE96DFDE86C4DC5
:10186B004E4F60759000FBE475F00112019AFED3A8
:10187B00E5F09458EE9402404F9000FDE0FCA3E09D
:10188B00FDA3E0FEA3E0FF900109E0F8A3E0F9A3BC
:10189B00E0FAA3E0FBEF4BFFEE4AFEED49FDEC480F
:1018AB00FC9000FD1201F99000FBE0FEA3E0FFE4C9
:1018BB00FCFD7B607AEAF9F8D31201BD500A900067
:1018CB00FB7407F0A374D0F0D39000FCE09432903B
:1018DB0000FBE0940040638033E49000FBF0A3F046
:1018EB00A3E0FCA3E0FDA3E0FEA3E0FF900109E071
:1018FB00F8A3E0F9A3E0FAA3E0FBEF5BFFEE5AFEDF
:10190B00ED59FDEC58FC9000FD1201F9900101E03E
:10191B00FCA3E0FDA3E0FEA3E0FF900109E0F8A328
:10192B00E0F9A3E0FAA3E0FBEF5BFFEE5AFEED5903
:10193B00FDEC58FC9001011201F92290004AEBF0EA
:10194B00A3EAF0A3E9F01231879000571201F99046
:10195B000057E0FCA3E0FDA3E0FEA3E0FF78181224
:10196B0001D390004DEFF0900057E0FCA3E0FDA3F6
:10197B00E0FEA3E0FF78101201D390004EEFF09041
:10198B000057E0FCA3E0FDA3E0FEA3E0FF78081204
:10199B0001D390004FEFF0900057A3A3A3E090006A
:1019AB0050F0E4FFEF2404FDE433FC90004AE0FB2D
:1019BB00A3E0FAA3E0F98D828C83120135F4FE7457
:1019CB00512FF582E43400F583EEF00FEFB406D41B
:1019DB0090006D7403F090004AE0F9A3E0FAA3E0E5
:1019EB0090006EC9F0A3EAF0A3E9F0A37401F0A391
:1019FB007403F07B017A00794D7D01122D6D40034C
:101A0B00021AF990006D7405F090004AE0F9A3E01A
:101A1B00FAA3E090006EC9F0A3EAF0A3E9F0E4A307
:101A2B00F0A37405F090004AE0F9A3A3E0900073D3
:101A3B00C9F0A3EAF0A3E9F0A3740AF0A3740FF0C2
:101A4B007B017A007951E4FD1229B44003021AF9A3
:101A5B0090006D7407F090004AE0FBA3E0FAA3E05E
:101A6B00F990001012013590006EF090004AA3A37C
:101A7B00E4FD123A67507790006D740FF090004AB6
:101A8B00E0FBA3E0FAA3E0F99000111201359000FE
:101A9B006EF090004AA3A3E07D08123A67504F9076
:101AAB00006D7411F090004AE0FBA3E0FAA3E0F99B
:101ABB0090001212013590006EF090001312013558
:101ACB0090006FF090004AA3A3E4FD123961501E01
:101ADB00900057E0FCA3E0FDA3E0FEA3E02401FF90
:101AEB00E43EFEE43DFDE43CFC123586C322D322EA
:101AFB0090002CEBF0A3EAF0A3E9F07E007F147DBD
:101B0B00007B017A00792F1203D190002F7409F01A
:101B1B0090002CE0FBA3E0FAA3E0F912095150036B
:101B2B00021C72E4900030F0900043F0900043E010
:101B3B00FF240AFDE433FC90002CE0FBA3E0FAA3A6
:101B4B00E0F98D828C83120135F4FE74442FF582FB
:101B5B00E43400F583EEF0900043E004F0E0B406CB
:101B6B00CB9000437402F0900043E0FF2442F582D7
:101B7B00E43400F583E0FE742F2FF582E43400F596
:101B8B0083EEF0900043E004F0E0B408DA7B017AD6
:101B9B0000792F9000737407F0E4FD1232DA900095
:101BAB0037EFF090002FE0F4900038F07B017A00D3
:101BBB00792F9000747407F0E4FD1236D4EEF49094
:101BCB000039F07B017A00792F9000747407F0E4F0
:101BDB00FD1236D4EFF490003AF07B017A00792FA6
:101BEB00900074740BF07D081236D4EEF490003B29
:101BFB00F07B017A00792F900074740BF07D081242
:101C0B0036D4EFF490003CF09000677407F0A374A7
:101C1B0001F0A37400F0A3744AF0E4A3F0A37405DD
:101C2B00F07B017A00792F7D021233AF9000547450
:101C3B0005F0A37401F0A37400F0A3742FF0A37448
:101C4B0008F0A3740DF0A37401F0A37400F0A37457
:101C5B002FF0A3740EF0A37413F07B017A00794A72
:101C6B00E4FD122E0A80329000307401F090004394
:101C7B0004F0900043E0FFC394115014742F2FF520
:101C8B0082E43400F583E4F0900043E004F080E25A
:101C9B00E4900042F0900041F07B017A00792F1222
:101CAB0038122290004EEBF0A3EAF0A3E9F0E4FF28
:101CBB00EF2401FDE433FC90004EE0FBA3E0FAA31C
:101CCB00E0F98D828C83120135F4FE74512FF5826D
:101CDB00E43400F583EEF00FEFB406D490004EE041
:101CEB00FBA3E0FAA3E0F9900007120135FF120104
:101CFB001CF46F6003021E0090006D7407F09000DF
:101D0B000812013590006EF090004EA3A3E4FD1273
:101D1B003A674003021E0090006D7405F090004E70
:101D2B00E0F9A3E0FAA3E090006EC9F0A3EAF0A3F8
:101D3B00E9F0E4A3F0A37405F090004EE0F9A3A33F
:101D4B00E0900073C9F0A3EAF0A3E9F0A37409F0E3
:101D5B00A3740EF07B017A007951E4FD1229B44093
:101D6B0003021E0090006D740EF090004EE0FBA37A
:101D7B00E0FAA3E0F990000F12013590006EF0909D
:101D8B00004EA3A3E07D07123A67506990006D7473
:101D9B0007F090004EE0FBA3E0FAA3E0F9900010EF
:101DAB00120135F490006EF0900011120135F49091
:101DBB00006FF090004EA3A3E4FD123961503690F2
:101DCB00006D740FF090004EE0FBA3E0FAA3E0F976
:101DDB00900012120135F490006EF0900013120176
:101DEB0035F490006FF090004EA3A3E07D081239FC
:101DFB00615002C322D322900047EBF0A3EAF0A379
:101E0B00E9F0E4FFEF2401FDE433FC900047E0FB35
:101E1B00A3E0FAA3E0F98D828C83120135F4FE74F2
:101E2B004A2FF582E43400F583EEF00FEFB406D4BD
:101E3B00900047E0FBA3E0FAA3E0F9900007120142
:101E4B0035FF12011CF46F6003021F5490006D7478
:101E5B0007F090000812013590006EF0900047A338
:101E6B00A3E4FD123A674003021F5490006D740502
:101E7B00F0900047E0F9A3E0FAA3E090006EC9F000
:101E8B00A3EAF0A3E9F0E4A3F0A37405F0900047F4
:101E9B00E0F9A3A3E0900073C9F0A3EAF0A3E9F083
:101EAB00A37409F0A3740EF07B017A00794AE4FD68
:101EBB001229B44003021F5490006D740EF0900071
:101ECB0047E0FBA3E0FAA3E0F990000F1201359075
:101EDB00006EF0900047A3A3E07D07123A675069AC
:101EEB0090006D7407F0900047E0FBA3E0FAA3E0CD
:101EFB00F9900010120135F490006EF09000111261
:101F0B000135F490006FF0900047A3A3E4FD123964
:101F1B0061503690006D740FF0900047E0FBA3E02A
:101F2B00FAA3E0F9900012120135F490006EF090D4
:101F3B000013120135F490006FF0900047A3A3E05B
:101F4B007D081239615002C322D322900047EBF077
:101F5B00A3EAF0A3E9F0E4FFEF2401FDE433FC90E6
:101F6B000047E0FBA3E0FAA3E0F98D828C8312011A
:101F7B0035F4FE744A2FF582E43400F583EEF00F4E
:101F8B00EFB406D4900047E0FBA3E0FAA3E0F9908E
:101F9B000007120135FF12011CF46F60030220A829
:101FAB0090006D7407F090000812013590006EF0F0
:101FBB00900047A3A3E4FD123A6740030220A890C8
:101FCB00006D7405F0900047E0F9A3E0FAA3E090F0
:101FDB00006EC9F0A3EAF0A3E9F0E4A3F0A3740543
:101FEB00F0900047E0F9A3A3E0900073C9F0A3EAD7
:101FFB00F0A3E9F0A37409F0A3740EF07B017A004F
:10200B00794AE4FD1229B440030220A890006D74B4
:10201B000EF0900047E0FBA3E0FAA3E0F990000F6D
:10202B0012013590006EF0900047A3A3E07D0712DC
:10203B003A67506990006D7407F0900047E0FBA37E
:10204B00E0FAA3E0F9900010120135F490006EF065
:10205B00900011120135F490006FF0900047A3A38C
:10206B00E4FD123961503690006D740FF09000470B
:10207B00E0FBA3E0FAA3E0F9900012120135F49013
:10208B00006EF0900013120135F490006FF0900089
:10209B0047A3A3E07D081239615002C322D32290DB
:1020AB000029EBF0A3EAF0A3E9F0900029E0FBA3F1
:1020BB00E0FAA3E0F912011CFF60126402600EEF5C
:1020CB0064046009EF64066004EFB41613C20112D6
:1020DB003A3A900029E0FBA3E0FAA3E0F90206F4F8
:1020EB00900029E0FBA3E0FAA3E0F912011CB4086D
:1020FB0013C201123A3A900029E0FBA3E0FAA3E0E5
:10210B00F9021AFB900029E0FBA3E0FAA3E0F91215
:10211B00011CB40B13C201123A3A900029E0FBA345
:10212B00E0FAA3E0F90213C6900029E0FBA3E0FA62
:10213B00A3E0F912011CB40E13C201123A3A90003B
:10214B0029E0FBA3E0FAA3E0F9020FA7900029E036
:10215B00FBA3E0FAA3E0F912011CB41013C20112A5
:10216B003A3A900029E0FBA3E0FAA3E0F9020D8FC5
:10217B00900029E0FBA3E0FAA3E0F912011CB412D2
:10218B0013C201123A3A900029E0FBA3E0FAA3E054
:10219B00F90211B8900029E0FBA3E0FAA3E0F912D1
:1021AB00011CB41413C201123A3A900029E0FBA3AC
:1021BB00E0FAA3E0F90225B3900029E0FBA3E0FAD3
:1021CB00A3E0F912011CB41813C201123A3A9000A1
:1021DB0029E0FBA3E0FAA3E0F9022477123A3AC212
:1021EB0001123A5122C2AF123ADB123B4CD2AF531F
:1021FB00C17F43C11030B4030222CF9000FA7401A7
:10220B00F0123ADB53C17F43C11030B41B123ADBDF
:10221B00E49000F9F0C200C20190011FF0A3F0128C
:10222B0039D81239BD0222CF9000007401F0900012
:10223B0000E0FFD3941E50CCEF941C5008123ABA16
:10224B00123ADB8013900000E0FF123AF8123ADBEF
:10225B00900000E0FF123B06900001120205000007
:10226B0000011203FDEC543FFC9000051201F953E1
:10227B00C17F43C110900001E0FCA3E0FDA3E0FE91
:10228B00A3E0FF900000E014F9F81201E6900005BE
:10229B00E0F8A3E0F9A3E0FAA3E05FFFEA5EFEE952
:1022AB005DFDE85CFC4D4E4F6007E4FF12393E804C
:1022BB000A900000E0FF12393E809D900000E00480
:1022CB00F00222391238EE123764900120E030E42C
:1022DB000D123B52900120E054EFF00221FA9001D5
:1022EB0020E030E50D12379D900120E054DFF00225
:1022FB0021FA900120E030E1179000FAE0FF123B49
:10230B0006C200123A3A900120E054FDF00221FA85
:10231B00900120E020E2030221FAC201123A51900F
:10232B000120E054FBF00221FA900050EBF0A3EAFD
:10233B00F0A3E9F012302D9000571201F9900057DD
:10234B00E0FCA3E0FDA3E0FEA3E0FF78181201D3AD
:10235B00900053EFF0900057E0FCA3E0FDA3E0FEEC
:10236B00A3E0FF78101201D3900054EFF0900057C8
:10237B00E0FCA3E0FDA3E0FEA3E0FF78081201D38D
:10238B00900055EFF0900057A3A3A3E0900056F0F8
:10239B0090006D7403F0900050E0F9A3E0FAA3E015
:1023AB0090006EC9F0A3EAF0A3E9F0A37401F0A3C7
:1023BB007403F07B017A0079537D01122D6D40037C
:1023CB0002247590006D7407F0900050E0FBA3E0C1
:1023DB00FAA3E0F990001012013590006EF0900016
:1023EB0050A3A3E4FD123A67400302247590006DDD
:1023FB00740FF0900050E0FBA3E0FAA3E0F990001B
:10240B001112013590006EF0900050A3A3E07D08EF
:10241B00123A67505590006D7411F0900050E0FB2C
:10242B00A3E0FAA3E0F990001212013590006EF0D0
:10243B0090001312013590006FF0900050A3A3E4AD
:10244B00FD1239615024900057E0FCA3E0FDA3E09E
:10245B00FEA3E02401FFE43EFEE43DFDE43CFC90E2
:10246B0000677402F0122A88C322D32290002C1228
:10247B002F301201B09000431201F97E007F147DC2
:10248B00007B017A00792F1203D190002F7419F081
:10249B0090002CE0FBA3E0FAA3E0F9121F565003C7
:1024AB0002258FE4900030F01230A1EFF490003150
:1024BB00F0900043E0FCA3E0FDA3E0FEA3E0FF7877
:1024CB00181201D3900032EFF0900043E0FCA3E030
:1024DB00FDA3E0FEA3E0FF78101201D3900033EFD1
:1024EB00F0900043E0FCA3E0FDA3E0FEA3E0FF7847
:1024FB00081201D3900034EFF0900043A3A3A3E0A4
:10250B00900035F090003A74FFF0900039F0900095
:10251B0038F0900037F0900036F090003EF09000CD
:10252B003DF090003CF090003BF07B017A00792F5E
:10253B009000737407F0E4FD1232DA90003FEFF075
:10254B007B017A00792F900073740FF07D081232A3
:10255B00DA900040EFF07B017A00792F90007474D1
:10256B0011F0E4FD1236D4EE900041F07B017A00BD
:10257B00792F9000747411F0E4FD1236D490004260
:10258B00EFF0801B9000307401F07F0F900031E46E
:10259B00F0A3DFFC7F11E4900042F0900041F07B50
:1025AB00017A00792F02381290002C122F309000F4
:1025BB00431201F97E007F147D007B017A00792F95
:1025CB001203D190002F7415F090002CE0FBA3E0C8
:1025DB00FAA3E0F9121E0250030226C7E490003062
:1025EB00F01230A1EFF4900031F0900043E0FCA327
:1025FB00E0FDA3E0FEA3E0FF78181201D3900032B8
:10260B00EFF0900043E0FCA3E0FDA3E0FEA3E0FFAE
:10261B0078101201D3900033EFF0900043E0FCA34D
:10262B00E0FDA3E0FEA3E0FF78081201D390003495
:10263B00EFF0900043A3A3A3E0900035F0E49000EB
:10264B003AF0900039F0900038F0900037F090009D
:10265B0036F090003EF090003DF090003CF0900082
:10266B003BF07B017A00792F9000737407F0E4FD47
:10267B001232DA90003FEFF07B017A00792F900055
:10268B0073740FF07D081232DA900040EFF07B018B
:10269B007A00792F9000747411F0E4FD1236D4EEA9
:1026AB00900041F07B017A00792F9000747411F047
:1026BB00E4FD1236D4900042EFF0801B9000307492
:1026CB0001F07F0F900031E4F0A3DFFC7F11E49069
:1026DB000042F0900041F07B017A00792F02381212
:1026EB00900029EBF0A3EAF0A3E9F0900029E0FBBE
:1026FB00A3E0FAA3E0F8AC02AD037BFF7A2C79D20E
:10270B001203B4EF7009123B14123A3AD201229021
:10271B000029E0FBA3E0FAA3E0F8AC02AD037BFFDA
:10272B007A2C79DE1203B4EF70028056900029E008
:10273B00FBA3E0FAA3E0F8AC02AD037BFF7A2C79A4
:10274B00FB1203B4EF70030227E8900029E0FBA310
:10275B00E0FAA3E0F8AC02AD037BFF7A2C79EC1224
:10276B0003B4EF7002801B900029E0FBA3E0FAA3F7
:10277B00E0F8AC02AD037BFF7A2D79071203B4EFBF
:10278B007004C2010022900029E0FBA3E0FAA3E051
:10279B00F8AC02AD037BFF7A2D79151203B4EF7001
:1027AB0005C201023A3A900029E0FBA3E0FAA3E04C
:1027BB00F8AC02AD037BFF7A2D792A1203B4EF60DC
:1027CB0021900029E0FBA3E0FAA3E0F8AC02AD03F3
:1027DB007BFF7A2D793F1203B4EF123A3AC2011202
:1027EB003A5122C0E0C0F0C083C082C0D075D0087F
:1027FB00900115E07025D2CC900110E014F0702000
:10280B0074C8F0900116E014F07015745AF0900132
:10281B00157401F01239D8C2CC8005900115E4F083
:10282B00300122900118E014F0E0701974C8F09098
:10283B000112E014F0E0700D900120E04404F090E0
:10284B0001127405F030001390010DE014F0E070EC
:10285B000A743CF0900120E04402F0900114E01463
:10286B00F0700D900120E04410F09001147404F00E
:10287B009000F9E0B4800D900111E014F07005B2F6
:10288B00C87464F09000F9E06440703290010E74EB
:10289B00FFF5F012018445F07024900117E004F06D
:1028AB00E0B4040FC2C8E4F090010E04F0A37490DE
:1028BB00F0800BB2C890010EE4F0A37464F0D0D09A
:1028CB00D082D083D0F0D0E032E490000AF0A31293
:1028DB000205000000011203FD1201B09000FDE0A3
:1028EB00F8A3E0F9A3E0FAA3E05FFFEA5EFEE95D7F
:1028FB00FDE85CFC9000FD1201F99000FDE0FCA3EB
:10290B00E0FDA3E0FEA3E0FFEC543FFC90000F12B0
:10291B0001F97E007F1E7D007B017A0079DB1203BB
:10292B00D190000FE0FCA3E0FDA3E0FEA3E0FFECE1
:10293B004D4E4F60649000F9E04420F0E4900009A4
:10294B00F0900009E0F9C3941E505590000BE0FC89
:10295B00A3E0FDA3E0FEA3E0FFA8011201E6A3E0C4
:10296B00F8A3E0F9A3E0FAA3E05FFFEA5EFEE95DFE
:10297B00FDE85C4D4E4F6019900009E004FFA3E0A9
:10298B0024DBF582E43400F583EFF090000AE004D9
:10299B00F0900009E004F080A89000F9E054DFF01B
:1029AB0090000AE09000DAF022900069EBF0A3EAC5
:1029BB00F0A3E9F0A3EDF0E4900079F0900078ED4E
:1029CB00F090006DE0FF900078E0FED39F40030293
:1029DB002A65EEFF900076E02FFFE433FE90006C4B
:1029EB00E0FDC3EF9DFFEE9400FE900073E0FBA3B0
:1029FB00E0FAA3E0F98F828E83120135FF90006914
:102A0B00E0FBA3E0FAA3E0F9900078E0FEF5827515
:102A1B008300120135B507047F0180027F00EEFDB4
:102A2B00900071E02DFDE433FC90006CE0FBC3EDF6
:102A3B009BFDEC9400FC90006EE0FBA3E0FAA3E09E
:102A4B00F98D828C831201356F6006900079E0045A
:102A5B00F0900078E004F00229CC90006CE0FFA32A
:102A6B00E0C39FFFE49400CF2401CF3400FE90001D
:102A7B0079E0B50706E4B50602D322C322900063C2
:102A8B001201F9900067E0B40119900063E0FCA318
:102A9B00E0FDA3E0FEA3E0FF9000691201F9123004
:102AAB002D801E900067E0B4021D1231FA90006970
:102ABB001201F9900063E0FCA3E0FDA3E0FEA3E0AC
:102ACB00FF90006D1201F97F007EF212000EE49070
:102ADB000068F0900068E0FB2400FFE434F2FEC0D5
:102AEB0006C007A3E0FCA3E0FDA3E0FEA3E0FFC349
:102AFB0074039B75F008A4F9F81201D3AD07D00746
:102B0B00D0061239F1900068E0FB2404FFE434F2A4
:102B1B00FEC006C00790006DE0FCA3E0FDA3E0FE45
:102B2B00A3E0FFC374039B75F008A4F9F81201D35B
:102B3B00AD07D007D0061239F1900068E004F0E041
:102B4B00C39404408E22900063EBF0A3EAF0A3E958
:102B5B00F0A3EDF0E4900068F0900068E0FFC39400
:102B6B00045022EF2404FFE434F0FE123A229000CA
:102B7B0068E02469F582E43400F583EFF090006897
:102B8B00E004F080D47F007EF012000E900066E02F
:102B9B00900068F0900067E0FFA3E0FED39F5067C2
:102BAB00900066E0FDEEC39DFFE49400CF2400CFC0
:102BBB0034F0FE900063E0FBA3E0FAA3E0F9900091
:102BCB0068E0F582758300120135FD1239F1900032
:102BDB0066E0FDFF900068E0FCC39FFFE49400CF2C
:102BEB002404CF34F0FEEDFBECC39BFDE49400FC1E
:102BFB0074692DF58274003CF583E0FD1239F19078
:102C0B000068E004F0808D225393EF5394EF5393BD
:102C1B00F75394F75393FB5394FB53917F53927F4A
:102C2B005391BF5392BF53957F53967F5395BF5389
:102C3B0096BF5395DF5396DF5395EF5396EF53950E
:102C4B00F75396F75395FB5396FB5395FD5396FD10
:102C5B005395FE5396FE53B1DF53B2DF53B3BF53BD
:102C6B00B4BF53B3DF53B4DF53B3EF53B4EF53B32A
:102C7B00F753B4F753B3FB53B4FB53B3FD53B4FD4A
:102C8B0053C9FB53CAFB53C9FD53CAFD53E17F53D1
:102C9B00E27F53E1BF53E2BF53E1DF53E2DF53E186
:102CAB00EF53E2EF53E1F753E2F753E1FB53E2FB50
:102CBB0053E1FD53E2FD53E1FE53E2FE2241542B5F
:102CCB00525345540D0A00436F6E6E656374656411
:102CDB000D0A004164766572746973696E670D0A3B
:102CEB0000446973636F6E6E65637465640D0A00EF
:102CFB0054696D6564204F75740D0A00496E6974D3
:102D0B0069616C697A65640D0A005665726966695A
:102D1B00636174654964656E746974790D0A00505A
:102D2B006C656173655F6F70656E746865646F6FFA
:102D3B00720D0A004F4B00436F6E6E656374696FC3
:102D4B006E2069732062726F6B656E0041542B535A
:102D5B004E414D2B00000000000000000000000061
:102D6B000D0A900069EBF0A3EAF0A3E9F0A3EDF0F4
:102D7B00E4900074F0900073EDF090006DE0FF9024
:102D8B000073E0FED39F5054EEFF900071E02FFFD5
:102D9B00E433FE90006CE0FDC3EF9DFFEE9400FE6C
:102DAB0090006EE0FBA3E0FAA3E0F98F828E831212
:102DBB000135F4FF900069E0FBA3E0FAA3E0F99082
:102DCB000073E0F582758300120135B5070690009C
:102DDB0074E004F0900073E004F0809E90006CE0CF
:102DEB00FFA3E0C39FFFE49400CF2401CF3400FE88
:102DFB00900074E0B50706E4B50602D322C3229017
:102E0B000050EBF0A3EAF0A3E9F0A3EDF090005F24
:102E1B00F0900054E0FF90005FE0FED39F5079EEFE
:102E2B00FF900058E02FFFE433FE900053E0FDC30A
:102E3B00EF9DFFEE9400FE900055E0FBA3E0FAA39C
:102E4B00E0F98F828E83120135FF900050E0FBA3D7
:102E5B00E0FAA3E0F990005FE0FEF58275830012C3
:102E6B0001356FFFEEFD90005DE02DFDE433FC902E
:102E7B000053E0FBC3ED9BFDEC9400FC90005AE08B
:102E8B00FBA3E0FAA3E0F98D828C83EF1201629031
:102E9B00005FE004F0022E1C22787FE4F6D8FD756B
:102EAB008120022EEB0221F0E493A3F8E493A340DC
:102EBB0003F68001F208DFF48029E493A3F85407AA
:102ECB00240CC8C333C4540F4420C8834004F456A5
:102EDB00800146F6DFE4800B0102040810204080DD
:102EEB00903418E47E019360BCA3FF543F30E50996
:102EFB00541FFEE493A360010ECF54C025E060A8DD
:102F0B0040B8E493A3FAE493A3F8E493A3C8C5826F
:102F1B00C8CAC583CAF0A3C8C582C8CAC583CADFDD
:102F2B00E9DEE780BEEBF0A3EAF0A3E9F0E4FB9067
:102F3B000047120205000000009000DAE0605AE43E
:102F4B00FA9000DAE0FFEBC39F503074DB2BF58275
:102F5B00E43400F583E014B50221900047E0FCA3B4
:102F6B00E0FDA3E0FEA3E0FF78011201E6EF4401D0
:102F7B00FFEC9000471201F90B8019900047E0FC21
:102F8B00A3E0FDA3E0FEA3E0FF78011201E69000B1
:102F9B00471201F90AEAB420A8900047E0FCA3E02D
:102FAB00FDA3E0FEA3E0FF22C0E0C083C082C0D03F
:102FBB0075D000C00730982DC29890011EE0702587
:102FCB0090011CE0C394204002E4F090011CE0FF50
:102FDB0004F0747A2FF582E43400F583E599F090D0
:102FEB00011D7432F030992FC29990011AE0FF90B5
:102FFB000119E06F601CE0249AF582E43400F5833C
:10300B00E0F599900119E004F0C394404009E4F015
:10301B00800590011BE4F0D007D0D0D082D083D0B4
:10302B00E03290007212020500000000E490007183
:10303B00F0900071E0FFC39404504CEF2404FFE4C4
:10304B0034F2FE123A22E4FCFDFEC004C005C006B9
:10305B00C007900072E0FCA3E0FDA3E0FEA3E0FF3D
:10306B0078081201E6D003D002D001D000EF4BFF5D
:10307B00EE4AFEED49FDEC48FC9000721201F9900E
:10308B000071E004F080AA900072E0FCA3E0FDA3C5
:10309B00E0FEA3E0FF2290006A1202050000000090
:1030AB00E4900069F0900069E0FFC39404504BE496
:1030BB002FFFE434EEFE123A22E4FCFDFEC004C006
:1030CB0005C006C00790006AE0FCA3E0FDA3E0FE8C
:1030DB00A3E0FF78081201E6D003D002D001D000A4
:1030EB00EF4BFFEE4AFEED49FDEC48FC90006A12F7
:1030FB0001F9900069E004F080AB90006AE0FCA35A
:10310B00E0FDA3E0FEA3E0FF2290006A120205009F
:10311B00000000E4900069F0900069E0FFC39404A4
:10312B00504BE42FFFE434EEFE123A22E4FCFDFE9A
:10313B00C004C005C006C00790006AE0FCA3E0FD18
:10314B00A3E0FEA3E0FF78081201E6D003D002D083
:10315B0001D000EF4BFFEE4AFEED49FDEC48FC9031
:10316B00006A1201F9900069E004F080AB90006AEC
:10317B00E0FCA3E0FDA3E0FEA3E0FF2290005C12C5
:10318B00020500000000E490005BF090005BE0FFA4
:10319B00C39404504BE42FFFE434ECFE123A22E4C8
:1031AB00FCFDFEC004C005C006C00790005CE0FC3F
:1031BB00A3E0FDA3E0FEA3E0FF78081201E6D00335
:1031CB00D002D001D000EF4BFFEE4AFEED49FDECF3
:1031DB0048FC90005C1201F990005BE004F080ABBE
:1031EB0090005CE0FCA3E0FDA3E0FEA3E0FF2290D7
:1031FB00007212020500000000E4900071F09000D4
:10320B0071E0FFC39404504BE42FFFE434F2FE1241
:10321B003A22E4FCFDFEC004C005C006C0079000C6
:10322B0072E0FCA3E0FDA3E0FEA3E0FF780812012F
:10323B00E6D003D002D001D000EF4BFFEE4AFEEDFB
:10324B0049FDEC48FC9000721201F9900071E0040A
:10325B00F080AB900072E0FCA3E0FDA3E0FEA3E0E6
:10326B00FF22900050EBF0A3EAF0A3E9F078537C37
:10327B00007D017BFF7A2D79577E007F161200F6B9
:10328B007E08EE24F8FDE434FFFC900050E0FBA335
:10329B00E0FAA3E0F98D828C83120135FF74532E73
:1032AB00F582E43400F583EFF00EEEB414D4C29043
:1032BB00123B3AE4FE74532EF582E43400F583E0BE
:1032CB00FF1239170EEEB416EC123ACCD2902290B4
:1032DB00006FEBF0A3EAF0A3E9F0E4900075F09037
:1032EB000073E0FFEDD39F504BE4A3F090006FE031
:1032FB00FBA3E0FAA3E0F98D82758300120135FF81
:10330B00E4FEAC07EFC313FF25E0FBC3EC9B6006A9
:10331B00900074E004F00EEEB408E7900074E03017
:10332B00E007A3E025E0F08008900075E025E004BD
:10333B00F00D80AB900075E0FF22900069EBF0A3DD
:10334B00EAF0A3E9F0A3EDF0900073F090006DE0CC
:10335B00FF900073E0FED39F5049900069E0FBA300
:10336B00E0FAA3E0F98E82758300120135FFEEFDC2
:10337B00900072E0C39DFDE49400FC90006CE0FBB8
:10338B00C3ED9BFDEC9400FC90006EE0FBA3E0FA18
:10339B00A3E0F98D828C83EF120162900073E0043D
:1033AB00F080A922900063EBF0A3EAF0A3E9F0A36D
:1033BB00EDF090006DF0900067E0FF90006DE0FE87
:1033CB00D39F5048900063E0FBA3E0FAA3E0F98E93
:1033DB0082758300120135F4FFEEFD90006BE02D3A
:1033EB00FDE433FC900066E0FBC3ED9BFDEC940029
:1033FB00FC900068E0FBA3E0FAA3E0F98D828C83DC
:10340B00EF12016290006DE004F080AA22410115D9
:10341B0000410110C84101165A410118C841010D64
:10342B003C410112054101130141011404410111F9
:10343B006442010E025841011700C10242011F00F4
:10344B0000C101C1004100FA014100F9004100DA5D
:10345B000044010500000000440109000000004485
:10346B000101000000004400FD000000004200FBD1
:10347B00000000900029EBF0A3EAF0A3E9F0900123
:10348B001CE0601CE0FF7E00900029E0FBA3E0FA4B
:10349B00A3E0F8AC02AD037B017A00797A1200F657
:1034AB00900029E0FBA3E0FAA3E0F990011CE0F502
:1034BB0082758300E41201627E007F207D007B0118
:1034CB007A00797A1203D1E490011CF090011EF07E
:1034DB00229000691201F97F007EEE12000EE4903B
:1034EB00006DF090006DE0FBC394045038EB2400AA
:1034FB00FFE434EEFEC006C007900069E0FCA3E0D9
:10350B00FDA3E0FEA3E0FFC374039B75F008A4F9D1
:10351B00F81201D3AD07D007D0061239F190006D28
:10352B00E004F080BE229000691201F97F007EEE6C
:10353B0012000EE490006DF090006DE0FBC394045C
:10354B005038EB2400FFE434EEFEC006C0079000B9
:10355B0069E0FCA3E0FDA3E0FEA3E0FFC374039BC3
:10356B0075F008A4F9F81201D3AD07D007D00612F5
:10357B0039F190006DE004F080BE2290005B1201E7
:10358B00F97F007EEC12000EE490005FF090005F7C
:10359B00E0FBC394045038EB2400FFE434ECFEC092
:1035AB0006C00790005BE0FCA3E0FDA3E0FEA3E0F8
:1035BB00FFC374039B75F008A4F9F81201D3AD0790
:1035CB00D007D0061239F190005FE004F080BE22E4
:1035DB00900050EBF0A3EAF0A3E9F0A3EDF090001C
:1035EB0055F0900054E0FFA3E0FED39F50369000BF
:1035FB0053E0FDEEC39DFFE49400CF2400CF34F0E5
:10360B00FE123A22900050E0FBA3E0FAA3E0F990FF
:10361B000055E0F582758300EF120162900055E0D2
:10362B0004F080BE22900069EBF0A3EAF0A3E9F06E
:10363B00A3EDF090006EF090006DE0FFA3E0FED3E1
:10364B009F503690006CE0FDEEC39DFFE49400CFDD
:10365B002404CF34F0FE123A22900069E0FBA3E081
:10366B00FAA3E0F990006EE0F582758300EF12018A
:10367B006290006EE004F080BE227E007F407D00F1
:10368B007B017A00799A1203D17E007F207D007B2B
:10369B00017A00797A1203D17E017F1912383EE547
:1036AB0098543F4440F598438E01D2AC439810E5B3
:1036BB00A2543F4440F5A253B17F53B27F53B1BFE5
:1036CB0053B2BF5397EF0239A2900070EBF0A3EA0D
:1036DB00F0A3E9F0E4900075F0A3F0AF059000744F
:1036EB00E0FEEFD39E5024900070E0FBA3E0FAA322
:1036FB00E0F98F82758300120135FD900076E02D85
:10370B00F0900075E03400F00F80D2900075E0FE71
:10371B00A3E0FF22EF7006ED24FF92CB22EFB40162
:10372B0006ED24FF928522EFB40206ED24FF92866C
:10373B0022EFB40306ED24FF928722EFB40406EDCB
:10374B0024FF92E822EFB40506ED24FF92EA22EF64
:10375B00B40605ED24FF92E92212386CE433F9121A
:10376B003898E433FDE9600B9000F9E04440F0E059
:10377B00547FF0E9700EED600B9000F9E04480F09F
:10378B00E054BFF0E9700AED70079000F9E0543F88
:10379B00F0227B017A00790912347E900009E0FF58
:1037AB00C394414006EFD3945A400CEFC39461404D
:1037BB000FEFD3947A50097B017A0079090220AA82
:1037CB007B017A0079091226EB2253C9F743CA0809
:1037DB005393DF4394205393BF43944053937F43BE
:1037EB00948053CBFE43CC0153CBFD43CC0253CB44
:1037FB00FB43CC0453CBF743CC0853B37F43B48088
:10380B00227B017A00792F900050EBF0A3EAF0A312
:10381B00E9F0E4FE900050E0FBA3E0FAA3E0F98EA0
:10382B0082758300120135FF1239170EEEB414E4C2
:10383B00023ACC8F828E83E4F0A3F08F828E83A327
:10384B00A3F08F828E83A3A3A3F0EF2404F582E46D
:10385B003EF583E4F0EF2405F582E43EF583E4F0D6
:10386B0022E4FBFAFC7F041238C4EF2BFBEE3AFA8E
:10387B000CECB410F0EAC4F854F0C868FAEBC4547A
:10388B000F48D394E1EA9400400122D322E4FBFADF
:10389B00FC7F051238C4EF2BFBEE3AFA0CECB4109C
:1038AB00F0EAC4F854F0C868FAEBC4540F48D39448
:1038BB0014EA9400400122D322E4F5BDF5BE53BCBB
:1038CB00F8EF42BC43BC0800000000E5BC30E4FB51
:1038DB0053BCEFAFBDEF75F004A4FFAEF0ADBEEF80
:1038EB004DFF229000DAE070109000F9E054DFF009
:1038FB00123B58E07015C2C8229000F9E04420F04A
:10390B009000DBE0FF12393E123B5D2290011AE082
:10391B00249AF582E43400F583EFF090011AE00469
:10392B00F0C394404002E4F090011BE0700404F0FB
:10393B00D29922AA07D2C7EA75F00A84FF123982FC
:10394B00C2EB123B43D2EBEA75F00A84AFF01239AB
:10395B0082C2C7023B4390006DE0900074F01236B8
:10396B00D4AD07AC06ECFF90006EE0B50707A3E003
:10397B00B50502D322C322EF903B6093FEE4FCAB70
:10398B0006EEC313FEAF0425E0FDC3EB9DFD12371E
:10399B001F0CECB407E922200217538EEF538EF75E
:1039AB00438E0475D6FD75D78F53AFFB438E10D264
:1039BB0002227F1D123B067F1E123B06C2C87E00F1
:1039CB007F1E7D007B017A0079DB0203D17E007FB5
:1039DB00207D007B017A00797A1203D1E490011CDF
:1039EB00F090011EF02275C78075C5028FC4EEF5ED
:1039FB00C3AF058FC275C65A75C6A500023AEA1247
:103A0B003A93123685123A7D123B2E122C13123B2F
:103A1B00211237D502000375C78075C5018FC4EE1F
:103A2B00F5C375C65A75C6A500AFC2123AEA229005
:103A3B00011874C8F090010D743CF09001127405DC
:103A4B00F0A37401F022C290123B3A7BFF7A2C79DF
:103A5B00C8123AA7123ACCD2900239D890006DE036
:103A6B00900073F01232DA90006EE0B50702D322A9
:103A7B00C32253AC7F53ACBF53BAFD53AFF743AC28
:103A8B00101239A243AC0222538E7F5389FB538908
:103A9B00FC758CD8758AF0D2A9D28C2212011CFF2E
:103AAB00600C123917740129F9E43AFA80EE22E519
:103ABB00AC7E0020E1027E01EE70F453ACFD8FADC5
:103ACB002200007F057E907D47DDFEDEFCDFFA22C3
:103ADB0000007F2E7E997DF5DDFEDEFCDFFA22E411
:103AEB00F5C7F5C5F5C675C3FF75C4FF22EFB41D49
:103AFB0003D2C022EFB41E02D2EC22EFB41D03C2DC
:103B0B00C022EFB41E02C2EC2290011074C8F090D8
:103B1B000116745AF02253B3FE43B40153CBEF4357
:103B2B00CC1022439D30E4F5BDF5BE75BCE0227F81
:103B3B002F7EAEDEFEDFFC227F187E55DEFEDFFC25
:103B4B0022123A0A0239BD1217850228D4D2EBD2BF
:0F3B5B00C722D2C8223F065B4F666D7D077F6F82
:00000001FF
