:090000000220EF02000E022E5A4C
:10000B0002163FC0E0C083C08220B205B20D12328F
:10001B007CD082D083D0E0320225889003ADE0B44F
:10002B0001107F12122CE57E037F23E4FB7DB402CB
:10003B0032077F0C122CE522022204900351ECF0C4
:10004B00A3EDF090034FEEF0A3EFF0F5828E83A3B8
:10005B00A3A3E06483600302039190034FE0FEA32C
:10006B00E02405F582E43EF583E01206AB013A0489
:10007B0002AA0502C00602D60702EC080302090316
:10008B00180A010B0B01721001D9140321400359FB
:10009B004E015750016051016652015453015A549D
:1000AB0000E855015D5600F75700F25800FC590067
:1000BB00FF5A01055B01085C016C5D031D5E031FAC
:1000CB005F033960033F6103426203456303486486
:1000DB00034B65038B66037CB0000005267E037F14
:1000EB001812386CC2102212362C805D1235FA8031
:1000FB005802371112364502031D0236BE02361363
:10010B0090034FE0FEA3E02408F582E43EF583E084
:10011B00600890030BE04440800E9003A7E0541D51
:10012B00600A90030BE04420F0A3E0F0C210229091
:10013B00034FE0FEA3E02408F582E43EF583E024C0
:10014B00FF920D12327CC2102202031D02031D020C
:10015B00031D02031D12002602031D1233E60203C8
:10016B001D1237EEC2102290034FE0FCA3E0FD24DA
:10017B0008F582E43CF583E07E007810C333CE3380
:10018B00CED8F9FBAA06ED2407F582E43CF583E013
:10019B007E007818C333CE33CED8F9FFEE4AFCEF8E
:1001AB004BFD90034FE0FAA3E0FB2409F582E43A00
:1001BB00F583E04CFEEDFFEB240AF582E43AF58380
:1001CB00E0FDEF4DFFE4FCFD9003030202A490035E
:1001DB004FE0FCA3E0FD2408F582E43CF583E07ED0
:1001EB00007810C333CE33CED8F9FBAA06ED240723
:1001FB00F582E43CF583E07E007818C333CE33CE32
:10020B00D8F9FFEE4AFCEF4BFD90034FE0FAA3E069
:10021B00FB2409F582E43AF583E04CFEEDFFEB2479
:10022B000AF582E43AF583E0FDEF4DFFE4FCFD9027
:10023B00030712066E90034FE0FCA3E0FD240CF5C0
:10024B0082E43CF583E07E007810C333CE33CED806
:10025B00F9FBAA06ED240BF582E43CF583E07E0066
:10026B007818C333CE33CED8F9FFEE4AFCEF4BFDF3
:10027B0090034FE0FAA3E0FB240DF582E43AF583FB
:10028B00E04CFEEDFFEB240EF582E43AF583E0FD46
:10029B00EF4DFFE4FCFD90025A12066ED210229035
:1002AB00034FE0FEA3E02408F582E43EF583E0FF74
:1002BB0012345B805D90034FE0FEA3E02408F582CF
:1002CB00E43EF583E0FF123480804790034FE0FE5D
:1002DB00A3E02408F582E43EF583E0FF1234A58009
:1002EB003190034FE0FEA3E02408F582E43EF58352
:1002FB00E0FF1232B2801B90034FE0FEA3E0240814
:10030B00F582E43EF583E0FF1234CA8033123805E0
:10031B00802E802C802A90034FE0FEA3E0AA06F9E2
:10032B007B0112275E200D03123188D21022123866
:10033B0005C21022020D3202373402368F0235907D
:10034B007E037F18E4FB7DB4123207D210227E03AA
:10035B007F18E4FB7DB412320790034FE0FEA3E05D
:10036B002408F582E43EF583E070030237E20200D5
:10037B000690034FE0FEA3E0AA06F97B01021E8163
:10038B001238CBC2102290034FE0FEA3E0FFF582A0
:10039B008E83A3A3A3E064816003020526EF2404EC
:1003AB00F582E43EF583E024FD700302051024E39F
:1003BB0060030205269003A5E0701290034FE0FE48
:1003CB00A3E0AA06F97B0112151B02379E90035579
:1003DB007401F09003A5E0900354F0E4900353F004
:1003EB00900355E0FF900354E05F70030204F99013
:1003FB000252E0FEA3E0FF7D5A1231D1900252E08F
:10040B00FEA3E0FF7DA51231D1900252E0FEA3E0E6
:10041B00FF7D091231D1900252E0FEA3E0FF7D82F5
:10042B001231D1900252E0FEA3E0FFE4FD1231D174
:10043B00900252E0FEA3E0FF900353E075F006A498
:10044B002480FD1231D1900252E0FEA3E0FF900315
:10045B004FE0FCA3E02406F582E43CF583E0FD12BB
:10046B0031D1900252E0FEA3E0FF90034FE0FCA3DA
:10047B00E02407F582E43CF583E0FD1231D19002D4
:10048B0052E0FEA3E0FF90034FE0FCA3E02408F54D
:10049B0082E43CF583E0FD1231D1900252E0FEA3E1
:1004AB00E0FF90034FE0FCA3E0240AF582E43CF567
:1004BB0083E0FD1231D1900252E0FEA3E0FF9003E6
:1004CB004FE0FCA3E0240BF582E43CF583E0FD1246
:1004DB0031D1900252E0FEA3E0FF90034FE0FCA36A
:1004EB00E0240CF582E43CF583E0FD1231D190035E
:1004FB0055E025E0F0900353E004F0E0C394055081
:10050B00030203EB2290034FE0FEA3E02407F582E6
:10051B00E43EF583E090025EF0D21022E709F60884
:10052B00DFFA8046E709F208DFFA803E88828C8387
:10053B00E709F0A3DFFA8032E309F608DFFA8078E7
:10054B00E309F208DFFA807088828C83E309F0A359
:10055B00DFFA806489828A83E0A3F608DFFA805889
:10056B0089828A83E0A3F208DFFA804C80D280FA7A
:10057B0080C680D4806980F28033801080A680EAA8
:10058B00809A80A880DA80E280CA803389828A834D
:10059B00ECFAE493A3C8C582C8CCC583CCF0A3C83E
:1005AB00C582C8CCC583CCDFE9DEE7800D89828AA2
:1005BB0083E493A3F608DFF9ECFAA9F0EDFB2289AB
:1005CB00828A83ECFAE0A3C8C582C8CCC583CCF081
:1005DB00A3C8C582C8CCC583CCDFEADEE880DB8943
:1005EB00828A83E493A3F208DFF980CC88F0EF6072
:1005FB00010E4E60C388F0ED2402B4040050B9F52F
:10060B0082EB2402B4040050AF23234582239005D0
:10061B007773BB010CE58229F582E5833AF583E01C
:10062B00225006E92582F8E622BBFE06E92582F870
:10063B00E222E58229F582E5833AF583E49322EB06
:10064B009FF5F0EA9E42F0E99D42F0E89C45F022CE
:10065B00E8600FECC313FCED13FDEE13FEEF13FF7D
:10066B00D8F122ECF0A3EDF0A3EEF0A3EFF022A86B
:10067B00828583F0D083D0821206911206911206E6
:10068B0091120691E473E493A3C583C5F0C583C8A7
:10069B00C582C8F0A3C583C5F0C583C8C582C8226F
:1006AB00D083D082F8E4937012740193700DA3A3DE
:1006BB0093F8740193F5828883E4737402936860F2
:1006CB00EFA3A3A380DF8A838982E473E3F5F009A8
:1006DB00E208B5F06D606B80F3E3F5F009E608B561
:1006EB00F060605E80F387F009E608B5F054605265
:1006FB0080F487F009E208B5F048604680F4888200
:10070B008C8387F009E0A3B5F038603680F48882DB
:10071B008C8387F009E493A3B5F027602580F388D9
:10072B00828C83E3F5F009E0A3B5F016601480F337
:10073B0088828C83E3F5F009E493A3B5F00460029F
:10074B0080F2020802808580E7808E80D2803C8018
:10075B0015806C807E809B80B5808B80A1804F80C4
:10076B0070803A02080E89828A83ECFAE493F5F0E2
:10077B00A3C8C582C8CCC583CCE493A3C8C582C823
:10078B00CCC583CCB5F070606E80E189828A83E43E
:10079B0093F5F0A3E208B5F05E605C80F289828A83
:1007AB0083E0F5F0A3E608B5F04D604B80F389824A
:1007BB008A83E0F5F0A3E208B5F03C603A80F38958
:1007CB00828A83E493F5F0A3E608B5F02A602880CB
:1007DB00F2805389828A83ECFAE493F5F0A3C8C5BF
:1007EB0082C8CCC583CCE0A3C8C582C8CCC583CC9A
:1007FB00B5F004600280E27FFFB5F0020F224002E9
:10080B007F012289828A83ECFAE0F5F0A3C8C582C6
:10081B00C8CCC583CCE0A3C8C582C8CCC583CCB536
:10082B00F0D560D380E389828A83ECFAE0F5F0A3FC
:10083B00C8C582C8CCC583CCE493A3C8C582C8CC39
:10084B00C583CCB5F0B160AF80E288F0ED2402B483
:10085B00040050A3F582EB2402B404005099232327
:10086B0045822390075073EF4E6012EF60010EED3F
:10087B00BB010B89828A83F0A3DFFCDEFA2289F0AD
:10088B005007F709DFFCA9F022BBFEFCF309DFFCE4
:10089B00A9F022BB010689828A83E0225002E7225B
:1008AB00BBFE02E32289828A83E49322BB01068981
:1008BB00828A83F0225002F722BBFE01F322C5F09D
:1008CB00F8A3E028F0C5F0F8E582158270021583D5
:1008DB00E038F02275F008758200EF2FFFEE33FE43
:1008EB00CD33CDCC33CCC58233C5829BED9AEC99FD
:1008FB00E58298400CF582EE9BFEED9AFDEC99FC9F
:10090B000FD5F0D6E4CEFBE4CDFAE4CCF9A88222E5
:10091B00B800C1B90059BA002DEC8BF084CFCECD05
:10092B00FCE5F0CBF97818EF2FFFEE33FEED33FD3E
:10093B00EC33FCEB33FB10D703994004EB99FB0F23
:10094B00D8E5E4F9FA227818EF2FFFEE33FEED33FA
:10095B00FDEC33FCC933C910D7059BE99A4007EC72
:10096B009BFCE99AF90FD8E0E4C9FAE4CCFB2275B9
:10097B00F010EF2FFFEE33FEED33FDCC33CCC8334D
:10098B00C810D7079BEC9AE899400AED9BFDEC9AAF
:10099B00FCE899F80FD5F0DAE4CDFBE4CCFAE4C827
:1009AB00F922F8E0FBA3A3E0F925F0F0E58215822C
:1009BB0070021583E0FA38F022EBF0A3EAF0A3E91A
:1009CB00F022E5182457F582E43403F583E005188B
:1009DB0022900354300703900357E475F00112097A
:1009EB00AD02089E2000E97F2ED2008018EF540F35
:1009FB002490D43440D4FF30040BEF24BFB41A003E
:100A0B0050032461FFE51960021519051CE51C70E4
:100A1B0002051B30070E900354E475F0011209AD6B
:100A2B00EF0208B70237AD7403D2078003E4C207A5
:100A3B00F5189003541209C4E4F519F51BF51CE5E0
:100A4B001960077F20120A1080F5751AFFC201C2C8
:100A5B0000C202C203C205C206C2081209DCFF7043
:100A6B000D3007057F00120A21AF1CAE1B22B425E7
:100A7B005FC2D5C2041209DCFF24D0B40A00501A9D
:100A8B0075F00A781930D50508B6FF0106C6A426FD
:100A9B00F620D5047002D20380D924CFB41A00EF0C
:100AAB005004C2E5D204020C22D20180C6D20080CF
:100ABB00C0D20280BCD2D580BAD20580B47F2012BE
:100ACB000A102002077401B5190040F11209CDFF7D
:100ADB00120A10020A4AD208D20680951209CDFBDF
:100AEB001209CDFA1209CDF94A4B700679F37A0C3B
:100AFB007BFF20022EE519602A7E008E8275830013
:100B0B0012061D60060EEE651A70F0C2D5EBC0E042
:100B1B00EAC0E0E9C0E0EE120C69D0E0F9D0E0FAEF
:100B2B00D0E0FB12089EFF60AAEBC0E0EAC0E0E950
:100B3B00C0E0120A10D0E02401F9D0E03400FAD062
:100B4B00E0FBE51A0460DCD51AD980877BFF7A0CB1
:100B5B007965D202809C791080027908C206C2089E
:100B6B008008D2D5790A8004790AC2D5E51A0470B7
:100B7B0002F51AE4FAFDFEFF1209CDFC7B082001F9
:100B8B00131209CDFD7B1030000A1209CDFE12099C
:100B9B00CDFF7B20EC3382D592D55013C3E43000CC
:100BAB00069FFFE49EFEE42001039DFDE49CFCE414
:100BBB00CBF8C201EC700CCFCECDCCE824F8F8709A
:100BCB00F38017C3EF33FFEE33FEED33FDEC33FC55
:100BDB00EB33FB994002FB0FD8E9EB300105F8D062
:100BEB00E0C448B201C0E00AEC4D4E4F78207B00C8
:100BFB0070C2EAB51A0040BCC0E0120C6BD0F0D04A
:100C0B00E0200104C4C0E0C4B201C0F01209F9D065
:100C1B00F0D5F0EB020A4A1206AB0AE7530B615808
:100C2B000AB84C0AB4420B654F0B6D440B6D490A65
:100C3B00CD430B73550B57460B57450B57470D13AE
:100C4B00500ABC2D0AC02E0AE32B0AC4230AE1204A
:100C5B000CFC2A0A7C4800000ADB3F3F3F00790A64
:100C6B00A2D5200314300509B910020404B90801F8
:100C7B0004A2D52006025001042002689202B51985
:100C8B00005034C0E07F203003197F30A20272067F
:100C9B007205500F120CC2C202C206C205C2087FF7
:100CAB0030800F300503E9C0E0120A10300503D085
:100CBB00E0F9D0E0B519CC3005177F30B9100C1224
:100CCB000A107F583004077F788003B90803120A93
:100CDB00103002057F2D020A107F202008F87F2B91
:100CEB002006F322920280CF286E756C6C2900D2FD
:100CFB00011209CD3001F8C201781930D50108F67F
:100D0B00020A7C2D504349581209CD2403B4050027
:100D1B004001E4900D0E93120A01743A120A01D2AB
:100D2B0003751904020B61900252E0FEA3E0FF7DF4
:100D3B005A1231D1900252E0FEA3E0FF7DA5123191
:100D4B00D1900252E0FEA3E0FF7D331231D190022D
:100D5B0052E0FEA3E0FF7D821231D1900252E0FE01
:100D6B00A3E0FFE4FD1231D1900252E0FEA3E0FFBD
:100D7B007D861231D1900252E0FEA3E0FFE4FD121A
:100D8B0031D1900252E0FEA3E0FFE4FD1231D1908D
:100D9B000252E0FEA3E0FFE4FD1231D1900252E0DB
:100DAB00FEA3E0FFE4FD1231D1900252E0FEA3E07E
:100DBB00FFE4FD1231D1900252E0FEA3E0FFE4FD0F
:100DCB001231D1900252E0FEA3E0FFE4FD1231D1CB
:100DDB00900252E0FEA3E0FFE4FD1231D1900252EB
:100DEB00E0FEA3E0FFE4FD1231D1900252E0FEA33E
:100DFB00E0FFE4FD1231D1900252E0FEA3E0FFE4EC
:100E0B00FD1231D1900252E0FEA3E0FFE4FD12315E
:100E1B00D1900252E0FEA3E0FFE4FD1231D190022B
:100E2B0052E0FEA3E0FFE4FD1231D1900252E0FE4E
:100E3B00A3E0FFE4FD1231D1900252E0FEA3E0FFEC
:100E4B00E4FD1231D1900252E0FEA3E0FFE4FD126B
:100E5B0031D1900252E0FEA3E0FFE4FD1231D190BC
:100E6B000252E0FEA3E0FFE4FD1231D1900252E00A
:100E7B00FEA3E0FFE4FD1231D1900252E0FEA3E0AD
:100E8B00FFE4FD1231D1900252E0FEA3E0FFE4FD3E
:100E9B001231D1900252E0FEA3E0FFE4FD1231D1FA
:100EAB00900252E0FEA3E0FFE4FD1231D19002521A
:100EBB00E0FEA3E0FFE4FD1231D1900252E0FEA36D
:100ECB00E0FFE4FD1231D1900252E0FEA3E0FFE41B
:100EDB00FD1231D1900252E0FEA3E0FFE4FD12318E
:100EEB00D1900252E0FEA3E0FFE4FD1231D190025B
:100EFB0052E0FEA3E0FFE4FD1231D1900252E0FE7E
:100F0B00A3E0FFE4FD1231D1900252E0FEA3E0FF1B
:100F1B00E4FD1231D1900252E0FEA3E0FFE4FD129A
:100F2B0031D1900252E0FEA3E0FFE4FD1231D190EB
:100F3B000252E0FEA3E0FFE4FD1231D1900252E039
:100F4B00FEA3E0FFE4FD1231D1900252E0FEA3E0DC
:100F5B00FFE4FD1231D1900252E0FEA3E0FFE4FD6D
:100F6B001231D1900252E0FEA3E0FFE4FD1231D129
:100F7B00900252E0FEA3E0FFE4FD1231D190025249
:100F8B00E0FEA3E0FFE4FD1231D1900252E0FEA39C
:100F9B00E0FFE4FD1231D1900252E0FEA3E0FFE44A
:100FAB00FD1231D1900252E0FEA3E0FFE4FD1231BD
:100FBB00D1900252E0FEA3E0FFE4FD1231D190028A
:100FCB0052E0FEA3E0FFE4FD1231D1900252E0FEAD
:100FDB00A3E0FFE4FD1231D1900252E0FEA3E0FF4B
:100FEB00E4FD0231D11237C912375312387E122168
:100FFB007B1236E91225FF122D48C2A412228D1244
:10100B0038AAD2AFD28C1238BF9003AAEFF01238A5
:10101B00C59003ABEFF0FB9003AAE0FD7F2E7E00A3
:10102B00121F2512121112241512374412372312D4
:10103B003899123862122C8253C17F43C11090032E
:10104B000CE030E00E7BFF7A2F79BD120A3890034B
:10105B000C803A90030CE030E1117BFF7A2F79CCB6
:10106B00120A38122A7190030C804E90030BE0A3E6
:10107B0030E0207F011238907BFF7A2F79E2120A41
:10108B00381234EF1238751230F990030BE054FE1E
:10109B00F080A590030BE0A330E1257BFF7A2F793D
:1010AB00EA120A38C2831234EF123875123862C250
:1010BB000DE4FF12389090030BE054FDF002104347
:1010CB0090030CE030E519122F697E007F07122F79
:1010DB001050077F087E001237FA90030C0211F4B0
:1010EB0090030CE030E35B7E007F1012305D9003C9
:1010FB004DEEF0A3EFF07E007F071236A79002EBC8
:10110B00E0FEA3E0FF90034DE0FCA3E0FD120046E0
:10111B00900391E0B40225900395E0FBA3E0FAA3C2
:10112B00E04A4B6017900395A3A3E0F91206D19008
:10113B0003917403F07F107E001237FA90030C02B8
:10114B0011DD90030CE030E20D12205A90030CE0FD
:10115B0054FBF002104390030CE030E40D1219190C
:10116B0090030CE054EFF002104390030CE030E7D7
:10117B0013122311123762122ADD90030CE0547FF5
:10118B00F002104390030BE0A330E34DC2837BFFCF
:10119B007A2F79F0120A381234EF200D13E4FF1274
:1011AB0038907BFF7A307908120A38123862801C2B
:1011BB009003A7E05414600A123862C20DE4FF12C8
:1011CB0038909003A7E030E10312381B1233BE9026
:1011DB00030BE054F7F002104390030BE0A330E550
:1011EB000FD2A41238A290030BE054DFF00210438D
:1011FB0090030BE020E603021043C2A490030BE024
:10120B0054BFF00210437F007E42122B99EFF46023
:10121B00030212AF7F017E40122B997E00EF7810F4
:10122B00C333CE33CED8F9FDAC067F007E40122BF4
:10123B00997E00EF7818C333CE33CED8F9FFEE4C3E
:10124B00FCEF4DFD7F027E40122B99EF4CFC7F0390
:10125B007E40122B99ECFEED4FFFE4FCFD9003A1B9
:10126B0012066E7F057E40122B997E00EF7810C31D
:10127B0033CE33CED8F9FDAC067F047E40122B99CA
:10128B007E00EF7818C333CE33CED8F9FFEE4CFC8B
:10129B00EF4DFD7F067E40122B99EF4CFC7F077EB6
:1012AB004002133C7F017E42122B997E00EF781097
:1012BB00C333CE33CED8F9FDAC067F007E42122B62
:1012CB00997E00EF7818C333CE33CED8F9FFEE4CAE
:1012DB00FCEF4DFD7F027E42122B99EF4CFC7F03FE
:1012EB007E42122B99ECFEED4FFFE4FCFD9003A127
:1012FB0012066E7F067E42122B997E00EF7810C38A
:10130B0033CE33CED8F9FDAC067F057E42122B9936
:10131B007E00EF7818C333CE33CED8F9FFEE4CFCFA
:10132B00EF4DFD7F077E42122B99EF4CFC7F087E21
:10133B0042122B99ECFEED4FFFE4FCFD900399124A
:10134B00066E7F097E40122B997E00EF7810C33317
:10135B00CE33CED8F9FDAC067F087E40122B997E9A
:10136B0000EF7818C333CE33CED8F9FFEE4CFCEF39
:10137B004DFD7F0A7E40122B99EF4CFC7F0B7E407C
:10138B00122B99ECFEED4FFFE4FCFD90039D020642
:10139B006E900356EEF0A3EFF0900252E0FEA3E046
:1013AB00FF7D5A1231D1900252E0FEA3E0FF7DA5E2
:1013BB001231D1900252E0FEA3E0FF7D171231D122
:1013CB00900252E0FEA3E0FF7D821231D1900356D2
:1013DB00E0FD900252E0FEA3E0FF1231D1900252E9
:1013EB00E0FEA3E0FF900356A3E0FD1231D1900283
:1013FB0052E0FEA3E0FFE4FD1231D1900252E0FE79
:10140B00A3E0FF9002E7E0FD1231D1900252E0FE23
:10141B00A3E0FFE4FD1231D1900252E0FEA3E0FF06
:10142B00900260E0FD1231D1900252E0FEA3E0FF8A
:10143B00E4FD1231D1900252E0FEA3E0FF9002E4F2
:10144B00E0FD1231D1900252E0FEA3E0FFE4FD1269
:10145B0031D1900252E0FEA3E0FF9002E9E0FD12D1
:10146B0031D1900252E0FEA3E0FFE4FD1231D190A6
:10147B000252E0FEA3E0FF9002E8E0FD1231D190B2
:10148B000252E0FEA3E0FFE4FD1231D1900252E0E4
:10149B00FEA3E0FF900261E0FD1231D1900252E019
:1014AB00FEA3E0FFE4FD1231D1900252E0FEA3E077
:1014BB00FF9002EAE0FD1231D1900252E0FEA3E070
:1014CB00FFE4FD1231D1900252E0FEA3E0FF900247
:1014DB00E3E0FD1231D1900252E0FEA3E0FFE4FD08
:1014EB001231D1900252E0FEA3E0FF9002E2E0FD48
:1014FB001231D1900252E0FEA3E0FFE4FD1231D194
:10150B00900252E0FEA3E0FF9002EDE0FD0231D12C
:10151B00900356EBF0A3EAF0A3E9F0900356E0FB3F
:10152B00A3E0FAA3E0F990000612061DFFC4540FC6
:10153B0075F00AA4FEEF540F2EFF90000712061D44
:10154B00FEC4540F75F00AA4FDEE540F2DFE90004F
:10155B000812061DFDC4540F75F00AA4FCED540FC0
:10156B002CFD90032EE0D39F4002802290032EE0AF
:10157B006F7024900327E0D39E40028011AF06903A
:10158B000327E0B5070F90033DE0D39D4009E4909E
:10159B000317F0800880009003177401F09002503D
:1015AB00E0FEA3E0FF900356E0FBA3E0FAA3E0F913
:1015BB0090000612061DFD1231D1900250E0FEA3E1
:1015CB00E0FF900356E0FBA3E0FAA3E0F9900007DD
:1015DB0012061DFD1231D1900250E0FEA3E0FF90E8
:1015EB000356E0FBA3E0FAA3E0F990000812061DF6
:1015FB00FD1231D1900250E0FEA3E0FF90032EE0EC
:10160B00FD1231D1900250E0FEA3E0FF900327E0E2
:10161B00FD1231D1900250E0FEA3E0FF90033DE0BC
:10162B00FD1231D1900250E0FEA3E0FF900317E0D2
:10163B00FD0231D1C0E0C0F0C083C082C0D075D0F4
:10164B000890030CE04420F0900342E014F0700D7E
:10165B0090030CE04480F09003427464F0A2B3E476
:10166B0033FF90032FE06F603430B311900347E4E6
:10167B00F0A3F0900328F0A3F0D20B8020C20B90C4
:10168B000328E4F0A3F09003ACE0B40410D20A906A
:10169B00030DE4F0A3F09003A7E054FDF0300B3FF3
:1016AB009003ACE064027078900329E004F07006BC
:1016BB00900328E004F0900259E075F064A4FF90C9
:1016CB000328E065F07003A3E06F705490030BE008
:1016DB004408F0A3E0F09003A7E04402F08041300F
:1016EB000D3E300A3B90030EE004F0700690030DA4
:1016FB00E004F0900254E075F064A4FFC390030E75
:10170B00E09F90030DE095F040169003A7E054FD89
:10171B00F090030DE4F0A3F0C20A1234EF12327C06
:10172B00A2B3E43390032FF0D0D0D082D083D0F08B
:10173B00D0E03242030B0000C10DC10CC10AC1093C
:10174B00C10B41032F00420321000042030D000097
:10175B004203470000420328000041034264410357
:10176B0017004103200041032E00410327004103D2
:10177B003D00C10E41039800410381004103AA00C3
:10178B004103AB004103A7004103A5004103A8009F
:10179B004103A6004103A9004403030000000044D9
:1017AB0003070000000044025A0000000041025EE3
:1017BB00FF4202EB02624102EA0A4102E3144102D8
:1017CB00E9004102E705410260234102E4014102C5
:1017DB0061234102E8054102E2144102ED6441023A
:1017EB00590A410254144102580041025605410264
:1017FB00E523410255014102EF1441025F644102AE
:10180B00E62341025705C10F4403A1000000004429
:10181B0003990000000044039D000000004103AD4C
:10182B0000C19000900252E0FEA3E0FF7D5A1231FE
:10183B00D1900252E0FEA3E0FF7DA51231D19002C0
:10184B0052E0FEA3E0FF7D0F1231D1900252E0FE79
:10185B00A3E0FF7D821231D1900252E0FEA3E0FFA4
:10186B00E4FD1231D1900252E0FEA3E0FF7D0512A0
:10187B0031D1900252E0FEA3E0FFE4FD1231D19092
:10188B000252E0FEA3E0FFE4FD1231D1900252E0E0
:10189B00FEA3E0FFE4FD1231D1900252E0FEA3E083
:1018AB00FFE4FD1231D1900252E0FEA3E0FFE4FD14
:1018BB001231D1900252E0FEA3E0FFE4FD1231D1D0
:1018CB00900252E0FEA3E0FFE4FD1231D1900252F0
:1018DB00E0FEA3E0FFE4FD1231D1900252E0FEA343
:1018EB00E0FFE4FD1231D1900252E0FEA3E0FFE4F1
:1018FB00FD1231D1900252E0FEA3E0FFE4FD123164
:10190B00D1900252E0FEA3E0FFE4FD0231D1E4905E
:10191B00034FF090034FE0FFC3940240030219F60C
:10192B00EF75F009A42486F582E43403AF82FE90B0
:10193B000350F0A3EFF0F5828E83A3A3E0FF7003B7
:10194B000219EDEF640270030219EDEF6401704EA2
:10195B00900350E0FEA3E0FFF5828E83A3A3A3E0E8
:10196B00FBA3E0FAA3E0F9EA494B60228F828E8356
:10197B00A3A3A3A3E0FAA3E0F91206D1900350E0CE
:10198B00FEA3E0F5828E83A3A37402F08010900374
:10199B0050E0FEA3E0F5828E83A3A37403F09003C3
:1019AB0050E0FEA3E0F5828E83A3A3E064037032C4
:1019BB00900350A3E0FFF5828E83A3A3E4F08F8204
:1019CB008E83A3F0F98F828E83A3A3A3C9F0A3F018
:1019DB00A3E9F0EF2406F582E43EF583E4F0A3F0EF
:1019EB00A3F090034FE004F002191E22AC07E49021
:1019FB000350F0A3F0FBAF04123343900351E02FDD
:101A0B00F0900350E03EF00BEBB420EA900350E073
:101A1B00FEA3E07805CEC313CE13D8F9F0EE9003F6
:101A2B0050F0E0FEA3E0FBAA06E4F9F8FF7E407D50
:101A3B009CFC123144EF24F0FBEE34D8FAED34FF6A
:101A4B00F9EC34FFF87F007E2D7D317C011231449F
:101A5B00E4FBC39038CE7401939FE4939E5005E44E
:101A6B00FEFF804AD39039827401939FE4939E408A
:101A7B00067E007F5A8037EB25E024CEF582E434D6
:101A8B0038F583C37401939FE4939E401CEB25E0D0
:101A9B0024D0F582E43438F583C37401939FE49327
:101AAB009E5006EBFF7E0080050BEBB45BA4C3EFEF
:101ABB00941EEE94005006C3741E9F8003EF24E225
:101ACB0090034FF090034FE0FF22121C7790030717
:101ADB00E0FCA3E0FDA3E0FEA3E0FFEC4D4E4F7056
:101AEB001A90025AE0FCA3E0FDA3E0FEA3E0FFEC9A
:101AFB004D4E4F6006900399021B87900307E0FC45
:101B0B00A3E0FDA3E0FEA3E0FFEC4D4E4F6027905A
:101B1B00025AE0FCA3E0FDA3E0FEA3E0FFEC4D4E78
:101B2B004F7013900307E0FCA3E0FDA3E0FEA3E0DE
:101B3B00FF9003A18046900307E0FCA3E0FDA3E028
:101B4B00FEA3E0FFEC4D4E4F603890025AE0FCA331
:101B5B00E0FDA3E0FEA3E0FFEC4D4E4F60249002AE
:101B6B005AA3A3A3E090039912066E900307E0FC1F
:101B7B00A3E0FDA3E0FEA3E0FF9003A112066E120B
:101B8B001BB090030712067A0000000090025A1255
:101B9B00067A00000000E49003ADF07E037F231271
:101BAB00386C02379E7E421235359003A1E0FCA3C0
:101BBB00E0FDA3E0FEA3E0FF781812065BAD077F04
:101BCB00007E4212353C9003A1E0FCA3E0FDA3E0B4
:101BDB00FEA3E0FF781012065BAD077F017E421279
:101BEB00353C9003A1E0FCA3E0FDA3E0FEA3E0FFE6
:101BFB00780812065BAD077F027E4212353C9003DC
:101C0B00A1A3A3A3E0FD7F0312353C900399E0FC55
:101C1B00A3E0FDA3E0FEA3E0FF781812065BAD077F
:101C2B007F057E4212353C900399E0FCA3E0FDA3B7
:101C3B00E0FEA3E0FF781012065BAD077F067E4245
:101C4B0012353C900399E0FCA3E0FDA3E0FEA3E07A
:101C5B00FF780812065BAD077F077E4212353C907A
:101C6B000399A3A3A3E0FD7F0802353C900252E049
:101C7B00FEA3E0FF7D5A1231D1900252E0FEA3E0A9
:101C8B00FF7DA51231D1900252E0FEA3E0FF7D0B48
:101C9B001231D1900252E0FEA3E0FF7D821231D1CE
:101CAB00900252E0FEA3E0FFE4FD1231D19002520C
:101CBB00E0FEA3E0FF7D141231D1900252E0FEA3AF
:101CCB00E0FFE4FD1231D1900252E0FEA3E0FFE40D
:101CDB00FD1231D1900252E0FEA3E0FFE4FD123180
:101CEB00D1900252E0FEA3E0FFE4FD1231D190024D
:101CFB0052E0FEA3E0FFE4FD1231D1900252E0FE70
:101D0B00A3E0FFE4FD1231D1900252E0FEA3E0FF0D
:101D1B00E4FD1231D1900252E0FEA3E0FFE4FD029C
:101D2B0031D190034FEFF0A3EDF0A3EBF090025203
:101D3B00E0FEA3E0FF7D5A1231D1900252E0FEA3E8
:101D4B00E0FF7DA51231D1900252E0FEA3E0FF7DB2
:101D5B00091231D1900252E0FEA3E0FF7D821231D5
:101D6B00D1900252E0FEA3E0FFE4FD1231D19002CC
:101D7B0052E0FEA3E0FF7DB01231D1900252E0FEA3
:101D8B00A3E0FFE4FD1231D1900252E0FEA3E0FF8D
:101D9B0090034FE0FD1231D1900252E0FEA3E0FF21
:101DAB00E4FD1231D1900252E0FEA3E0FF9003500C
:101DBB00E0FD1231D1900252E0FEA3E0FFE4FD12F0
:101DCB0031D1900252E0FEA3E0FF900351E0FD02FF
:101DDB0031D17F007E421236D40F7E40122B997E7A
:101DEB0000EF7810C333CE33CED8F9FDAC067F00AD
:101DFB007E40122B997E00EF7818C333CE33CED8AA
:101E0B00F9FFEE4CFCEF4DFD7F027E40122B99EF5C
:101E1B004CFC7F037E40122B99ECFEED4FFFE4FC54
:101E2B00FD9003A112066E7F057E40122B997E005A
:101E3B00EF7810C333CE33CED8F9FDAC067F047EDA
:101E4B0040122B997E00EF7818C333CE33CED8F9DE
:101E5B00FFEE4CFCEF4DFD7F067E40122B99EF4CB5
:101E6B00FC7F077E40122B99ECFEED4FFFE4FCFD4F
:101E7B0090039902066E900356EBF0A3EAF0A3E9E8
:101E8B00F07F007E3E1235377E007F00900356E0D8
:101E9B00FBA3E0FAA3E0F990000812061DFD123136
:101EAB00D17E007F00900356E0FBA3E0FAA3E0F99C
:101EBB0090000A12061DFD1231D17E007F009003A7
:101ECB0056E0FBA3E0FAA3E0F990000C12061DFD0F
:101EDB001231D1900356E0FBA3E0FAA3E0F9900096
:101EEB000812061DFD7F027E3E12353C900356E024
:101EFB00FBA3E0FAA3E0F990000A12061DFD7F0395
:101F0B0012353C900356E0FBA3E0FAA3E0F99000F6
:101F1B000C12061DFD7F0402353C90034FEEF0A31F
:101F2B00EFF0A3EDF0A3EBF0900252E0FEA3E0FF85
:101F3B007D5A1231D1900252E0FEA3E0FF7DA51233
:101F4B0031D1900252E0FEA3E0FF7D071231D19018
:101F5B000252E0FEA3E0FF7D821231D190034FE0ED
:101F6B00FD900252E0FEA3E0FF1231D1900252E04D
:101F7B00FEA3E0FF90034FA3E0FD1231D19002527C
:101F8B00E0FEA3E0FFE4FD1231D1900252E0FEA38C
:101F9B00E0FF900351E0FD1231D1900252E0FEA31D
:101FAB00E0FFE4FD1231D1900252E0FEA3E0FF907E
:101FBB000352E0FD0231D1900352EEF0A3EFF04E4D
:101FCB007003022059900352E0FEA3E0F5828E834A
:101FDB00E0C3940250787BFF7A28790A900352E091
:101FEB00FEA3E0F5828E83A3E0900357F0120A382C
:101FFB00900352E0FEA3E0FFF5828E83E025E02400
:10200B0082F582E43403F583E4F0A3F08F828E83B0
:10201B00A3A374FFF0900352E0FEA3E0FFF5828EC2
:10202B0083A3A3A3E4F0EF240AF582E43EF583E057
:10203B00FBA3E0FAA3E0F9EA494B6012EF240AF59F
:10204B0082E43EF583A3E0FAA3E0F91206D122E481
:10205B0090034FF090034FE0FFC394014003022025
:10206B00EE74017E00A807088005C333CE33CED8AB
:10207B00F9FF900381E0FDEF5D605F90034FE0257A
:10208B00E0247FF582E43403F583E0FFA3E09003C3
:10209B0050CFF0A3EFF0900350E0FCA3E0FDF582EE
:1020AB008C83A3A3E0FF900352F0ED2410F582E4A0
:1020BB003CF583A3E0FAA3E0F5828A831206D59060
:1020CB000381E0FF90034FE0FE7401A80608800235
:1020DB00C333D8FCF45F900381F090034FE004F01E
:1020EB0002205F22787FE4F6D8FD7581220221362B
:1020FB00020FF0E493A3F8E493A34003F68001F2FC
:10210B0008DFF48029E493A3F85407240CC8C333E5
:10211B00C4540F4420C8834004F456800146F6DFB4
:10212B00E4800B010204081020408090173EE47EEF
:10213B00019360BCA3FF543F30E509541FFEE493A9
:10214B00A360010ECF54C025E060A840B8E493A370
:10215B00FAE493A3F8E493A3C8C582C8CAC583CA9B
:10216B00F0A3C8C582C8CAC583CADFE9DEE780BE53
:10217B00E598543F4440F598438E0153A23FD2ACAF
:10218B00439810E4900000F0FE7F80FD7B017A0005
:10219B0079901208727E007F027D007B017A0079B4
:1021AB000E1208727E007F00123244900250EEF045
:1021BB00A3EFF0539A7F53BAFE539A7F439A10437F
:1021CB00AF01439A029000077401F0FE7F407D003F
:1021DB00FB7A0179101208727E007F807D007B01F3
:1021EB007A0079101208727E007F07123244900237
:1021FB0052EEF0A3EFF00235ACC0E0C083C082C05A
:10220B00D075D000C006C007E59A30E02E90000DC7
:10221B00E0702590000BE0C394804002E4F0900046
:10222B000BE0FF04F074102FF582E43400F583E526
:10223B009BF090000C7432F0539AFEE59A30E13526
:10224B00539AFD900009E0FF900008E0FE6F6020BC
:10225B0074102EF582E43401F583E0F59B900008B1
:10226B00E004F0C39440748094814009E4F080054D
:10227B0090000AE4F0D007D006D0D0D082D083D023
:10228B00E0327E037F307C357DE11236FD7E037FAD
:10229B000F7C327DE71236FD7E037F357C337D6DFF
:1022AB001236FD7E037F137C337D961236FD7E0343
:1022BB007F397C377DD61236FD7E037F437C387D9C
:1022CB00261236FD7E037F1C7C387D301236FD7E58
:1022DB00037F497C387D3A1236FD7E037F3E7C3886
:1022EB007D441236FD7E037F2A7C387D4E1236FDEF
:1022FB007E037F187C367D5E1236FD7E037F237C4A
:10230B00387DCB0236FD1238BF9003AAEFF012389E
:10231B00C59003ABEFF09003AAE0FD9003A8E0B5E6
:10232B00050C9003ABE0FF9003A6E06F600C9003ED
:10233B00ABE0FB7F2E7E00121F259003AAE09003DB
:10234B00A8F09003ABE0FF9003A6F09002EDE0FE47
:10235B00EFC39E400B9003A7E04410F04408F0221B
:10236B009002E2E0FF9003ABE0FDC39F400FED9EB8
:10237B00500B9003A7E04408F054EFF0229003A712
:10238B00E054EFF054F7F022900252E0FEA3E0FF8E
:10239B007D5A1231D1900252E0FEA3E0FF7DA512CF
:1023AB0031D1900252E0FEA3E0FF7D071231D190B4
:1023BB000252E0FEA3E0FF7D821231D1900252E087
:1023CB00FEA3E0FFE4FD1231D1900252E0FEA3E048
:1023DB00FF7D101231D1900252E0FEA3E0FFE4FD2D
:1023EB001231D1900252E0FEA3E0FFE4FD1231D195
:1023FB00900252E0FEA3E0FFE4FD1231D1900252B5
:10240B00E0FEA3E0FFE4FD0231D17F007E44122BFE
:10241B0099EFF4700DFF122B479002E8EFF07F0954
:10242B00805A7F027E44122B999002EAEFF07F03D1
:10243B00122B999002E3EFF07F04122B999002E993
:10244B00EFF07F05122B999002E7EFF07F06122B2E
:10245B0099900260EFF07F07122B999002E4122BF8
:10246B00959002E2EFF07F09122B999002EDEFF0BD
:10247B007F0A122B999002E8EFF07F0B122B9990A9
:10248B000261EFF012318822900356EEF0A3EFF0C9
:10249B00A3EDF0900252E0FEA3E0FF7D5A1231D182
:1024AB00900252E0FEA3E0FF7DA51231D1900252C3
:1024BB00E0FEA3E0FF7D051231D1900252E0FEA3B6
:1024CB00E0FF7D821231D1900356E0FD900252E085
:1024DB00FEA3E0FF1231D1900252E0FEA3E0FF9089
:1024EB000356A3E0FD1231D1900252E0FEA3E0FFB0
:1024FB00E4FD1231D1900252E0FEA3E0FF900358AD
:10250B00E0FD0231D11223939003A1E0FCA3E0FD87
:10251B00A3E0FEA3E0FF900303E0F8A3E0F9A3E040
:10252B00FAA3E0FBC312064A70099003AD04F07FD7
:10253B0005802A900399E0FCA3E0FDA3E0FEA3E055
:10254B00FF900303E0F8A3E0F9A3E0FAA3E0FBC3D9
:10255B0012064A70189003AD7402F07F10122CE52E
:10256B007E037F23E4FB7DB41232078005E49003E6
:10257B00ADF090030312067A0000000022C0E0C009
:10258B0083C082C0D075D01030982DC298900006B1
:10259B00E07025900004E0C394024002E4F0900048
:1025AB0004E0FF04F0740E2FF582E43400F583E5AC
:1025BB0099F09000057419F0309930C2999000028F
:1025CB00E0FF900001E0FE6F601C74902EF582E43A
:1025DB003400F583E0F599900001E004F0C394809A
:1025EB004009E4F08005900003E4F0D0D0D082D015
:1025FB0083D0E032E4FFEF25E02482F582E434035C
:10260B00F583E4F0A3F00FEFB402EBE4FFEF75F00A
:10261B0009A42486F582E43403F583EFF075F00901
:10262B00A42487F582E43403F583E4F0EF75F00915
:10263B00A42488F582E43403F583E4F0EF75F00904
:10264B00A42489F582E43403F583E4F0A3F0A3F02A
:10265B00EF75F009A4248CF582E43403F583E4F0E0
:10266B00A3F0A3F00FEFB402A42290034FEEF0A35C
:10267B00EFF0F5828E83E0FF701190034FE0FCA327
:10268B00E0F5828C83A3E07002C32290034FE0FC41
:10269B00A3E0F5828C83A3E014F07041EF702790D8
:1026AB00034FE0FEA3E0FFF5828E83A3A3E0FCA320
:1026BB00E04C60108F828E83A3A3E0FEA3E0AA06FA
:1026CB00F91206D1D32290034FE0FEA3E0FFF5826F
:1026DB008E83E014F08F828E83A37464F0C32290F8
:1026EB000356EEF0A3EFF0900252E0FEA3E0FF7D65
:1026FB005A1231D1900252E0FEA3E0FF7DA51231B8
:10270B00D1900252E0FEA3E0FF7D051231D1900281
:10271B0052E0FEA3E0FF7D821231D1900252E0FE27
:10272B00A3E0FFE4FD1231D1900252E0FEA3E0FFE3
:10273B00900356A3E0FD1231D1900252E0FEA3E0CC
:10274B00FFE4FD1231D1900252E0FEA3E0FFE4FD65
:10275B000231D190000812061D9002E7F090000A9A
:10276B0012061D900260F090000C12061D9002E400
:10277B00F090000E12061D9002E9F0900010120668
:10278B001D9002E8F090001212061D900261F0906D
:10279B00001412061D9002EAF090001612061D900E
:1027AB0002E3F090001812061DFF9002E2F0900079
:1027BB001A12061DFE9002EDF09002EFEFF0900260
:1027CB005FEEF0D20F22776F726B666C6F77205BC8
:1027DB002562755D206F6E20434F4D2562750D0A86
:1027EB00004C6F6164696E6720776F726B666C6FFC
:1027FB0077205B2562755D202E2E2E200D0A00465C
:10280B00696E697368696E6720776F726B666C6F40
:10281B0077205B2562755D202E2E2E200D0A00770A
:10282B006F726B666C6F77205B2562755D207469C8
:10283B006D656F75740D0A001223939003A1E0FC74
:10284B00A3E0FDA3E0FEA3E0FF900303E0F8A3E009
:10285B00F9A3E0FAA3E0FBC312064A70099003AD9B
:10286B0004F07F12802A90039DE0FCA3E0FDA3E01F
:10287B00FEA3E0FF900303E0F8A3E0F9A3E0FAA3C3
:10288B00E0FBC312064A70169003AD7403F07F1E73
:10289B00122CE57E037F23E4FB7DB41232079003F9
:1028AB000312067A000000002290034FEFF0900213
:1028BB0052E0FEA3E0FF7D5A1231D1900252E0FEAE
:1028CB00A3E0FF7DA51231D1900252E0FEA3E0FF01
:1028DB007D051231D1900252E0FEA3E0FF7D821202
:1028EB0031D1900252E0FEA3E0FFE4FD1231D19012
:1028FB000252E0FEA3E0FF7D011231D1900252E0C3
:10290B00FEA3E0FFE4FD1231D1900252E0FEA3E002
:10291B00FF90034FE0FD0231D190034FEFF0900297
:10292B0052E0FEA3E0FF7D5A1231D1900252E0FE3D
:10293B00A3E0FF7DA51231D1900252E0FEA3E0FF90
:10294B007D051231D1900252E0FEA3E0FF7D821291
:10295B0031D1900252E0FEA3E0FFE4FD1231D190A1
:10296B000252E0FEA3E0FF7D301231D1900252E023
:10297B00FEA3E0FFE4FD1231D1900252E0FEA3E092
:10298B00FF90034FE0FD0231D1EFC394025068EF8B
:10299B0075F009A42486F582E43403AF82FE90031C
:1029AB005DF0A3EFF0F5828E83A3A3E07049900353
:1029BB005DE0FEA3E0FFF5828E83A3A37401F08F8D
:1029CB00828E83A3F08F828E83A3A3A3EBF0A3EA63
:1029DB00F0A3E9F090035AE0FBA3E0FAA3E0F9EFD0
:1029EB002406F582E43EF583EBF0A3EAF0A3E9F0CD
:1029FB007F107E001237FA2290025EE0FF640560C2
:102A0B0018EF64076013EF6409600EEF641660093A
:102A1B00EF64106004EFB411097F407E0012139C29
:102A2B00803A90025EE0B4121990030712067A0006
:102A3B0000000090025A12067A00000000121C7768
:102A4B00801A90025EE0FF64036004EFB40C0D90FB
:102A5B00030312067A0000000012239312379E9094
:102A6B00025E74FFF022E490034FF090034FE0FFFF
:102A7B00C39401505C74017E00A807088005C33322
:102A8B00CE33CED8F9FF900398E0FDEF5D603A901E
:102A9B00034FE025E0247FF582E43403F583E0FE69
:102AAB00A3E0FF900350EEF0A3EFF0121FC29003D0
:102ABB0098E0FF90034FE0FE7401A806088002C364
:102ACB0033D8FCF45F900398F090034FE004F08050
:102ADB009A229003A7E0FE9003A9E06EFDFFEE5F44
:102AEB009003A5F0ED604C540D60089003A7E0FF38
:102AFB001228B49003A7E060309003A5E0600312A6
:102B0B00300F9003A7E0FF5414601190030BE030DB
:102B1B000D04440880024402F0A3E0F0EF541D6062
:102B2B001290030BE04420800690030BE04440F02E
:102B3B00A3E0F09003A7E09003A9F0227E46122BAE
:102B4B00999002EAEFF07F01122B999002E3EFF0DC
:102B5B007F02122B999002E9EFF07F03122B9990D1
:102B6B0002E7EFF07F04122B99900260EFF07F05E4
:102B7B00122B999002E4EFF07F06122B999002E250
:102B8B00EFF07F07122B999002EDEFF07F0875C7DE
:102B9B008075C5018FC4EEF5C375C65A75C6A50001
:102BAB00AFC21237BB227E441235359002EAE0FDEC
:102BBB007F0212353C9002E3E0FD7F0312353C901F
:102BCB0002E9E0FD7F0412353C9002E7E0FD7F0552
:102BDB0012353C900260E0FD7F0612353C9002E41A
:102BEB00E0FD7F0712353C9002E2E0FD7F081235D5
:102BFB003C9002EDE0FD7F0912353C9002E8E0FDD0
:102C0B007F0A12353C900261E0FD7F0B02353C647C
:102C1B00656E676461690D0A0073707261795F7725
:102C2B006173682C20506F570D0A00696E746572C2
:102C3B00636570745F656E640D0A00464545445FBD
:102C4B0053554354494F4E2C20506F570D0A006972
:102C5B006E746572636570745F73746172742C202B
:102C6B00506F570D0A00464545445F44495343484E
:102C7B00415247450D0A007F007E3E122B99BFFF44
:102C8B0016E4FF123887E4900317F07B017D017F78
:102C9B0010121D2D02379E7F011238877F027E3E58
:102CAB00122B9990032EEFF07F03122B9990032791
:102CBB00EFF07F04122B9990033DEFF090032EE081
:102CCB00FF900327E0FD90033DE0FB121D2DE490E8
:102CDB000317F012378012300F22900356EFF0904B
:102CEB000252E0FEA3E0FF7D5A1231D1900252E076
:102CFB00FEA3E0FF7DA51231D1900252E0FEA3E0CE
:102D0B00FF7D041231D1900252E0FEA3E0FF7D80E3
:102D1B001231D1900252E0FEA3E0FF7D031231D1BC
:102D2B00900252E0FEA3E0FFE4FD1231D19002527B
:102D3B00E0FEA3E0FF900356E0FD0231D19002F0DC
:102D4B007401F0E4A3F0A374FFF0E4A3F0A374FF09
:102D5B00F0A37436F0A37477F0A374FFF0A3743769
:102D6B00F0A37471F090030074FFF0A37438F0A318
:102D7B007458F09002FA74FFF0A37438F0A374B88F
:102D8B00F0A3E4F0A3F0A3F09002EE74FFF0900335
:102D9B007F7402F0A374F0F022900252E0FEA3E0E5
:102DAB00FF7D5A1231D1900252E0FEA3E0FF7DA5C8
:102DBB001231D1900252E0FEA3E0FF7D041231D11B
:102DCB00900252E0FEA3E0FF7D831231D1900252BC
:102DDB00E0FEA3E0FFE4FD1231D1900252E0FEA32E
:102DEB00E0FF7D101231D1900252E0FEA3E0FF7D97
:102DFB00020231D1900252E0FEA3E0FF7D5A123164
:102E0B00D1900252E0FEA3E0FF7DA51231D19002DA
:102E1B0052E0FEA3E0FF7D041231D1900252E0FE9E
:102E2B00A3E0FF7D831231D1900252E0FEA3E0FFBD
:102E3B00E4FD1231D1900252E0FEA3E0FF7D40127F
:102E4B0031D1900252E0FEA3E0FF7D0A0231D19016
:102E5B000252E0FEA3E0FF7D5A1231D1900252E004
:102E6B00FEA3E0FF7DA51231D1900252E0FEA3E05C
:102E7B00FF7D041231D1900252E0FEA3E0FF7D836F
:102E8B001231D1900252E0FEA3E0FFE4FD1231D1EA
:102E9B00900252E0FEA3E0FF7DB01231D1900252BE
:102EAB00E0FEA3E0FF7D030231D1900252E0FEA3CE
:102EBB00E0FF7D5A1231D1900252E0FEA3E0FF7D7C
:102ECB00A51231D1900252E0FEA3E0FF7D04123136
:102EDB00D1900252E0FEA3E0FF7D831231D190022C
:102EEB0052E0FEA3E0FFE4FD1231D1900252E0FE6E
:102EFB00A3E0FF7D141231D1900252E0FEA3E0FF5C
:102F0B007D040231D1EF2404F582E43EF583E070B9
:102F1B0002C322EF2405F582E43EF583E0601AEF4D
:102F2B002405F582E43EF583E014F0700CEF2406E3
:102F3B00F582E43EF5837401F0EF2405F582E43E5F
:102F4B00F583E0700CEF2406F582E43EF583740103
:102F5B00F0EF2406F582E43EF583E024FF227E03A6
:102F6B007F301226757E037F0F1226757E037F3509
:102F7B001226757E037F131226757E037F39122668
:102F8B00757E037F431226757E037F1C1226757E8A
:102F9B00037F491226757E037F3E1226757E037FC3
:102FAB002A1226757E037F181226757E037F230255
:102FBB00267544575F445554592C20506F570D0AB2
:102FCB000057465F46494E4953485F445554592C68
:102FDB0020506F570D0A0053544152540D0A0045AF
:102FEB004E440D0A00464545445F53554354494FE3
:102FFB004E5F454E445F445554590D0A0069646C4D
:10300B00650D0A00900252E0FEA3E0FF7D5A1231DB
:10301B00D1900252E0FEA3E0FF7DA51231D19002C8
:10302B0052E0FEA3E0FF7D031231D1900252E0FE8D
:10303B00A3E0FF7D811231D1900252E0FEA3E0FFAD
:10304B007D201231D1900252E0FEA3E0FF7D0702FA
:10305B0031D190034FEEF0A3EFF090000BE0900313
:10306B0051F07E007F807D007B017A02796212082D
:10307B0072900351E0FDD394804004E4FEFF22EDF7
:10308B00FF7E0090034FE0FCA3E0AA04F97B0178DC
:10309B00627C027D011205F7900351E0FF7E002256
:1030AB00900252E0FEA3E0FF7D5A1231D190025202
:1030BB00E0FEA3E0FF7DA51231D1900252E0FEA30A
:1030CB00E0FF7D031231D1900252E0FEA3E0FF7DC1
:1030DB00811231D1900252E0FEA3E0FF7D03123149
:1030EB00D1900252E0FEA3E0FF7D020231D120B36A
:1030FB002F7BFF7A2C7946120A38123810C20AD26B
:10310B0083D282D2807BFF7A2C795A120A38E490D0
:10311B000328F0A3F01235E19003A7E054FDF02251
:10312B00D20AD20B12381BE490030DF0A3F09003DC
:10313B00A7E054FEF04402F022C2D5E830E70FB20C
:10314B00D5E4C39BFBE49AFAE499F9E498F8EC30E4
:10315B00E717B2D512317A12091BE4C39BFBE49A31
:10316B00FAE499F9E498F8800312091B30D50DE4C1
:10317B00C39FFFE49EFEE49DFDE49CFC229002EACB
:10318B00E0900259F09002E3E0900254F09002E9D3
:10319B00E0900258F09002E7E0900256F090026047
:1031AB00E09002E5F09002E4E0900255F09002E826
:1031BB00E0900257F0900261E09002E6F02290005E
:1031CB0000E0FEA3E0FF90037EEDF090037CEEF0B9
:1031DB00A3EFF0F5828E83E0700890037EE0FF0290
:1031EB00340E90037CE0FEA3E0F5828E83E0900327
:1031FB007EB40105E0FF023317E0FF22900356EE89
:10320B00F0A3EFF0EB701AED14FF900356E0FCA364
:10321B00E0FDF5828C83EFF08D828C83A37464F0D8
:10322B0022AF05900356E0FCA3E0FDF5828C83EF03
:10323B00F08D828C83A3EBF0228F828E83A3E4F03C
:10324B008F828E83A3A3F08F828E83A3A3A3F0EF31
:10325B002404F582E43EF583E4F0EF2405F582E4E3
:10326B003EF583E4F0EF2406F582E43EF583E4F0CB
:10327B0022900317E07025200D0890030BE0440803
:10328B0080209003A7E05414600AC20D90030BE05A
:10329B004402800690030BE04401800690030BE090
:1032AB004402F0A3E0F022200D2AEF70127E037F80
:1032BB002A12386C90030BE04440F0A3E0F022900C
:1032CB00030BE04420F0A3E0F07E037F2AE4FB7DB8
:1032DB000A0232077F087E001226EA22300F0512FF
:1032EB003188C20F7BFF7A2C7924120A38D2817E67
:1032FB00037F30900256E0FC75F00A84FDEC75F00C
:10330B000A84E5F075F00AA4FB023207900009E08D
:10331B002410F582E43401F583EFF0900009E0040A
:10332B00F0C39440748094814002E4F090000AE072
:10333B00700504F0439A0222E4F5BDF5BE53BCF8C8
:10334B00EF42BC43BC0800000000E5BC30E4FB537B
:10335B00BCEFAFBDEF75F004A4FFAEF0ADBEEF4D0B
:10336B00FF227BFF7A2C791A120A38C28190033420
:10337B00E014F0E0600E7E037F139002E6E0FDE4C4
:10338B00FB023207C281C282C283227BFF7A2C7975
:10339B0024120A38D2817E037F35900257E0FC75E8
:1033AB00F00A84FDEC75F00A84E5F075F00AA4FBD5
:1033BB000232077BFF7A2C7971120A381234EFC272
:1033CB00827E037F39900258E0FDE4FB12320790B6
:1033DB000255E004900334F002336D9003ADE0B47A
:1033EB0001047F0580099003ADE0B402107F101239
:1033FB002CE57E037F23E4FB7DB40232077F0312AF
:10340B002CE522900002E02490F582E43400F58351
:10341B00EFF0900002E004F0C394804002E4F090DF
:10342B000003E0700404F0D29922AD07900381E011
:10343B00FF7401A805088002C333D8FCFEF45F902B
:10344B000381F0900398E04EF07F027E000237FA82
:10345B00200D1AEF700A7E037F4312386CC2812253
:10346B00D2817E037F43E4FB7D0A0232077F057E18
:10347B00001226EA22200D1AEF700A7E037F1C121F
:10348B00386CC28222D2827E037F1CE4FB7D0A024F
:10349B0032077F067E001226EA22200D1AEF700AF1
:1034AB007E037F4912386CC28022D2807E037F4913
:1034BB00E4FB7D0A0232077F077E001226EA2220F8
:1034CB000D1AEF700A7E037F3E12386CC28322D234
:1034DB00837E037F3EE4FB7D0A0232077F097E0079
:1034EB001226EA227E037F3012386C7E037F0F1286
:1034FB00386C7E037F3512386C7E037F1312386C69
:10350B007E037F3902386C7E037F4312386C7E0357
:10351B007F1C12386C7E037F4912386C7E037F3E12
:10352B0012386C7E037F2A02386C7F001236D47DF2
:10353B000175C78075C5028FC4EEF5C3AF058FC289
:10354B0075C65A75C6A5000237BB4391045392FB4F
:10355B004391085392F74391105392EF43912053A9
:10356B0092DF4391405392BF22900381E0FE74019E
:10357B00A807088002C333D8FC4E900381F07F0468
:10358B007E000237FA7F407E0012139C7E037F1869
:10359B0012386C7E037F23E4FB7DB4123207C2101A
:1035AB0022200E17538EEF538EF7438E0475D6FFE2
:1035BB0075D7CC53AFFB438E10D20E227F007E44C7
:1035CB001236D4122B479002E8EFF07F09122B9999
:1035DB00900261EFF0227BFF7A2C791A120A38C223
:1035EB00817E037F0F9002E5E0FDE4FB0232079042
:1035FB00035A74FFF0A37425F0A37410F07BFF7AC9
:10360B002D79A47F0102299490035A74FFF0A374BF
:10361B0037F0A3748FF07BFF7A2D79FF7F0102299E
:10362B009490035A74FFF0A37428F0A37443F07BB7
:10363B00FF7A2D79A47F0102299490035A74FFF02D
:10364B00A3741AF0A374D5F07BFF7A2E79B57F01A2
:10365B0002299490035A74FFF0A3742AF0A3740305
:10366B00F07BFF7A3079AB7F0102299490034FEB0B
:10367B00F0A3EAF0A3E9F0A3ECF0A3EDF0E4FF1262
:10368B003435D3227E037F1812386C121C777E03DD
:10369B007F23E4FB7DB4123207C21022EF2404F522
:1036AB0082E43EF583E4F0EF2406F582E43EF583F5
:1036BB00E4F0221235C7D20F7F407E0012139C7F9D
:1036CB00207E0012139C02379E75C78075C5038F31
:1036DB00C4EEF5C375C65A75C6A5000237BB538E2B
:1036EB007F5389FB5389FC758CB1758AE0D2A9C2D3
:1036FB008C228F828E83E4F0A3F08F828E83A3A320
:10370B00ECF0A3EDF022121C77121DDDE49003AD5B
:10371B00F07E037F2302386C7F207E0012139C12F5
:10372B0038997F407E0002139C7E037F1812386C01
:10373B001223931237EEC2102200007F5C7E327D83
:10374B00EEDDFEDEFCDFFA22123555439D7CE4F5FF
:10375B00BDF5BE75BCE0229003A7E020A30454FB8B
:10376B00F0224404F0229002F37402F0E49002F28F
:10377B00F0FF02357400007F5C7E327DEEDDFEDEF5
:10378B00FCDFFA227F207E0012139C122BB1D20F8A
:10379B0002379E7F01122CE57E037F1812386CC214
:1037AB001022AD07900250E0FEA3E0FF1231D122B0
:1037BB00E4F5C7F5C5F5C675C3FF75C4FF2212380E
:1037CB00B11237535395E7439618227BFF7A2C7926
:1037DB0036120A38C28022E4FF1238877F007E3E01
:1037EB000236D4E49003ADF07E037F2302386C9055
:1037FB00030BE04EF0A3E04FF022123875C2A41277
:10380B00351202182F9003AC7402F07F04022924A6
:10381B009003AC7404F07F200229247F057E0012F4
:10382B0026EAC281227F067E001226EAC282227F0E
:10383B00077E001226EAC280227F097E001226EA4A
:10384B00C283227F087E001226EAC2A42290034F75
:10385B00EFF0E4FF023435E49003ACF07F01022972
:10386B00248F828E83E4F0A3F022C281C282C280B5
:10387B00C283225393F043940F023875AD077F4EEA
:10388B007E00022493AD077F047E000224937F7594
:10389B007EB8DEFEDFFC22E4FD7F0BFE022493D21A
:1038AB00B2D288D2A8224395085396F7229002EE03
:1038BB0074FFF0227F021219F7227F061219F722EA
:1038CB000237EE431C3F0C3B4C37C83480317E2E05
:1038DB00A42C06298627382510230321171F4A1DE0
:1038EB009A1C041A86192017D016931569144D13B8
:1038FB00401243115310710F9B0ED10E120D5E0C23
:10390B00B30C160B810AF40A6E09EF09760942080B
:10391B0097082F07CD0770071806C40674062905EC
:10392B00E1059D055C051E04E404AC047704450425
:10393B001503E803BD0394036D034703240302023D
:10394B00E202C302A6028A02700256023E0227025C
:10395B001101FC01E801D501C301B101A1019101E4
:10396B0082017301650158014B013F0133012801AD
:09397B001D0113010900FF00F613
:00000001FF
