:030000000200DB20
:0C00DB00787FE4F6D8FD75812002012238
:1001FE003F065B4F666D7D07FF6FFC60DAF266B6F9
:04020E00BEE0FFF659
:10019300C104C102C103C100C105C101010D0101B7
:1001A3000900010EC8010A00010B00010C0001083F
:0101B300004B
:07023700C288D2A8D2B82250
:07023E00C28AD2AAD2BA2243
:10021200538E7F5389F0758AF0758CD8C28DD28C3B
:03022200C2A9224C
:03000600000022D5
:10016700EFFEEDFFC2B7E4FDEE30E703D38001C336
:100177009291C29000EF25E0FFEE33FED290000D82
:0B018700BD10E5D2B700C2B700C2CC2B
:01019200224A
:1001B500EF75F00A84AEF0EF75F00A849001FE93B6
:0A01C500FFEE90020893FD020167AF
:030003000201CF28
:1001CF00C0E0C0D0050DE50DB40102D202E50DB4BB
:0901DF000202D200D0D0D0E032BF
:03001300020225C1
:10022500C0E0C0D00509E509B40302D203D0D0D09F
:02023500E032B5
:100016007592FFE4F59175B28075B17F75CAFFF5EB
:10002600C912021212023712023EC292C293C2943F
:10003600D2AF30B622C292D293C294C204E50D600A
:1000460016C2A9E50EC394645002050A850A08E49F
:10005600F50A750EC8F50D20920B209408C292C2BF
:1000660093C294C204300311D205C201C293C29452
:10007600D204850C0BD2A9C203300220C2A9C292B7
:10008600C293C294C204E50EC394645002050A8565
:100096000A0CE4F50A750EC8F509C202300011C251
:1000A60092C293D201C205D20485080BD2A9C2001E
:1000B600200403020038E50B7003020038FF12012A
:1000C600B5300504D292C205200103020038D2944D
:0500D600C20102003828
:03000B000201E807
:1001E800C0E0D50E0E050AE50B7003750B01150B63
:0601F800750EC8D0E032D4
:1000E700020016E493A3F8E493A34003F68001F219
:1000F70008DFF48029E493A3F85407240CC8C3331A
:10010700C4540F4420C8834004F456800146F6DFE8
:10011700E4800B0102040810204080900193E47EE4
:10012700019360BCA3FF543F30E509541FFEE493DD
:10013700A360010ECF54C025E060A840B8E493A3A4
:10014700FAE493A3F8E493A3C8C582C8CAC583CACF
:10015700F0A3C8C582C8CAC583CADFE9DEE780BE87
:0101B400004A
:00000001FF
