:0300000002051ADC
:0C051A00787FE4F6D8FD75819C02056135
:10047F000D0A0041542B5359000000000000415455
:10048F002B414D000000000041542B53440000004D
:10049F00000041542B5348000000000041542B42F0
:1004AF004D000000000041542B534D000000000090
:1004BF0041542B534C000000000041542B53520069
:1004CF00000000000041542B5347000000000000C3
:1004DF0041542B534200000000000041542B413186
:1004EF005348000000000041542B4131424D0000A1
:1004FF0000000041542B41325348000000000041DE
:0B050F00542B4132424D000000000060
:100D2E007809E6245DF8A607780906E6C3944040E4
:0D0D3E0002E4F6780AE670047601D29922EC
:100DA900120347FF600C120D2E740129F9E43AFA77
:030DB90080EE22A7
:100C9B007E007F407D007B007A00795D1203607FD0
:100CAB0008120CEBE598543F4440F598438E01D263
:0D0CBB00AC43981053A23F5397EF020D4B2E
:020621008F2B1D
:10062300782C7C007D007BFF7A0479827E007F0B2F
:100633001203217F05E52B75F06484FE2430FD0F42
:10064300742C2405F8A605EE75F00AA4FEE52B75B7
:10065300F00A84C39E2430FE0F742C2406F8A606E9
:10066300E52B75F00A84E5F02430FE742C2FF8A6F0
:1006730006753AFF753B04753C7F7B007A00792C45
:0C0683001208BC7B007A00792C020DA943
:020914008F2B27
:10091600782C7C007D007BFF7A04798D7E007F0A2F
:100926001203217F05E52B75F00A842430FE0F742F
:100936002C2405F8A606E52B75F00A84E5F024308C
:10094600FE742C2FF8A606753AFF753B04753C7F9E
:100956007B007A00792C1208BC7B007A00792C0285
:020966000DA9D9
:020968008F2BD3
:10096A00782C7C007D007BFF7A0479977E007F0AD1
:10097A001203217F05E52B75F00A842430FE0F74DB
:10098A002C2405F8A606E52B75F00A84E5F0243038
:10099A00FE742C2FF8A606753AFF753B04753C7F4A
:1009AA007B007A00792C1208BC7B007A00792C0231
:0209BA000DA985
:0209BC008F2B7F
:1009BE00782C7C007D007BFF7A0479A17E007F0A73
:1009CE001203217F05E52B75F00A842430FE0F7487
:1009DE002C2405F8A606E52B75F00A84E5F02430E4
:1009EE00FE742C2FF8A606753AFF753B04753C7FF6
:1009FE007B007A00792C1208BC7B007A00792C02DD
:020A0E000DA930
:020A10008F2B2A
:100A1200782C7C007D007BFF7A0479AB7E007F0A14
:100A22001203217F05E52B75F00A842430FE0F7432
:100A32002C2405F8A606E52B75F00A84E5F024308F
:100A4200FE742C2FF8A606753AFF753B04753C7FA1
:100A52007B007A00792C1208BC7B007A00792C0288
:020A62000DA9DC
:100C32008D278B28EFD394C7502FE527940C50298A
:100C4200E528941F5023E5299418501DE52A943C69
:100C52005017120621AF27120914AF28120968AFE4
:0A0C6200291209BCAF2A120A102261
:020800008F2641
:1008020078277C007D007BFF7A0479B57E007F0A21
:100812001203217F05E526D3940A400122E52675BD
:10082200F00A842430FEAD070F74272DF8A606E5E2
:100832002675F00A84E5F02430FE74272FF8A60608
:10084200753AFF753B04753C7F7B007A007927126D
:0B08520008BC7B007A007927120DA97A
:01085D002278
:02085E008F26E3
:1008600078277C007D007BFF7A0479BF7E007F0AB9
:100870001203217F05E526D3940F400122E526755A
:10088000F00A842430FEAD070F74272DF8A606E584
:100890002675F00A84E5F02430FE74272FF8A606AA
:1008A000753AFF753B04753C7F7B007A007927120F
:0B08B00008BC7B007A007927120DA91C
:0108BB00221A
:02068F008F28B2
:1006910078297C007D007BFF7A0479C97E007F0B7D
:1006A1001203217F05E52875F06484FE2430FD0FD7
:1006B10074292405F8A605EE75F00AA4FEE528754F
:1006C100F00A842430C39EFE0F74292406F8A6067E
:1006D100E52875F00A84E5F02430FE74292FF8A688
:1006E10006753AFF753B04753C7F7B007A007929DA
:0C06F1001208BC7B007A007929020DA9D8
:0206FD008F2844
:1006FF0078297C007D007BFF7A0479D47E007F0B04
:10070F001203217F05E52875F06484FE2430FD0F68
:10071F0074292405F8A605EE75F00AA4FEE52875E0
:10072F00F00A842430C39EFE0F74292406F8A6060F
:10073F00E52875F00A84E5F02430FE74292FF8A619
:10074F0006753AFF753B04753C7F7B007A0079296B
:0C075F001208BC7B007A007929020DA969
:02076B008F28D5
:10076D0078297C007D007BFF7A0479DF7E007F0B8A
:10077D001203217F05E52875F06484FE2430FD0FFA
:10078D0074292405F8A605EE75F00AA4FEE5287572
:10079D00F00A842430C39EFE0F74292406F8A606A1
:1007AD00E52875F00A84E5F02430FE74292FF8A6AB
:1007BD0006753AFF753B04753C7F7B007A007929FD
:0C07CD001208BC7B007A007929020DA9FB
:100CC8008D268B27EFD394FF5018E52694FF5012FA
:100CD800EF94FF500D12068FAF261206FDAF2712B4
:030CE800076B2275
:020A64008F27DA
:100A660078287C007D007BFF7A0479EA7E007F0C83
:100A76001203217F07E52775F00A842430FE0F74E0
:100A8600282407F8A606E52775F00A84E5F0243041
:100A9600FE74282FF8A606753AFF753B04753C7F51
:100AA6007B007A0079281208BC7B007A007928023C
:020AB6000DA988
:020AB8008F2786
:100ABA0078287C007D007BFF7A0479F67E007F0C23
:100ACA001203217F07E52775F00A842430FE0F748C
:100ADA00282407F8A606E52775F00A84E5F02430ED
:100AEA00FE74282FF8A606753AFF753B04753C7FFD
:100AFA007B007A0079281208BC7B007A00792802E8
:020B0A000DA933
:100D66008D26EFD39418500EE526943C5008120AAF
:070D760064AF26120AB82247
:020B0C008F2731
:100B0E0078287C007D007BFF7A0579027E007F0CC1
:100B1E001203217F07E52775F00A842430FE0F7437
:100B2E00282407F8A606E52775F00A84E5F0243098
:100B3E00FE74282FF8A606753AFF753B04753C7FA8
:100B4E007B007A0079281208BC7B007A0079280293
:020B5E000DA9DF
:020B60008F27DD
:100B620078287C007D007BFF7A05790E7E007F0C61
:100B72001203217F07E52775F00A842430FE0F74E3
:100B8200282407F8A606E52775F00A84E5F0243044
:100B9200FE74282FF8A606753AFF753B04753C7F54
:100BA2007B007A0079281208BC7B007A007928023F
:020BB2000DA98B
:100D7D008D26EFD39418500EE526943C5008120B97
:070D8D000CAF26120B6022DF
:03002300020BB419
:100BB400C0E0C0D075D000C000C001309802C29817
:100BC400309923C2997908E7780966601518E624F4
:100BD4005DF8E6F599780806E6C394404008760087
:0F0BE4008004780A7600D001D000D0D0D0E03263
:100BF300C108C102014504014206014C07014A0034
:100C030002470000014600014400014300014D007A
:100C1300014B00C100C109014900C107C106C1035D
:0C0C2300C101C104C105014100014000F5
:100DBC00E4F589438E80758A90758CE8D28CD2A923
:010DCC002204
:100D0D00754504754206754C07E4F54AF547F548F7
:100D1D00F546F544F543F54DF54BD202C209C20037
:010D2D0022A3
:07000300C28AD2BAD2AA2280
:05000E00C202D209222C
:100D9400C209E54DC39402500BE54BC394025004C1
:050DA400D208C2AA22E2
:100026008F25E52564107008E5497004D20701D7CD
:10003600E525B41107E549B403028022E525B4128B
:1000460007E549B406028016E525B41307E549B469
:100056000902800AE525B4140AE549B40C05D2075D
:10006600054922E52564157008E5497004D2068025
:1000760060E52564167008E5497004D2038052E5F0
:100086002564177008E5497004D2018044E525B45B
:100096001807E549B40302800AE525B4190AE549BB
:1000A600B40605D201054922E525641A7008E5491A
:1000B6007004D204801BE525B41B0AE549B4030588
:1000C600D204054922E525641C701CE5497018D246
:1000D60005FE7F0FFDFB7A00794E120360744E25F4
:1000E60049F8A625054922E525B41D0AE549B403C4
:1000F60005D205054922E525C3940050024141E594
:1001060025D3940F40024141E54975F00384E5F09B
:100116007002414130074B744E2549F8A625054922
:10012600E54975F00384E5F07002C207E549640FFE
:100136007030E54FC454F04550FFE552C454F045C5
:1001460053FDE555C454F04556FBE558C454F045F7
:1001560059F529E55BC454F0455CF52A120C32E4E6
:10016600F549300618744E2549F8A6250549E5498E
:10017600B4020AAF4F120800E4F549C2063003186C
:10018600744E2549F8A6250549E549B4020AAF4F3C
:1001960012085EE4F549C203300138744E2549F869
:1001A600A6250549E54975F00384E5F07002C2010C
:1001B600E549B4091EE54FC454F04550FFE552C465
:1001C60054F04553FDE555C454F04556FB120CC892
:1001D600E4F549300430744E2549F8A6250549E56D
:1001E6004975F00384E5F07002C204E549B40616C9
:1001F600E54FC454F04550FFE552C454F04553FD55
:10020600120D66E4F549300541744E2549F8A625D8
:100216000549E54975F00384E5F07002C205E54934
:1002260064067026E54FC454F04550FFE552C454A9
:10023600F04553FD120D7DE4F54922E4F549C20768
:0B024600C206C203C201C204C20522AE
:1005A60043B10853B2F7120DBC120003120C9BD2D2
:0405B600AF3008FD5D
:1005BA00E4F523752402E54630E056E54630E65177
:1005CA00E523C39407503774037E00A823088005E7
:1005DA00C333CE33CED8F9FFAD467C00EF5DFD7450
:1005EA00027E00A823088005C333CE33CED8F9B5DE
:1005FA000508EEB5040405230524052380C2E54356
:10060A00C39524500CE546543EC313F522FF12004D
:07061A0026C208D2AA809657
:030013000207D908
:1007D900C0E030B309200206200903120D0D30B321
:1007E90005300902054D20B30A3002073000020521
:0607F900440543D0E0328C
:03000B0002039E4F
:10039E00C0E0C0D030091E154530B309E542C39404
:1003AE00055002054BE545700C754504D5420675A2
:1003BE004206120D94200202817A1545E54A25E087
:1003CE00F54A30B302054AE5456002817A75450467
:1003DE001542E54A25E0F541E54A6241754000E5E2
:1003EE004130E1020540E54130E2020540E5413091
:1003FE00E3020540E54130E4020540E540D39402B6
:10040E004002C202E542B40405D200754400E54242
:10041E00B40202C200E54825E0F548E54733F5474A
:10042E00E54A60080548E54870020547754A00E54B
:10043E00427039754206154C53480CF547E5484550
:10044E0047600EE548640C45476006E5446002C20D
:10045E0002E54625E0F546E5484547600205467546
:10046E004700754800E54C700312000ED0D0D0E066
:01047E00324B
:040DCD000000FD8F96
:020C2F00C10AF8
:100D4B00200A17538EEF538EF7438E0475D78F758A
:0B0D5B00D6FD53AFFB438E10D20A22DE
:100CEB00A807E4F6E804F8E4F6EF2402F8E4F6EFDC
:100CFB002403F8E4F6EF2404F8E4F6EF2405F8E413
:020D0B00F622CE
:100C6C00EF2403F8E67002C322EF2404F8E6600ACE
:100C7C0016E67006EF2405F87601EF2404F8E6700A
:0F0C8C0006EF2405F87601EF2405F8E624FF2291
:0D001600EF2403F8E4F6EF2405F8E4F622E9
:100526000205A6E493A3F8E493A34003F68001F240
:1005360008DFF48029E493A3F85407240CC8C333D6
:10054600C4540F4420C8834004F456800146F6DFA5
:10055600E4800B0102040810204080900BF3E47E37
:10056600019360BCA3FF543F30E509541FFEE4939A
:10057600A360010ECF54C025E060A840B8E493A361
:10058600FAE493A3F8E493A3C8C582C8CAC583CA8C
:10059600F0A3C8C582C8CAC583CADFE9DEE780BE44
:010C310000C2
:10025100E709F608DFFA8046E709F208DFFA803E8F
:1002610088828C83E709F0A3DFFA8032E309F6087C
:10027100DFFA8078E309F208DFFA807088828C83E4
:10028100E309F0A3DFFA806489828A83E0A3F60898
:10029100DFFA805889828A83E0A3F208DFFA804C72
:1002A10080D280FA80C680D4806980F28033801049
:1002B10080A680EA809A80A880DA80E280CA8033B2
:1002C10089828A83ECFAE493A3C8C582C8CCC5832A
:1002D100CCF0A3C8C582C8CCC583CCDFE9DEE780FA
:1002E1000D89828A83E493A3F608DFF9ECFAA9F079
:1002F100EDFB2289828A83ECFAE0A3C8C582C8CCCF
:10030100C583CCF0A3C8C582C8CCC583CCDFEADEE7
:10031100E880DB89828A83E493A3F208DFF980CC49
:1003210088F0EF60010E4E60C388F0ED2402B40442
:100331000050B9F582EB2402B4040050AF232345E9
:0603410082239002A1736B
:10034700BB010689828A83E0225002E722BBFE02B4
:09035700E32289828A83E49322E7
:1008BC008B378A3889398B3D8A3E893FAB3705396E
:1008CC00E539AA387002053814F912034770ED7433
:1008DC00FF2539F53974FF3538F538AB3A053CE569
:1008EC003CAA3B7002053B14F9120347FFAB3705DA
:1008FC0039E539AA387002053814F9EF12038C70F7
:08090C00DAAB3DAA3EA93F222F
:10036000EF4E6012EF60010EEDBB010B89828A83B4
:10037000F0A3DFFCDEFA2289F05007F709DFFCA9C1
:0C038000F022BBFEFCF309DFFCA9F02218
:10038C00BB010689828A83F0225002F722BBFE0150
:02039C00F3224A
:00000001FF
