:100000000207BBE49000AEF0C2B622020F54021108
:010010005A95
:100013000210DE1205171211DF900094E004F022A3
:10002300020B5153C9EF43CA1053C9DF43CA2053CC
:1000330091EF43921002125E020718E709F608DFF8
:10004300FA8046E709F208DFFA803E88828C83E76C
:1000530009F0A3DFFA8032E309F608DFFA8078E3D8
:1000630009F208DFFA807088828C83E309F0A3DF4A
:10007300FA806489828A83E0A3F608DFFA805889CC
:10008300828A83E0A3F208DFFA804C80D280FA8070
:10009300C680D4806980F28033801080A680EA8095
:1000A3009A80A880DA80E280CA803389828A83ECCE
:1000B300FAE493A3C8C582C8CCC583CCF0A3C8C552
:1000C30082C8CCC583CCDFE9DEE7800D89828A83D1
:1000D300E493A3F608DFF9ECFAA9F0EDFB22898299
:1000E3008A83ECFAE0A3C8C582C8CCC583CCF0A34D
:1000F300C8C582C8CCC583CCDFEADEE880DB898251
:100103008A83E493A3F208DFF980CC88F0EF6001DF
:100113000E4E60C388F0ED2402B4040050B9F5829A
:10012300EB2402B4040050AF232345822390008EB6
:1001330073BB010689828A83E0225002E722BBFE59
:1001430002E32289828A83E49322BB010CE582299C
:10015300F582E5833AF583E0225006E92582F8E645
:1001630022BBFE06E92582F8E222E58229F582E533
:10017300833AF583E49322F8BB010DE58229F582E6
:10018300E5833AF583E8F0225006E92582C8F62292
:10019300BBFE05E92582C8F222C5F0F8A3E028F0EA
:1001A300C5F0F8E582158270021583E038F022EB82
:1001B3009FF5F0EA9E42F0E99D42F0EC6480C8644A
:1001C300809845F0228A838982E473EF4E6012EFB0
:1001D30060010EEDBB010B89828A83F0A3DFFCDE95
:1001E300FA2289F05007F709DFFCA9F022BBFEFCD5
:1001F300F309DFFCA9F02290005EEEF0A3EFF0A379
:10020300ECF0A3EDF0A37401F0E4A3F09000ABE0F5
:10021300900072F0E0FFC394064006EFD3940940C8
:10022300157E007FA812110990003DE06401700360
:100233000203B30211EB7E007F107D00900060E0AB
:10024300FAA3E0F97B011201CE900072E0FF7E0079
:1002530090005EE0FCA3E0AA04F97B01A3E0FCA309
:10026300E0F87D0112010E7E007FA81211099000B3
:1002730060E0FEA3E0FFF5828E83E0647E6003020C
:1002830003A7900072E024FFFDE434FFFCEF2DF59B
:1002930082EE3CF583E0647F60030203A790007263
:1002A300E024FEFF900062E0FED39F40030203B20E
:1002B300900060E0FCA3E0FD2EF582E43CF583E0D2
:1002C300FF647D601E900063E02464F582E43400E3
:1002D300F583EFF0900063E004F0900062E004F037
:1002E300020368900062E0F92401FFE433FEED2F7E
:1002F300F582EC3EF583E0FFB45E12900063E024E8
:1003030064F582E43400F583747EF0804BEFB45FD0
:1003130012900063E02464F582E43400F583747F73
:10032300F08035E92401FFE433FE900060E0FCA394
:10033300E02FF582EC3EF583E0B45D12900063E0BC
:100343002464F582E43400F583747DF0800A900020
:100353003DE0640160598054900063E004F0900034
:1003630062E02402F0900065E0FF900064E02FFF5C
:10037300E433FE900066E07C002FFFEC3EFEA3E03A
:10038300B50710ECB5060C7B017A007964120AD527
:100393000202A090003DE0640170030202A012116A
:1003A300EB0202A090003DE0640160031211EB0038
:1003B30022C2AF1212781208D01211A2E4900044A4
:1003C300F0D2B7D2AFD2AA53C17F43C1109000B1CC
:1003D300E030E21E120C7B90009FE06003120F7B63
:1003E300900096E060031206739000B1E054FBF0B6
:1003F30080D59000B1E030E30C1210C89000B1E05A
:1004030054F7F080C29000B1E030E11F7E007FA876
:10041300120C2450079000B1E04408F01210F412BB
:10042300127E9000B1E054FDF0809C9000B1E0306A
:10043300E0121211EB90009F7401F09000B1E054B0
:10044300FEF080839000B1E030E41FD2AAC2B7E48B
:100453009000AEF0C2B690003DF01211909000B142
:10046300E054EFF07587020203CA9000B1E030E573
:100473002B7F7E120E8A7F01120E8AE4FF120E8AF0
:10048300E4FF120E8A7F01120E8A7F7F120E8A12F8
:1004930011EB9000B1E054DFF00203CA9000B1E029
:1004A30030E609D2AAE054BFF00203CA9000B1E0DB
:1004B30030E72B7F7E120E8A7F07120E8AE4FF122B
:1004C3000E8AE4FF120E8A7F07120E8A7F7F120EB6
:1004D3008A1211EB9000B1E0547FF00203CA90003E
:1004E300B0E0A320E0030203CA7F7E120E8A7F04DA
:1004F300120E8AE4FF120E8AE4FF120E8A7F0412A0
:100503000E8A7F7F120E8A1211EB9000B0E054FE28
:10051300F00203CA20B3099000AFE07003FE802706
:1005230030B30B9000AFE0B401047E11801920B307
:100533000B9000AFE0B401047E10800B30B3089041
:1005430000AFE070027E01EE2487FF900094E02F5D
:10055300FD7F7E120E8A7F87120E85900094E0B491
:100563007E097F7D120E8A7F5E8025900094E0B421
:100573007F097F7D120E8A7F5F8015900094E0B41F
:100583007D097F7D120E8A7F5D8005900094E0FFD8
:10059300120E8AEDB47E097F7D120E8A7F5E801C67
:1005A300EDB47F097F7D120E8A7F5F800FEDB47DEE
:1005B300097F7D120E8A7F5D8002AF05120E8A7F4E
:1005C3007F020E8A9000A5E09000A4F012123DEF86
:1005D300F4A3F09000A4E0FFA3E0FE6FFDEF5DFF46
:1005E3009000A3E06FF0EE6DFF9000A2E0FE6F605D
:1005F300579000A1E0FF04F0EFD39404400B900068
:10060300A5E0FFEE4F9000A2F09000A1E0FCD39490
:100613000240109000A3E0FE9000A5E0FDEE5D9087
:1006230000A3F0ECD39400400F9000A7E070099072
:100633000044E060031211EB9000A1E0D39400406A
:100643002E9000A77401F022E49000A1F09000A77F
:10065300E06008D2AAE4F090009FF09000A2E0FFCF
:100663009000A5E0FEEF5E9000A2F0A3E05EF02212
:1006730012100690009CE02FF090009BE03EF0905B
:100683000098E06410600302071190009BE0C4F837
:1006930054F0C868FEA3E0C4540F48D39436EE94D4
:1006A300014007E49000AFF080069000AF7401F0C2
:1006B300900044E07010C2B7900094E004F0900002
:1006C300447401F0804120B30B9000AFE070057DCE
:1006D30001FF802D30B30D9000AFE0B401067D0122
:1006E3007F11801D20B30D9000AFE0B401067D01A2
:1006F3007F10800D30B30D9000AFE070077D017F58
:10070300011210431211EBE4900096F0C2B790006F
:1007130098E004F022C0E0C0F0C083C082C0D0756E
:10072300D008C2D89000AEE07002805E9000AEE0C8
:1007330064017040B2B67815E6FE08E6781826F62E
:1007430018EE36F6E6FE08E6F5EAEEF5FA78160652
:10075300E6187001067815E6FE08E6FFE4FCFD7B6B
:10076300E87A03F9F8D31201B250427815760108FA
:1007730076F480399000AEE064026009E0640460BE
:1007830004E0B40528B2B69000AEE025E024D1F52C
:1007930082E43412F583E493FE740193781826F609
:1007A30018EE36F6E6FE08E6F5EAEEF5FAD0D0D016
:1007B30082D083D0F0D0E032787FE4F6D8FD758123
:1007C300200208020203B4E493A3F8E493A34003D2
:1007D300F68001F208DFF48029E493A3F854072498
:1007E3000CC8C333C4540F4420C8834004F4568058
:1007F3000146F6DFE4800B010204081020408090DC
:100803000847E47E019360BCA3FF543F30E50954DD
:100813001FFEE493A360010ECF54C025E060A840FF
:10082300B8E493A3FAE493A3F8E493A3C8C582C8F6
:10083300CAC583CAF0A3C8C582C8CAC583CADFE9CB
:10084300DEE780BE02170000021501F44100AE008E
:100853004100AF004100120041004400410011017A
:100863004100000141003E00051000C864323241DE
:10087300003C0041000100C10041002C00410095F3
:1008830001410094014100970041009D0041009EF9
:100893000041009F004100A0004100990041009ADF
:1008A300004100980042009B00004100960001199E
:1008B300044200B00000C1014100A3004100A200B6
:1008C3004100A7004100A1004100A600007E007F77
:1008D300277C0D7D671210617E007F377C0E7D249F
:1008E3001210617E007F187C127D4E1210617E0013
:1008F3007F137C107D981210617E007F2D7C007D1C
:100903000E1210617E007F1D7C127D561210617ED7
:10091300007F327C007D031210617E007F227C12F7
:100923007D461210617E007F3F7C0F7DA212106115
:100933007E007F027C007D161210617E007F0C7C9E
:10094300127D6C1210617E007F077C127D72021093
:100953006190004EEEF0A3EFF0F5828E83E0FEA3EC
:10096300E0FF4E701290004EE0FCA3E0F5828C8312
:10097300A3A3E07002C32290004EE0FCA3E0F58243
:100983008C83A3A3E014F07049EF4E702990004EBE
:10099300E0FEA3E0FFF5828E83A3A3A3E0FCA3E024
:1009A3004C60118F828E83A3A3A3E0FEA3E0AA066B
:1009B300F91201C8D32290004EE0FEA3E0FFF582B6
:1009C3008E8374FFF5F012019C8F828E83A3A37430
:1009D30032F0C322900095E02484FE7F7E120E8ABB
:1009E3007F84120E8AE4FF120E8A900095E0B47E93
:1009F300097F7D120E8A7F5E8025900095E0B47F8B
:100A0300097F7D120E8A7F5F8015900095E0B47D8B
:100A1300097F7D120E8A7F5D8005900095E0FF12AD
:100A23000E8AEEB47E097F7D120E8A7F5E801CEEF5
:100A3300B47F097F7D120E8A7F5F800FEEB47D093C
:100A43007F7D120E8A7F5D8002AF06120E8A7F7F42
:100A5300020E8A900095E02485FE7F7E120E8A7F27
:100A630084120E8A7F01120E8A900095E0B47E09EB
:100A73007F7D120E8A7F5E8025900095E0B47F090A
:100A83007F7D120E8A7F5F8015900095E0B47D090B
:100A93007F7D120E8A7F5D8005900095E0FF120E28
:100AA3008AEEB47E097F7D120E8A7F5E801CEEB4CF
:100AB3007F097F7D120E8A7F5F800FEEB47D097FF1
:100AC3007D120E8A7F5D8002AF06120E8A7F7F023F
:100AD3000E8A900073EBF0A3EAF0A3E9F0900073A1
:100AE300E0FBA3E0FAA3E0F9120134247F601024B1
:100AF300FD602424FD704B9000B1E04480F022900F
:100B0300000112014D90003DB4110474048002747D
:100B130003F0120F2C8033900073E0FBA3E0FAA3E1
:100B2300E0F990000112014D90003D7004740480BF
:100B3300027403F0120F2C9000B0E04401F0A3E024
:100B4300F02290003DE0640160031211EB22C0E04B
:100B5300C083C082C0D075D000C00730982DC29822
:100B63009000ADE070259000ABE0C394104002E428
:100B7300F09000ABE0FF04F0747A2FF582E43400C8
:100B8300F583E599F09000AC7402F030992FC29987
:100B93009000A9E0FF9000A8E06F601CE0248AF5B4
:100BA30082E43400F583E0F5999000A8E004F0C3F3
:100BB300940A4009E4F080059000AAE4F0D007D03D
:100BC300D0D082D083D0E032900076EEF0A3EFF065
:100BD300A3ECF0A3EDF0EB7026E024FFFF90007888
:100BE300E034FFFE900076E0FCA3E0FDF5828C8309
:100BF300EEF0A3EFF08D828C83A3A37432F02290E6
:100C03000078E0FEA3E0FF900076E0FCA3E0FDF5B2
:100C1300828C83EEF0A3EFF08D828C83A3A3EBF0A1
:100C2300228F828E83A3A3A3E07002C322EF240446
:100C3300F582E43EF583E0601AEF2404F582E43E96
:100C4300F583E014F0700CEF2405F582E43EF583A0
:100C53007401F0EF2404F582E43EF583E0700CEFB9
:100C63002405F582E43EF5837401F0EF2405F58253
:100C7300E43EF583E024FF227E007F271209547EA1
:100C8300007F371209547E007F181209547E007FBB
:100C9300131209547E007F2D1209547E007F1D120A
:100CA30009547E007F321209547E007F22120954B8
:100CB3007E007F3F1209547E007F021209547E009A
:100CC3007F0C1209547E007F070209547F7E120EA7
:100CD3008A7F81120E8A20B3099000AFE07003FE71
:100CE300802730B30B9000AFE0B401047E1180196C
:100CF30020B30B9000AFE0B401047E10800B30B33F
:100D0300089000AFE070027E01E4FF120E8AEE2429
:100D130081FF120E8A7F7F020E8A7E007F0A7D008A
:100D23007B017A00798A1201CE7E007F107D007BE1
:100D3300017A00797A1201CE7E007FA8120E57E560
:100D430098543F4440F598438E01D2AC43981053D6
:100D5300A23F53B1FE53B2FE53B1FD53B2FD5397BD
:100D6300EF02107DC290C291C293C292900000E044
:100D73007016121132EF7010D2AA90001204F01202
:100D830009D7E49000AF800E9000127402F0120AAB
:100D9300569000AF7401F0900095E004F0900000CD
:100DA3007401F0C2B70211F790002CE004F0E0FFE9
:100DB300B40102800BEFB40203D2CD22EFB40307D8
:100DC300C2CDC294C2CC22EFB40403D2CD22EFB47D
:100DD3000513E490004BF0C2CDC294C2CC90002C1A
:100DE300F090003DF02290003DE025E024C7F5821D
:100DF300E43412F5837401937002E493601B900052
:100E03003DE025E024C7F582E43412F583E493FE44
:100E1300740193AA06F91201C8E490004CF0A3F000
:100E230022C290C291C293C292900011E07011123B
:100E33001132EF600B120CCF9000AF7401F0800BF6
:100E4300121234E49000AFF01211EB900011740110
:100E5300F0C2B7228F828E83E4F0A3F08F828E8359
:100E6300A3A3F08F828E83A3A3A3F0EF2404F582C0
:100E7300E43EF583E4F0EF2405F582E43EF583E4F4
:100E8300F022120E8AAF069000A9E0248AF582E4CC
:100E93003400F583EFF09000A9E004F0C3940A4016
:100EA30002E4F09000AAE0700404F0D299229000CA
:100EB3004EEBF0A3EAF0A3E9F0E4FE90004EE0FB72
:100EC300A3E0FAA3E0F98E8275830012014DFF12AD
:100ED3000E8A0EEEB406E422E4F5D8F5E9F5F990AE
:100EE30012D193FE740193781826F618EE36F6E6BF
:100EF300FE08E6F5EAEEF5FAE4F5D975DA49D2DE4D
:100F03002290004BE0601A90003DE02410F8E6FFC9
:100F1300C390004DE09F90004CE09400400A020D06
:100F2300E9E490004CF0A3F02290003DE025E0249A
:100F3300BDF582E43412F583E493FE740193FF4E0E
:100F43006007AA06A9071201C8E490004CF0A3F0B9
:100F530022C0E0C083C082C0D075D0089000B1E049
:100F63004402F0781916E67006E04404F07604D0E3
:100F7300D0D082D083D0E0321205C79000A6E070B3
:100F8300159000A2E0600F30E00C9000B1E0442027
:100F9300F0E49000A7F09000A2E09000A6F0229069
:100FA3000012E070030211EB900012E0B40105128D
:100FB30009D78003120A561211F7900095E004F046
:100FC300225391FB4392045391F74392085391FEAA
:100FD3004392015391FD439202C290C291C293C2C4
:100FE30092224391405392BF53B17F43B28053B196
:100FF300FB43B204C2B743B10853B2F7C2B3D28AB8
:10100300C2AA2243BC0800000000E5BC30E4FB5345
:10101300BCEFAFBDEF75F004A4FFAEF0ADBEEF4D76
:10102300FF22900001E004F0E0FFB40107C2CDC24B
:1010330094C2CC22EFB40407D2CCE4900001F02296
:10104300AE077F7E120E8A7F85120E85AF05120EC4
:101053008AEE24852DFF120E8A7F7F020E8A8F82ED
:101063008E83E4F0A3F08F828E83A3A3F08F828E0E
:1010730083A3A3A3ECF0A3EDF022200117538EEF7B
:10108300538EF7438E0475D78F75D6FD53AFFB434D
:101093008E10D2012290003EE004F0E0C39403409E
:1010A30008C2B6E49000AEF02212116C221211466F
:1010B300120FC4120FE5120EDB12121912002612C0
:1010C3001203020D1D90003DE064016003121265DE
:1010D3007E007F7A7C007D4E0201FAC0E0C083C0AF
:1010E30082C2AA9000B1E04401F0D082D083D0E064
:1010F3003290004BE0600E90004DE004F0700690DB
:10110300004CE004F0228F828E83A3A3A3E4F0EFCC
:101113002405F582E43EF583E4F022E490004BF0ED
:10112300C2CDC294C2CC90003CF0A3F0020F2CE4D9
:10113300FFFE121006D3EF9436EE94017F014002B6
:101143007F0022538E7F5389FB5389FC758CD8759E
:101153008AF0D2A9D28C229000AE7402F07E007F76
:10116300137B19E4FDFC020BCBC2B6E49000AEF096
:101173007E007F2D7B19FDFC020BCBE490004BF02E
:10118300C2CDC294C2CC90003CF0A3F022E4900004
:101193004BF0C2CDC294C2CC90003CF0A3F022E449
:1011A300900098F090009BF0A3F090009604F0223A
:1011B3008F828E83E4F0A3F08F828E83A3A3F02229
:1011C30090004B7401F0E4900001F0D2CC22900027
:1011D3004B7401F0E490002CF0D2CD227E007F020C
:1011E300E4FB7D01FC020BCB7E007F1DE4FB7D0352
:1011F300FC020BCB7E007F3FE4FB7D01FC020BCBAB
:10120300439D20E4F5BDF5BE75BC8522E490004BFB
:10121300F0A3F0A3F02253B1BF43B240C2B6229071
:10122300004B7401F0D2CC2290004B7401F0D294A5
:10123300227BFF7A12798D020EB17FFEA2B3E433D3
:101243004FFF22E49000AEF0C2B622C2B6E4900093
:10125300AEF0229000B1E04410F022C2CDC294C29D
:10126300CC227E007F1D0211B3E4900011F022E432
:10127300900000F0221210B0021284020F04021236
:101283005E02120F7E810000817F7E810001827FDA
:101293007E840000847F7E840001857F7E8300003E
:1012A300837F7E830000837F7E880100897F7E8623
:1012B3000000867F7E870000877F128111C311D1D2
:1012C3001222122B000010250DAB117E111E4E2091
:0A12D30001F403E803E803E803E870
:00000001FF
