:03000000020554A2
:0C055400787FE4F6D8FD75819A02059BC3
:1003F4000D0A0041542B41314F4E0D0A0041542B3C
:1004040041314F46460D0A0041542B41324F4E0DA7
:100414000A0041542B41324F46460D0A0041542BE9
:10042400535900000000000041542B414D000000CE
:10043400000041542B5344000000000041542B534E
:1004440048000000000041542B424D000000000011
:1004540041542B534D000000000041542B534C00D9
:100464000000000041542B5353000000000041548D
:100474002B535200000000000041542B534700004E
:100484000000000041542B534200000000000041D2
:10049400542B41315348000000000041542B41319A
:1004A400424D000000000041542B413253480000EB
:0F04B40000000041542B4132424D000000000077
:0E0E0E0000007F0A7E1F7D93DDFEDEFCDFFA12
:010E1C0022B3
:100D6F007809E6245BF8A607780906E6C3944040A5
:0D0D7F0002E4F6780AE670047601D29922AB
:100DEA0012039DFF600C120D6F740129F9E43AFA9F
:030DFA0080EE2266
:100CFD007E007F407D007B007A00795B1203B67F1A
:100D0D0008120D4DE598543F4440F598438E01D29D
:0D0D1D00AC43981053A23F5397EF020D8C8A
:0205E0008F4644
:1005E20078477C007D007BFF7A0479217E007F0BB7
:1005F2001203777F05E54675F06484FE2430FD0F13
:1006020074472405F8A605EE75F00AA4FEE54675C2
:10061200F00A84C39E2430FE0F74472406F8A6060F
:10062200E54675F00A84E5F02430FE74472FF8A6FB
:10063200067555FF7556037557F47B007A007947A6
:0C0642001208BC7B007A007947020DEA28
:020914008F460C
:1009160078477C007D007BFF7A04792C7E007F0A75
:100926001203777F05E54675F00A842430FE0F74BE
:10093600472405F8A606E54675F00A84E5F0243056
:10094600FE74472FF8A6067555FF7556037557F4BE
:100956007B007A0079471208BC7B007A007947024F
:020966000DEA98
:020968008F46B8
:10096A0078477C007D007BFF7A0479367E007F0A17
:10097A001203777F05E54675F00A842430FE0F746A
:10098A00472405F8A606E54675F00A84E5F0243002
:10099A00FE74472FF8A6067555FF7556037557F46A
:1009AA007B007A0079471208BC7B007A00794702FB
:0209BA000DEA44
:0209BC008F4664
:1009BE0078477C007D007BFF7A0479407E007F0AB9
:1009CE001203777F05E54675F00A842430FE0F7416
:1009DE00472405F8A606E54675F00A84E5F02430AE
:1009EE00FE74472FF8A6067555FF7556037557F416
:1009FE007B007A0079471208BC7B007A00794702A7
:020A0E000DEAEF
:020A10008F460F
:100A120078477C007D007BFF7A04794A7E007F0A5A
:100A22001203777F05E54675F00A842430FE0F74C1
:100A3200472405F8A606E54675F00A84E5F0243059
:100A4200FE74472FF8A6067555FF7556037557F4C1
:100A52007B007A0079471208BC7B007A0079470252
:020A62000DEA9B
:100C36008D428B43EFD394C7502FE542940C502935
:100C4600E543941F5023E5449418501DE545943C14
:100C560050171205E0AF42120914AF43120968AFEC
:0A0C6600441209BCAF45120A102227
:020798008F418F
:10079A0078427C007D007BFF7A0479547E007F0AD0
:1007AA001203777F05E541D3940A400122E541759A
:1007BA00F00A842430FEAD070F74422DF8A606E530
:1007CA004175F00A84E5F02430FE74422FF8A6063B
:1007DA007555FF7556037557F47B007A00794212F6
:0B07EA0008BC7B007A007942120DEA87
:0107F50022E1
:020800008F4126
:1008020078427C007D007BFF7A04795E7E007F0A5D
:100812001203777F05E541D3940F400122E541752C
:10082200F00A842430FEAD070F74422DF8A606E5C7
:100832004175F00A84E5F02430FE74422FF8A606D2
:100842007555FF7556037557F47B007A007942128D
:0B08520008BC7B007A007942120DEA1E
:01085D002278
:02085E008F41C8
:1008600078427C007D007BFF7A0479687E007F0AF5
:100870001203777F05E541D3940F400122E54175CE
:10088000F00A842430FEAD070F74422DF8A606E569
:100890004175F00A84E5F02430FE74422FF8A60674
:1008A0007555FF7556037557F47B007A007942122F
:0B08B00008BC7B007A007942120DEAC0
:0108BB00221A
:02064E008F43D8
:1006500078447C007D007BFF7A0479727E007F0BFA
:100660001203777F05E54375F06484FE2430FD0FA7
:1006700074442405F8A605EE75F00AA4FEE543755A
:10068000F00A842430C39EFE0F74442406F8A606A4
:10069000E54375F00A84E5F02430FE74442FF8A693
:1006A000067555FF7556037557F47B007A0079443B
:0C06B0001208BC7B007A007944020DEABD
:0206BC008F436A
:1006BE0078447C007D007BFF7A04797D7E007F0B81
:1006CE001203777F05E54375F06484FE2430FD0F39
:1006DE0074442405F8A605EE75F00AA4FEE54375EC
:1006EE00F00A842430C39EFE0F74442406F8A60636
:1006FE00E54375F00A84E5F02430FE74442FF8A625
:10070E00067555FF7556037557F47B007A007944CC
:0C071E001208BC7B007A007944020DEA4E
:02072A008F43FB
:10072C0078447C007D007BFF7A0479887E007F0B07
:10073C001203777F05E54375F06484FE2430FD0FCA
:10074C0074442405F8A605EE75F00AA4FEE543757D
:10075C00F00A842430C39EFE0F74442406F8A606C7
:10076C00E54375F00A84E5F02430FE74442FF8A6B6
:10077C00067555FF7556037557F47B007A0079445E
:0C078C001208BC7B007A007944020DEAE0
:100D2A008D418B42EFD394FF5018E54194FF501246
:100D3A00EF94FF500D12064EAF411206BCAF42129D
:030D4A00072A2253
:020A64008F42BF
:100A660078437C007D007BFF7A0479937E007F0CBF
:100A76001203777F07E54275F00A842430FE0F746F
:100A8600432407F8A606E54275F00A84E5F024300B
:100A9600FE74432FF8A6067555FF7556037557F471
:100AA6007B007A0079431208BC7B007A0079430206
:020AB6000DEA47
:020AB8008F426B
:100ABA0078437C007D007BFF7A04799F7E007F0C5F
:100ACA001203777F07E54275F00A842430FE0F741B
:100ADA00432407F8A606E54275F00A84E5F02430B7
:100AEA00FE74432FF8A6067555FF7556037557F41D
:100AFA007B007A0079431208BC7B007A00794302B2
:020B0A000DEAF2
:100DA7008D41EFD39417500EE541943B5008120A3A
:070DB70064AF41120AB822EB
:020B0C008F4216
:100B0E0078437C007D007BFF7A0479AB7E007F0CFE
:100B1E001203777F07E54275F00A842430FE0F74C6
:100B2E00432407F8A606E54275F00A84E5F0243062
:100B3E00FE74432FF8A6067555FF7556037557F4C8
:100B4E007B007A0079431208BC7B007A007943025D
:020B5E000DEA9E
:020B60008F42C2
:100B620078437C007D007BFF7A0479B77E007F0C9E
:100B72001203777F07E54275F00A842430FE0F7472
:100B8200432407F8A606E54275F00A84E5F024300E
:100B9200FE74432FF8A6067555FF7556037557F474
:100BA2007B007A0079431208BC7B007A0079430209
:020BB2000DEA4A
:100DBE008D41EFD39417500EE541943B5008120B22
:070DCE000CAF41120B602283
:100CCF00BF01087BFF7A0379F7801FBF02087BFF04
:100CDF007A0479018014BF03087BFF7A04790C80B2
:0E0CEF0009BF04097BFF7A047916120DEA2270
:03002300020BF7D6
:100BF700C0E0C0D075D000C000C001309802C298D4
:100C0700309923C2997908E7780966601518E624B0
:100C17005BF8E6F599780806E6C394404008760045
:0F0C27008004780A7600D001D000D0D0D0E0321F
:100BB400C10AC104012704012406012E07012C00E7
:100BC40002290000012800012600012500012F0050
:100BD400012D00C100C10B012B00C109C108C105D1
:100BE400C103C106C107C101C102012300012200E2
:100DFD00E4F589438E80758A90758CE8D28CD2A9E2
:010E0D0022C2
:07000300C28AD2BAD2AA2280
:100DD500752704752406752E07E4F52CF529F52AE3
:050DE500F528D20422F4
:05000E00C204D20A2229
:100026008F40E54064107008E52B7004D209210268
:10003600E540B41107E52BB403028022E540B41273
:1000460007E52BB406028016E540B41307E52BB48A
:100056000902800AE540B4140AE52BB40C05D2095E
:10006600052B22E54064157008E52B7004D20821A3
:1000760002E54064167008E52B7004D205807DE524
:100086004064177008E52B7004D203806FE540B416
:100096001807E52BB40302800AE540B4190AE52BDC
:1000A600B40605D203052B22E540641A7008E52B39
:1000B6007004D2068046E540B41B0AE52BB403055E
:1000C600D206052B22E540641C7008E52B7004D28D
:1000D600078029E540B41D0AE52BB40305D20705C0
:1000E6002B22E540641E7008E52B7004D202800CBA
:1000F600E540641F701CE52B7018D201FE7F0FFDD2
:10010600FB7A0079301203B67430252BF8A6400529
:100116002B22E540C3940050024193E540D3940F4F
:1001260040024193E52B75F00384E5F0700241939C
:1001360030094B7430252BF8A640052BE52B75F0BE
:100146000384E5F07002C209E52B640F7030E531D7
:10015600C454F04532FFE534C454F04535FDE53767
:10016600C454F04538FBE53AC454F0453BF544E544
:100176003DC454F0453EF545120C36E4F52B3008E7
:10018600187430252BF8A640052BE52BB4020AAFD0
:1001960031120798E4F52BC2083005187430252B68
:1001A600F8A640052BE52BB4020AAF31120800E48D
:1001B600F52BC2053003387430252BF8A640052BE5
:1001C600E52B75F00384E5F07002C203E52BB40954
:1001D6001EE531C454F04532FFE534C454F04535CC
:1001E600FDE537C454F04538FB120D2AE4F52B30F3
:1001F60006307430252BF8A640052BE52B75F00349
:1002060084E5F07002C206E52BB40616E531C45447
:10021600F04532FFE534C454F04535FD120DA7E430
:10022600F52B3007307430252BF8A640052BE52B2F
:1002360075F00384E5F07002C207E52BB40616E5F7
:1002460031C454F04532FFE534C454F04535FD124F
:100256000DBEE4F52B3002187430252BF8A64005A8
:100266002BE52BB4020AAF3112085EE4F52BC2056A
:1002760030012D7430252BF8A640052BE52B6402A2
:10028600701EAF31120CCFE4F52BC20522E4F52B1C
:10029600C209C208C205C203C201C202C206C2071F
:0102A6002235
:100C700043B10853B2F7120DFD120003120CFDD25E
:040C8000AF300AFD8A
:100C8400E52830E011E52830E60CE528543EC3138E
:0A0C9400F53FFF120026C20AD2AAA3
:020C9E0080E1F3
:03001300020016D2
:0D001600C0E030B305C2AA120DD5D0E03213
:03000B000204C329
:1004C300C0E0C0D0200402A14F1527E52C25E0F59C
:1004D3002C30B302052CE52770727527041524E52B
:1004E3002EB40715E524C39403400EE52CB40F0581
:1004F300752C018004C204D2AAE52A25E0F52AE579
:100503002933F529E52C6008052AE52A7002052917
:10051300E52EB40711E524B4030CE52A6407452945
:100523006004C204D2AA752C00E524701F7524064A
:10053300152EE52825E0F528E52A30E30205287580
:100543002900752A00E52E700312000ED0D0D0E0EA
:010553003275
:0407F6000000FD8F73
:020BF400C10C32
:100D8C00200C17538EEF538EF7438E0475D78F7547
:0B0D9C00D6FD53AFFB438E10D20C229B
:100D4D00A807E4F6E804F8E4F6EF2402F8E4F6EF79
:100D5D002403F8E4F6EF2404F8E4F6EF2405F8E4B0
:020D6D00F6226C
:100CA000EF2403F8E67002C322EF2404F8E6600A9A
:100CB00016E67006EF2405F87601EF2404F8E670D6
:0F0CC00006EF2405F87601EF2405F8E624FF225D
:0D0E1D00EF2403F8E4F6EF2405F8E4F622D4
:10056000020C70E493A3F8E493A34003F68001F235
:1005700008DFF48029E493A3F85407240CC8C3339C
:10058000C4540F4420C8834004F456800146F6DF6B
:10059000E4800B0102040810204080900BB4E47E3C
:1005A000019360BCA3FF543F30E509541FFEE49360
:1005B000A360010ECF54C025E060A840B8E493A327
:1005C000FAE493A3F8E493A3C8C582C8CAC583CA52
:1005D000F0A3C8C582C8CAC583CADFE9DEE780BE0A
:010BF60000FE
:1002A700E709F608DFFA8046E709F208DFFA803E39
:1002B70088828C83E709F0A3DFFA8032E309F60826
:1002C700DFFA8078E309F208DFFA807088828C838E
:1002D700E309F0A3DFFA806489828A83E0A3F60842
:1002E700DFFA805889828A83E0A3F208DFFA804C1C
:1002F70080D280FA80C680D4806980F280338010F3
:1003070080A680EA809A80A880DA80E280CA80335B
:1003170089828A83ECFAE493A3C8C582C8CCC583D3
:10032700CCF0A3C8C582C8CCC583CCDFE9DEE780A3
:100337000D89828A83E493A3F608DFF9ECFAA9F022
:10034700EDFB2289828A83ECFAE0A3C8C582C8CC78
:10035700C583CCF0A3C8C582C8CCC583CCDFEADE91
:10036700E880DB89828A83E493A3F208DFF980CCF3
:1003770088F0EF60010E4E60C388F0ED2402B404EC
:100387000050B9F582EB2402B4040050AF23234593
:0603970082239002F773BF
:10039D00BB010689828A83E0225002E722BBFE025E
:0903AD00E32289828A83E4932291
:1008BC008B528A5389548B588A59895AAB52055496
:1008CC00E554AA537002055314F912039D70ED748C
:1008DC00FF2554F55474FF3553F553AB550557E5C7
:1008EC0057AA567002055614F912039DFFAB520518
:1008FC0054E554AA537002055314F9EF1203E27035
:08090C00DAAB58AA59A95A22DE
:1003B600EF4E6012EF60010EEDBB010B89828A835E
:1003C600F0A3DFFCDEFA2289F05007F709DFFCA96B
:0C03D600F022BBFEFCF309DFFCA9F022C2
:1003E200BB010689828A83F0225002F722BBFE01FA
:0203F200F322F4
:00000001FF
