:03000000020329CF
:0C032900787FE4F6D8FD75812D0203708A
:1003B500C2AF12074A12000E1204C9120722120711
:1003C5005D1207991206E312078CD2AF53C17F4322
:1003D500C110900002E030E31B1205668F2C12005D
:1003E50066052AE52AB41903E4F52A900002E054CB
:1003F500F7F080D8900002E030E00F1207A5120553
:10040500E4900002E054FEF080C2900002E030E289
:0D041500BB120297900002E054FBF080AF94
:10047700C100012B00012A00012D00012900C10242
:08048700C101012800012C0451
:0507AB001B20222426A2
:10074A004391405392BF43918053927F439D0C75CE
:03075A00BCE022DE
:1006B900E4F5BDF5BE53BCF8EF42BC43BC080000ED
:1006C9000000E5BC30E4FB53BCEFAFBDEF75F004AF
:0A06D900A4FFAEF0ADBEEF4DFF220E
:10006600E4FBFAF582F583FC7F031206B9EF2582DD
:10007600F582EE3583F5830CBC10EDE583C4F854A8
:10008600F0C868F583E582C4540F48F582AC83FD59
:100096007E647F00120422AA06AB079007ABE493A6
:1000A600FF7E00C3EB9FEA9E5006E4F52B02013A61
:1000B600C3EB9FEA9E40129007ACE493FFEB9FEAE6
:1000C60094005005752B01806B9007ACE493FFC339
:1000D600EB9FEA94004010A3E493FFEB9FEA9400A1
:1000E6005005752B02804D9007ADE493FFC3EB9F3F
:1000F600EA94004010A3E493FFEB9FEA94005005B6
:10010600752B03802F9007AEE493FFC3EB9FEA9411
:10011600004010A3E493FFEB9FEA94005005752B73
:100126000480119007AFE493FFC3EB9FEA9400406D
:1001360003752B0520950F85282B0528E528D394D4
:06014600054003E4F5286A
:01014C002290
:10056600E4FBFA3094032095037F0022E4FC7F022B
:100576001206B9EF2BFBEE3AFA0CBC10F1EAC4F8FE
:1005860054F0C868FAEBC4540F48C39460EA940068
:0E059600E45007F528C2CC7F0222F5287F0131
:0105A4002234
:10048F00011EC8011A04011F64021B03E8011D6449
:03049F0001190040
:07000300751B03751CE822C8
:0407B000751D64222D
:10072200538E7F5389FB5389FC758CD8758AF0D21E
:04073200A9D28C229A
:10075D00538EFB538EF775D6E875D79043AF044390
:03076D008E1022C9
:03000B000201FCF3
:1001FC00C0E0C083C082C0D075D008D51A0A900068
:10020C0002E04401F0751A04D51F0A900002E04484
:10021C0008F0751F6430012E151EE51E7028B20003
:10022C00900001E014F0B4FF1A743BF0900000E071
:10023C00FF14F0EF700DC2CCF529C201F519D2965E
:10024C00432D02751EC8300211E51C151C700215D9
:10025C001B14451B7004F529C202E52D30E009D5AD
:10026C001D06751D64532DFEE52D30E115D51D12AF
:10027C00751D640519B296E519B40306532DFD7569
:0B028C001900D0D0D082D083D0E03227
:030063000207365B
:10073600C0E0C083C082900002E04404F0D082D0C2
:0407460083D0E0324A
:0404A2004100020013
:0C079900E4900001F0900000741EF022BB
:1004A60001140001150001130001120001180002D9
:0704B6001600000210000017
:1006E300E4F5D8F5E9F5F974F42517F51774013530
:1006F30016F5168517EAE516F5FAE4F5D975DA491C
:03070300D2DE2221
:10000E0043B14053B2BF4391105392EF43912053EB
:10001E0092DF53C9EF43CA1053917F43928053919D
:0B002E00BF439240C2CCC296C2972292
:0C077F007FFFEF25E0FFA2B2E4334FFF44
:01078B00224B
:1005180012077FEFF4851514F515E51565145514C4
:100528006213E51565146515651260240511E5115A
:10053800AE107002051014D39464EE94004004E5E4
:10054800154212D3E5119419E5109400400F800963
:0D055800E4F510F511E5155212E5155213EA
:010565002273
:10014D00E51364017053309403209507E4F529C23B
:10015D00CC80460529532DFCE529B4010ED202129F
:10016D000003120799D200C2018026E529B40208C6
:10017D00C202D201D2CC8019E529B40308C201D242
:10018D0000C2CC800CE529B4040FD201752902D22E
:10019D00CCD2961207B0432D01E518704EE51264CE
:1001AD00017048E529B4011E532DFC900000E0B408
:1001BD001E02E4F0900000E02405F0120003D29638
:1001CD001207B0432D01E529B40320532DFCE49013
:1001DD000001F0900000E0B41E02E4F0900000E099
:0F01ED002405F0D2961207B0432D018512182277
:0607A50012051802014DCF
:03003B0002065664
:10065600C0E0C0D0C2D8E52D700EC297C29674F421
:100666002517F5177401800AB29774822517F517B6
:1006760074063516F5168517EAE516F5FAD0D0D0C4
:02068600E03260
:100688003F065B4F666D7D077F6F007901020408A6
:1006980010200001030B2B6B010515110D1D3135C1
:1006A8003D030717130F1F3F33370414340C1C1076
:0106B8003011
:0B04BD000621000000000000012700E5
:1004C9005391FD4392025391FE43920153957F4309
:1004D90096805395BF4396405395DF439620539595
:1004E900EF4396105395FB4396045395FD439602AB
:1004F9005395FE43960153B17F43B28053B1BF4335
:0F050900B24053B1DF43B22053B1EF43B21022DF
:0E07700000007F7D7EFA7DFADDFEDEFCDFFA02
:01077E002258
:1005A500EF7006ED24FF92A222BF0106ED24FF9213
:1005B500A122BF0206ED24FF92A022BF0306ED246F
:1005C500FF92B722BF0406ED24FF92B622BF0506AF
:0F05D500ED24FF92B522BF0605ED24FF92B4225C
:02070600AE073C
:10070800E4FCEEAF0430E0047D018002E4FD120554
:09071800A5EEC313FE0CBC07E9B9
:0107210022B5
:10062000EF7006ED24FF929122BF0106ED24FF92A8
:100630009022BF0206ED24FF92A722BF0306ED24FD
:10064000FF92A622BF0406ED24FF92A522BF050556
:06065000ED24FF92A4223C
:08003E00E52790069493F4FFFE
:02004600AE0703
:10004800E4FCEEAF0430E0047D018002E4FD12061A
:0900580020EEC313FE0CBC06E906
:01006100227C
:1005E400E52CB4020E75210A75220A75240B7525B3
:1005F400018022900000E075F00A84F521E075F096
:100604000A8485F022A3E075F00A84F524E075F0ED
:0C0614000A8485F025852B23852A2622E8
:0D078C007FC01200467F7F12070602077033
:10029700E4FF12070612003EE52760106401600CB8
:1002A700E52764036006E52764047017E5297008ED
:1002B700FF120706C200805A74212527F8E6900628
:1002C70088804AE52764027021300005E52CB402D6
:1002D7000B74212527F8E690069A8031742125278B
:1002E700F8E690069A9344148024E5297002801E4C
:1002F700E52964016005E529B403047F3F8010E523
:1003070029B4020E74212527F8E69006A093FF1260
:10031700070612003E0527E527C394064003E4F5C8
:0203270027228B
:100335000203B5E493A3F8E493A34003F68001F226
:1003450008DFF48029E493A3F85407240CC8C333C9
:10035500C4540F4420C8834004F456800146F6DF98
:10036500E4800B0102040810204080900477E47EAD
:10037500019360BCA3FF543F30E509541FFEE4938D
:10038500A360010ECF54C025E060A840B8E493A354
:10039500FAE493A3F8E493A3C8C582C8CAC583CA7F
:1003A500F0A3C8C582C8CAC583CADFE9DEE780BE37
:0104C8000033
:10042200BC000BBE0029EF8DF084FFADF022E4CCBE
:10043200F875F008EF2FFFEE33FEEC33FCEE9DEC87
:10044200984005FCEE9DFE0FD5F0E9E4CEFD22EDCD
:10045200F8F5F0EE8420D21CFEADF075F008EF2F17
:10046200FFED33FD4007985006D5F0F222C398FD08
:050472000FD5F0EA22A5
:00000001FF
