:10000000021EF4022B9CC2832222220223C79001EB
:1000100067E0600E900169E004F07006900168E00E
:1000200004F02202218F90003BE004F07006900063
:100030003AE004F0C390003BE094E090003AE09492
:1000400006403AE4F0A3F0FFEF25E025E02400F5B8
:1000500082E43400F583E4F0EF25E025E02401F5A7
:1000600082E43400F583E4F0EF25E025E02402F596
:1000700082E43400F583E4F00FEFB40CCB90003A47
:10008000E0FCA3E0FDC394FAEC9400503BE4FFEFE6
:1000900025E025E02400F582E43400F583E004F057
:1000A000EF25E025E02401F582E43400F583E00447
:1000B000F0EF25E025E02402F582E43400F583E04A
:1000C00004F00FEFB40CC822C3ED94F4EC9401508B
:1000D0004AC390003BE094FA90003AE09400403B21
:1000E000E4FFEF25E025E02400F582E43400F58309
:1000F000E014F0EF25E025E02401F582E43400F57A
:1001000083E014F0EF25E025E02402F582E43400DA
:10011000F583E014F00FEFB40CC82290003AE0FC35
:10012000A3E0FDC394EEEC94025042C3ED94F4ECD2
:1001300094014039E4FFEF25E025E02400F582E456
:100140003400F583E004F0EF25E025E02401F5829A
:10015000E43400F583E4F0EF25E025E02402F582A5
:10016000E43400F583E4F00FEFB40CCA2290003AB7
:10017000E0FCA3E0FDC394E8EC94035042C3ED948B
:10018000EEEC94024039E4FFEF25E025E02400F591
:1001900082E43400F583E014F0EF25E025E024014B
:1001A000F582E43400F583E4F0EF25E025E0240255
:1001B000F582E43400F583E4F00FEFB40CCA22902A
:1001C000003AE0FCA3E0FDC394E2EC94045042C387
:1001D000ED94E8EC94034039E4FFEF25E025E024BA
:1001E00000F582E43400F583E4F0EF25E025E02417
:1001F00001F582E43400F583E004F0EF25E025E02A
:100200002402F582E43400F583E4F00FEFB40CCA65
:100210002290003AE0FCA3E0FDC394DCEC9405508E
:1002200042C3ED94E2EC94044039E4FFEF25E0256D
:10023000E02400F582E43400F583E4F0EF25E025C6
:10024000E02401F582E43400F583E014F0EF25E0CA
:1002500025E02402F582E43400F583E4F00FEFB4E6
:100260000CCA2290003AE0FCA3E0FDC394E2EC94B7
:10027000045042C3ED94E8EC94034039E4FFEF25C9
:10028000E025E02400F582E43400F583E4F0EF2576
:10029000E025E02401F582E43400F583E4F0EF2565
:1002A000E025E02402F582E43400F583E004F00F59
:1002B000EFB40CCA2290003AE0FCA3E0FDC394DC4A
:1002C000EC94055042C3ED94E2EC94044039E4FF11
:1002D000EF25E025E02400F582E43400F583E4F026
:1002E000EF25E025E02401F582E43400F583E4F015
:1002F000EF25E025E02402F582E43400F583E014E4
:10030000F00FEFB40CCA2290003AE0FCA3E0FDC36A
:1003100094F0EC94055047C3ED94DCEC9405403E1A
:10032000E4FFEF25E025E02402F582E43400F583C4
:10033000E0240AF0EF25E025E02401F582E4340012
:10034000F583E02409F0EF25E025E02400F582E4C0
:100350003400F583E02406F00FEFB40CC5229000C2
:100360003AE0FCA3E0FDC39404EC94065047C3EDCF
:1003700094F0EC9405403EE4FFEF25E025E02402F4
:10038000F582E43400F583E024F6F0EF25E025E083
:100390002401F582E43400F583E024F7F0EF25E052
:1003A00025E02400F582E43400F583E024FAF00F20
:1003B000EFB40CC52290003AE0FCA3E0FDC3944AE0
:1003C000EC94065044C3ED9404EC9406403BE4FFE7
:1003D000EF25E025E02401F582E43400F583E024F4
:1003E00003F0EF25E025E02402F582E43400F583F4
:1003F000E004F0EF25E025E02400F582E43400F588
:1004000083E4F00FEFB40CC82290003AE0FCA3E0C4
:10041000FDC39490EC94065044C3ED944AEC9406CA
:10042000403BE4FFEF25E025E02401F582E43400C1
:10043000F583E024FDF0EF25E025E02402F582E4D9
:100440003400F583E014F0EF25E025E02400F58288
:10045000E43400F583E4F00FEFB40CC82290003AC6
:10046000E0FCA3E0FDC394B8EC94065047C3ED94C0
:1004700090EC9406403EE4FFEF25E025E02401F5F2
:1004800082E43400F583E02404F0EF25E025E02445
:1004900000F582E43400F583E02405F0EF25E02543
:1004A000E02402F582E43400F583E02404F00FEF49
:1004B000B40CC52290003AE0FCA3E0FDC394E0EC4C
:1004C00094065046C3ED94B8EC9406403DE4FFEF2B
:1004D00025E025E02401F582E43400F583E024FCE6
:1004E000F0EF25E025E02400F582E43400F583E018
:1004F00024FBF0EF25E025E02402F582E43400F54A
:1005000083E024FCF00FEFB40CC52290006CE004F3
:10051000F0E0B40702E4F0E4FFEF25E025E0240179
:10052000F582E43400F583E4F0EF25E025E02400D3
:10053000F582E43400F583E4F0EF25E025E02402C1
:10054000F582E43400F583E4F00FEFB40CCB9000B7
:100550006CE0FF707D90000174FFF0900000F0905F
:100560000002F0900004F0900009F090000D74C9B2
:10057000F0A37457F090001274E6F090001174E04C
:10058000F090001074B0F090001574FFF090001916
:1005900074C0F090001874FFF090001A74CBF090C3
:1005A000001D74FFF090001CF090001EF0900020E1
:1005B000F0900025F090002974C9F0A37457F090D2
:1005C000002E74E6F090002D74E0F090002C74B0D2
:1005D000F022EF6401600302065790000174C0F03E
:1005E00090000074FFF090000274CBF0900005744E
:1005F000FFF0900004F0900006F0900008F09000EA
:100600000DF090001174C9F0A37457F090001674A7
:10061000E6F090001574E0F090001474B0F09000D3
:100620001974FFF090001D74C0F090001C74FFF06E
:1006300090001E74CBF090002174FFF0900020F029
:10064000900022F0900024F0900029F090002D748A
:10065000C9F0A37457F022EF64027079900001741E
:10066000FFF090000574C0F090000474FFF090005B
:100670000674CBF090000974FFF0900008F0900031
:100680000AF090000CF0900011F090001574C9F081
:10069000A37457F090001A74E6F090001974E0F01B
:1006A00090001874B0F090001D74FFF09000217459
:1006B000C0F090002074FFF090002274CBF0900006
:1006C0002574FFF0900024F0900026F0900028F0B0
:1006D00090002DF022EF6403600302076490000293
:1006E00074E6F090000174E0F090000074B0F090B7
:1006F000000574FFF090000974C0F090000874FFCA
:10070000F090000A74CBF090000D74FFF090000C94
:10071000F090000EF0900010F0900015F09000198D
:1007200074C9F0A37457F090001E74E6F090001D99
:1007300074E0F090001C74B0F090002174FFF09011
:10074000002574C0F090002474FFF090002674CB54
:10075000F090002974FFF0900028F090002AF090AB
:10076000002CF022EF640460030207F9900001748A
:10077000C9F0A37457F090000674E6F09000057479
:10078000E0F090000474B0F090000974FFF0900065
:100790000D74C0F090000C74FFF090000E74CBF05C
:1007A00090001174FFF0900010F0900012F0900093
:1007B00014F0900019F090001D74C9F0A37457F064
:1007C00090002274E6F090002174E0F09000207414
:1007D000B0F090002574FFF090002974C0F09000F4
:1007E0002874FFF090002A74CBF090002D74FFF075
:1007F00090002CF090002EF022EF640560030208B8
:100800008690000174FFF090000574C9F0A374573E
:10081000F090000A74E6F090000974E0F09000088F
:1008200074B0F090000D74FFF090001174C0F0905F
:10083000001074FFF090001274CBF090001574FF5C
:10084000F0900014F0900016F0900018F090001D49
:10085000F090002174C9F0A37457F090002674E65C
:10086000F090002574E0F090002474B0F09000291E
:1008700074FFF090002D74C0F090002C74FFF09085
:10088000002E74CBF022EF6406707690000074FFA7
:10089000F0900005F090000974C9F0A37457F0902F
:1008A000000E74E6F090000D74E0F090000C74B04F
:1008B000F090001174FFF090001574C0F0900014D7
:1008C00074FFF090001674CBF090001974FFF09054
:1008D0000018F090001AF090001CF0900021F090A9
:1008E000002574C9F0A37457F090002A74E6F090C4
:1008F000002974E0F090002874B0F090002D74FF8F
:10090000F022900037E004F0E0B4060EE4F090002E
:1009100030E004F0E0B40602E4F0900030E0FE7055
:1009200059FF900037E0FD6F6007C3740B9DB5075A
:1009300013EF25E025E02400F582E43400F583740C
:10094000FFF08010EF25E025E02400F582E434007C
:10095000F583E4F0EF25E025E02401F582E434009E
:10096000F583E4F0EF25E025E02402F582E434008D
:10097000F583E4F00FEFB40CA922EE64017059FF87
:10098000900037E0FE6F6007C3740B9EB50713EF4E
:1009900025E025E02401F582E43400F58374FFF0BE
:1009A0008010EF25E025E02401F582E43400F58392
:1009B000E4F0EF25E025E02400F582E43400F5833F
:1009C000E4F0EF25E025E02402F582E43400F5832D
:1009D000E4F00FEFB40CA922900030E0FE64027046
:1009E00077FF900037E0FD6F6007C3740B9DB5077C
:1009F00030EF25E025E02401F582E43400F583742E
:100A0000C9F0EF25E025E02402F582E43400F58307
:100A10007457F0EF25E025E02400F582E4340080EF
:100A20002CEF25E025E02401F582E43400F583E491
:100A3000F0EF25E025E02400F582E43400F583E4BE
:100A4000F0EF25E025E02402F582E43400F583E4AC
:100A5000F00FEF640C708B22EE6403707CFF90004B
:100A600037E0FE6F6007C3740B9EB50735EF25E0D6
:100A700025E02402F582E43400F58374E6F0EF25E6
:100A8000E025E02401F582E43400F58374E0F0EF22
:100A900025E025E02400F582E43400F58374B0F00D
:100AA0008030EF25E025E02401F582E43400F58371
:100AB000E4F0EF25E025E02400F582E43400F5833E
:100AC000E4F0EF25E025E02402F582E43400F5832C
:100AD000E4F00FEF640C708622900030E0FE6404B6
:100AE000707AFF900037E0FD6F6007C3740B9DB50F
:100AF0000733EF25E025E02401F582E43400F58397
:100B0000E4F0EF25E025E02400F582E43400F583ED
:100B1000E4F0EF25E025E02402F582E43400F583DB
:100B200074FFF08030EF25E025E02401F582E43405
:100B300000F583E4F0EF25E025E02400F582E434BD
:100B400000F583E4F0EF25E025E02402F582E434AB
:100B500000F583E4F00FEF640C708822EE640570FA
:100B60007BFF900037E0FE6F6007C3740B9EB507F4
:100B700035EF25E025E02401F582E43400F58374A7
:100B8000C0F0EF25E025E02400F582E43400F58391
:100B900074FFF0EF25E025E02402F582E43400F54F
:100BA0008374CBF08030EF25E025E02401F582E46A
:100BB0003400F583E4F0EF25E025E02400F582E43D
:100BC0003400F583E4F0EF25E025E02402F582E42B
:100BD0003400F583E4F00FEF640C708622E709F629
:100BE00008DFFA8046E709F208DFFA803E88828C47
:100BF00083E709F0A3DFFA8032E309F608DFFA8021
:100C000078E309F208DFFA807088828C83E309F0C8
:100C1000A3DFFA806489828A83E0A3F608DFFA8082
:100C20005889828A83E0A3F208DFFA804C80D28060
:100C3000FA80C680D4806980F28033801080A680DC
:100C4000EA809A80A880DA80E280CA803389828A2A
:100C500083ECFAE493A3C8C582C8CCC583CCF0A3C7
:100C6000C8C582C8CCC583CCDFE9DEE7800D8982A8
:100C70008A83E493A3F608DFF9ECFAA9F0EDFB22EE
:100C800089828A83ECFAE0A3C8C582C8CCC583CC2C
:100C9000F0A3C8C582C8CCC583CCDFEADEE880DB20
:100CA00089828A83E493A3F208DFF980CC88F0EF8D
:100CB00060010E4E60C388F0ED2402B4040050B908
:100CC000F582EB2402B4040050AF23234582239025
:100CD0000C2D73BB010689828A83E0225002E72231
:100CE000BBFE02E32289828A83E49322BB010CE5E6
:100CF0008229F582E5833AF583E0225006E92582D0
:100D0000F8E622BBFE06E92582F8E222E58229F513
:100D100082E5833AF583E49322F8BB010DE582294D
:100D2000F582E5833AF583E8F0225006E92582C88A
:100D3000F622BBFE05E92582C8F222EF8DF0A4A8B9
:100D4000F0CF8CF0A428CE8DF0A42EFE22A3F8E0E4
:100D5000C5F025F0F0E582158270021583E0C838F1
:100D6000F0E822BB0110E58229F582E5833AF5839C
:100D7000E0F5F0A3E0225009E92582F886F008E6C4
:100D800022BBFE0AE92582F8E2F5F008E222E583BB
:100D90002AF583E993F5F0A3E99322EB9FF5F0EAB6
:100DA0009E42F0E99D42F0EC6480C864809845F072
:100DB000228A838982E473EF4E6012EF60010EEDA8
:100DC000BB010B89828A83F0A3DFFCDEFA2289F063
:100DD0005007F709DFFCA9F022BBFEFCF309DFFC9A
:100DE000A9F02275F008758200EF2FFFEE33FECDDB
:100DF00033CDCC33CCC58233C5829BED9AEC99E5DB
:100E00008298400CF582EE9BFEED9AFDEC99FC0F6A
:100E1000D5F0D6E4CEFBE4CDFAE4CCF9A88222B832
:100E200000C1B90059BA002DEC8BF084CFCECDFCB7
:100E3000E5F0CBF97818EF2FFFEE33FEED33FDEC44
:100E400033FCEB33FB10D703994004EB99FB0FD82D
:100E5000E5E4F9FA227818EF2FFFEE33FEED33FDCB
:100E6000EC33FCC933C910D7059BE99A4007EC9BCA
:100E7000FCE99AF90FD8E0E4C9FAE4CCFB2275F05A
:100E800010EF2FFFEE33FEED33FDCC33CCC833C86B
:100E900010D7079BEC9AE899400AED9BFDEC9AFC71
:100EA000E899F80FD5F0DAE4CDFBE4CCFAE4C8F920
:100EB00022900033E004F0E0B40C0EE4F0900071F6
:100EC000E004F0E0B40602E4F0900071E0FE70503F
:100ED000FF900033E0B5071225E025E02400F582FD
:100EE000E43400F58374FFF08010EF25E025E02462
:100EF00000F582E43400F583E4F0EF25E025E024FA
:100F000001F582E43400F583E4F0EF25E025E024E8
:100F100002F582E43400F583E4F00FEFB40CB22262
:100F2000EE64017050FF900033E0B5071225E02514
:100F3000E02401F582E43400F58374FFF08010EFC3
:100F400025E025E02401F582E43400F583E4F0EFA8
:100F500025E025E02400F582E43400F583E4F0EF99
:100F600025E025E02402F582E43400F583E4F00F67
:100F7000EFB40CB222900071E0FE64027060FF904A
:100F80000033E0B5072225E025E02401F582E434B2
:100F900000F58374C9F0EF25E025E02402F582E432
:100FA0003400F5837457801FEF25E025E02401F518
:100FB00082E43400F583E4F0EF25E025E02402F537
:100FC00082E43400F583E4F0EF25E025E02400F529
:100FD00082E43400F583E4F00FEFB40CA222EE6457
:100FE000037072FF900033E0B5073425E025E0245C
:100FF00002F582E43400F58374E6F0EF25E025E0A5
:101000002401F582E43400F58374E0F0EF25E02557
:10101000E02400F582E43400F58374B0F08030EF12
:1010200025E025E02402F582E43400F583E4F0EFC6
:1010300025E025E02401F582E43400F583E4F0EFB7
:1010400025E025E02400F582E43400F583E4F00F88
:10105000EFB40C9022900071E0FE64047050FF9099
:101060000033E0B5071225E025E02402F582E434E0
:1010700000F58374FFF08010EF25E025E02402F5F1
:1010800082E43400F583E4F0EF25E025E02401F567
:1010900082E43400F583E4F0EF25E025E02400F558
:1010A00082E43400F583E4F00FEFB40CB222EE6476
:1010B000057071FF900033E0B5073425E025E0248A
:1010C00001F582E43400F58374C0F0EF25E025E0FB
:1010D0002400F582E43400F58374FFF0EF25E02569
:1010E000E02402F582E43400F58374CBF08030EF25
:1010F00025E025E02401F582E43400F583E4F0EFF7
:1011000025E025E02400F582E43400F583E4F0EFE7
:1011100025E025E02402F582E43400F583E4F00FB5
:10112000EFB40C9022E4FFEF25E025E02401F582E6
:10113000E43400F583E4F0EF25E025E02400F582B7
:10114000E43400F583E4F0EF25E025E02402F582A5
:10115000E43400F583E4F00FEFB40CCB900070E0C2
:1011600004F0E0B40C02E4F0900070E0FF703E90F8
:10117000000074FFF0900005F090000974C9F0A31E
:101180007457F090000E74E6F090000D74E0F0904B
:10119000000C74B0F090001274FFF090001574C051
:1011A000F090001474FFF090001602134EEF6401EB
:1011B0006004EFB40B3E90000474FFF0900009F05F
:1011C00090000D74C9F0A37457F090001274E6F00B
:1011D00090001174E0F090001074B0F0900016745C
:1011E000FFF090001974C0F090001874FFF09000A8
:1011F0001A02134EEF64026004EFB40A3E90000836
:1012000074FFF090000DF090001174C9F0A37457B2
:10121000F090001674E6F090001574E0F090001461
:1012200074B0F090001A74FFF090001D74C0F0903C
:10123000001C74FFF090001E02134EEF6403600464
:10124000EFB4093E90000C74FFF0900011F0900094
:101250001574C9F0A37457F090001A74E6F090006A
:101260001974E0F090001874B0F090001E74FFF054
:1012700090002174C0F090002074FFF090002202D2
:10128000134EEF64046004EFB4083E90001074FF46
:10129000F0900015F090001974C9F0A37457F09005
:1012A000001E74E6F090001D74E0F090001C74B015
:1012B000F090002274FFF090002574C0F09000249C
:1012C00074FFF090002602134EEF64056004EFB443
:1012D000073D90001474FFF0900019F090001D7409
:1012E000C9F0A37457F090002274E6F090002174C6
:1012F000E0F090002074B0F090002674FFF09000B1
:101300002974C0F090002874FFF090002A803FEF0D
:10131000B4063E90001874FFF090001DF09000217C
:1013200074C9F0A37457F090002674E6F09000257D
:1013300074E0F090002474B0F090002A74FFF090F4
:10134000002D74C0F090002C74FFF090002E74CB30
:10135000F022900039E004F07006900038E004F0CC
:10136000C3900039E094DC900038E094054004E438
:10137000F0A3F0900038E0FCA3E0FDC394FAEC94F5
:10138000005039E4FFEF25E025E02400F582E43445
:1013900000F583E004F0EF25E025E02401F582E488
:1013A0003400F583E4F0EF25E025E02402F582E443
:1013B0003400F583E4F00FEFB40CCA22C3ED94F4CB
:1013C000EC94015048C3900039E094FA900038E062
:1013D00094004039E4FFEF25E025E02400F582E4A5
:1013E0003400F583E014F0EF25E025E02401F582D8
:1013F000E43400F583E4F0EF25E025E02402F582F3
:10140000E43400F583E4F00FEFB40CCA2290003806
:10141000E0FCA3E0FDC394EEEC94025042C3ED94D3
:10142000F4EC94014039E4FFEF25E025E02400F5D9
:1014300082E43400F583E4F0EF25E025E02401F5B3
:1014400082E43400F583E004F0EF25E025E0240297
:10145000F582E43400F583E4F00FEFB40CCA229077
:101460000038E0FCA3E0FDC394E8EC94035042C3D1
:10147000ED94EEEC94024039E4FFEF25E025E02402
:1014800000F582E43400F583E4F0EF25E025E02464
:1014900001F582E43400F583E014F0EF25E025E067
:1014A0002402F582E43400F583E4F00FEFB40CCAB3
:1014B00022900038E0FCA3E0FDC394E2EC940450D9
:1014C00042C3ED94E8EC94034039E4FFEF25E025B6
:1014D000E02400F582E43400F583E4F0EF25E02514
:1014E000E02401F582E43400F583E4F0EF25E02503
:1014F000E02402F582E43400F583E004F00FEFB459
:101500000CCA22900038E0FCA3E0FDC394DCEC940C
:10151000055041C3ED94E2EC94044038E4FFEF251C
:10152000E025E02400F582E43400F583E4F0EF25C3
:10153000E025E02401F582E43400F583E4F0EF25B2
:10154000E025E02402F582E43400F583E014F00F96
:10155000EFB40CCA22122B6CEFD3947A4072EF24B2
:1015600086FCC3940350057D320215F5ECC3940349
:101570004009EC940A50047D64807AECC3940A40DC
:1015800009EC940D50047D7D806BECC3940D4009F3
:10159000EC941150047D96805CECC394114009ECEE
:1015A000941450047DAF804DECC394144009EC9426
:1015B0001750047DC8803EECC394174009EC941A80
:1015C00050047DE1802FECC3941A40297DFA8025D8
:1015D000C3747A9FFCC3940350047D328017ECC31C
:1015E00094034009EC940A50047D198008ECC394DC
:1015F0000A4002E4FD90006EE004F0E0B40702E46B
:10160000F090006EE0FF7017FEEE25E025E024006C
:10161000F582E43400F583EDF00EEEB40CEB22EF2E
:10162000B40118E4FEEE25E025E02401F582E4345F
:1016300000F583EDF00EEEB40CEB2290006EE0FFAF
:10164000B40218E4FEEE25E025E02402F582E4343D
:1016500000F583EDF00EEEB40CEB22EF640370277F
:10166000FEEE25E025E02401F582E43400F583ED6B
:10167000F0EE25E025E02402F582E43400F583ED68
:10168000F00EEEB40CDB2290006EE0FF64047027D5
:10169000FEEE25E025E02402F582E43400F583ED3A
:1016A000F0EE25E025E02400F582E43400F583ED3A
:1016B000F00EEEB40CDB22EF64057027FEEE25E0A1
:1016C00025E02400F582E43400F583EDF0EE25E01A
:1016D00025E02401F582E43400F583EDF00EEEB44C
:1016E0000CDB2290006EE064067036FEEE25E025ED
:1016F000E02400F582E43400F583EDF0EE25E025EA
:10170000E02401F582E43400F583EDF0EE25E025D8
:10171000E02402F582E43400F583EDF00EEEB40C23
:10172000CB2290006DE004F0E0B40702E4F0E4FFA7
:10173000EF25E025E02400F582E43400F583E4F0B1
:10174000EF25E025E02401F582E43400F583E4F0A0
:10175000EF25E025E02402F582E43400F583E4F08F
:101760000FEFB40CCB90006DE0FE703AFFEF25E078
:1017700025E02401F582E43400F58374FFF0EF25C1
:10178000E025E02400F582E43400F58374FFF0EFF7
:1017900025E025E02402F582E43400F58374FFF0AF
:1017A0000FEFB40CC822EEB40119E4FFEF25E025D9
:1017B000E02400F582E43400F58374FFF00FEFB409
:1017C0000CEA2290006DE0FEB40219E4FFEF25E080
:1017D00025E02401F582E43400F58374FFF00FEF77
:1017E000B40CEA22EE64037029FFEF25E025E02423
:1017F00001F582E43400F58374C9F0EF25E025E0BB
:101800002402F582E43400F5837457F00FEFB40C32
:10181000D92290006DE0FE6404703AFFEF25E025C8
:10182000E02402F582E43400F58374E6F0EF25E06D
:1018300025E02401F582E43400F58374E0F0EF251F
:10184000E025E02400F582E43400F58374B0F00F65
:10185000EFB40CC822EEB40519E4FFEF25E025E053
:101860002401F582E43400F58374FFF00FEFB40C2B
:10187000EA2290006DE064067039FFEF25E025E074
:101880002401F582E43400F58374C0F0EF25E025EF
:10189000E02400F582E43400F58374FFF0EF25E0E6
:1018A00025E02402F582E43400F58374CBF00FEFD9
:1018B000B40CC822900142E07004A3E064017009F6
:1018C0002001030219AEB28122900142E07004A30C
:1018D000E064027027B20130011390006F04F0E061
:1018E000FF122AC7D20090016C7401F022C281C29B
:1018F00000122C3DE490006FF0021989900142E043
:101900007004A3E0640470172001030219AE900074
:101910006FE004F0E0B40B02E4F090006F806A9096
:101920000142E07004A3E06408701720000302196C
:10193000AE90016CE070037405F090016CE014F05F
:101940008069900142E07004A3E06410700A7E0197
:101950007F5512290FD28322900142E07004A3E048
:101960006420700A7E017F5012290FD282229001DA
:1019700042E07004A3E06440701490006FE004F053
:10198000E0B40B02E4F090006FE0FF022AC7900180
:1019900042E07004A3E064807003B28122900142AF
:1019A000E0B4010AA3E0B40005B200122C3D2212FB
:1019B0002209EFF4FFEEF45401FE900148E0FDA38C
:1019C000E0900145CDF0A3EDF0900148EEF0A3EFDB
:1019D000F0900145E0FEA3E0FF900148E06EFEA319
:1019E000E06FFF900145E05EFEA3E05FFF900142E3
:1019F000E06EF0A3E06FF0900145E0FEA3E0FF9001
:101A00000148E06EFEA3E06FFF900148E06EFEA388
:101A1000E06FFF900140E06EFEA3E06F4E603890F3
:101A2000013EE475F001120D4DFED3E5F09464EE35
:101A300094004012900148E0FEA3E0FF900140E0D6
:101A40004EF0A3E04FF0D390013FE0941490013E9C
:101A5000E09400402D8019E490013EF0A3F0900145
:101A600048E0FEA3E0FF900140E05EF0A3E05FF0FD
:101A7000900148E0FEA3E0FF900142E05EF0A3E0A9
:101A80005FF022900138EEF0A3EFF0F5828E83E054
:101A900064417023900138E0FEA3E0FFF5828E835D
:101AA000A3E024D075F00AA4FD8F828E83A3A3E067
:101AB00024D02DFF022AC7900138E0FEA3E0FFF5F5
:101AC000828E83E0B4420BA3E024D090016CF0023C
:101AD0002C3D900138E0FEA3E0FFF5828E83E0B458
:101AE0004309AA06A9077B01021DA4900138E0FE64
:101AF000A3E0F5828E83E0B44408A3E024D0FF0283
:101B00002AA5900138E0FEA3E0FFF5828E83E0B4C1
:101B10004517A3E024D075F00AA4FD8F828E83A31D
:101B2000A3E024D02DFF022B1C900138E0FEA3E09F
:101B3000FFF5828E83E0B44617A3E024D075F00A47
:101B4000A4FD8F828E83A3A3E024D02DFF122C1A34
:101B500022900121EFF0A3ECF0A3EDF043BA8090C6
:101B60000121E0FFA3E0FAA3E0FBF5828A83E0FC19
:101B7000A3E0FD8B828A83A3A3E0FAA3E0FB1228F3
:101B800044900122E0FEA3E0FF2406F582E43EF546
:101B900083E025E025E05404FDEF2405F582E43ED2
:101BA000F583E054084DFF900122E0FCA3E0FD2402
:101BB00008F582E43CF583E025E054024FFFED2474
:101BC00007F582E43CF583E054014FFF900121E0EA
:101BD000FE25E024B2F582E4342EF583E493FC7410
:101BE0000193F5828C83EFF053BA7F7401A8060845
:101BF0008002C333D8FCF452F1900122E0FEA3E04E
:101C00002404F582E43EF583E05401FF900121E0D5
:101C1000FEEFA806088002C333D8FC42F122E4FF9D
:101C2000EF25E025E02400F582E43400F583E4F0BC
:101C3000EF25E025E02401F582E43400F583E4F0AB
:101C4000EF25E025E02402F582E43400F583E4F09A
:101C50000FEFB40CCB9001667401F0A3F090003646
:101C60007405F0E490006CF090000174FFF09000B7
:101C700000F0900002F0900004F0900009F0900055
:101C80000D74C9F0A37457F090001274E6F0900040
:101C90001174E0F090001074B0F090001574FFF033
:101CA00090001974C0F090001874FFF090001A743E
:101CB000CBF090001D74FFF090001CF090001EF01F
:101CC000900020F0900025F090002974C9F0A374D2
:101CD00057F090002E74E6F090002D74E0F0900024
:101CE0002C74B0F022900035E004F07006900034BF
:101CF000E004F0C3900035E094F4900034E09401E7
:101D00004004E4F0A3F0900034E0FCA3E0FDC394B1
:101D1000FAEC9400503BE4FFEF25E025E02400F5C9
:101D200082E43400F583E004F0EF25E025E02401AF
:101D3000F582E43400F583E004F0EF25E025E024AB
:101D400002F582E43400F583E004F00FEFB40CC830
:101D500022C3ED94F4EC94015049C3900035E09413
:101D6000FA900034E09400403AE4FFEF25E025E0EB
:101D70002400F582E43400F583E014F0EF25E0253B
:101D8000E02401F582E43400F583E014F0EF25E06F
:101D900025E02402F582E43400F583E014F00FEF2F
:101DA000B40CC8229000367401F0900166F0E4A3F0
:101DB000F0FF900002120CEC24D075F00AA4FE9003
:101DC0000001120CEC24D075F064A42EFE900003E8
:101DD000120CEC24D02EFEEF25E025E02400F58245
:101DE000E43400F583EEF0900005120CEC24D0757D
:101DF000F00AA4FE900004120CEC24D075F064A448
:101E00002EFE900006120CEC24D02EFEEF25E025CD
:101E1000E02401F582E43400F583EEF0900008122E
:101E20000CEC24D075F00AA4FE900007120CEC24F0
:101E3000D075F064A42EFE900009120CEC24D02E74
:101E4000FEEF25E025E02402F582E43400F583EE80
:101E5000F00FEF640C6003021DB2022A51C2AF12F0
:101E60002CA0122A25D2AF53C17F43C11090016B21
:101E7000E030E2121229F8122C07122AE590016BC9
:101E8000E054FBF080E190016BE030E30C122C4D4C
:101E900090016BE054F7F080CE90016BE030E11FD1
:101EA0007E007FD2122534500790016BE04408F089
:101EB00012000E122CB590016BE054FDF080A8903A
:101EC000016BE030E015C200122C3DE4FF122AC77E
:101ED00090016BE054FEF0D2A8808C90016BE03052
:101EE000E485E490016CF0122C3D90016BE054EF1E
:101EF000F0021E67787FE4F6D8FD758120021F3B53
:101F0000021E5DE493A3F8E493A34003F68001F27C
:101F100008DFF48029E493A3F85407240CC8C333E2
:101F2000C4540F4420C8834004F456800146F6DFB1
:101F3000E4800B0102040810204080901F80E47EA2
:101F4000019360BCA3FF543F30E509541FFEE493A6
:101F5000A360010ECF54C025E060A840B8E493A36D
:101F6000FAE493A3F8E493A3C8C582C8CAC583CA98
:101F7000F0A3C8C582C8CAC583CADFE9DEE780BE50
:101F8000C10241015F04410165C8450160000F1EA7
:101F90003C5A42016A0000420145000042014800EB
:101FA000004201420000420140000042014A00009C
:101FB00042013E0000410154144101470A410144DD
:101FC0000A41006F004100360041003109410032F2
:101FD00009C18341003000410037004100710041D8
:101FE0000033004100700041006C004200380000E6
:101FF00042003A0000420034000041006D00410000
:102000006E00C100C101C104009001667401F0A31B
:10201000F09000367404F0E4900070F0FFEF25E0DB
:1020200025E02401F582E43400F583E4F0EF25E0B7
:1020300025E02400F582E43400F583E4F0EF25E0A8
:1020400025E02402F582E43400F583E4F00FEFB4D8
:102050000CCB90000074FFF0900005F09000097424
:10206000C9F0A37457F090000E74E6F090000D7460
:10207000E0F090000C74B0F090001274FFF090004B
:102080001574C0F090001474FFF090001674CBF03B
:102090002290013B7480F0900001120CECFEE4FDF4
:1020A00090013BE05EFCC41313135401FFB401051F
:1020B000122BB38003122B85EE25E0FE0DEDB40844
:1020C000DF120CD3FEE4FD90013BE05EC41313135A
:1020D0005401FFB40105122BB38003122B85EE25AA
:1020E000E0FE0DEDB408E0900002120CECFEE4FD01
:1020F00090013BE05EC41313135401FFB4010512B9
:102100002BB38003122B85EE25E0FE0DEDB408E025
:102110002290013BEFF0A3ECF0A3EDF04C6008ED52
:10212000B50320ECB5021C90013BE0FF7401A80749
:10213000088002C333D8FCF452F5EC4D24FF92051D
:10214000022B0190013CE0FEA3E0FFC006C007E4C3
:10215000F9F87FC07E5DFDFC122889AD07AC06D082
:1021600007D006120D3B90013CEEF0A3EFF090017A
:102170003BE0FF7401A807088002C333D8FC42F596
:1021800090013CE0FAA3E0FBE4FDFC12284422C0ED
:10219000E0C083C082C0D075D000C00730982DC287
:1021A000989000D7E070259000D5E0C394204002BD
:1021B000E4F09000D5E0FF04F074722FF582E4346F
:1021C00000F583E599F09000D67402F030992FC2A3
:1021D000999000D3E0FF9000D2E06F601CE0249261
:1021E000F582E43400F583E0F5999000D2E004F044
:1021F000C394404009E4F080059000D4E4F0D00797
:10220000D0D0D082D083D0E032E4FE25E0FFEE33A0
:10221000FEA2B5E433FDEF4D25E0FFEE33FEA2B4A0
:10222000E433FDEF4D25E0FFEE33FEA2B3E433FDD2
:10223000EF4D25E0FFEE33FEA2A5E433FDEF4D2583
:10224000E0FFEE33FEA2A6E433FDEF4D25E0FFEE06
:1022500033FEA2A7E433FDEF4D25E0FFEE33FEA2EF
:1022600080E433FDEF4D25E0FFEE33FEA292E43330
:10227000FDEF4D25E0FFEE33FEA291E433FDEF4D7F
:10228000FF22900118EEF0A3EFF0F5828E83E0FFBD
:102290007011900118E0FCA3E0F5828C83A3E0703C
:1022A00002C322900118E0FCA3E0F5828C83A3E036
:1022B00014F07041EF7027900118E0FEA3E0FFF5E5
:1022C000828E83A3A3E0FCA3E04C60108F828E83F8
:1022D000A3A3E0FEA3E0AA06F9120DB1D322900158
:1022E00018E0FEA3E0FFF5828E83E014F08F828E6B
:1022F00083A37432F0C322900140E07004A3E06431
:1023000080701790014AE07002A3E0700D7E017F9B
:10231000597B06FD122912D28122900140E07004FF
:10232000A3E064107017900147E07033740AF07EE8
:10233000017F557B06E4FD122912D28322900140D1
:10234000E07004A3E064207016900144E070107403
:102350000AF07E017F507B06E4FD122912D2822210
:102360009001667401F0A3F09000367403F0E490DD
:102370000071F0900033F0FF900033E0B5071225B4
:10238000E025E02400F582E43400F58374FFF0805A
:1023900010EF25E025E02400F582E43400F583E425
:1023A000F0EF25E025E02401F582E43400F583E434
:1023B000F0EF25E025E02402F582E43400F583E423
:1023C000F00FEFB40CB222C0E0C083C082C0D07561
:1023D000D00890016BE04402F090015FE014F070CF
:1023E0000D90016BE04404F090015F7404F0300242
:1023F0002D900165E014F0702590015EE014F0B4BA
:10240000FF16743BF090015DE0FF14F0EF7009C21D
:102410000290016BE04401F090016574C8F0D0D0E7
:10242000D082D083D0E032900138EBF0A3EAF0A361
:10243000E9F09000D5E0601CE0FF7E00900138E0FC
:10244000FBA3E0FAA3E0F8AC02AD037B017A0079CC
:1024500072120CAD900138E0FBA3E0FAA3E0F99012
:1024600000D5E0F582758300E4120D197E007F200F
:102470007D007B017A007972120DB7E49000D5F0EF
:102480009000D7F022E490011DF090011CF0900123
:102490001EF0900118F0A304F0E4A3F0A3F0900163
:1024A0001FF0A3F07C017D187F01121B51E4900105
:1024B0001DF07C017D187F05121B517DC07C5DE401
:1024C000FF122BC95395F743960853917F4392808F
:1024D0005395FD43960243F58053F5BF2290016664
:1024E0007401F0A3F090003604F0E4900030F09016
:1024F0000037F0FFEF25E025E02401F582E4340009
:10250000F583E4F0EF25E025E02400F582E43400D3
:10251000F583E4F0EF25E025E02402F582E43400C1
:10252000F583E4F00FEFB40CCB90000074FFF09053
:10253000002CF0228F828E83A3A3A3E07002C3221B
:10254000EF2404F582E43EF583E0601AEF2404F5FD
:1025500082E43EF583E014F0700CEF2405F582E48C
:102560003EF5837401F0EF2404F582E43EF583E048
:10257000700CEF2405F582E43EF5837401F0EF243E
:1025800005F582E43EF583E024FF22900167E060D8
:1025900045900036E075F003A424F7F582E4342D6D
:1025A000F583E493FB740193FA740293F99000327B
:1025B000E075F002A4F58285F083120D63FFE5F06B
:1025C000C313FEEF13FFC3900169E09F900168E021
:1025D0009E400A02294FE4900168F0A3F022E4FF34
:1025E000EF25E025E02400F582E43400F583740152
:1025F000F0EF25E025E02401F582E43400F5837452
:1026000001F0EF25E025E02402F582E43400F583B3
:102610007401F00FEFB40CC89001667401F0A3F0E0
:102620009000367407F0E490003AF0A3F0227E00A8
:102630007F407D007B017A007992120DB77E007F8A
:10264000207D007B017A007972120DB77E007FD267
:102650001229CAE598543F4440F598438E01D2AC04
:10266000439810E5A2543F4440F5A253B17F53B2C2
:102670007F53B1BF53B2BF5397EF022B37E4FFEF45
:1026800025E025E02400F582E43400F5837401F0B0
:10269000EF25E025E02401F582E43400F583E4F041
:1026A000EF25E025E02402F582E43400F583E4F030
:1026B0000FEFB40CCA9001667401F0A3F0900036DD
:1026C0007406F0E4900038F0A3F022E4FFEF25E078
:1026D00025E02400F582E43400F5837401F0EF2551
:1026E000E025E02401F582E43400F5837401F0EF85
:1026F00025E025E02402F582E43400F5837401F03E
:102700000FEFB40CC89001667401F0A3F0E49000E0
:1027100034F0A3F0A37408F022E4FFEF25E025E0F5
:102720002400F582E43400F58374FFF0EF25E02502
:10273000E02401F582E43400F58374FFF0EF25E036
:1027400025E02402F582E43400F58374FFF00FEFF6
:10275000B40CC89001667401F0A3F09000367409BF
:10276000F0E490006DF022E4FFEF25E025E0240086
:10277000F582E43400F58374FFF0EF25E025E024D2
:1027800001F582E43400F58374FFF0EF25E025E0E5
:102790002402F582E43400F58374FFF00FEFB40CEB
:1027A000C89001667401F0A3F0900036740AF0E45A
:1027B00090006EF0229001667401F0E4A3F09000A6
:1027C0003604F0E4FFEF25E025E02400F582E43450
:1027D00000F5837480F0EF25E025E02401F582E424
:1027E0003400F5837480F0EF25E025E02402F582C3
:1027F000E43400F5837480F00FEFB40CC82290012C
:102800003AEFF0BF04047D5F801F90013AE0B4030B
:10281000047D5A801490013AE0B402047D5080098E
:1028200090013AE0B4010B7D467F05122C867D6451
:10283000800C90013AE0700B53F5DFC297FD7F01E9
:10284000122C8622A90743BA80AE04AF05E925E021
:10285000249AF582E4342EF583E493FC740193F515
:10286000828C83EEF0A3EFF0AF03E925E024A6F518
:1028700082E4342EF583E493FC740193F5828C8317
:10288000EAF0A3EFF053BA7F22C2D5E830E70FB2E7
:10289000D5E4C39BFBE49AFAE499F9E498F8EC30A8
:1028A000E717B2D51228BF120E1FE4C39BFBE49AB0
:1028B000FAE499F9E498F88003120E1F30D50DE47C
:1028C000C39FFFE49EFEE49DFDE49CFC22E4900196
:1028D00066F0A3F0900036F0FFEF25E025E024003D
:1028E000F582E43400F583E4F0EF25E025E02401EF
:1028F000F582E43400F583E4F0EF25E025E02402DE
:10290000F582E43400F583E4F00FEFB40CCB227BC6
:1029100006FD900118EEF0A3EFF0EB701AED14FF36
:10292000900118E0FCA3E0FDF5828C83EFF08D822E
:102930008C83A37432F022AF05900118E0FCA3E071
:10294000FDF5828C83EFF08D828C83A3EBF02290D7
:102950000036E025E02444F582E4342EF58374014A
:10296000937002E493601B900036E025E02444F568
:1029700082E4342EF583E493FE740193AA06F912DF
:102980000DB1122A51E4900168F0A3F022439102A4
:102990005392FD4391045392FB4393015394FE439E
:1029A00095C053963F43B10853B2F743B11053B2A9
:1029B000EF43B12053B2DF5393F143940E4391019F
:1029C0005392FEC281C282C283228F828E83E4F040
:1029D000A3F08F828E83A3A3F08F828E83A3A3A301
:1029E000F0EF2404F582E43EF583E4F0EF2405F5EE
:1029F00082E43EF583E4F0221219AF900142E070C8
:102A000002A3E060031218B4900140E07002A3E05A
:102A100060031222F7900140E0FFA3E090014ACF4B
:102A2000F0A3EFF0227E017F557C007D06122BF390
:102A30007E017F507C2C7DAC122BF37E017F4C7C81
:102A40002C7DAF122BF37E017F597C2C7DB2022BA3
:102A5000F3E490013AF090013AE0FFC3940C501A6D
:102A6000EF75F004A42400F9740035F0FA7B01122C
:102A7000209190013AE004F080DC22900036E025BD
:102A8000E02418F582E4342EF583E493FE74019378
:102A9000FF4E6007AA06A907120DB1E4900168F085
:102AA000A3F0022A5174602FF582E43401F583E02B
:102AB000FF7003C20222D20290016574C8F0900137
:102AC0005DEFF0E4A3F022EFD3940A4003D380013A
:102AD000C34011900036E06F600AEFF0E090006FA5
:102AE000F0122A7B227E017F551222827E017F50C6
:102AF0001222827E017F4C1222827E017F590222A5
:102B000082EFB40105A20592A122EFB40305A2054C
:102B100092A322EFB40504A205929722EF6017D387
:102B200094104003D38001C3400CE4FE900033EFC7
:102B3000F00EEEB40CF622200417538EEF538EF7EE
:102B4000438E0475D7CC75D6FF53AFFB438E10D29E
:102B50000422122BDF12298D122C90122485122CA4
:102B60006CC2A3122C99122C5D02262E43BC0800C5
:102B7000000000E5BC30E4FB53BCEFE5BD25E025DB
:102B8000E045BEFF22D2A3000000000000C2A30067
:102B9000000000000000000000000022C0E0C08330
:102BA000C08220B20790016BE04410F0D082D08345
:102BB000D0E032D2A30000000000000000000000BE
:102BC00000C2A300000000002243BA8090FFF2EF91
:102BD000F0AF0590FFF0ECF0A3EFF053BA7F225373
:102BE0008E7F5389FB5389FC758CD8758AF0D2A9E6
:102BF000D28C228F828E83E4F0A3F08F828E83A307
:102C0000A3ECF0A3EDF022900147E06003E014F0A4
:102C1000900144E06003E014F022EFD394104003ED
:102C2000D38001C34005900032EFF022E4900166AA
:102C3000F0A3F0A3F0A3F01228CD022A5130000730
:102C400090016CE0FF8002E4FF1227FE227B017AF4
:102C50000179181224277E017F18021A83439D01EF
:102C60005397DFE4F5BDF5BE75BCE022E4FD7F05BA
:102C7000122C86E4FD7F01022C869001677401F01E
:102C8000E4A3F0A3F022ED7C007B647A0002211122
:102C9000C20090016C7404F022D2B2D288D2A82271
:102CA000122B52022CA6122C7A022C2CC28222C287
:102CB0008122C2812202258B022A51022A51022A34
:102CC00051022A51022A51022A51022A51022A5142
:102CD000022A51022A512200A00096008C00820094
:102CE00078006E0064005A00500046003C0032003C
:102CF00028001E0014000A00A00096008C0082002C
:102D000078006E0064005A00500046003C0032001B
:102D100028001E0014000A0140012C0118010400C3
:102D2000F000DC00C800B400A0008C007800640053
:102D300050003C002800140140012C01180104003F
:102D4000F000DC00C800B400A0008C007800640033
:102D500050003C002800140020001E001C001A0037
:102D6000180016001400120010000E000C000A00DB
:102D7000080006000400020020001E001C001A00CB
:102D8000180016001400120010000E000C000A00BB
:102D9000080006000400020020001E001C001A00AB
:102DA000180016001400120010000E000C000A009B
:102DB000080006000400020140012C011801040073
:102DC000F000DC00C800B400A0008C0078006400B3
:102DD00050003C00280014001E001E001E001E00B3
:102DE0001E001E001E001E001E001E001E001E00F3
:102DF0001E001E001E001E000000000000FF2CD759
:102E0000FF2CF7FF2D17FF2D37FF2D57FF2D77FFD5
:102E10002D97FF2DB7FF2DD728CD27B524DD2360B3
:102E200020091C1E267D25DE26CB271927670009D1
:102E30002CB82CBB2CBE2CC12CC42CC72CCA2CCD1E
:102E40002CD02CD3000A2CD609020EB11125050B6B
:102E5000135200261CE51722155500000000000043
:102E60000000000000000000000000000000000062
:102E70000000000000000000000000000000000052
:102E80000000000000000000000000000000000042
:102E900000000000000000000000FF00FF10FF2005
:102EA000FF30FF40FF50FF02FF12FF22FF32FF42C0
:0E2EB000FF52FF04FF14FF24FF34FF44FF54C1
:00000001FF
